:100000009CEF2CF00000000000EF00F0000000006A
:0A0010000000000000000000F3D71C
:10001C0092C6D5FE0E01D8B102D00000FBD7D5CECA
:04002C0000F01200CE
:1000300092C691FF94B002D00000FCD791CF00F09F
:020040001200AC
:0800420091C692F6F4DF1200F2
:08004A0091C692F6F0DF1200EE
:0800520091C692F6E2DF1200F4
:08005A0091C692F6DEDF1200F0
:1000620090C691FF94B002D00000FCD791CF00F06F
:0200720012007A
:1000740090C6D5FE0E01D8B102D00000FBD7D5CE74
:0400840000F0120076
:100088000E01E1B302D00000FBD790C6DDFE1200DE
:0E0098009DB202D00000FCD790C699FF120066
:1000A600F250026EF29E0500FF6A0150FE6E00508D
:0800B600FD6E02BEF28E120085
:1000BE000E01F6B302D00000FBD790C6F2FE12007E
:1000CE000E01E8B302D00000FBD790C6E4FE12008A
:1000DE000E01EFB302D00000FBD790C6EBFE12006C
:0800EE0087C690F6F5DF120051
:1000F600030E06018725E96E000E8821EA6EEECF13
:1001060009F0000E0A6E0B6E0C6E000E0A6E0B6E78
:100116000C6E0BC003F00AC002F009C001F0006AC1
:1001260000C009F001C00AF002C00BF003C00CF0D9
:10013600020E8725D96E000E8821DA6EDE50002465
:10014600056E000E0120066E000E0220076E000EE0
:100156000320086E05C009F006C00AF007C00BF0C0
:1001660008C00CF007C003F006C002F005C001F09D
:10017600006A00C009F001C00AF002C00BF003C01B
:100186000CF0010E8725D96E000E8821DA6EDE503E
:100196000024056E000E0120066E000E0220076E7A
:1001A600000E0320086E05C009F006C00AF007C05D
:1001B6000BF008C00CF007C003F006C002F005C043
:1001C60001F0006A00C009F001C00AF002C00BF09D
:1001D60003C00CF087C6D9FF88C6DAFFDE500026BA
:1001E600000E01220222032200C009F001C00AF01B
:1001F60002C00BF003C00CF000C009F001C00AF009
:0A02060002C00BF003C00CF0120060
:0802100087C690F664DF1200BE
:0802180087C690F635DF1200E5
:0802200087C690F654DF1200BE
:0802280087C690F650DF1200BA
:0802300087C690F644DF1200BE
:0802380087C690F62DDF1200CD
:100240007C80CBC0E1FFCCC0E2FFFF0EE66EC9C0F0
:0A02500000F0CAC001F027DF120021
:10025A00CBC0E1FFCCC0E2FFFF0EE66EC9C000F0E2
:10026A00CAC001F01BDF0050FE0A01E0F1D71200FC
:10027A00010E06018725E96E000E8821EA6EEECF8F
:10028A0003F0000E046E000E046E03C001F0006A53
:10029A0000C003F001C004F087C6D9FF88C6DAFFA0
:1002AA00DE500026000E012200C003F001C004F057
:0A02BA0000C003F001C004F01200C0
:0802C40087C690F6FADE120075
:0802CC0087C690F6E3DE120084
:0802D40087C690F6D7DE120088
:1002DC0006018751200A09E087510D0804E3090E35
:1002EC00875D01E302D0006A02D0010E006E12009D
:0802FC0087C690F6B9DE12007E
:1003040087C6E9FF88C6EAFFEE5211E087C6E9FF17
:1003140088C6EAFF89C6D9FF8AC6DAFFEE50DE181E
:1003240006E10601874B882B894B8A2BE9D787C6C0
:10033400E9FF88C6EAFF89C6D9FF8AC6DAFFDE501C
:0C034400EE5C006E016A000E015A12000F
:040350007C9012008B
:10035400400E06018725006ECBC0E1FFCCC0E2FF52
:1003640000C0E6FFC9C000F0CAC001F09ADECBC0ED
:10037400E1FFCCC0E2FF8BC6E6FFC9C000F0CAC0F3
:1003840001F08FDECBC0E1FFCCC0E2FF8AC6E6FFFE
:10039400C9C000F0CAC001F084DECBC0E1FFCCC00C
:1003A400E2FF89C6E6FFC9C000F0CAC001F079DEE9
:1003B400CBC0E1FFCCC0E2FF88C6E6FFC9C000F0B5
:1003C400CAC001F06EDECBC0E1FFCCC0E2FF8CC638
:1003D400E6FFC9C000F0CAC001F063DE06018E6BFF
:1003E4008F6BCBC0E1FFCCC0E2FFFF0EE66EC9C04D
:1003F40000F0CAC001F055DE00C08DF606018E4B38
:100404008F2B800E0014016E0150000A07E0000ECD
:100414008F5D02E1640E8E5D01E2E3D78DC600F0CC
:020424001200C4
:1004260087C602F088C603F08AC600F08BC601F0C4
:10043600010E06018A5F000E8B5B0050011009E079
:1004460002C0E1FF03C0E2FF89C6E6FF024A032AB3
:0C045600EBD787C600F088C601F012004A
:1004620089C604F08AC605F087C602F088C603F082
:100472008BC600F08CC601F0010E06018B5F000EE8
:100482008C5B005001100FE004C0E9FF05C0EAFFD9
:1004920002C0E1FF03C0E2FFEECFE6FF024A032AF9
:1004A200044A052AE5D787C600F088C601F0120083
:0804B20087C690F6D5DD1200AB
:0804BA0087C690F6D1DD1200A7
:0804C20087C690F6D6DD12009A
:1004CA00CBC0E1FFCCC0E2FF4C0EE66EC9C000F023
:1004DA00CAC001F0E3DDCBC0E1FFCCC0E2FFE66AAF
:1004EA00C9C000F0CAC001F0D9DDCBC0E1FFCCC061
:1004FA00E2FFE66AC9C000F0CAC001F0CFDDCBC096
:10050A00E1FFCCC0E2FFE66AC9C000F0CAC001F050
:10051A00C5DDCBC0E1FFCCC0E2FFE66AC9C000F08E
:10052A00CAC001F0BBDDCBC0E1FFCCC0E2FFFF0EC9
:10053A00E66EC9C000F0CAC001F0B0DD0601776BF3
:10054A00786BCBC0E1FFCCC0E2FFFF0EE66EC9C0FC
:10055A0000F0CAC001F0A2DD00C076F60601774BB2
:10056A00782B800E0014016E0150000A07E0000E7D
:10057A00785D02E1640E775D01E2E3D776AF04D0DD
:10058A005ADE76C600F012D0CBC0E1FFCCC0E2FF43
:10059A00FF0EE66EC9C000F0CAC001F07FDD00C0E0
:0E05AA0076F60050000AF0E046DE006A12000D
:1005B800CBDE000E000A02E1040E2B1809E176C614
:1005C8007EF677C67FF678C680F679C681F614D0AF
:1005D800090E006E76C67EF677C67FF678C680F678
:1005E80079C681F6005008E006017E377E917F3794
:1005F80080378137FF0FF7D70601180E876F7EC641
:1006080088F67FC689F680C68AF681C68BF6FF0E05
:100618008C6F9CDE005204E00FDE010E006E8BD062
:10062800CBC0E1FFCCC0E2FFFF0EE66EC9C000F010
:10063800CAC001F034DDCBC0E1FFCCC0E2FFFF0E41
:10064800E66EC9C000F0CAC001F029DDCBC0E1FFE9
:10065800CCC0E2FFFE0EE66EC9C000F0CAC001F0D1
:100668001EDD06017C6B7D6B7D51010802E17C512A
:10067800FF0815E37C517A25E96E7D517B21EA6EEE
:10068800CBC0E1FFCCC0E2FFEECFE6FFC9C000F06F
:10069800CAC001F004DD06017C4B7D2BE5D7CBC039
:1006A800E1FFCCC0E2FFFF0EE66EC9C000F0CAC091
:1006B80001F0F5DCCBC0E1FFCCC0E2FFFF0EE66E37
:1006C800C9C000F0CAC001F0EADCCBC0E1FFCCC071
:1006D800E2FFFF0EE66EC9C000F0CAC001F0DFDC21
:1006E80000C07CF6000E06017D6F1F0E7C15016EA2
:1006F8007DC602F0000E021601C07CF602C07DF62F
:10070800000E021802E1050E011804E095DD020E44
:10071800006E11D0CBC0E1FFCCC0E2FFFF0EE66E49
:10072800C9C000F0CAC001F0BADC0050FF0A01E0FD
:08073800F1D782DD006A120016
:1007400007DE000E000A02E1040E2B1809E176C64E
:100750007EF677C67FF678C680F679C681F614D025
:10076000090E006E76C67EF677C67FF678C680F6EE
:1007700079C681F6005008E006017E377E917F370A
:1007800080378137FF0FF7D70601110E876F7EC6BE
:1007900088F67FC689F680C68AF681C68BF6FF0E7C
:1007A0008C6FD8DD005204E04BDD010E006E4BD0A3
:1007B000CBC0E1FFCCC0E2FFFF0EE66EC9C000F087
:1007C000CAC001F070DC0050FE0A01E0F1D706015A
:1007D0007C6B7D6B020E7D5D02E1000E7C5D1BE299
:1007E0007C517A25826F7D517B21836FCBC0E1FFE5
:1007F000CCC0E2FFFF0EE66EC9C000F0CAC001F037
:1008000052DC82C6E1FF83C6E2FF00C0E6FF0601BC
:100810007C4B7D2BDFD7CBC0E1FFCCC0E2FFFF0ECE
:10082000E66EC9C000F0CAC001F03DDCCBC0E1FFFC
:10083000CCC0E2FFFF0EE66EC9C000F0CAC001F0F6
:0808400032DCFEDC006A12004C
:1008480008DD0601786B796B020E795D02E1000E16
:10085800785D1BE2785176257A6F795177217B6F25
:10086800CBC0E1FFCCC0E2FFFF0EE66EC9C000F0CE
:10087800CAC001F014DC7AC6E1FF7BC6E2FF00C003
:10088800E6FF0601784B792BDFD7CBC0E1FFCCC060
:10089800E2FFFF0EE66EC9C000F0CAC001F053ECDB
:1008A80000F0CBC0E1FFCCC0E2FFFF0EE66EC9C08E
:0C08B80000F0CAC001F053EC00F0120088
:1008C40045DD000E000A02E1040E2B1809E176C68C
:1008D4007AF677C67BF678C67CF679C67DF614D0B0
:1008E400090E006E76C67AF677C67BF678C67CF675
:1008F40079C67DF6005008E006017A377A917B3795
:100904007C377D37FF0FF7D70601120E876F7AC643
:1009140088F67BC689F67CC68AF67DC68BF6FF0E02
:100924008C6F16DD005204E089DC010E006E01D0EC
:04093400006A120043
:100938000B6A0A6A096A00500402F4CF09F0F3CF7F
:1009480008F001500502F4CF0BF0F3CF0AF0005085
:100958000502F3500926F4500A22E86A0B220150D6
:100968000402F3500926F4500A22E86A0B2208C050
:1009780000F009C001F00AC002F00BC003F0120039
:10098800780E0601836F060E846F76C685F677C6E5
:1009980086F6780E876F060E886F200E896F0B0E0D
:1009A8008A6F000E8B6F3BDD76C6E9FF77C6EAFFDC
:1009B800EE520CE076C6E9FF77C6EAFFEECF87F67F
:1009C80089DC005203E0764B772BEED776C687F6A4
:1009D80077C688F6A00E896F000E8A6F8FDC000E2E
:1009E800011802E1000E001806E12E0E0601786FCC
:1009F8002E0E796F5ED0060176C687F677C688F622
:100A08009E0E896F000E8A6F79DC000E011802E1D4
:100A1800000E001804E12E0E0601786F4AD076C643
:100A2800E9FF77C6EAFFEE521FE076C6E9FF77C610
:100A3800EAFFEECF87F64EDC005216E176C6E9FFF4
:100A480077C6EAFFEE502E0A0FE076C6E9FF77C6B2
:100A5800EAFF83C6E1FF84C6E2FFEECFE6FF834BE1
:100A6800842B764B772BDBD776C6E9FF77C6EAFF70
:100A7800EE502E0A03E10601764B772B0601800E15
:100A8800836F060E846F76C6E9FF77C6EAFFEE50DD
:100A980020080FE276C6E9FF77C6EAFF83C6E1FFC2
:100AA80084C6E2FFEECFE6FF834B842B764B772B91
:100AB800EAD785C687F686C688F6780E896F060E49
:0E0AC8008A6F0B0E8B6F000E8C6FC7DC120056
:100AD600086A096A100E0C6E01340836093604508D
:100AE600085E0550D8A0053C095ED8B007D0045072
:100AF60008260550D8B0053C0926D89000360136A0
:060B06000C2EEAD71200DC
:100B0C007AC601F07BC602F0010E06017A5F000E78
:100B1C007B5B000E021802E1000E01181FE076C686
:100B2C00E9FF77C6EAFF78C6D9FF79C6DAFFEE503F
:100B3C00DE180FE076C6E9FF77C6EAFF78C6D9FF64
:100B4C0079C6DAFFDE50EE5C006E016A000E015AC7
:100B5C0007D0764B772B784B792BD2D7006A016A6A
:020B6C00120075
:100B6E0076C67AF677C67BF678C67CF679C67DF6BB
:100B7E0006017E6B7F6B000E7F5D02E1080E7E5DCF
:100B8E0019E27AC6E9FF7BC6EAFFEE50200A01E1C0
:100B9E0011D07AC6E9FF7BC6EAFF7CC6E1FF7DC6AF
:100BAE00E2FFEECFE6FF7C4B7D2B7A4B7B2B7E4B11
:100BBE007F2BE1D7080E7625016E000E7721026E8F
:100BCE0001C07AF602C07BF601C0E9FF02C0EAFF5F
:100BDE00EE50200A29E07CC6E1FF7DC6E2FF2E0E14
:100BEE00E66E7C4B7D2B7E6B7F6B000E7F5D02E194
:100BFE00030E7E5D19E27AC6E9FF7BC6EAFFEE5070
:100C0E00200A01E111D07AC6E9FF7BC6EAFF7CC655
:100C1E00E1FF7DC6E2FFEECFE6FF7C4B7D2B7A4BEC
:100C2E007B2B7E4B7F2BE1D77CC6E1FF7DC6E2FF9F
:100C3E00E66A0D0E7825E16E000E7921E26E0B0E3E
:100C4E007625E96E000E7721EA6EEECFE6FF1A0EDC
:100C5E007825806F000E7921816F1C0E7625876FA7
:100C6E00000E7721886F7BEC00F080C6E1FF81C615
:100C7E00E2FF00C0E6FF01C0E6FF02C0E6FF03C0D0
:100C8E00E6FF1E0E7825806F000E7921816F1A0EF9
:100C9E007625876F000E7721886F3DEC01F080C6B8
:100CAE00E1FF81C6E2FF00C0E6FF01C0E6FF0E0EC7
:100CBE007625006E000E7721016E00C0E9FF01C09F
:100CCE00EAFFEECF04F0010E0024E96E000E0120C3
:100CDE00EA6EEECF03F003C001F0006A0450002468
:100CEE00036E000E0120046E03C07EF604C07FF674
:100CFE000E0E7825006E000E7921016E030E002473
:100D0E00E16E000E0120E26E0B0E026E03C000F0CB
:100D1E0004C001F0025005E001320032019EFF0FC7
:100D2E00FAD700C0E6FF0E0E7825006E000E792170
:100D3E00016E040E0024E16E000E0120E26E050E1F
:100D4E00026E7EC600F07FC601F0025005E0013251
:100D5E000032019EFF0FFAD73F0E0014006E00C046
:100D6E00E6FF0E0E7825006E000E7921016E050E3F
:100D7E000024E16E000E0120E26E1F0E7E15026E43
:100D8E0002C000F00036009000C0E6FF100E76257F
:100D9E00006E000E7721016E00C0E9FF01C0EAFF70
:100DAE00EECF04F0010E0024E96E000E0120EA6E73
:100DBE00EECF03F003C001F0006A04500024026E6F
:100DCE00000E0120036E02C07EF603C07FF60E0EEB
:100DDE007825006E000E7921016E020E0024E16E60
:100DEE00000E0120E26E1F0E0214006E00C0E6FF20
:100DFE000E0E7825006E000E7921016E010E002474
:100E0E00E16E000E0120E26E050E026E7EC600F04F
:100E1E007FC601F0025005E001320032019EFF0F45
:100E2E00FAD70F0E0014006E00C0E6FF0E0E7825E6
:100E3E00E16E000E7921E26E090E026E7EC600F0A2
:100E4E007FC601F0025005E001320032019EFF0F15
:100E5E00FAD700C0E6FF160E7625006E000E77213B
:100E6E00016E00C0E9FF01C0EAFFEECF04F0010EF3
:100E7E000024E96E000E0120EA6EEECF03F003C0EF
:100E8E0001F0006A04500024036E000E0120046E6F
:100E9E0003C07EF604C07FF6140E7825006E000E99
:100EAE007921016E030E0024E16E000E0120E26E28
:100EBE000B0E026E03C000F004C001F0025005E0FC
:100ECE0001320032019EFF0FFAD700C0E6FF140E6A
:100EDE007825006E000E7921016E040E0024E16E5D
:100EEE00000E0120E26E050E026E7EC600F07FC679
:100EFE0001F0025005E001320032019EFF0FFAD7D9
:100F0E003F0E0014006E00C0E6FF140E7825006E32
:100F1E00000E7921016E050E0024E16E000E0120F7
:100F2E00E26E1F0E7E15026E02C000F000360090BB
:100F3E0000C0E6FF180E7625006E000E7721016EBA
:100F4E0000C0E9FF01C0EAFFEECF04F0010E00245D
:100F5E00E96E000E0120EA6EEECF03F003C001F041
:100F6E00006A04500024026E000E0120036E02C0BF
:100F7E007EF603C07FF6140E7825006E000E7921E2
:100F8E00016E020E0024E16E000E0120E26E1F0EB5
:100F9E000214006E00C0E6FF140E7825006E000EDF
:100FAE007921016E010E0024E16E000E0120E26E29
:100FBE00050E026E7EC600F07FC601F0025005E0FF
:100FCE0001320032019EFF0FFAD70F0E0014006E91
:100FDE0000C0E6FF140E7825E16E000E7921E26E58
:100FEE00090E026E7EC600F07FC601F0025005E0CB
:100FFE0001320032019EFF0FFAD700C0E6FF120049
:10100E00CEC004F0CFC005F068C600F069C601F08E
:10101E005BDD00C070F601C071F6000E0601726F46
:10102E00736F0501185106017025006E05011951E7
:10103E0006017121016E05011A5106017221026E1F
:10104E0005011B5106017321036E00C070F601C02D
:10105E0071F602C072F603C073F6010E0201D06F74
:10106E0000C076F601C077F602C078F603C079F6B6
:10107E00D00E06017A6F000E7B6FA0EC03F00052CB
:10108E0008E0100E0001CD6FFF0E006EFF0E016E18
:10109E008ED0CEC004F0CFC005F068C600F069C691
:1010AE0001F012DD08C000F009C001F000C06EF6BC
:1010BE0001C06FF600C002F001C003F002360290CC
:1010CE00033602C06EF603C06FF6D00E0224E16E38
:1010DE00000E0320E26E6AC6E6FF010E06016E25C3
:1010EE00006E000E6F21016ED00E0024E16E000E18
:1010FE000120E26E6BC6E6FF70C676F671C677F615
:10110E0072C678F673C679F6D00E7A6F000E7B6FC4
:10111E00DCEC02F0005208E0050E0001CD6FFF0E70
:10112E00006EFF0E016E43D0010E06016C6F000EB5
:10113E006D6F000E6D5D04E10501135106016C5DCE
:10114E0034E20501165106017025006E0501175196
:10115E0006017121016E000E7221026E000E7321C6
:10116E00036E00C070F601C071F602C072F603C0C5
:10117E0073F600C076F601C077F602C078F603C0AB
:10118E0079F6D00E7A6F000E7B6FDCEC02F0005217
:10119E0008E0050E0001CD6FFF0E006EFF0E016E12
:1011AE0006D006016C4B6D2BC4D7006A016A120083
:1011BE00060168517A0804E3610E685DD8B0689B39
:0611CE0068C600F01200EB
:1011D400220E0C6E086A096A0A6A0B6A0C06D8B4F5
:1011E4001FD0D8900B320A3209320832033202324D
:1011F40001320032D8A0F2D70C06D8B409D004507A
:1012040008260550092206500A2207500B22EAD765
:10121400045008260550092206500A2207500B22C2
:021224001200B6
:1012260068C602F069C603F002C000F003C001F010
:10123600024A032A00C0E9FF01C0EAFFEE5201E0BC
:10124600F3D706016851025C006E69510358016EBE
:0A125600010E005E000E015A1200A6
:10126000CEC004F0CFC005F068C600F069C601F03A
:1012700032DC00C06AF601C06BF6000E06016C6F2E
:101280006D6F0501185106016A25006E050119519F
:1012900006016B21016E05011A5106016C21026ED7
:1012A00005011B5106016D21036E00C06AF601C0E5
:1012B0006BF602C06CF603C06DF6010E0201D06F32
:1012C00000C076F601C077F602C078F603C079F662
:1012D000D00E06017A6F000E7B6FA0EC03F0005277
:1012E00008E0100E0001CD6FFF0E006EFF0E016EC4
:1012F00022D0CEC004F0CFC005F068C600F069C6A9
:1013000001F06BEC05F008C000F009C001F000C06E
:1013100002F001C003F0023602900336D00E022420
:101320000601876F000E0320886F3DEC01F000C0BE
:0813300068F601C069F6120025
:1013380016C500F017C501F0CEC004F0CFC005F007
:101348009CEC04F000C068F601C069F6020E0601C4
:101358006A6F000E6B6FCEC004F0CFC005F0020EAE
:10136800006E000E016E6BEC05F000C06CF601C05B
:101378006DF6000E6E6F6F6F0501185106016C2532
:10138800726F0501195106016D21736F05011A511C
:1013980006016E21746F05011B5106016F21756FDF
:1013A80072C66CF673C66DF674C66EF675C66FF6C1
:1013B800CEC004F0CFC005F0020E006E000E016E24
:1013C8006BEC05F008C000F009C001F000C002F0A5
:1013D80001C003F0023602900336D00E0224706F6B
:1013E800000E0320716F72C676F673C677F674C660
:1013F80078F675C679F662EC04F0010E0201D06F3A
:10140800D00E0601766F000E776F24EC04F006010B
:1014180069516B5D02E168516A5D2EE270C6E9FFB1
:1014280071C6EAFFEECF01F0EECF02F0000E02180F
:1014380002E1000E011801E11FD0020E7025016EB5
:10144800000E7121026E01C070F602C071F66A4B7F
:101458006B2B025005017C1902E17B5101180BE14D
:10146800D00E0601706F000E716FD00E766F000EF1
:10147800776F24EC04F0CBD765EC02F0005208E05B
:10148800100E0001CD6FFF0E006EFF0E016E10D022
:1014980006016B51691902E168516A1905E1FF0EED
:1014A800006EFF0E016E04D06AC600F06BC601F034
:0214B800120020
:1014BA008CC5E1FF8DC5E2FF68C6E6FF8AC500F06C
:0A14CA008BC501F053EC00F0120096
:0E14D400550E0E01006FAA0E006F008112006F
:1014E2000601726B736B746B756B6851691103E162
:1014F200FF0E006EE4D068C676F669C677F6C4ECD5
:1015020004F00401DC5105011F190EE10401DB5155
:1015120005011E1909E10401DA5105011D1904E151
:101522000401D95105011C1905E114C56EF615C552
:101532006FF60ED00FC500F010C501F00BC504F018
:101542000CC505F09CEC04F000C06EF601C06FF60D
:10155200D9C472F6DAC473F6DBC474F6DCC475F669
:10156200D00E0601706F000E716FD9C476F6DAC420
:1015720077F6DBC478F6DCC479F662EC04F0010E8F
:101582000201D06FD00E0601766F000E776F24EC49
:1015920004F006016C6B6D6B6F516D5D02E16E5173
:1015A2006C5DD8B080D070C676F671C677F668C624
:1015B20078F669C679F60B0E7A6F000E7B6F86ECB1
:1015C20005F0000E011802E1000E001845E165EC7D
:1015D20002F0005206E0100E0001CD6FFF0E006E09
:1015E2006ED006016A516B1135E070C676F671C68F
:1015F20077F66AC678F66BC679F6B7EC05F0200E78
:101602006A25E16E000E6B21E26E72C6E6FF73C6BA
:10161200E6FF74C6E6FF75C6E6FF240E6A25E16E94
:10162200000E6B21E26ED00E705D036E000E7159DA
:10163200046E050E026E03C000F004C001F00250F9
:1016420005E001320032019EFF0FFAD700C0E6FF2B
:1016520001C0E6FF006A33D00601200E7025016E3C
:10166200000E7121026E01C070F602C071F60250C6
:1016720005017C1902E17B51011811E1010E0601FD
:101682007227000E732374237523D00E706F000E21
:10169200716FD00E766F000E776F24EC04F00601A6
:1016A2006C4B6D2B79D765EC02F0005206E0100E00
:1016B2000001CD6FFF0E006E02D0FF0E006E120011
:0E16C200550E0E01006FAA0E006F009112006F
:1016D0000601436B40C6E9FF41C6EAFFEECF42F682
:1016E0004251000A0EE042C668F6E7DE0601432BCF
:1016F00043514025E96E000E4121EA6EEECF42F6DD
:04170000EFD712000D
:101704001A0E06014025876F000E4121886F3DECBB
:1017140001F044C6E1FF45C6E2FF00C0E6FF01C098
:10172400E6FF44C6E9FF45C6EAFFEECF00F0EECF80
:1017340001F0005001102BE1FDDD44C6E1FF45C678
:10174400E2FF00C0E6FF01C0E6FF44C6E9FF45C66C
:10175400EAFFEECF01F0EECF02F00250FF0A02E101
:10176400FF0E011806E1040E0001CD6FFF0E006E9E
:1017740084D144C6E9FF45C6EAFFEECF68F6EECF52
:1017840069F6FF0E06016A6FFF0E6B6F3EDC44C6FE
:10179400E9FF45C6EAFFEECF00F0EECF01F0000E00
:1017A400026E036E020E005E000E015A025A035AC4
:1017B4000FC504F010C505F0000E066E076E08DDB7
:1017C40042C6E1FF43C6E2FF005005012025E66E54
:1017D40001502121E66E02502221E66E035023219E
:1017E400E66E0401DC5105011F190EE10401DB5111
:1017F40005011E1909E10401DA5105011D1904E16D
:101804000401D95105011C1905E114C548F615C593
:1018140049F60ED00FC500F010C501F00BC504F059
:101824000CC505F09CEC04F000C048F601C049F674
:10183400D9C44CF6DAC44DF6DBC44EF6DCC44FF61C
:10184400D00E06014A6F000E4B6FD9C476F6DAC487
:1018540077F6DBC478F6DCC479F662EC04F0010EAA
:101864000201D06FD00E0601766F000E776F24EC64
:1018740004F00601466B476B4951475D02E148514C
:10188400465DD8B0EBD04AC6E9FF4BC6EAFFEECFBF
:1018940001F00150E50A0AE04AC6E9FF4BC6EAFF37
:1018A400EECF01F0200E015C01E3B1D065EC02F053
:1018B400005206E0100E0001CD6FFF0E006EDDD069
:1018C4004AC687F64BC688F640C689F641C68AF6EC
:1018D400200E06018B6F000E8C6F31EC02F01A0E95
:1018E4004A25E16E000E4B21E26E44C6E9FF45C66F
:1018F400EAFFFF0EEE14006E00C0E6FF1A0E4A2542
:10190400006E000E4B21016E010E0024E16E000EEC
:101914000120E26E44C6E9FF45C6EAFFEECF03F0BC
:10192400EECF04F004C000F0016A00C0E6FF0E0E22
:101934004A25E16E000E4B21E26EECC4E6FF0E0E6A
:101944004A25006E000E4B21016E010E0024E16E4B
:10195400000E0120E26EEDC4E6FF100E4A25E16E92
:10196400000E4B21E26EEAC4E6FF100E4A25006E1B
:10197400000E4B21016E010E0024E16E000E0120C9
:10198400E26EEBC4E6FF160E4A25E16E000E4B2113
:10199400E26EECC4E6FF160E4A25006E000E4B21E3
:1019A400016E010E0024E16E000E0120E26EEDC412
:1019B400E6FF180E4A25E16E000E4B21E26EEAC4E2
:1019C400E6FF180E4A25006E000E4B21016E010E33
:1019D4000024E16E000E0120E26EEBC4E6FF4CC66B
:1019E40076F64DC677F64EC678F64FC679F6D00E23
:1019F4007A6F000E7B6FDCEC02F0005206E0050EFD
:101A04000001CD6FFF0E006E38D0006A36D0200E74
:101A140006014A25016E000E4B21026E01C04AF6F2
:101A240002C04BF6025005017C1902E17B510118FA
:101A340011E1010E06014C27000E4D234E234F23C6
:101A4400D00E4A6F000E4B6FD00E766F000E776F7C
:101A540024EC04F00601464B472B0ED765EC02F04C
:101A6400005206E0100E0001CD6FFF0E006E05D08F
:0C1A74000001060ECD6FFF0E006E120088
:101A800040C668F641C669F613EC09F000C042F69C
:101A90000050000A03E1FF0E006E5BD042510C08BB
:101AA00003E2FE0E006E55D040C6D9FF41C6DAFFF4
:101AB0002E0EDE1803E1FD0E006E4BD0446B40C6C7
:101AC00045F641C646F642C643F64351000820E2B9
:101AD00043514025D96E000E4121DA6E2E0EDE18DC
:101AE00015E1010E446F4351080803E2FC0E006E3D
:101AF00030D04351010F006E016A000E01220050E8
:101B00004025456F01504121466F02D04307DDD784
:101B1000010E441906E04251080803E2FB0E006E74
:101B200018D0010E441914E145C668F646C669F698
:101B300013EC09F000C042F60050000A03E1F50E74
:101B4000006E07D04251030803E2F40E006E01D08C
:041B5000006A120015
:101B54000B6A0A6A096A086A0E6A03340836045072
:101B6400085E0550D8A0053C095E0650D8A0063C86
:101B74000A5E0750D8A0073C0B5EE86AD8A0010EA5
:101B84000E5E0336070E0C6E0334083609360A3629
:101B94000B360E36045003A012D0085E0550D8A0B0
:101BA400053C095E0650D8A0063C0A5E0750D8A042
:101BB400073C0B5EE86AD8A0010E0E5E11D0082621
:101BC4000550D8B0053C09260650D8B0063C0A2674
:101BD4000750D8B0073C0B26E86AD8B0010E0E2691
:101BE40003360C2ED1D70234083609360A360B36A2
:101BF4000E36045003A012D0085E0550D8A0053C50
:101C0400095E0650D8A0063C0A5E0750D8A0073CDF
:101C14000B5EE86AD8A0010E0E5E11D008260550AE
:101C2400D8B0053C09260650D8B0063C0A26075011
:101C3400D8B0073C0B26E86AD8B0010E0E2602364F
:101C4400070E0C6E0234083609360A360B360E3689
:101C5400045002A012D0085E0550D8A0053C095ECD
:101C64000650D8A0063C0A5E0750D8A0073C0B5E7D
:101C7400E86AD8A0010E0E5E11D008260550D8B02F
:101C8400053C09260650D8B0063C0A260750D8B0B1
:101C9400073C0B26E86AD8B0010E0E2602360C2E3D
:101CA400D1D70134083609360A360B360E360450BD
:101CB40002A012D0085E0550D8A0053C095E06506B
:101CC400D8A0063C0A5E0750D8A0073C0B5EE86A21
:101CD400D8A0010E0E5E11D008260550D8B0053CE0
:101CE40009260650D8B0063C0A260750D8B0073C4F
:101CF4000B26E86AD8B0010E0E260136070E0C6ECC
:101D04000134083609360A360B360E36045001A063
:101D140012D0085E0550D8A0053C095E0650D8A034
:101D2400063C0A5E0750D8A0073C0B5EE86AD8A0C0
:101D3400010E0E5E11D008260550D8B0053C0926C8
:101D44000650D8B0063C0A260750D8B0073C0B26EC
:101D5400E86AD8B0010E0E2601360C2ED1D7003415
:101D6400083609360A360B360E36045001A012D056
:101D7400085E0550D8A0053C095E0650D8A0063C74
:101D84000A5E0750D8A0073C0B5EE86AD8A0010E93
:101D94000E5E11D008260550D8B0053C0926065021
:101DA400D8B0063C0A260750D8B0073C0B26E86A90
:101DB400D8B0010E0E260036070E0C6E003408361D
:101DC40009360A360B360E36045000A012D0085ECF
:101DD4000550D8A0053C095E0650D8A0063C0A5E12
:101DE4000750D8A0073C0B5EE86AD8A0010E0E5E2F
:101DF40011D008260550D8B0053C09260650D8B0A5
:101E0400063C0A260750D8B0073C0B26E86AD8B02F
:101E1400010E0E2600360C2ED1D700B00ED0045081
:101E240008260550D8B0053C09260650D8B0063C13
:0C1E34000A260750D8B0073C0B2612000D
:101E40000501796B7A6B40C6E9FF41C6EAFFEE52A5
:101E500042E040C668F641C669F6420E06016A6F66
:101E6000060E6B6F71EC0AF0800E0018016E800E8A
:101E7000000A015C06E2020E0001CD6FFF0E006E4B
:101E800034D006014FB906D0010E0001CD6FFF0E10
:101E9000006E2BD0020E0601605D006E000E6159CF
:101EA000016E000E026E036E0FC504F010C505F042
:101EB000000E066E076EEAEC08F0005005012025C2
:101EC000076F01502121086F02502221096F035032
:101ED00023210A6F08D0D9C407F5DAC408F5DBC49A
:0C1EE00009F5DCC40AF5010E006E1200CA
:101EEC000601446B0D0E445D18E244514025456FCC
:101EFC00000E4121466F44514225E96E000E4321EC
:101F0C00EA6EEECF68F6DFEC08F045C6E1FF46C698
:0C1F1C00E2FF00C0E6FF442BE5D71200F6
:101F280005010A511F1908E109511E1905E1085157
:101F38001D1902E107511C1905E114C542F615C522
:101F480043F60ED00FC500F010C501F00BC504F024
:101F58000CC505F09CEC04F000C042F601C043F645
:101F68007A510601431903E142510501791902E149
:101F7800006AAAD005010BC504F00CC505F079C5A7
:101F880000F07AC501F06BEC05F00050072506015A
:101F9800766F0150050108210601776F000E0501D3
:101FA80009210601786F000E05010A210601796FE3
:101FB8000BC504F00CC505F079C500F07AC501F031
:101FC8006BEC05F008C000F009C001F0050E046EC6
:101FD80000C002F001C003F0045005E00236029090
:101FE8000336FF0FFAD70601D00E0224446F000E05
:101FF8000320456F62EC04F0010E0201D06FD00E91
:102008000601766F000E776F24EC04F00601435149
:1020180005017A5D04E1060142510501795D49E255
:10202800794B7A2B44C6E9FF45C6EAFFEECF01F0AB
:102038000150E50A20E044C6E9FF45C6EAFFEECFB5
:1020480001F0200E015C17E365EC02F0005206E097
:10205800100E0001CD6FFF0E006E36D044C676F626
:1020680045C677F640C678F641C679F6B7EC05F06E
:10207800010E006E29D00601200E4425016E000EC7
:102088004521026E01C044F602C045F60250050122
:102098007C1902E17B5101180BE1D00E0601446F57
:1020A800000E456FD00E766F000E776F24EC04F0AB
:1020B800ADD765EC02F0005206E0100E0001CD6FBE
:0A20C800FF0E006E01D0006A120046
:1020D200060140513B0804E34051350A01E003D0B8
:1020E200006A06EF16F04151000AD8A4A8D1435362
:1020F20002E061EC0BF0B1D042C652FE9BD142C667
:1021020053FE98D142C654FE95D142C655FE92D195
:1021120042C656FE8FD142C657FE8CD142C658FEE9
:1021220089D142C659FE86D142C65AFE83D142C6E1
:102132005BFE80D142C65CFE7DD142C65DFE7AD195
:1021420042C65EFE77D142C65FFE74D142C660FED1
:1021520071D142C661FE6ED142C662FE6BD142C6E9
:1021620063FE68D142C664FE65D142C665FE62D195
:1021720042C666FE5FD142C667FE5CD142C668FEB9
:1021820059D142C669FE56D142C66AFE53D142C6F1
:102192006BFE50D142C66CFE4DD142C66DFE4AD195
:1021A20042C66EFE47D142C66FFE44D142C670FEA1
:1021B20041D142C671FE3ED142C672FE3BD142C6F9
:1021C20073FE38D142C674FE35D142C675FE32D195
:1021D20042C676FE2FD142C677FE2CD142C678FE89
:1021E20029D142C679FE26D142C67AFE23D142C601
:1021F2007BFE20D142C67CFE1DD142C67DFE1AD195
:1022020042C67EFE17D142C67FFE14D142C680FE70
:1022120011D142C681FE0ED142C682FE0BD142C608
:1022220083FE08D142C684FE05D142C685FE02D194
:1022320042C686FEFFD042C688FEFCD042C689FE58
:10224200F9D042C68AFEF6D042C68BFEF3D042C611
:102252008CFEF0D042C68DFEEDD006014051000A40
:10226200D8B44AD74051010AD8B449D74051020ADA
:10227200D8B448D74051030AD8B447D74051040ACA
:10228200D8B446D74051050AD8B445D74051060ABA
:10229200D8B444D74051070AD8B443D74051080AAA
:1022A200D8B442D74051090AD8B441D740510A0A9A
:1022B200D8B440D740510B0AD8B43FD740510C0A8A
:1022C200D8B43ED740510D0AD8B43DD740510E0A7A
:1022D200D8B43CD740510F0AD8B43BD74051100A6A
:1022E200D8B43AD74051110AD8B439D74051120A5A
:1022F200D8B438D74051130AD8B437D74051140A4A
:10230200D8B436D74051150AD8B435D74051160A39
:10231200D8B434D74051170AD8B433D74051180A29
:10232200D8B432D74051190AD8B431D740511A0A19
:10233200D8B430D740511B0AD8B42FD740511C0A09
:10234200D8B42ED740511D0AD8B42DD740511E0AF9
:10235200D8B42CD740511F0AD8B42BD74051200AE9
:10236200D8B42AD74051210AD8B429D74051220AD9
:10237200D8B428D74051230AD8B427D74051240AC9
:10238200D8B426D74051250AD8B425D74051260AB9
:10239200D8B424D74051270AD8B423D74051280AA9
:1023A200D8B422D74051290AD8B421D740512A0A99
:1023B200D8B420D740512B0AD8B41FD740512C0A89
:1023C200D8B41ED740512D0AD8B41DD740512E0A79
:1023D200D8B41CD740512F0AD8B41BD74051300A69
:1023E200D8B41AD74051310AD8B419D74051320A59
:1023F200D8B418D74051330AD8B417D74051340A49
:10240200D8B416D74051360AD8B415D74051370A36
:10241200D8B414D74051380AD8B413D74051390A26
:10242200D8B412D740513A0AD8B411D740513B0A16
:10243200D8B410D70601435302E06AEC0AF0060151
:102442004151010AD8A454D1435302E061EC0BF08C
:102452008DD040C601FE47D140C602FE44D140C6DF
:1024620003FE41D140C604FE3ED140C605FE3BD12B
:1024720040C606FE38D140C607FE35D140C608FE2A
:1024820032D140C609FE2FD140C60AFE2CD140C629
:102492000BFE29D140C60CFE26D140C60DFE23D12B
:1024A20040C60EFE20D140C60FFE1DD140C610FE12
:1024B2001AD140C600FE17D140C601FE14D140C653
:1024C20002FE11D140C603FE0ED140C604FE0BD15E
:1024D20040C605FE08D140C606FE05D140C607FE2D
:1024E20002D140C608FEFFD040C609FEFCD040C65D
:1024F2000AFEF9D040C60BFEF6D040C60CFEF3D061
:1025020040C60DFEF0D040C60EFEEDD040C60FFE16
:10251200EAD040C610FEE7D040C611FEE4D040C665
:1025220012FEE1D040C613FEDED040C614FEDBD060
:1025320040C615FED8D040C616FED5D040C617FEFE
:10254200D2D040C618FECFD040C619FECCD040C66D
:102552001AFEC9D040C61BFEC6D040C61CFEC3D060
:1025620040C61DFEC0D040C61EFEBDD0060142516F
:10257200000AD8B46ED74251010AD8B46DD742517D
:10258200020AD8B46CD74251030AD8B46BD742516D
:10259200040AD8B46AD74251050AD8B469D742515D
:1025A200060AD8B468D74251070AD8B467D742514D
:1025B200080AD8B466D74251090AD8B465D742513D
:1025C2000A0AD8B464D742510B0AD8B463D742512D
:1025D2000C0AD8B462D742510D0AD8B461D742511D
:1025E2000E0AD8B460D742510F0AD8B45FD742510D
:1025F200100AD8B45ED74251110AD8B45DD74251FD
:10260200120AD8B45CD74251130AD8B45BD74251EC
:10261200140AD8B45AD74251150AD8B459D74251DC
:10262200160AD8B458D74251170AD8B457D74251CC
:10263200180AD8B456D74251190AD8B455D74251BC
:102642001A0AD8B454D742511B0AD8B453D74251AC
:102652001C0AD8B452D742511D0AD8B451D742519C
:102662001E0AD8B450D742511F0AD8B44FD742518C
:10267200200AD8B44ED74251210AD8B44DD742517C
:10268200220AD8B44CD74251230AD8B44BD742516C
:10269200240AD8B44AD74251250AD8B449D742515C
:1026A200260AD8B448D74251270AD8B447D742514C
:1026B200280AD8B446D74251290AD8B445D742513C
:1026C2002A0AD8B444D742512B0AD8B443D742512C
:1026D2002C0AD8B442D742512D0AD8B441D742511C
:1026E2002E0AD8B440D70601435302E06AEC0AF03E
:1026F2009DD1060141B102D0819001D0818083D267
:10270200060141B102D0819201D081827CD20601C0
:1027120041B102D0819401D0818475D2060141B1C8
:1027220002D0819601D081866ED2060141B102D0DB
:10273200819801D0818867D2060141B102D0819A85
:1027420001D0818A60D2060141B102D0819C01D0C0
:10275200818C59D2060141B102D0819E01D0818E75
:1027620052D2060141B102D0829001D082804BD276
:10277200060141B102D0829201D0828244D2060186
:1027820041B102D0829401D082843DD2060141B18E
:1027920002D0829601D0828636D2060141B102D0A1
:1027A200829801D082882FD2060141B102D0829A4A
:1027B20001D0828A28D2060141B102D0829C01D086
:1027C200828C21D2060141B102D0829E01D0828E3A
:1027D2001AD2060141B102D0839001D0838013D274
:1027E200060141B102D0839201D083820CD206014C
:1027F20041B102D0839401D0838405D2060141B154
:1028020002D0839601D08386FED1060141B102D067
:10281200839801D08388F7D1060141B102D0839A0F
:1028220001D0838AF0D1060141B102D0839C01D04C
:10283200838CE9D1060141B102D0839E01D0838EFF
:10284200E2D1060141B102D0849001D08480DBD173
:10285200060141B102D0849201D08482D4D1060112
:1028620041B102D0849401D08484CDD1060141B11A
:1028720002D0849601D08486C6D1060141B102D02D
:10288200849801D08488BFD1060141B102D0849AD4
:1028920001D0848AB8D1060141B102D0849C01D012
:1028A200848CB1D1060141B102D0849E01D0848EC4
:1028B200AAD1060141B102D0859001D08580A3D171
:1028C200060141B102D0859201D085829CD10601D8
:1028D20041B102D0859401D0858495D1060141B1E0
:1028E20002D0859601D085868ED1060141B102D0F3
:1028F200859801D0858887D1060141B102D0859A99
:1029020001D0858A80D1060141B102D0859C01D0D7
:10291200858C79D1060141B102D0859E01D0858E88
:1029220072D1060141B102D0869001D086806BD16E
:10293200060141B102D0869201D0868264D106019D
:1029420041B102D0869401D086845DD1060141B1A5
:1029520002D0869601D0868656D1060141B102D0B8
:10296200869801D086884FD1060141B102D0869A5D
:1029720001D0868A48D1060141B102D0869C01D09D
:10298200868C41D1060141B102D0869E01D0868E4D
:102992003AD1060141B102D0879001D0878033D16C
:1029A200060141B102D0879201D087822CD1060163
:1029B20041B102D0879401D0878425D1060141B16B
:1029C20002D0879601D087861ED1060141B102D07E
:1029D200879801D0878817D1060141B102D0879C20
:1029E20001D0878C10D1060141B102D0879E01D05F
:1029F200878E09D1060141B102D0889001D088802A
:102A020002D1060141B102D0889201D08882FBD066
:102A1200060141B102D0889401D08884F4D0060125
:102A220041B102D0889601D08886EDD0060140518E
:102A3200000AD8B45ED64051010AD8B461D64051DA
:102A4200020AD8B464D64051030AD8B467D64051BA
:102A5200040AD8B46AD64051050AD8B46DD640519A
:102A6200060AD8B470D64051070AD8B473D640517A
:102A7200080AD8B476D64051090AD8B479D640515A
:102A82000A0AD8B47CD640510B0AD8B47FD640513A
:102A92000C0AD8B482D640510D0AD8B485D640511A
:102AA2000E0AD8B488D640510F0AD8B48BD64051FA
:102AB200100AD8B48ED64051110AD8B491D64051DA
:102AC200120AD8B494D64051130AD8B497D64051BA
:102AD200140AD8B49AD64051150AD8B49DD640519A
:102AE200160AD8B4A0D64051170AD8B4A3D640517A
:102AF200180AD8B4A6D64051190AD8B4A9D640515A
:102B02001A0AD8B4ACD640511B0AD8B4AFD6405139
:102B12001C0AD8B4B2D640511D0AD8B4B5D6405119
:102B22001E0AD8B4B8D640511F0AD8B4BBD64051F9
:102B3200200AD8B4BED64051210AD8B4C1D64051D9
:102B4200220AD8B4C4D64051230AD8B4C7D64051B9
:102B5200240AD8B4CAD64051250AD8B4CDD6405199
:102B6200260AD8B4D0D64051270AD8B4D3D6405179
:102B7200280AD8B4D6D64051290AD8B4D9D6405159
:102B82002A0AD8B4DCD640512B0AD8B4DFD6405139
:102B92002C0AD8B4E2D640512D0AD8B4E5D6405119
:102BA2002E0AD8B4E8D640512F0AD8B4EBD64051F9
:102BB200300AD8B4EED64051310AD8B4F1D64051D9
:102BC200320AD8B4F4D64051330AD8B4F7D64051B9
:102BD200340AD8B4FAD64051360AD8B4FDD6405198
:102BE200370AD8B400D74051380AD8B403D7405175
:102BF200390AD8B406D740513A0AD8B409D7405155
:0C2C02003B0AD8B40CD7FF0E006E120085
:102C0E0006014151FF0A02E1FF0E401918E040C6CD
:102C1E0068F641C669F630EC09F000C048F601C00E
:102C2E0049F640C668F641C669F606016A6B6B6BDB
:102C3E0007EC08F048C640F649C641F6E1D7010E4A
:102C4E000201D06F42C676F643C677F644C678F6D2
:102C5E0045C679F6D00E06017A6F000E7B6FA0EC9A
:102C6E0003F0005206E0100E0001CD6FFF0E006E55
:102C7E0020D0D00E06014625E16E000E4721E26EF1
:102C8E00E50EE66E42C676F643C677F644C678F68D
:102C9E0045C679F6D00E7A6F000E7B6FDCEC02F033
:102CAE00005206E0050E0001CD6FFF0E006E01D042
:042CBE00006A120096
:042CC200006A120092
:102CC6000501E36BE46B000EE45D02E10A0EE35DD1
:102CD6000BE2E351E125E16EE451E221E26E200EC2
:102CE600E66EE34BE42BEFD7E351E125E16EE451C9
:102CF600E221E26EE66A010EE35F000EE45BE35159
:102D0600E125E56FE451E221E66F0A0E046E000E3E
:102D1600056E066E076EDDC500F0DEC501F0DFC587
:102D260002F0E0C503F0AAEC0DF008C000F009C0FF
:102D360001F00AC002F00BC003F0300E0026E5C514
:102D4600E1FFE6C5E2FF00C0E6FF0A0E046E000ED4
:102D5600056E066E076EDDC500F0DEC501F0DFC547
:102D660002F0E0C503F0AAEC0DF000C0DDF501C0ED
:102D7600DEF502C0DFF503C0E0F5000E046E0318B1
:102D860008E10450021805E10450011802E1005060
:102D9600000A01E105D0010EE35F000EE45BAFD748
:022DA600120019
:0E2DA800DDC540F6DEC541F668EC0BF012000A
:102DB600DDC540F6DEC541F6DFC542F6010E060169
:082DC600436F69EC10F01200EC
:102DCE00DDC540F6DEC541F640EC0DF0005206E0E2
:102DDE00120E0001CD6F010E006E8DD0DD0E0601BC
:102DEE00406F040E416FDDC542F6DEC543F676EC4C
:102DFE000FF02B0E876F060E886FDD0E896F040E97
:102E0E008A6F0D0E8B6F000E8C6F31EC02F0DD0EA3
:102E1E00686F040E696F050E6A6F060E6B6F71ECAC
:102E2E000AF0800E0018016E800E000A015C06E2A8
:102E3E00020E0001CD6F020E006E5DD0060112A9CA
:102E4E0034D0386B396B2B0E406F060E416F20EC71
:102E5E000FF0800E0018016E800E000A015C03E276
:102E6E00020E006E48D0DF0E0601406F050E416F58
:102E7E0094EC0FF000520BE00601384B392B000E8C
:102E8E00391902E1030E381901E101D0ECD7060120
:102E9E0011DF000E395D02E1030E385D06E30C0E04
:102EAE000001CD6F030E006E26D023C640F624C659
:102EBE0041F625C642F626C643F627C644F628C670
:102ECE0045F6050E006E29C646F62AC647F6005090
:102EDE0006E00601463746914737FF0FF9D790DED9
:102EEE00800E0018016E800E000A015C03E2040ED3
:082EFE00006E01D0006A120011
:102F060016C500F017C501F0CEC004F0CFC005F01D
:102F16009CEC04F00501DF51DD25036EE051DE2156
:102F2600046E0450015C02E10350005C01E204D12E
:102F3600CEC004F0CFC005F0DDC500F0DEC501F05F
:102F46006BEC05F000C0E2F501C0E3F5000EE46F9E
:102F5600E56F1851E2271951E3231A51E4231B5157
:102F6600E523CEC004F0CFC005F0DDC500F0DEC518
:102F760001F06BEC05F008C000F009C001F000C0DC
:102F860002F001C003F0023602900336DDC5E6F515
:102F9600DEC5E7F5D00E0224E86F000E0320E96FC8
:102FA600010E0201D06F000E031802E1000E021896
:102FB6000BE10001CF510501E05D04E10001CE51B6
:102FC6000501DF5D01E315D0E2C576F6E3C577F6C8
:102FD600E4C578F6E5C579F6D00E06017A6F000EDF
:102FE6007B6FA0EC03F0005204E0100E0001CD6FE1
:102FF600A3D0010E0501DF5F000EE05BDF51E0119B
:1030060068E0E64BE72BE8C5E1FFE9C5E2FFE6C568
:10301600E6FFE7C5E6FF020EE825016E000EE92190
:10302600026E01C0E8F502C0E9F502507C1902E122
:103036007B5101184DE1E16B1351E15D26E2E1C5DB
:1030460000F0000E016E16C504F017C505F09CECE5
:1030560004F00050E2250601766F01500501E321D8
:103066000601776F000E0501E4210601786F000E58
:103076000501E5210601796FD00E7A6F000E7B6F90
:10308600DCEC02F00501E12BD7D7010EE227000E9A
:10309600E323E423E523D00EE86F000EE96F000179
:1030A600CF510501E05D04E10001CE510501DF5D70
:1030B6000FE2E2C576F6E3C577F6E4C578F6E5C530
:1030C60079F6D00E06017A6F000E7B6FA0EC03F046
:1030D60090D7E8C5E1FFE9C5E2FFFF0EE66EFF0EF9
:1030E600E66E0501E16B1351E15D26E2E1C500F0F4
:1030F600000E016E16C504F017C505F09CEC04F031
:103106000050E2250601766F01500501E321060114
:10311600776F000E0501E4210601786F000E0501A8
:10312600E5210601796FD00E7A6F000E7B6FDCEC1D
:0A31360002F00501E12BD7D71200CB
:1031400016C500F017C501F0CEC004F0CFC005F0E1
:103150009CEC04F000C0E3F501C0E4F5020E0501AB
:10316000DF6F000EE06FCEC004F0CFC005F0020E9E
:10317000006E000E016E6BEC05F000C0E7F501C0BB
:10318000E8F5000EE96FEA6F1851E725ED6F195168
:10319000E821EE6F1A51E921EF6F1B51EA21F06F20
:1031A000EDC5E7F5EEC5E8F5EFC5E9F5F0C5EAF5DB
:1031B000CEC004F0CFC005F0020E006E000E016E0E
:1031C0006BEC05F008C000F009C001F000C002F08F
:1031D00001C003F0023602900336DDC5E5F5DEC519
:1031E000E6F5020EE16F000EE26FD00E0224EB6FE7
:1031F000000E0320EC6FEDC576F6EEC577F6EFC551
:1032000078F6F0C579F662EC04F0010E0201D06F99
:10321000D00E0601766F000E776F24EC04F00501E6
:10322000E451E05D02E1E351DF5D3FE2EBC5E9FF20
:10323000ECC5EAFFEECF01F0EECF02F0000E02186F
:1032400002E1000E011809E1010EE55F000EE65BE8
:10325000E551E61101E129D00AD0DDC5E5F5DEC56D
:10326000E6F5010EDF25E16F000EE021E26F020EB0
:10327000EB25016E000EEC21026E01C0EBF502C0E1
:10328000ECF5DF4BE02B02507C1902E17B51011879
:103290000BE1D00EEB6F000EEC6FD00E0601766FD7
:1032A000000E776F24EC04F0BAD765EC02F0005200
:1032B00008E0100E0001CD6FFF0E006EFF0E016ED4
:1032C0000BD00501E551E61105E1E1C500F0E2C5CD
:0A32D00001F002D0006A016A12004A
:1032DA00DD0E0601406F040E416FDDC542F6DEC504
:1032EA0043F676EC0FF0DD0E686F040E696F000E80
:1032FA006A6F000E6B6F71EC0AF0800E0018016E97
:10330A00800E000A015C02E2006A02D0010E006E21
:02331A0012009F
:10331C0005013E513F110AE1070E0001CD6FFF0E72
:10332C00006EFF0E016E026E036EF1D0010E0201F3
:10333C00D06F0501E0513D5D08E1DF513C5D05E1D9
:10334C00DE513B5D02E1DD513A5D09E23AC52CF5F7
:10335C003BC52DF53CC52EF53DC52FF508D0DDC57B
:10336C002CF5DEC52DF5DFC52EF5E0C52FF50DC509
:10337C0004F00EC505F0000E066E076E2CC500F0AD
:10338C002DC501F02EC502F02FC503F0AAEC0DF0EF
:10339C000FC504F010C505F0000E066E076EAAEC02
:1033AC000DF000C0E1F501C0E2F52AC530F52BC5E2
:1033BC0031F5000E006EE251005C02E1E1510008B3
:1033CC0026E230C568F631C569F630EC09F000C06C
:1033DC0030F501C031F50150FF0A02E1FF0E001873
:1033EC0010E13AC52CF53BC52DF53CC52EF53DC578
:1033FC002FF50A0E0001CD6F006A016A026A036A9A
:10340C0086D0010E0501E15F000EE25BD2D70DC53F
:10341C0004F00EC505F0000E066E076E2CC500F00C
:10342C002DC501F02EC502F02FC503F0AAEC0DF04E
:10343C000FC504F010C505F0000E066E076EAAEC61
:10344C000DF008C000F009C001F00AC002F00BC07A
:10345C0003F000C0E3F501C0E4F502C0E5F503C0DC
:10346C00E6F5E3C536F5E4C537F530C500F031C5F2
:10347C0001F0000E026E036E020E005E000E015A89
:10348C00025A035A0FC504F010C505F0000E066E63
:10349C00076EEAEC08F0205100262151012222513E
:1034AC00022223510322E3510026E4510122000E93
:1034BC000222032200C032F501C033F502C034F5FC
:1034CC0003C035F50DC504F00EC505F0000E066EF3
:1034DC00076E2CC500F02DC501F02EC502F02FC5CE
:1034EC0003F0AAEC0DF008C000F009C001F00AC00E
:1034FC0002F00BC003F000C038F501C039F52CC543
:10350C0000F02DC501F02EC502F02FC503F01200FE
:10351C000501DE6BDF6B270EDF5D02E1100EDE5D59
:10352C00D8B0AED0000E000A02E1000EDD1919E190
:10353C00A8EC01F0010E0601876F886B896B8A6B12
:10354C008B6BFF0E8C6FAAEC01F000C0E0F520EC49
:10355C0001F00501E051000A03E12B6A006A92D0E8
:10356C008CD0A8EC01F0370E0601876F886B896B45
:10357C008A6B8B6BFF0E8C6FAAEC01F000C0E0F530
:10358C0020EC01F00501E051010AD8A475D0A8EC9B
:10359C0001F0290E0601876F000E886F000E896FEF
:1035AC00000E8A6F400E8B6FFF0E8C6FAAEC01F031
:1035BC0000C0E0F520EC01F00501E051000A5BE1F0
:1035CC00000E000A02E1020EDD1951E1A8EC01F037
:1035DC003A0E0601876F886B896B8A6B8B6BFF0EBB
:1035EC008C6FAAEC01F000C0E0F5CBC0E1FFCCC0C1
:1035FC00E2FFFF0EE66EC9C000F0CAC001F053EC4A
:10360C0000F000C0E1F5CBC0E1FFCCC0E2FFFF0E43
:10361C00E66EC9C000F0CAC001F053EC00F0CBC09C
:10362C00E1FFCCC0E2FFFF0EE66EC9C000F0CAC0DD
:10363C0001F053EC00F0CBC0E1FFCCC0E2FFFF0E79
:10364C00E66EC9C000F0CAC001F053EC00F020ECEB
:10365C0001F00501E051000A09E1E1AD03D0040ECF
:10366C002B6E02D0030E2B6E006A0CD004D0010E10
:10367C002B6E006A07D001D003D0DE4BDF2B4BD76B
:06368C00010E006E1200A9
:10369200DDC540F6DEC541F640EC0DF0005206E015
:1036A200120E0001CD6FFF0E006E08D2DD0E060174
:1036B200406F040E416FDDC542F6DEC543F676EC7F
:1036C2000FF005013E513F1120E01C0E006E000E6E
:1036D200016E78C504F0000E78BFFF0E056E9CECFB
:1036E20004F0400E0024E16E050E0120E26E1C0E75
:1036F200006E240EE96E050EEA6EEECFE6FF0006BE
:10370200FCE13E6B3F6BFF0E786F2B0E0601876F5D
:10371200060E886FDD0E896F040E8A6F0D0E8B6F99
:10372200000E8C6F31EC02F0DD0E686F040E696FD3
:10373200050E6A6F060E6B6F71EC0AF0800E0018B0
:10374200016E800E000A015C6AE20501E0AF61D001
:103752000601386B396B3A6B3B6B3C6B3D6B580E19
:103762000501E015006E06E0080E0001CD6FFF0EA8
:10377200006EA4D1E10E0601876F050E886F896B7A
:10378200200E8A6F000E8B6F13EC02F07F0E050184
:10379200E015006E00C0ECF5E10E0601876F050E24
:1037A200886FDD0E896F040E8A6F0B0E8B6F000E11
:1037B2008C6F31EC02F0E10E406F050E416F3A0E54
:1037C200426F060E436F380E446F060E456F82EC51
:1037D2000BF0800E0018016E800E000A015C03E2FD
:1037E200FF0E006E6BD12B0E0601686F060E696F1D
:1037F200050E6A6F060E6B6F71EC0AF0800E0018F0
:10380200016E800E000A015C03E2FF0E006E56D1CB
:1038120006D00D0E0001CD6FFF0E006E4FD1580E77
:1038220006011215006E06E0080E0001CD6FFF0EB4
:10383200006E44D10601016B026B000E025D02E1D3
:10384200020E015D4BE21C0E006E000E016E01C6FF
:1038520004F002C605F09CEC04F0400E0026050EB2
:10386200012200C003F601C004F61A0E0024E96E1C
:10387200000E0120EA6EEE50EE102DE0060E03253A
:10388200D96E000E0421DA6EDECF01F0DECF02F037
:103892002451021802E1015023191DE11A0E0325D9
:1038A200E16E000E0421E26EDFC5E6FF000EE66E59
:1038B2001C0E006E240EE16E050EE26E03C6E9FFD9
:1038C20004C6EAFFEECFE6FF0006FCE101C678F58A
:1038D20001C600F0F3D0014B022BAFD7016B026B94
:1038E200000E025D02E1020E015DD8B0E2D01C0EB4
:1038F200006E000E016E01C604F002C605F09CECDB
:1039020004F0400E0026050E01221A0E0024E96E74
:10391200000E0120EA6EEECF00F0EECF01F0005073
:103922000110D8A4C2D01C0E006E000E016E01C69A
:1039320004F002C605F09CEC04F0400E0026050ED1
:10394200012200C003F601C004F600C087F601C0E0
:1039520088F6896B1C0E8A6F000E8B6F13EC02F0D7
:10396200060E0325026E000E0421036E0C0E0325C3
:10397200006E000E0421016E00C0E1FF01C0E2FFF3
:1039820023C6E6FF24C6E6FF00C0E9FF01C0EAFF46
:1039920002C0E1FF03C0E2FFEECFE6FFEECFE6FF9B
:1039A2001A0E0325E16E000E0421E26EDFC5E6FF6A
:1039B200000EE66E03C6E1FF04C6E2FF25C6E6FF7F
:1039C20026C6E6FF27C6E6FF28C6E6FF040E032545
:1039D200E16E000E0421E26E050E026E29C600F0B1
:1039E2002AC601F0025005E0003600900136FF0FB2
:1039F200FAD700C0E6FF01C0E6FF160E0325E16E0E
:103A0200000E0421E26E1FC6E6FF20C6E6FF21C6B5
:103A1200E6FF22C6E6FF0E0E03253E6F000E0421CE
:103A22003F6F0C0E0325E96E000E0421EA6EEECF05
:103A320000F0EECF01F0000E026E036E020E005E89
:103A4200000E015A025A035A0FC504F010C505F0C0
:103A5200000E066E076EEAEC08F005012051002602
:103A62002151012222510222235103223EC6E1FFAB
:103A72003FC6E2FF00C0E6FF01C0E6FF02C0E6FF6C
:103A820003C0E6FF1C0E006E240EE16E050EE26E10
:103A920003C6E9FF04C6EAFFEECFE6FF0006FCE13B
:103AA20001C678F501C600F009D00601014B022BD0
:0E3AB20017D7090E0001CD6FFE0E006E120038
:103AC000010E0201D06F060E006E000E016E06C5DB
:103AD00004F0000E056E9CEC04F0EE0E0026040EC1
:103AE0000122020E0024E96E000E0120EA6EEECFE4
:103AF00076F6EECF77F6EECF78F6EECF79F6D00EFB
:103B000006017A6F000E7B6FA0EC03F0005206E016
:103B1000100E0001CD6FFF0E006EB9D0DB0E060156
:103B2000876F000E886F3DEC01F000C00DF501C0FD
:103B30000EF5DDC00FF5000E0501106FDE0E06015B
:103B4000876F000E886F3DEC01F000C011F501C0D9
:103B500012F5E0C013F5E10E876F000E886F3DECA3
:103B600001F000C014F501C015F5E60E876F000ED8
:103B7000886F3DEC01F000C016F501C017F5060E88
:103B8000006E000E016E06C504F0000E056E9CEC82
:103B900004F0EE0E0026040E0122020E0024E96E4F
:103BA000000E0120EA6E05011151EE24DD6F125165
:103BB000EE20DE6F000EEE20DF6F000EEE20E06FD5
:103BC000DDC518F5DEC519F5DFC51AF5E0C51BF52D
:103BD00013C500F0000E016E16C504F017C505F000
:103BE0009CEC04F00050DD270150DE23000EDF23A3
:103BF000E023DDC51CF5DEC51DF5DFC51EF5E0C5FE
:103C00001FF5050E026E14C500F015C501F0025037
:103C100005E0003600900136FF0FFAD705010DC50B
:103C200004F00EC505F06BEC05F0000E026E036E9D
:103C3000DD510026DE510122DF510222E051032234
:103C400000C020F501C021F502C022F503C023F514
:103C50000DC5CEF00EC5CFF00001CF33CE33CF9FD0
:103C6000050E006E0DC50BF50EC50CF5005006E0F7
:103C700005010C330B330C9FFF0FF9D71CC5D9F48A
:103C80001DC5DAF41EC5DBF41FC5DCF4006A1200A2
:103C9000086A080E0C6E003408360450085ED8B06E
:0E3CA00002D00826D89000360C2EF5D7120060
:103CAE000E01E88B900EE76F37A703D0E3CE00F03E
:043CBE00FBD712001E
:103CC200070E0501A55D02E1BC0EA45D04E3BC0E76
:103CD200A45F070EA55B7F0EA417000EA5170F0E9B
:103CE200A615016E01C0A6F501500C0802E20C0EE9
:103CF200A66F010EA65D02E2010EA66FA7511F0874
:103D020002E21F0EA76F010EA75D02E2010EA76F6E
:103D1200A8511708D8A0A86BA9513B08D8A0A96B35
:103D2200AA513B08D8A0AA6B090E006EA4C5EAF4FA
:103D3200A5C5EBF4005006E00401EA37EA91EB373F
:103D4200FF0FF9D7A6C503F0000E046E050E026E32
:103D520003C000F004C001F0025005E000360090FC
:103D62000136FF0FFAD704010050EA130150EB139A
:103D72000501A7510401EA13000EEB13A8C5ECF4E8
:103D8200000EED6F0B0E006E005005E0EC37EC916B
:103D9200ED37FF0FFAD7A9C503F0000E046E050E2A
:103DA200026E03C000F004C001F0025005E00036CC
:103DB20000900136FF0FFAD704010050EC130150B6
:103DC200ED13AAC500F00032009E0050EC13000E65
:043DD200ED131200DB
:103DD600A4C581F5A5C582F5A6C583F5A7C584F555
:103DE600A8C58AF5A9C58BF5AAC58CF5ABC58DF511
:103DF600ACC58EF5ADC58FF5AEC590F5AFC591F5E1
:103E0600B0C585F5B1C586F5B2C587F5B3C588F5E4
:023E1600120098
:103E180078C5A7F5CDC0A9F5A4C5DDF5A5C5DEF51E
:103E2800070E0501DF6FA6C5E0F52FDC00C0A8F579
:103E3800800E0018016E800E000A015C38E2050150
:103E4800A851FE0A32E1A9C5CDF01C0E006E000E85
:103E5800016EA7C504F0000EA7BFFF0E056E9CEC0F
:103E680004F0400E0026050E01221A0E0024E16E11
:103E7800000E0120E26EE66AE66AA4C5DDF5A5C576
:103E8800DEF5070EDF6FA6C5E0F549EC1BF000C0B4
:103E9800A8F5800E0018016E800E000A015C02E28F
:103EA800006A07D0020E006E04D0006A02D0010E2C
:043EB800006E120086
:103EBC000501AE6B010E0201D06F0601766B776BBC
:103ECC00786B796BD00E7A6F000E7B6FA0EC03F0E1
:103EDC00005206E0100E0001CD6FFF0E006EADD14A
:103EEC00D00E0501A66F000EA76FFE0EA625E96E7B
:103EFC00010EA721EA6EEE50550A03E0010E006E8A
:103F0C009CD1FF0EA625E96E010EA721EA6EEE509C
:103F1C00AA0A03E0010E006E90D1AE6BA6C5E9FFB4
:103F2C00A7C5EAFFEE50E90A02E1010EAE6FA6C585
:103F3C00E9FFA7C5EAFFEE50EB0A0BE1020EA6253E
:103F4C00E96E000EA721EA6EEE50900A02E1010E16
:103F5C00AE6FAE53D8B4B9D0AA6BAB6BAC6BAD6BC8
:103F6C00EE0EA46F040EA56FA4C5E1FFA5C5E2FF7C
:103F7C00800EE66E020EA425E16E000EA521E26E07
:103F8C00E66AE66AE66AE66A95DD800E0018016E5E
:103F9C00800E000A015C03E2010E006E4ED1050199
:103FAC0016511711D8B485D00001E451E311006EFD
:103FBC001FE0E4C0AAF5000E0501AB6FAC6FAD6F4E
:103FCC00ACC5ADF5ABC5ACF5AAC5ABF5AA6B00019C
:103FDC00E3510501AA27000EAB23AC23AD23010E40
:103FEC00A425E16E000EA521E26E040EE66E11D042
:103FFC000501F0C0AAF5F1C0ABF5F2C0ACF5F3C009
:10400C00ADF5010EA425E16E000EA521E26E060EA3
:10401C00E66EAAC500F0ABC501F0ACC502F0ADC5AB
:10402C0003F02051005E2151015A2251025A2351B2
:10403C00035A0FC504F010C505F0000E066E076E8E
:10404C00AAEC0DF000C0AAF501C0ABF502C0ACF5AE
:10405C0003C0ADF5000E035C08E1000E025C05E147
:10406C000F0E015C02E1F50E005C0BE2010EA425C3
:10407C00E16E000EA521E26E010EE66E010E006EE1
:10408C00DCD0AD51000808E1AC51000805E1AB51A2
:10409C00FF0802E1AA51F5080BE2010EA425E16E1E
:1040AC00000EA521E26E0B0EE66E010E006EC5D061
:1040BC000BD0010EA425E16E000EA521E26E0B0EB5
:1040CC00E66E010E006EB9D0B7D08E0EA66F020E42
:1040DC00A76FA86BA96B000EA95D02E1040EA85D89
:1040EC0058E2060E006E000E016EA8C504F0A9C5BC
:1040FC0005F09CEC04F0EE0E0026040E012200C02C
:10410C00A4F501C0A5F5A6C5E9FFA7C5EAFF00C047
:10411C00E1FF01C0E2FFEECFE6FF040EA625006E24
:10412C00000EA721016E00C0A6F501C0A7F5010E77
:10413C00A425E16E000EA521E26E00C0E9FF01C0CE
:10414C00EAFFEECFE6FF040EA625006E000EA721B7
:10415C00016E00C0A6F501C0A7F5020EA425AF6F35
:10416C00000EA521B06F00C087F601C088F67BEC6D
:10417C0000F0AFC5E1FFB0C5E2FF00C0E6FF01C033
:10418C00E6FF02C0E6FF03C0E6FF0501A84BA92B22
:10419C00A2D7060E006E000E016E06C504F0000ECE
:1041AC00056E9CEC04F0EE0E0026040E0122010EAE
:1041BC000024E96E000E0120EA6EEE50040A31E094
:1041CC00060E006E000E016E06C504F0000E056EA4
:1041DC009CEC04F0EE0E0026040E0122010E0024CD
:1041EC00E96E000E0120EA6EEE50060A1AE0060E89
:1041FC00006E000E016E06C504F0000E056E9CEC00
:10420C0004F0EE0E0026040E0122010E0024E96ECD
:10421C00000E0120EA6EEE500E0A03E0010E006E55
:10422C000CD048DC800E0018016E800E000A015C78
:0C423C0003E2010E006E01D0006A1200C7
:10424800050E2B6E849020EC01F00501A46BA56B84
:10425800000EA55D02E10A0EA45D10E2CBC0E1FFED
:10426800CCC0E2FFFF0EE66EC9C000F0CAC001F084
:1042780053EC00F00501A44BA52BEAD7A8EC01F0FC
:104288000601876B886B896B8A6B8B6B950E8C6FBD
:10429800AAEC01F000C0A6F520EC01F00501A6513A
:1042A800010A03E0010E006E81D0A8EC01F0080EAF
:1042B8000601876FAA0E886F010E896F000E8A6F3C
:1042C8008B6F870E8C6FAAEC01F000C0A6F5CBC0EF
:1042D800E1FFCCC0E2FFFF0EE66EC9C000F0CAC025
:1042E80001F053EC00F0CBC0E1FFCCC0E2FFFF0EC1
:1042F800E66EC9C000F0CAC001F053EC00F0CBC0B4
:10430800E1FFCCC0E2FFFF0EE66EC9C000F0CAC0F4
:1043180001F053EC00F0CBC0E1FFCCC0E2FFFF0E90
:10432800E66EC9C000F0CAC001F053EC00F020EC02
:1043380001F00501A651010A0AE0010EDD6F8EECBD
:104348001AF0005203E0DD6B8EEC1AF004D0020E76
:10435800DD6F8EEC1AF0000E000A02E1050E2B1834
:1043680003E1020E006E22D0000E000A02E1040EE4
:104378002B181BE0A8EC01F0100E0601876F000E49
:10438800886F020E896F000E8A6F8B6FFF0E8C6F1D
:10439800AAEC01F000C0A6F520EC01F00501A65139
:0E43A800000A03E0030E006E01D0006A12004E
:1043B600956A949C949E0501A4519512A651951256
:1043C600A5519412A65305E0A751000AD8B4948CBF
:0C43D60003D0A753D8A4948C958A120041
:1043E200100E0501DD6FDE6B120EDF6FDBEC16F0D7
:1043F200110E0501DD6F010EDE6F250EDF6FDBECA6
:0444020016F012009E
:10440600010E0201D06FD00E0601876F000E886F75
:10441600896B000E8A6F020E8B6F13EC02F005019A
:10442600A46B020EA45D1BE21C0E006E000E016E54
:10443600A4C504F0000E056E9CEC04F0400E0024AA
:104446000601876F050E0120886F896B1C0E8A6F27
:10445600000E8B6F13EC02F00501A42BE2D7240E9D
:104466000601876F050E886F896B1C0E8A6F000E1A
:104476008B6F13EC02F00501A46B040EA45D1BE226
:10448600060E006E000E016EA4C504F0000E056E49
:104496009CEC04F0EE0E00240601876F040E01204A
:1044A600886F896B060E8A6F000E8B6F13EC02F015
:1044B6000501A42BE2D70D0E0601876F050E886F46
:1044C600896B170E8A6F000E8B6F13EC02F0D00EFD
:1044D60005017B6F020E7C6F066B0401D96BDA6BEC
:1044E600DB6BDC6B0001CD6B0501796B7A6B076BBF
:1044F600086B096B0A6BFF0E786FDD0E0601876F7E
:10450600040E886F896B0D0E8A6F000E8B6F13EC8D
:0E45160002F00401EC6BED6BEA6BEB6B120034
:10452400130E0501DD6FDE6B190EDF6FDBEC16F089
:10453400140E0501DD6F010EDE6F2A0EDF6FDBEC5A
:1045440016F0150E0501DD6FDE6B1A0EDF6FDBEC66
:0445540016F012004B
:1045580005013E513F1106E1070E0001CD6F010E26
:10456800006E3FD005013E6B3F6B1C0E006E000EC7
:10457800016E78C504F0000E78BFFF0E056E9CEC46
:1045880004F0400E0024E16E050E0120E26E1C0EC0
:10459800006E240EE96E050EEA6EEECFE6FF000609
:1045A800FCE10501FF0E786F2AC540F62BC541F6E0
:1045B80024C542F625C543F626C544F627C545F663
:1045C80028C546F629C547F607EC16F0800E0018F0
:1045D800016E800E000A015C03E2020E006E01D03B
:0445E800006A120053
:1045EC0005013E513F110AE1070E0001CD6FFF0E90
:1045FC00006EFF0E016E026E036E08D03AC500F01D
:0E460C003BC501F03CC502F03DC503F01200B5
:10461A0005013EB104D0070E0001CD6FE1D00501BE
:10462A003D512F5D08E13C512E5D05E13B512D5D69
:10463A0002E13A512C5D04E30B0E0001CD6FD0D09C
:10464A0005013951020A02E1000E3819D8A484D0B2
:10465A00386B396B010E3625006E000E3721016E5C
:10466A0000C036F501C037F53751101902E10F5174
:10467A00361946E1366B376B30C568F631C569F6CF
:10468A0030EC09F000C030F501C031F50150FF0AE5
:10469A0002E1FF0E00180CE13AC52CF53BC52DF5D9
:1046AA003CC52EF53DC52FF50A0E0001CD6F98D0F9
:1046BA0030C500F031C501F0000E026E036E020E25
:1046CA00005E000E015A025A035A0FC504F010C5C3
:1046DA0005F0000E066E076EEAEC08F0050120519F
:1046EA00002621510122225102222351032200C015
:1046FA0032F501C033F502C034F503C035F514D0E4
:10470A00010E3225006E000E3321016E000E342197
:10471A00026E000E3521036E00C032F501C033F57A
:10472A0002C034F503C035F50201D06B32C576F606
:10473A0033C577F634C578F635C579F6D00E060155
:10474A007A6F000E7B6FA0EC03F0005204E0100EAB
:10475A000001CD6F45D019D00201D05316E0D06BBD
:10476A0032C576F633C577F634C578F635C579F6A7
:10477A00D00E06017A6F000E7B6FA0EC03F0005298
:10478A0004E0100E0001CD6F2BD0D00E05013825A4
:10479A00E96E000E3921EA6EA4C5E1FFA5C5E2FF64
:1047AA00EECFE6FF010E3825006E000E3921016EAC
:1047BA0000C038F501C039F5010E2C25006E000E37
:1047CA002D21016E000E2E21026E000E2F21036E86
:1047DA0000C02CF501C02DF502C02EF503C02FF53F
:0247EA001200BB
:1047EC000501AC6BAD6BA4C5AEF5A5C5AFF5A6C503
:1047FC00B0F5A7C5B1F5800EA719006E800E005C50
:10480C0008E1000EA65D05E1000EA55D02E1000EBB
:10481C00A45D10E2010EAC6F000EAD6FAE6BAF6B12
:10482C00B06BB16BA451AE5FA551AF5BA651B05B41
:10483C00A751B15BAEC5DDF5AFC5DEF5B0C5DFF593
:10484C00B1C5E0F5A8C5E1F5A9C5E2F563EC16F034
:10485C000B0EAA6F000EAB6F000E006EAB51005C1E
:10486C0002E1AA51000819E2AA51A825E16EAB5148
:10487C00A921E26E010EAA5D006E000EAB59016E0D
:10488C000050A825E96E0150A921EA6EEECFE6FF93
:10489C00010EAA5F000EAB5BDFD7A8C5E1FFA9C56F
:1048AC00E2FF200EE66EAC51AD111AE0AA6BAB6BB9
:1048BC00AA51A825E96EAB51A921EA6EEE50200A47
:1048CC0003E1AA4BAB2BF4D7010EAA5F000EAB5B36
:1048DC00AA51A825E16EAB51A921E26E2D0EE66E10
:0248EC001200B8
:1048EE000501A86B050EA85D0AE2A851A625E16E8A
:1048FE00000EA721E26E200EE66EA82BF3D7A8516C
:10490E00A625E16E000EA721E26EE66AA807A85161
:10491E00A625A96F000EA721AA6F0A0E046E000E1F
:10492E00056EA4C500F0A5C501F06BEC05F008C03E
:10493E0000F009C001F0300E0026A9C5E1FFAAC59E
:10494E00E2FF00C0E6FF0A0E046E000E056EA4C55F
:10495E0000F0A5C501F06BEC05F000C0A4F501C098
:10496E00A5F5000E011802E1000E001801E102D0BB
:06497E00A807CDD71200CE
:104984000501A76B030EA75D0AE2A751A525E16EF9
:10499400000EA621E26E200EE66EA72BF3D7A751D8
:1049A400A525E16E000EA621E26EE66AA707A751CF
:1049B400A525A86F000EA621A96F0A0E046EA4C532
:1049C40000F048EC1EF008C000F0300E0026A8C528
:1049D400E1FFA9C5E2FF00C0E6FF0A0E046EA4C50C
:1049E40000F048EC1EF000C0A4F50050000A01E1FC
:0849F40002D0A707DCD7120076
:1049FC0005013E513F1104E1070E0001CD6F50D06F
:104A0C00010E0201D06F24C576F625C577F626C5B2
:104A1C0078F627C579F6D00E06017A6F000E7B6FFB
:104A2C00A0EC03F0005204E0100E0001CD6F38D062
:104A3C00D00E050128250601766F000E05012921EF
:104A4C000601776FAE0E786F050E796FB7EC05F037
:104A5C00ACC5E1FFADC5E2FFC6C5E6FFAAC5E1FFE7
:104A6C00ABC5E2FFC5C5E6FFA8C5E1FFA9C5E2FFDE
:104A7C00C4C5E6FFA6C5E1FFA7C5E2FFC3C5E6FFB7
:104A8C00C2C500F0000E016EBC0E0026070E0122FE
:104A9C00A4C5E1FFA5C5E2FF00C0E6FF01C0E6FF2B
:024AAC001200F6
:104AAE0005013E513F1104E1070E0001CD6F50D0BC
:104ABE00010E0201D06F24C576F625C577F626C500
:104ACE0078F627C579F6D00E06017A6F000E7B6F49
:104ADE00A0EC03F0005204E0100E0001CD6F38D0B0
:104AEE00D00E050128250601766F000E050129213D
:104AFE000601776FAE0E786F050E796FB7EC05F085
:104B0E00ACC5E1FFADC5E2FFC0C5E6FFAAC5E1FF3A
:104B1E00ABC5E2FFBFC5E6FFA8C5E1FFA9C5E2FF31
:104B2E00BEC5E6FFA6C5E1FFA7C5E2FFBDC5E6FF10
:104B3E00BCC500F0000E016EBC0E0026070E012251
:104B4E00A4C5E1FFA5C5E2FF00C0E6FF01C0E6FF78
:024B5E00120043
:104B600005013EB10CD0A4C5E1FFA5C5E2FFE66A90
:104B7000E66AE66AE66A070E0001CD6F13D005010A
:104B8000DD6BDE6BDF6BE06B8EEC19F0A4C5E1FF33
:104B9000A5C5E2FF3AC5E6FF3BC5E6FF3CC5E6FF1B
:064BA0003DC5E6FF120016
:104BA600A8C540F6A9C541F640EC0DF0005208E054
:104BB600120E0001CD6F006A016A026A036A12D101
:104BC6000FC504F010C505F0000E066E076EA4C5ED
:104BD60000F0A5C501F0A6C502F0A7C503F0AAEC32
:104BE6000DF000C0ABF501C0ACF50FC504F010C563
:104BF60005F0000E066E076EA4C500F0A5C501F00F
:104C0600A6C502F0A7C503F0AAEC0DF008C000F097
:104C160009C001F00AC002F00BC003F000500110F9
:104C26000210031003E00501AB4BAC2BABC5DDF561
:104C3600ACC5DEF5A0EC18F000C0ADF501C0AEF5D0
:104C4600000E015C02E1020E005C05E2006A016AE8
:104C5600026A036AC7D0D9C4AFF5DAC4B0F5DBC4BB
:104C6600B1F5DCC4B2F51CC5D9F41DC5DAF41EC510
:104C7600DBF41FC5DCF4A8C5DDF5A9C5DEF56DECD2
:104C860019F0005206E0A8C5DDF5A9C5DEF5E7EC8A
:104C960016F0DD0E0601406F040E416FA8C542F600
:104CA600A9C543F676EC0FF0DD0E766F040E776F2E
:104CB600C4EC04F0BD0E876F050E886F896B200E5D
:104CC6008A6F000E8B6F13EC02F0BD0E876F050E18
:104CD600886FDD0E896F040E8A6F0B0E8B6F000EC8
:104CE6008C6F31EC02F07F0E0501AA15006E00C034
:104CF600C8F5ADC5D7F5AEC5D8F5A4C500F0A5C5B0
:104D060001F0A6C502F0A7C503F00DC504F00EC557
:104D160005F0000E066E076EEAEC08F000C0B3F56B
:104D260001C0B4F502C0B5F503C0B6F5B3C5D9F5F3
:104D3600B4C5DAF5B5C5DBF5B6C5DCF5BD0E0601BD
:104D4600406F050E416FB70E426F050E436FBB0EE7
:104D5600446F050E456F82EC0BF0800E0018016E55
:104D6600800E000A015C0DE2AFC5D9F4B0C5DAF4D5
:104D7600B1C5DBF4B2C5DCF4006A016A026A036AF3
:104D860031D0ADC5DDF5AEC5DEF5ABC5DFF5ACC5DD
:104D9600E0F583EC17F0AFC5D9F4B0C5DAF4B1C5C8
:104DA600DBF4B2C5DCF4ADC500F0AEC501F0000E13
:104DB600026E036E020E005E000E015A025A035A7C
:104DC6000FC504F010C505F0000E066E076EEAEC7E
:104DD60008F005012051002621510122225102220C
:064DE6002351032212001C
:104DEC00060E05013E15006E3FC501F0000E0116C2
:104DFC000050011004E1070E0001CD6F23D2050114
:104E0C00A651A71101E11ED2010E0201D06F0501BE
:104E1C003951020A02E1000E381922E0000E39194C
:104E2C0002E1000E381907E10E51A75D02E10D51A8
:104E3C00A65D01E315D032C576F633C577F634C5D9
:104E4C0078F635C579F6D00E06017A6F000E7B6FB9
:104E5C00A0EC03F0005204E0100E0001CD6FF2D173
:104E6C000501A86BA96BA751A95D02E1A651A85D2C
:104E7C00D8B014D1D00E3825E16E000E3921E26E77
:104E8C00A851A425E96EA951A521EA6EEECFE6FF43
:104E9C00010E3825006E000E3921016E00C038F568
:104EAC0001C039F53951020A02E1000E3819D8A4B3
:104EBC00F1D032C576F633C577F634C578F635C5FC
:104ECC0079F6D00E06017A6F000E7B6FDCEC02F0E7
:104EDC00005219E00501A8512C25006EA9512D2175
:104EEC00016E000E2E21026E000E2F21036E00C0EB
:104EFC002CF501C02DF502C02EF503C02FF5050EC3
:104F0C000001CD6F9FD10501386B396B010E322535
:104F1C00006E000E3321016E000E3421026E000E65
:104F2C003521036E00C032F501C033F502C034F5F3
:104F3C0003C035F5010E3625006E000E3721016ECB
:104F4C0000C036F501C037F53751101902E10F5189
:104F5C0036196AE130C568F631C569F630EC09F0EE
:104F6C0000C0AAF501C0ABF50150FF0A02E1FF0E2B
:104F7C0000182DE19CEC09F000C0AAF501C0ABF5BE
:104F8C000150FF0A02E1FF0E00180CE13AC52CF5A6
:104F9C003BC52DF53CC52EF53DC52FF50A0E000180
:104FAC00CD6F50D130C568F631C569F6AAC56AF621
:104FBC00ABC56BF607EC08F0AAC568F6ABC569F68D
:104FCC00FF0E06016A6FFF0E6B6F07EC08F0AAC5A7
:104FDC0030F5ABC531F50501366B376B30C500F0DC
:104FEC0031C501F0000E026E036E020E005E000E63
:104FFC00015A025A035A0FC504F010C505F0000EF1
:10500C00066E076EEAEC08F02051002621510122B1
:10501C00225102222351032200C032F501C033F584
:10502C0002C034F503C035F5A851A65D016EA95137
:10503C00A759026E020E025C02E1000E015C2AE22C
:10504C0032C576F633C577F634C578F635C579F6BC
:10505C00D00E06017A6F000E7B6FA0EC03F00052AD
:10506C0019E00501A8512C25006EA9512D21016EC6
:10507C00000E2E21026E000E2F21036E00C02CF5A7
:10508C0001C02DF502C02EF503C02FF5100E000146
:10509C00CD6FD8D00501A84BA92BE5D638513911C5
:1050AC0015E032C576F633C577F634C578F635C5D6
:1050BC0079F6D00E06017A6F000E7B6FDCEC02F0F5
:1050CC00005204E0050E0001CD6FBCD00501A651C5
:1050DC002C25016EA7512D21026E000E2E21036E80
:1050EC00000E2F21046E01C02CF502C02DF503C05B
:1050FC002EF504C02FF504503D5D08E103503C5DD6
:10510C0005E102503B5D02E101503A5D08E22CC51D
:10511C003AF52DC53BF52EC53CF52FC53DF524C5FF
:10512C0076F625C577F626C578F627C579F6D00E1E
:10513C0006017A6F000E7B6FA0EC03F0005204E0C6
:10514C00100E0001CD6F7ED0D00E05012825006E0B
:10515C00000E2921016E00C0ACF501C0ADF51C0E8E
:10516C000024E16E000E0120E26E3AC5E6FF1C0E33
:10517C00AC25006E000EAD21016E010E0024E16E17
:10518C00000E0120E26E3BC5E6FF1C0EAC25006E46
:10519C00000EAD21016E020E0024E16E000E012006
:1051AC00E26E3CC5E6FF1C0EAC25006E000EAD2178
:1051BC00016E030E0024E16E000E0120E26E3DC56F
:1051CC00E6FF160EAC25E16E000EAD21E26EECC4CE
:1051DC00E6FF160EAC25006E000EAD21016E010E21
:1051EC000024E16E000E0120E26EEDC4E6FF180E05
:1051FC00AC25E16E000EAD21E26EEAC4E6FF180E9E
:10520C00AC25006E000EAD21016E010E0024E16E86
:10521C00000E0120E26EEBC4E6FF24C576F625C530
:10522C0077F626C578F627C579F6D00E06017A6F83
:10523C00000E7B6FDCEC02F0005204E0050E000166
:06524C00CD6F00D012003E
:10525200060E05013E15006E3FC501F0000E011657
:105262000050011004E1070E0001CD6F0AD03AC5CB
:10527200DDF53BC5DEF53CC5DFF53DC5E0F58EEC61
:0452820019F012000D
:10528600A4C5DDF5A5C5DEF5D4EC16F00D0E876FC9
:1052960014EC01F00A0E0601876F14EC01F01200FF
:1052A600060E05013E15006E3FC501F0000E011603
:1052B6000050011004E1070E0001CD6F07D0050173
:0E52C600DD6BDE6BDF6BE06B8EEC19F012001F
:1052D400778E0900F5CFE6FF0006FBE10106F9E150
:0252E4001200B6
:1052E6000501926B936B020E935D02E1000E925DD7
:1052F6000BE2D50E9225E16E020E9321E26E92C567
:10530600E6FF924B932BEFD7880EA46F130EA56F73
:10531600000EA66FA76F2C0EA86F000EA96F200EA9
:10532600AA6F3EDC00C0D1F201C0D2F202C0D3F2B5
:1053360003C0D4F200500110021003103CE0D1C2A9
:10534600A4F5D2C2A5F5D3C2A6F5D4C2A7F58A0E96
:105356000501A86F000EA96FF6EC23F08A0EA46F64
:10536600000EA56F8DDF0501926B936B130E935D97
:1053760002E1880E925D1FE2D1C276F6D2C277F6BE
:10538600D3C278F6D4C279F6D50E06017A6F020E2C
:105396007B6FDCEC02F0010E0201D127000ED22356
:1053A600D323D4232E0E0601876F14EC01F00501DA
:0853B600924B932BDBD7120090
:1053BE00F1EC21F0FF0E0501A46FFF0EA56F000E9C
:1053CE00A66F000EA76F280EA86F020EA96F870E8C
:1053DE00AA6F060EAB6FFF0EAC6FFF0EAD6F000E19
:1053EE00AE6F000EAF6FFF0EB06FFF0EB16F000EFF
:1053FE00B26F000EB36FEBEC1EF057EC1EF0120006
:10540E00420E0001AA6FA30E0501A46F000EA56F38
:10541E00A66B0CEC1FF0DA0E0501A46F070EA56F3C
:10542E00040EA66F130EA76F090EA86F140EA96FA8
:10543E00AA6B61EC1EF006DF620E0501A46F000E72
:0E544E00A56F1B0EA66F000EA76FC9DC120023
:10545C00420E0001AA6FA30E0501A46F000EA56FEA
:10546C00A66B0CEC1FF0D10E0501A46F020EA56FFC
:10547C00B0EC25F0010E0401D56F000ED66FD76F7E
:10548C00D86FD8510201D45D0EE10401D75102014D
:10549C00D35D09E10401D6510201D25D04E104019E
:1054AC00D5510201D15D13E3920E0501A46F050ED7
:1054BC00A56F0DEC23F092C587F614EC01F0010EEC
:1054CC000401D527000ED623D723D823DAD7120010
:1054DC00420E0001C86FC8515A0848E3C8C087F68D
:1054EC0014EC01F0C8C0AAF0DA0E0501A46F070E87
:1054FC00A56F040EA66F130EA76F090EA86FA96BEC
:10550C00AA6B61EC1EF0A30E0501A46F000EA56F33
:10551C00A00EA66F0CEC1FF0C0DE010E0501896F0A
:10552C0089512C0820E30A0E046E89C500F048EC62
:10553C001EF0300E0024376E0A0E046E89C500F082
:10554C0048EC1EF008C000F0300E0024386E370E08
:10555C00A46F000EA56F2A0EA66F000EA76F40DC7D
:0E556C000501892BDDD70001C82BB5D7120031
:10557A00430E0001AA6FA30E0501A46F000EA56FCA
:10558A00A66B0CEC1FF08ADE010E0501896F8951AA
:10559A00370820E30A0E046E89C500F048EC1EF0B5
:1055AA00300E0024376E0A0E046E89C500F048ECEE
:1055BA001EF008C000F0300E0024386E370EA46FBB
:1055CA00000EA56F2A0EA66F000EA76F0ADC050152
:0655DA00892BDDD7120051
:1055E000410E0001AA6FDA0E0501A46F070EA56F28
:1055F000040EA66F130EA76F090EA86FA96BAA6BF6
:1056000061EC1EF0A30E0501A46F000EA56FA00EA5
:10561000A66F0CEC1FF047DE010E0501896F895162
:10562000630827E32E0E0601876F14EC01F00A0EC3
:10563000046E89C500F048EC1EF0300E0024376E71
:105640000A0E046E89C500F048EC1EF008C000F098
:10565000300E0024386E370E0501A46F000EA56FC2
:105660002A0EA66F000EA76FF6EC26F00501892B17
:04567000D6D7120077
:105674000501926B24EC21F0922B005204E0320ECF
:10568400925D01E2F7D7320E925D03E3FF0E006EE6
:0C56940004D003EC22F05EEC1FF01200CA
:1056A00092EC22F0420E0001C96F000ECA6F910EFB
:1056B000CB6F060ECC6FB20E05017D6F040E7E6FB0
:1056C000870E7F6F060E806F92C5A4F593C5A5F572
:0E56D00094C5A6F595C5A7F5DBEC21F01200F8
:1056DE00460E0001AA6FA30E0501A46F000EA56F62
:0C56EE00A66B0CEC1FF0ACEC22F01200DC
:1056FA00420E0001AA6FA30E0501A46F000EA56F4A
:10570A00A66B0CEC1FF00052D8B4F9D0920E05012A
:10571A00A46F050EA56F940EA66F050EA76F950EC2
:10572A00A86F050EA96F960EAA6F050EAB6F970E9E
:10573A00AC6F050EAD6F57EC25F0B10E0501DD6FAC
:10574A00000EDE6FD4EC16F092C5A4F593C5A5F54C
:10575A00980E0501A66F050EA76F77EC24F0980E38
:10576A00DD6F050EDE6FD4EC16F094C5A4F5980E25
:10577A000501A56F050EA66FC2EC24F0980EDD6F29
:10578A00050EDE6FD4EC16F095C5A4F5000E0501E2
:10579A00A56F980EA66F050EA76F77EC24F0980EEA
:1057AA00DD6F050EDE6FD4EC16F096C5A4F5000E7B
:1057BA000501A56F980EA66F050EA76F77EC24F06A
:1057CA00980EDD6F050EDE6FD4EC16F097C5A4F5C2
:1057DA00000E0501A56F980EA66F050EA76F77EC50
:1057EA0024F0980EDD6F050EDE6FD4EC16F0920EE3
:1057FA000501A46F050EA56F940EA66F050EA76F7F
:10580A00950EA86F050EA96F960EAA6F050EAB6FBF
:10581A00970EAC6F050EAD6FFEEC24F0BC0E0501C1
:10582A00DD6F000EDE6FD4EC16F092C5A4F593C5B9
:10583A00A5F5980E0501A66F050EA76F77EC24F063
:10584A00980EDD6F050EDE6FD4EC16F094C5A4F544
:10585A00980E0501A56F050EA66FC2EC24F0980EEE
:10586A00DD6F050EDE6FD4EC16F095C5A4F5000EBB
:10587A000501A56F980EA66F050EA76F77EC24F0A9
:10588A00980EDD6F050EDE6FD4EC16F096C5A4F502
:10589A00000E0501A56F980EA66F050EA76F77EC8F
:1058AA0024F0980EDD6F050EDE6FD4EC16F097C566
:1058BA00A4F5000E0501A56F980EA66F050EA76F39
:1058CA0077EC24F0980EDD6F050EDE6FD4EC16F03F
:1058DA00F6EC22F000C0A4F501C0A5F502C0A6F5B9
:1058EA0003C0A7F5980E0501A86F050EA96FF6EC7F
:1058FA0023F0980EA46F050EA56FC0DC17D0550EC5
:10590A000601876F14EC01F0520E0B6E2B0E0C6E13
:10591A00000E0D6E0D2EFED70C2EFCD70B2EFAD7CD
:0E592A000000550E0601876F14EC01F012000C
:1059380058EC2DF00D0E0B6E2D0E0C6ED70E0D6E55
:105948000D2EFED70C2EFCD70B2EFAD70000000028
:105958000E01926B9A6BA76BAF6BB46BBC6B869E98
:105968007E8E869A7E8AE987400EE56F030EE66F83
:10597800E88521DDD00E0C6EC90E0D6E0D2EFED7FA
:105988000C2EFCD7000000007E0E0501A46F000E4F
:10599800A56F75DC150E0501DD6FDE6B1A0EDF6F66
:1059A800DBEC16F0010E0501926F936B946B010E00
:1059B800956F72DE5BDE0050000A15E1150E0501D9
:1059C800A46F000EA56F5BDC07DE84DDD2DD1BDD76
:1059D80041DD81DE8EDE83DC210E0501A46F000E21
:1059E800A56F4DDC06D08A0E0501A46F000EA56FC9
:0459F80046DCFFD7B3
