:10000000BBEF01F00000000000EF00F00000000076
:0A0010000000000000000000F3D71C
:10001C003D50030AD8B4838A3D50040AD8B4838C6B
:02002C001200C0
:10002E00F250026EF29E0500FF6A0150FE6E005005
:08003E00FD6E02BEF28E1200FD
:10004600C7B409D01F0EC514016E0150000A03E1A2
:0A005600010E006E01D0006A1200D6
:100060009E9635C0C9FF15C036F016C037F017C0D0
:1000700038F018C039F0C7A41FD01550161017104B
:10008000181019E036503710381039100EE127C01B
:10009000E1FF28C0E2FF040EE66E25C000F026C096
:1000A00001F0C5DF010E006E37D0010E365E000E86
:1000B000375A385A395ADFD715C036F016C037F0DC
:1000C00017C038F018C039F09EB61FD01550161062
:1000D0001710181019E036503710381039100EE18B
:1000E00027C0E1FF28C0E2FF040EE66E25C000F045
:1000F00026C001F09CDF010E006E0ED0010E365EB0
:10010000000E375A385A395ADFD7C5BC02D0006AB8
:0A01100003D0C584020E006E120039
:04011A00C584120086
:10011E00020E0B6E040E0C6EBA0E0D6E0D2EFED769
:0C012E000C2EFCD70B2EFAD7000012009C
:10013A0015C035F016C036F017C037F018C038F0C1
:10014A00C582C5A21DD0155016101710181017E039
:10015A0035503610371038100CE127C0E1FF28C09F
:10016A00E2FF060EE66E25C000F026C001F05ADF57
:10017A0007D0010E355E000E365A375A385AE1D783
:02018A00120061
:10018C0035C015F036C016F037C017F038C018F06F
:10019C0039C025F03AC026F03BC027F03CC028F00F
:0201AC0012003F
:1001AE00460E296E000E2A6E000E2B6E000E2C6E61
:1001BE00240E196E020E1A6E000E1B6E000E1C6EB1
:1001CE003A0E1D6E010E1E6E000E1F6E000E206E7C
:1001DE00AC0E216E020E226E350E236E000E246EB4
:1001EE00600E316E000E326E350E336E000E346EB2
:1001FE001A0E2D6E010E2E6E000E2F6E000E306E2C
:10020E00949894968B988B9694889486C79EC79C48
:06021E00380EC66E12004E
:1002240015C037F016C038F017C039F018C03AF0CE
:10023400356A366A3650120802E135508E0807E3F3
:1002440000DF005201E003D0354A362AF3D7120EFC
:10025400365C02E18F0E355C03E37B0E006E23D027
:10026400C580C5A01FD0155016101710181019E01E
:100274003750381039103A100EE127C0E1FF28C07A
:10028400E2FF050EE66E25C000F026C001F0CDDECB
:10029400010E006E08D0010E375E000E385A395A2E
:0802A4003A5ADFD7006A12008C
:1002AC0015C037F016C038F017C039F018C03AF046
:1002BC009E96C5869EB61DD0155016101710181098
:1002CC0017E03750381039103A100CE127C0E1FF15
:1002DC0028C0E2FF030EE66E25C000F026C001F038
:1002EC00A0DE07D0010E375E000E385A395A3A5A42
:1002FC00E1D7C9CF36F03550000A02E1C58A01D0EA
:10030C00C59A9E96C58815C037F016C038F017C030
:10031C0039F018C03AF09EB61DD0155016101710B3
:10032C00181017E03750381039103A100CE127C06C
:10033C00E1FF28C0E2FF030EE66E25C000F026C0E8
:10034C0001F06FDE07D0010E375E000E385A395AB5
:0A035C003A5AE1D736C000F0120053
:100366000900F5CFE6FF0006FBE10106F9E1120000
:1003760004EC02F00F01386B396B3A6B936A956A9D
:100386008A6A8C6A140EC86E0FDFE80E356E030E8D
:10039600366E000E376E386E1C0E396E000E3A6ED3
:1003A6003D0E3B6E000E3C6EEEDE39DFA20E356E64
:1003B60054DE020E356E51DEAA0E356E4EDEAADE14
:1003C600ABDE2DDFA20E356E48DE020E356E45DE43
:1003D600B1DEA30E356E41DE356A65DF00C08AFFE9
:1003E60099DE290E0B6E960E0C6E7F0E0D6E0D2E7F
:0E03F600FED70C2EFCD70B2EFAD7C7D7FFD799
:1004080010EE15F0040E006E010E016E040EF66E6D
:0E041800040EF76E000EF86EB3EC01F0120049
:0404040000000000F4
:020000040030CA
:0D000100231F3CFFBF81FF0FC00FE00F4029
:00000001FF
