:10000000F5EF61F00000000000EF00F000000000DC
:0A0010000000000000000000F3D71C
:0A001C00050E0D6E0D2EFED712002A
:10002600FADFF9DF7E947F807F9647C98DFF7F9246
:060036007F827E841200AF
:10003C007E947F807F8647C98DFF7F927F827E84EE
:06004C00E7DFE6DF120011
:0E0052007F9647C98DFF7F9200007F821200CB
:0E0060007F8647C98DFF7F9200007F821200CD
:10006E00F250026EF29E0500FF6A0150FE6E0050C5
:08007E00FD6E02BEF28E1200BD
:06008600C8C100F01200E9
:10008C000FC2E1FF10C2E2FF2A0EE66E0DC200F0B5
:10009C000EC201F0E6DF34C900F0016A0BC2E1FFC9
:1000AC000CC2E2FF00C0E6FF09C200F00AC201F078
:1000BC00D8DF0BC2E1FF0CC2E2FF33C9E6FF09C275
:1000CC0000F00AC201F0CDDF0FC2E1FF10C2E2FF67
:1000DC002B0EE66E0DC200F00EC201F0C2DF36C967
:1000EC0000F0016A0BC2E1FF0CC2E2FF00C0E6FFA8
:1000FC0009C200F00AC201F0B4DF0BC2E1FF0CC26E
:10010C00E2FF35C9E6FF09C200F00AC201F0A9DF1F
:10011C000FC2E1FF10C2E2FF2C0EE66E0DC200F022
:08012C000EC201F09EDF12007B
:100134000FC2E1FF10C2E2FF2A0EE66E0DC200F00C
:100144000EC201F092DF34C900F0016A0BC2E1FF74
:100154000CC2E2FF00C0E6FF09C200F00AC201F0CF
:1001640084DF0BC2E1FF0CC2E2FF33C9E6FF09C220
:1001740000F00AC201F079DF0FC2E1FF10C2E2FF12
:100184002B0EE66E0DC200F00EC201F06EDF36C912
:1001940000F0016A0BC2E1FF0CC2E2FF00C0E6FFFF
:1001A40009C200F00AC201F060DF0BC2E1FF0CC219
:1001B400E2FF35C9E6FF09C200F00AC201F055DFCB
:1001C4000FC2E1FF10C2E2FF2C0EE66E0DC200F07A
:0801D4000EC201F04ADF120027
:1001DC000B0E026E33C900F034C901F0025005E079
:1001EC0001320032019EFF0FFAD700C035F935C934
:1001FC0000F000360090003600900036009000C0F1
:10020C0035F9070E006E35C901F0005004E00132DB
:10021C00019EFF0FFBD70150010A03E1070E0901F4
:10022C00352735C947F904DF050E026E33C900F0D6
:10023C0034C901F0025005E001320032019EFF0F7B
:10024C00FAD700C035F935C900F0003600900036F9
:10025C00009000C035F9070E006E35C901F0005052
:10026C0004E00132019EFF0FFBD70150010A03E1AC
:10027C000901030E352735C947F9DADE030E016E85
:10028C0033C900F0015004E000360090FF0FFBD79B
:10029C0000C035F9070E006E35C901F0005004E0BE
:1002AC000132019EFF0FFBD70150010A03E1090146
:0C02BC00070E352735C947F9BBDE1200DC
:1002C8007F8634C98DFF7F9200007F8233C98DFFFE
:0802D8007F9200007F821200FA
:1002E0000FC2E1FF10C2E2FF020EE66E0DC200F087
:1002F0000EC201F0BCDE34C900F0016A0BC2E1FF9E
:100300000CC2E2FF00C0E6FF09C200F00AC201F021
:10031000AEDE0FC2E1FF10C2E2FF030EE66E0DC2B9
:1003200000F00EC201F0A3DE0BC2E1FF0CC2E2FF3F
:1003300033C9E6FF09C200F00AC201F098DE0FC21D
:10034000E1FF10C2E2FF060EE66E0DC200F00EC223
:1003500001F08DDE36C900F0016A0BC2E1FF0CC26C
:10036000E2FF00C0E6FF09C200F00AC201F07FDE32
:100370000FC2E1FF10C2E2FF070EE66E0DC200F0F1
:100380000EC201F074DE0BC2E1FF0CC2E2FF35C900
:10039000E6FF09C200F00AC201F069DE0FC2E1FF08
:1003A00010C2E2FF220EE66E0DC200F00EC201F096
:0403B0005EDE1200FB
:1003B40002014751010802E14651E00807E34551B3
:1003C400010802E14451E00801E30AD0200E0901CA
:1003D400436F030E446FE00E456F010E466F09D064
:1003E4000901E00E436F010E446F100E456F010EBC
:1003F400466F0101C7515A0A3BE143DE00521CE03B
:10040400010E0901435D006E000E4459016E39511D
:10041400005C3B6F3A5101583C6F3551005C3D6FB5
:10042400365101583E6F33C93FF934C940F937C9D1
:1004340041F938C942F91BD0090135C93BF936C91C
:100444003CF939C93DF93AC93EF9010E455D006EE2
:10045400000E4659016E3751005C3F6F3851015808
:10046400406F3351005C416F34510158426F39D0B1
:1004740008DE005226E00901010E435D006E000E05
:100484004459016E3751005C3B6F385101583C6F41
:100494003351005C3D6F345101583E6F010E455D90
:1004A400006E000E4659016E3951005C3F6F3A519F
:1004B4000158406F3551005C416F36510158426F0D
:1004C40010D033C93BF934C93CF937C93DF938C9AF
:1004D4003EF935C93FF936C940F939C941F93AC934
:1004E40042F90FC2E1FF10C2E2FF2A0EE66E0DC20E
:1004F40000F00EC201F0B9DD3CC900F0016A0BC284
:10050400E1FF0CC2E2FF00C0E6FF09C200F00AC22C
:1005140001F0ABDD0BC2E1FF0CC2E2FF3BC9E6FF19
:1005240009C200F00AC201F0A0DD3EC900F0016A70
:100534000BC2E1FF0CC2E2FF00C0E6FF09C200F0FB
:100544000AC201F092DD0BC2E1FF0CC2E2FF3DC919
:10055400E6FF09C200F00AC201F087DD0FC2E1FF25
:1005640010C2E2FF2B0EE66E0DC200F00EC201F0C7
:100574007CDD40C900F0016A0BC2E1FF0CC2E2FF5E
:1005840000C0E6FF09C200F00AC201F06EDD0BC232
:10059400E1FF0CC2E2FF3FC9E6FF09C200F00AC254
:1005A40001F063DD42C900F0016A0BC2E1FF0CC235
:1005B400E2FF00C0E6FF09C200F00AC201F055DD07
:1005C4000BC2E1FF0CC2E2FF41C9E6FF09C200F021
:1005D4000AC201F04ADD0FC2E1FF10C2E2FF2C0E95
:0E05E400E66E0DC200F00EC201F03FDD120007
:1005F2000FC2E1FF10C2E2FF2A0EE66E0DC200F04A
:100602000EC201F033DD34C900F0016A0BC2E1FF12
:100612000CC2E2FF00C0E6FF09C200F00AC201F00C
:1006220025DD0BC2E1FF0CC2E2FF33C9E6FF09C2BE
:1006320000F00AC201F01ADD0FC2E1FF10C2E2FFB0
:100642002B0EE66E0DC200F00EC201F00FDD36C9B0
:1006520000F0016A0BC2E1FF0CC2E2FF00C0E6FF3C
:1006620009C200F00AC201F001DD0BC2E1FF0CC2B7
:10067200E2FF35C9E6FF09C200F00AC201F0F6DC6A
:100682000FC2E1FF10C2E2FF2C0EE66E0DC200F0B7
:080692000EC201F0EBDC1200C6
:10069A000FC2E1FF10C2E2FF2A0EE66E0DC200F0A1
:1006AA000EC201F0DFDC0BC2E1FF0CC2E2FF34C96B
:1006BA00E6FF09C200F00AC201F0D4DC0BC2E1FF76
:1006CA000CC2E2FF33C9E6FF09C200F00AC201F018
:1006DA00C9DC0FC2E1FF10C2E2FF2B0EE66E0DC2AB
:1006EA0000F00EC201F0BEDC0BC2E1FF0CC2E2FF59
:1006FA0036C9E6FF09C200F00AC201F0B3DC0BC238
:10070A00E1FF0CC2E2FF35C9E6FF09C200F00AC2E6
:10071A0001F0A8DC0FC2E1FF10C2E2FF2C0EE66E68
:0C072A000DC200F00EC201F09DDC1200B8
:100736000450085E0550D8A0053C095E0650D8A0B6
:10074600063C0A5E0750D8A0073C0B5E0336070E30
:100756000C6E0334083609360A360B36045003A0ED
:100766000ED0085E0550D8A0053C095E0650D8A0FC
:10077600063C0A5E0750D8A0073C0B5E0DD0082643
:100786000550D8B0053C09260650D8B0063C0A26C6
:100796000750D8B0073C0B2603360C2EDAD70234A6
:1007A600083609360A360B36045003A00ED0085E0A
:1007B6000550D8A0053C095E0650D8A0063C0A5E46
:1007C6000750D8A0073C0B5E0DD008260550D8B0C0
:1007D600053C09260650D8B0063C0A260750D8B074
:1007E600073C0B260236070E0C6E02340836093615
:1007F6000A360B36045002A00ED0085E0550D8A06B
:10080600053C095E0650D8A0063C0A5E0750D8A0F3
:10081600073C0B5E0DD008260550D8B0053C0926CE
:100826000650D8B0063C0A260750D8B0073C0B261F
:1008360002360C2EDAD70134083609360A360B365C
:10084600045002A00ED0085E0550D8A0053C095EF3
:100856000650D8A0063C0A5E0750D8A0073C0B5E9F
:100866000DD008260550D8B0053C09260650D8B04C
:10087600063C0A260750D8B0073C0B260136070E61
:100886000C6E0134083609360A360B36045001A0C0
:100896000ED0085E0550D8A0053C095E0650D8A0CB
:1008A600063C0A5E0750D8A0073C0B5E0DD0082612
:1008B6000550D8B0053C09260650D8B0063C0A2695
:1008C6000750D8B0073C0B2601360C2EDAD7003479
:1008D600083609360A360B36045001A00ED0085EDB
:1008E6000550D8A0053C095E0650D8A0063C0A5E15
:1008F6000750D8A0073C0B5E0DD008260550D8B08F
:10090600053C09260650D8B0063C0A260750D8B042
:10091600073C0B260036070E0C6E003408360936E7
:100926000A360B36045000A00ED0085E0550D8A03B
:10093600053C095E0650D8A0063C0A5E0750D8A0C2
:10094600073C0B5E0DD008260550D8B0053C09269D
:100956000650D8B0063C0A260750D8B0073C0B26EE
:1009660000360C2EDAD700B00ED0045008260550FB
:10097600D8B0053C09260650D8B0063C0A260750D2
:08098600D8B0073C0B2612005B
:06098E00CFC100F01200D1
:100994000B1E0A1E091E081E082AD8B4092AD8B438
:0809A4000A2AD8B40B2A120044
:1009AC0025C956F226C957F227C958F2020E090179
:1009BC002525F66E000E2621F76E000E2721F86E07
:1009CC000900F5CF04F0030E2525F66E000E262146
:1009DC00F76E000E2721F86E0900F5CF03F003C067
:1009EC0001F0006A0450002402013A6F000E01204D
:1009FC003B6F040E09012525F66E000E2621F76EBD
:100A0C00000E2721F86E0900F5CF04F0050E252500
:100A1C00F66E000E2621F76E000E2721F86E0900E7
:100A2C00F5CF03F003C001F0006A0450002402016A
:100A3C00386F000E0120396F060E09012525F66E60
:100A4C00000E2621F76E000E2721F86E0900F5CF57
:100A5C005EF2000E02015F6F28C960F229C961F2D3
:100A6C002AC95DF2010E0101D06F02015A6B12000E
:100A7C00800E09012619006E800E005C02E1000E4A
:100A8C00255D0BE3020147510901265D04E10201DA
:100A9C0046510901255D01E201D055D0800E28197F
:100AAC00006E800E005C02E1000E275D0BE302017C
:100ABC0045510901285D04E1020144510901275DFA
:100ACC0001E201D040D07E945CDF00521BE042C2B8
:100ADC00E1FF43C2E2FF25C9E6FF26C9E6FF27C9AD
:100AEC00E6FF28C9E6FF25C9E6FF26C9E6FF27C9A8
:100AFC00E6FF28C9E6FF40C200F041C201F037EC26
:100B0C0000F012D050C2E1FF51C2E2FF25C9E6FF4E
:100B1C0026C9E6FF27C9E6FF28C9E6FF4EC200F04A
:100B2C004FC201F037EC00F04CC2E1FF4DC2E2FFC6
:100B3C0029C9E6FF2AC9E6FF4AC200F04BC201F000
:080B4C0037EC00F07E8412007A
:100B54002D0E0901316F020E326F000E006E2A5104
:100B6400005C02E12951000844E23EC2E1FF3FC2B9
:100B7400E2FF25C9E6FF26C9E6FF27C9E6FF28C923
:100B8400E6FF29C9E6FF2AC9E6FF2D0EE66E090E27
:100B9400E66E3CC200F03DC201F037EC00F000C04C
:100BA4002FF901C030F909012B6B2C6B2E512C5DF0
:100BB40002E12D512B5D11E22FC9E9FF30C9EAFF93
:100BC40031C9E1FF32C9E2FFEECFE6FF314B322BF0
:100BD4002F4B302B2B4B2C2BE9D72D51295F2E512A
:100BE4002A5B2D5125272E512623000E2723282347
:040BF400B4D7120060
:100BF8000B6A0A6A096A00500402F4CF09F0F3CFBD
:100C080008F001500502F4CF0BF0F3CF0AF00050C2
:100C18000502F3500926F4500A22E86A0B22015013
:100C28000402F3500926F4500A22E86A0B2208C08D
:100C380000F009C001F00AC002F00BC003F0120076
:100C4800220E0C6E086A096A0A6A0B6A0C06D8B486
:100C58001FD0D8900B320A320932083203320232DE
:100C680001320032D8A0F2D70C06D8B409D004500B
:100C780008260550092206500A2207500B22EAD7F7
:100C8800045008260550092206500A2207500B2254
:020C9800120048
:100C9A000450000A12E10550000A0FE10650000A4A
:100CAA000CE10750000A09E1FF0E006EFF0E016E0B
:100CBA00FF0E026E7F0E036E97D00C6A07BE0C2AD7
:100CCA000D6A0B6A0A6A096A086A0350021001105F
:100CDA000010D8B484D0035007180E6E0EBE0D1E35
:100CEA0007AE0BD0041E051E061E071E042AD8B422
:100CFA00052AD8B4062AD8B4072A03AE0BD0001E98
:100D0A00011E021E031E002AD8B4012AD8B4022AE0
:100D1A00D8B4032A035007100E6E0EBE1CD006DD8F
:100D2A000CBE36D00DAE5BD0001E011E021E031E85
:100D3A00002AD8B4012AD8B4022AD8B4032A081E31
:100D4A00091E0A1E0B1E082AD8B4092AD8B40A2A70
:100D5A00D8B40B2A44D007AE15D003BE0DD0035029
:100D6A000B6E02500A6E0150096E0050086E036A3B
:100D7A00026A016A006AD6D7036A026A016A006ACD
:100D8A00002A000C031E021E011E001E0C8EC7D76D
:100D9A00082AD8B4092AD8B40A2AD8B40B2A045083
:100DAA00085CD8A4BFD70550095CD8A4BBD70650A5
:100DBA000A5CD8A4B7D707500B5CD8A4B3D70B6A80
:100DCA000A6A096A086A002AD8B4012AD8B4022A27
:100DDA00D8B4032A03AEA6D70E6A0E88FF0C0E6A91
:0A0DEA000CA001D0D2DD000F1200B2
:100DF40025C901F00132019E0132019E0132019E9A
:100E040001C025F90B0E006E01C004F0000E056E42
:100E1400005005E0043604900536FF0FFAD726C9C2
:100E240003F00332039E0332039E03C026F9050E2A
:100E3400026E03C000F0000E016E025005E00036A1
:100E440000900136FF0FFAD700500410026E0550CF
:100E54000110036E27C900F00032009E0032009E8C
:100E64000032009E00C027F9000E016E02500012ED
:060E740003500112120000
:100E7A000B0E006E25C902F026C903F0005005E0EA
:100E8A0003320232039EFF0FFAD7030E016E02C02D
:100E9A0000F0015004E000360090FF0FFBD727C98D
:100EAA00E1FF28C9E2FF00C0E6FF050E006E25C972
:100EBA0002F026C903F0005005E003320232039E15
:100ECA00FF0FFAD702C000F00036009000360090FB
:100EDA0029C9E1FF2AC9E2FF00C0E6FF030E016E3D
:100EEA0025C900F0015004E000360090FF0FFBD73F
:0E0EFA002BC9E1FF2CC9E2FF00C0E6FF120089
:100F0800800E09010E19006E800E0C19005C02E1BA
:100F18000B510D5D0CE20BC911F90CC912F90DC981
:100F28000BF90EC90CF911C90DF912C90EF9800E89
:100F38000C19006E800E005C02E1000E0B5D03E2EE
:100F48000B6B0C6B0BD00201455109010C5D04E1E0
:100F58000201445109010B5D01E388D0800E0E198E
:100F6800006E800E005C02E1000E0D5D01E27ED095
:100F78000201455109010E5D04E1020144510901D4
:100F88000D5D0AE3010E0201445D09010D6F000EBB
:100F98000201455909010E6F010E136F1351020129
:100FA800375D64E313C914F9000E0901156F010ECA
:100FB8001415016E15C902F0000E0216000E021873
:100FC80002E1000E011806E114510008146F1551D2
:100FD800000E155714C900F015C901F0013200328E
:100FE800019E01BC018E00C014F901C015F9005022
:100FF8000F25026E01501021036E800E0318006E3B
:10100800800E005C02E1000E025C0EE314510F2515
:10101800016E15511021026E02014751025C02E176
:101028004651015C01E201D01ED00BC911F90CC96F
:1010380012F9090112510E5D02E111510D5D13E320
:1010480014510F25256F15511021266F11C927F945
:1010580012C928F948C229F949C22AF90BDD090140
:0E106800114B122BE6D70901132B98D712005B
:10107600000E0901101902E1000E0F1905E10BC956
:1010860000F00CC901F093D01051121902E1115170
:101096000F1905E10DC900F00EC901F088D00BC982
:1010A60025F90CC926F9130E276F090E286F150EA0
:1010B600296F090E2A6F170E2B6F090E2C6FDADEB9
:1010C6000DC925F90EC926F9140E0901276F090E57
:1010D600286F160E296F090E2A6F180E2B6F090E30
:1010E6002C6FC8DE0FC904F010C905F0000E066E9D
:1010F600076E14C900F0000E016E09011351005E5F
:10110600000E015A000E01BEFF0E026E036E99DD3F
:1011160011C904F012C905F0000E066E076EBADD9D
:10112600005009011325256F0FC904F010C905F0F9
:10113600000E066E076E16C900F0000E016E155100
:10114600005E000E015A000E01BEFF0E026E036E17
:1011560078DD11C904F012C905F0000E066E076E9F
:1011660099DD005009011525266F0FC904F010C935
:1011760005F0000E066E076E18C900F0000E016E2F
:101186001751005E000E015A000E01BEFF0E026EE0
:10119600036E57DD11C904F012C905F0000E066E84
:1011A600076E78DD005009011725276F20DE120033
:1011B600800E09010E19006E800E0C19005C02E10A
:1011C6000B510D5D0CE20BC911F90CC912F90DC9D1
:1011D6000BF90EC90CF911C90DF912C90EF9800ED9
:1011E6000C19006E800E005C02E1000E0B5D03E23E
:1011F6000B6B0C6B0BD00201475109010C5D04E12E
:101206000201465109010B5D01E3EFD0800E0E1974
:10121600006E800E005C02E1000E0D5D01E2E5D07D
:101226000201475109010E5D04E10201465109011F
:101236000D5D0AE3010E0201465D09010D6F000E08
:101246000201475909010E6F010E136F1351020176
:10125600375DD8A0CAD013C914F9000E0901156F5D
:10126600010E1415016E15C902F0000E0216000ECD
:10127600021802E1000E011806E114510008146F6D
:101286001551000E155714C900F015C901F00132A9
:101296000032019E01BC018E00C014F901C015F98F
:1012A60000500F25026E01501021036E800E0318A8
:1012B600006E800E005C02E1000E025C0EE314512B
:1012C6000F25016E15511021026E02014551025C77
:1012D60002E14451015C01E201D084D00101CB510D
:1012E600000A63E17E94C7EC04F0005226E009018F
:1012F60014510F25026E15511021036E02C000F025
:1013060003C001F042C2E1FF43C2E2FF0BC9E6FFA0
:101316000CC9E6FF02C0E6FF03C0E6FF0DC9E6FF03
:101326000EC9E6FF00C0E6FF01C0E6FF40C200F0BE
:1013360041C201F037EC00F019D0090114510F2514
:10134600006E15511021016E50C2E1FF51C2E2FF3D
:101356000BC9E6FF0CC9E6FF00C0E6FF01C0E6FFC9
:101366004EC200F04FC201F037EC00F00BC911F984
:101376000CC912F9090112510E5D02E111510D5D00
:1013860012E34CC2E1FF4DC2E2FF48C2E6FF49C28A
:10139600E6FF4AC200F04BC201F037EC00F009014B
:1013A600114B122BE7D77E841DD00BC911F90CC93E
:1013B60012F9090112510E5D02E111510D5D12E3A0
:1013C60011C925F912C926F90FC927F910C928F933
:1013D60048C229F949C22AF93EEC05F00901114B28
:0C13E600122BE7D70901132B31D712009E
:0E13F2000BC948F20CC949F20DC937F21200BE
:101400000901206B216B226B236B02013B51090107
:101410000C5D04E102013A5109010B5D01E202D2C7
:101420000C510201395D04E109010B510201385DE3
:1014300001E2F8D13A5109010B5D036E02013B5103
:1014400009010C59046E03C000F004C001F000361D
:1014500000900136003600900136080E0201522538
:101460000901256F000E020153210901266F000EAC
:10147000020154210901276F000E020155210901C3
:10148000286F0050252701502623000E27232823EC
:10149000040E296F000E2A6FAAEC05F02D0E1E6FA8
:1014A000020E1F6F1EC9E9FF1FC9EAFFEECF24F924
:1014B00024C920F9010E1E25E96E000E1F21EA6ED7
:1014C000EECF04F0000E056E066E076E020E1E25AE
:1014D000E96E000E1F21EA6EEECF03F003C001F0AB
:1014E000006A000E026E036E0450002605500122B1
:1014F0000650022207500322005002015225090122
:10150000126F0150020153210901136F02500201B1
:1015100054210901146F0350020155210901156F6F
:1015200024C900F00032009E0032009E0032009E6E
:10153000000E016E5EC204F05FC205F0FCEC05F027
:1015400000C018F901C019F9070E2415006E08E053
:1015500002015E510901182702015F510901192397
:1015600018C91CF919C91DF93EC2E1FF3FC2E2FFCB
:1015700012C9E6FF13C9E6FF14C9E6FF15C9E6FF65
:1015800018C9E6FF19C9E6FF160EE66E090EE66EEB
:101590003CC200F03DC201F037EC00F000C01EF983
:1015A00001C01FF909011651122717511323000E0C
:1015B000142315231651185F1751195B1A6B1B6BF7
:1015C00002015D51000A04E05D51020A01E099D078
:1015D0005BC20FF95CC210F909010E6B000E006EC0
:1015E00002015F51005C03E15E5109010E5DD8B05C
:1015F00074D0090162C221F963C222F9116B0D6B2B
:1016000020510D5D66E21151000A4AE11A4B1B2B75
:101610001D51175D02E11C51165D38E21B51175D2B
:1016200002E11A51165D32E2010E1A6F000E1B6FB5
:101630003EC2E1FF3FC2E2FF12C9E6FF13C9E6FF67
:1016400014C9E6FF15C9E6FF18C9E6FF19C9E6FF88
:10165000160EE66E090EE66E3CC200F03DC201F0C9
:1016600037EC00F000C01EF901C01FF918C91CF9C1
:1016700019C91DF909011651122717511323000E1C
:10168000142315231651185F1751195B1EC9E9FF62
:101690001FC9EAFFEECF23F91E4B1F2B010E116F5E
:1016A00011512315006E0EE021C925F922C926F932
:1016B0000FC927F910C928F960C229F961C22AF9AE
:1016C0003EEC05F00901214B222B113711910D2B16
:1016D00097D70F4B102B0E2B81D702015D51000ABB
:1016E0000BE1010E090121250201626F000E0901C3
:1016F00022210201636F04D00FC95BF210C95CF2B2
:1017000091D062C20FF963C210F909010E6B000E8D
:10171000006E02015F51005C03E15E5109010E5D44
:10172000D8B076D009015BC221F95CC222F9116BF5
:101730000D6B20510D5D68E21151000A4AE11A4B10
:101740001B2B1D51175D02E11C51165D38E21B5128
:10175000175D02E11A51165D32E2010E1A6F000E9A
:101760001B6F3EC2E1FF3FC2E2FF12C9E6FF13C991
:10177000E6FF14C9E6FF15C9E6FF18C9E6FF19C957
:10178000E6FF160EE66E090EE66E3CC200F03DC2A4
:1017900001F037EC00F000C01EF901C01FF918C9B4
:1017A0001CF919C91DF909011651122717511323E4
:1017B000000E142315231651185F1751195B1EC90B
:1017C000E9FF1FC9EAFFEECF23F91E4B1F2B010EC5
:1017D000116F11512315006E0EE00FC925F910C9C4
:1017E00026F921C927F922C928F960C229F961C25D
:1017F0002AF93EEC05F0010E0901215F000E225B83
:10180000113711910D2B95D70F4B102B0E2B7FD726
:101810000901010E215D02015B6F000E09012259D1
:0618200002015C6F1200E2
:101826000901156B166B176B186B0101D051000A75
:101836000FE10D0E0901256FF30E266F000E276FBF
:10184600286B296B2A6BD6EC04F0010E0101D06FD0
:1018560002013B5109010C5D04E102013A51090103
:101866000B5D01E22ED10C510201395D04E1090143
:101876000B510201385D01E224D13A5109010B5D99
:10188600016E02013B5109010C59026E01C003F0C1
:1018960002C004F003360390043603360390043680
:1018A600080E02015625006E000E5721016E000E2D
:1018B6005821026E000E056E0050032601500422C8
:1018C6000250052203C0F6FF04C0F7FF05C0F8FF6B
:1018D6000900F5CF15F9010E0324F66E000E04205B
:1018E600F76E000E0520F86E0900F5CF00F000C077
:1018F60006F0000E076E086E096E020E0324F66EE1
:10190600000E0420F76E000E0520F86E0900F5CFD4
:1019160003F003C001F0006A000E026E036E06506B
:101926000026075001220850022209500322565170
:1019360000240901126F0201575101200901136F9A
:101946000201585102200901146F02015D51000A7B
:1019560004E05D51020A01E05ED05BC20FF95CC291
:1019660010F909010E6B000E006E02015F51005C5A
:1019760003E15E5109010E5D3AE2090162C216F900
:1019860063C217F9116B0D6B15510D5D2CE21151E8
:10199600000A10E112C9F6FF13C9F7FF14C9F8FFD0
:1019A6000900F5CF18F9010E1227000E1323142390
:1019B600010E116F11511815006E0EE016C925F9AA
:1019C60017C926F90FC927F910C928F960C229F9DC
:1019D60061C22AF93EEC05F00901164B172B1137A7
:1019E60011910D2BD1D70F4B102B0E2BBCD702010B
:1019F6005D51000A0BE1010E090116250201626F15
:101A0600000E090117210201636F04D00FC95BF2B2
:101A160010C95CF256D062C20FF963C210F909010F
:101A26000E6B000E006E02015F51005C03E15E5119
:101A360009010E5D3CE209015BC216F95CC217F9A9
:101A4600116B0D6B15510D5D2EE21151000A10E15F
:101A560012C9F6FF13C9F7FF14C9F8FF0900F5CF3D
:101A660018F9010E1227000E13231423010E116F0D
:101A760011511815006E0EE00FC925F910C926F987
:101A860016C927F917C928F960C229F961C22AF9C6
:101A96003EEC05F0010E0901165F000E175B1137CB
:101AA60011910D2BCFD70F4B102B0E2BBAD7090147
:101AB600010E165D02015B6F000E09011759020146
:041AC6005C6F12003F
:101ACA000BC962F20CC963F20DC95BF20EC95CF272
:021ADA001200F8
:101ADC0037C2FFF848C207F949C208F9010E0201E2
:101AEC00376F15C248F216C249F20801F251EE5D89
:101AFC00FD6FF351EF59FE6FFD4BFE2BF251EE25AE
:101B0C000901016F0801F351EF210901026F010E68
:101B1C00015F000E025B0801F251F05D0901036FD9
:101B2C000801F351F1590901046F034B042B08010F
:101B3C00F251F0250901056F0801F351F12109015A
:101B4C00066F010E055F000E065B0801F56BF66B68
:101B5C00F76BF86BF96BFA6BEE51F05DFB6FEF51B5
:101B6C00F159FC6FF2C8F7F8F3C8F8F8F2C800F0B6
:101B7C00F3C801F000360090013600C0F5F801C042
:101B8C00F6F800500308F56F01C0F6F8000EF65792
:101B9C00010EF725016E000EF821026E800EFA1967
:101BAC00006E800E0218005C02E10150F95DD8B0A5
:101BBC00F5EF11F002010053D8B49FD20101FF518F
:101BCC00000AD8A43DD111C20BF912C20CF917C2EC
:101BDC000DF918C20EF90801F751F02509010F6F24
:101BEC000801F851F1210901106F03510F5F0451E5
:101BFC00105B0351055D116F04510659126F3BECDC
:101C0C0008F000C00BF901C00CF9010E09010D6FB1
:101C1C00F9EC09F00801F951EE2509010B6F0801E7
:101C2C00FA51EF2109010C6F0801F951EE5D090120
:101C3C000D6F0801FA51EF5909010E6F0801F751A8
:101C4C00F02509010F6F0801F851F1210901106FFE
:101C5C00DBEC08F011C20BF912C20CF917C20DF92A
:101C6C0018C20EF90801F751F05D09010F6F080158
:101C7C00F851F1590901106F03510F5F0451105BBA
:101C8C000351055D116F04510659126F3BEC08F0BE
:101C9C0000C00BF901C00CF9010E09010D6FF9EC34
:101CAC0009F00801F951EE2509010B6F0801FA51F1
:101CBC00EF2109010C6F0801F951EE5D09010D6F5F
:101CCC000801FA51EF5909010E6F0801F751F05D47
:101CDC0009010F6F0801F851F1590901106FDBEC84
:101CEC0008F011C20BF912C20CF917C20DF918C287
:101CFC000EF90801F951F02509010F6F0801FA518D
:101D0C00F1210901106F03510F5F0451105B035156
:101D1C00055D116F04510659126F3BEC08F000C0C1
:101D2C000BF901C00CF9010E09010D6FF9EC09F06A
:101D3C000801F751F02509010B6F0801F851F12149
:101D4C0009010C6F0801FB5109010B5F0801FC51E3
:101D5C0009010C5B0801F751F05D09010D6F0801D9
:101D6C00F851F15909010E6F0801FB5109010D5F82
:101D7C000801FC5109010E5B0801F951F02509011C
:101D8C000F6F0801FA51F1210901106FDBEC08F01B
:101D9C0011C20BF912C20CF917C20DF918C20EF9C7
:101DAC000801F951F05D09010F6F0801FA51F15961
:101DBC000901106F03510F5F0451105B0351055D56
:101DCC00116F04510659126F3BEC08F000C00BF96F
:101DDC0001C00CF9010E09010D6FF9EC09F00801B5
:101DEC00F751F02509010B6F0801F851F121090198
:101DFC000C6F0801FB5109010B5F0801FC51090133
:101E0C000C5B0801F751F05D09010D6F0801F851E9
:101E1C00F15909010E6F0801FB5109010D5F080111
:101E2C00FC5109010E5B0801F951F05D09010F6FBE
:101E3C000801FA51F1590901106FDBEC08F05CD183
:101E4C0011C20BF912C20CF917C20DF918C20EF916
:101E5C000801F951EE2509010F6F0801FA51EF2124
:101E6C000901106F0801FD5109010F5F0801FE51B6
:101E7C000901105B0801FD510901015D116F080199
:101E8C00FE5109010259126F3BEC08F000C00BF92E
:101E9C0001C00CF9010E09010D6FF9EC09F00801F4
:101EAC00F751F02509010B6F0801F851F1210901D7
:101EBC000C6F0801F751F05D09010D6F0801F85125
:101ECC00F15909010E6F0801F951EE2509010F6F47
:101EDC000801FA51EF210901106F84EC07F011C2CF
:101EEC000BF912C20CF917C20DF918C20EF9080140
:101EFC00F951EE5D09010F6F0801FA51EF59090113
:101F0C00106F0801FD5109010F5F0801FE51090115
:101F1C00105B0801FD510901015D116F0801FE51B3
:101F2C0009010259126F3BEC08F000C00BF901C01B
:101F3C000CF9010E09010D6FF9EC09F00801F751CC
:101F4C00F02509010B6F0801F851F12109010C6F03
:101F5C000801F751F05D09010D6F0801F851F159B5
:101F6C0009010E6F0801F951EE5D09010F6F0801AF
:101F7C00FA51EF590901106F84EC07F011C20BF9FB
:101F8C0012C20CF917C20DF918C20EF90801F7515B
:101F9C00F02509010F6F0801F851F1210901106FAB
:101FAC000801FB5109010F5F0801FC510901105B8D
:101FBC000801FD5109010F5F0801FE510901105B79
:101FCC000801FD510901015D116F0801FE51090164
:101FDC000259126F3BEC08F000C00BF901C00CF970
:101FEC00010E09010D6FF9EC09F00801F951F0250A
:101FFC0009010B6F0801FA51F12109010C6F08015D
:10200C00F951F05D09010D6F0801FA51F1590901FF
:10201C000E6F0801F751F02509010F6F0801F851F7
:10202C00F1210901106F0801FB5109010F5F080133
:10203C00FC510901105B84EC07F011C20BF912C2C0
:10204C000CF917C20DF918C20EF90801F751F05D21
:10205C0009010F6F0801F851F1590901106F0801BE
:10206C00FB5109010F5F0801FC510901105B0801CC
:10207C00FD5109010F5F0801FE510901105B0801B8
:10208C00FD510901015D116F0801FE510901025951
:10209C00126F3BEC08F000C00BF901C00CF9010EFB
:1020AC0009010D6FF9EC09F00801F951F02509014E
:1020BC000B6F0801FA51F12109010C6F0801F9515C
:1020CC00F05D09010D6F0801FA51F15909010E6F0C
:1020DC000801F751F05D09010F6F0801F851F15932
:1020EC000901106F0801FB5109010F5F0801FC5138
:1020FC000901105B84EC07F035D10801F451000A9A
:10210C00D8A490D0F751F02509010B6F0801F851B4
:10211C00F12109010C6F0801F751F05D09010D6FF8
:10212C000801F851F15909010E6F0801F951EE251A
:10213C0009010F6F0801FA51EF210901106F84ECAE
:10214C0007F00801F751F02509010B6F0801F85150
:10215C00F12109010C6F0801F751F05D09010D6FB8
:10216C000801F851F15909010E6F0801F951EE5DA2
:10217C0009010F6F0801FA51EF590901106F84EC36
:10218C0007F00801F951F02509010B6F0801FA510C
:10219C00F12109010C6F0801F951F05D09010D6F76
:1021AC000801FA51F15909010E6F0801F751F02598
:1021BC0009010F6F0801F851F1210901106F080195
:1021CC00FB5109010F5F0801FC510901105B84EC04
:1021DC0007F00801F951F02509010B6F0801FA51BC
:1021EC00F12109010C6F0801F951F05D09010D6F26
:1021FC000801FA51F15909010E6F0801F751F05D10
:10220C0009010F6F0801F851F1590901106F08010C
:10221C00FB5109010F5F0801FC510901105B84ECB3
:10222C0007F0A0D00801F951EE2509010B6F080148
:10223C00FA51EF2109010C6F0801F951EE5D09010A
:10224C000D6F0801FA51EF5909010E6F0801F75192
:10225C00F02509010F6F0801F851F1210901106FE8
:10226C00DBEC08F00801F951EE2509010B6F0801B0
:10227C00FA51EF2109010C6F0801F951EE5D0901CA
:10228C000D6F0801FA51EF5909010E6F0801F75152
:10229C00F05D09010F6F0801F851F1590901106F38
:1022AC00DBEC08F00801F751F02509010B6F080170
:1022BC00F851F12109010C6F0801FB5109010B5F69
:1022CC000801FC5109010C5B0801F751F05D090193
:1022DC000D6F0801F851F15909010E6F0801FB51FE
:1022EC0009010D5F0801FC5109010E5B0801F95150
:1022FC00F02509010F6F0801FA51F1210901106F46
:10230C00DBEC08F00801F751F02509010B6F08010F
:10231C00F851F12109010C6F0801FB5109010B5F08
:10232C000801FC5109010C5B0801F751F05D090132
:10233C000D6F0801F851F15909010E6F0801FB519D
:10234C0009010D5F0801FC5109010E5B0801F951EF
:10235C00F05D09010F6F0801FA51F1590901106F75
:10236C00DBEC08F0800E0801F619006E800E005CA4
:10237C0002E1000EF55D13E2F9C800F0FAC801F0B5
:10238C00003600900136003600900136060E00260D
:10239C00000E01220050F5270150F6231CD0F751F6
:1023AC00F95D036EF851FA59046E03C000F004C0D5
:1023BC0001F00036009001360036009001360A0E0E
:1023CC000026000E01220050F5270150F623010EC5
:1023DC00F75F000EF85BF94BFA2BCEEF0DF0FFC850
:0C23EC0037F207C948F208C949F2120094
:1023F8000101D051000A0FE10D0E0901256FF30EFE
:10240800266F000E276F286B296B2A6BD6EC04F019
:10241800010E0101D06F02013B510801EF5D04E19B
:1024280002013A510801EE5D03E2006A016A37D001
:10243800EF510201395D04E10801EE510201385DF6
:1024480003E2006A016A2BD03A510801EE5D016E81
:1024580002013B510801EF59026E01C003F002C0AE
:1024680004F0033603900436033603900436080E4E
:1024780002015625006E000E5721016E000E5821EC
:10248800026E03500024F66E04500120F76E000E11
:102498000220F86E0900F5CF00F0000E016E120060
:1024A80002013B510801EF5D04E102013A510801C4
:1024B800EE5D03E2006A016A4DD0EF510201395D19
:1024C80004E10801EE510201385D03E2006A016A85
:1024D80041D03A510801EE5D036E02013B510801FB
:1024E800EF59046E03C000F004C001F000360090FC
:1024F8000136003600900136080E02015225090106
:10250800256F000E020153210901266F000E0201FA
:1025180054210901276F000E020155210901286F76
:102528000050252701502623000E27232823040EB8
:10253800296F000E2A6FAAEC05F02D0E0801F06F26
:10254800020EF16FF0C8E9FFF1C8EAFFEECF00F024
:06255800000E016E1200EE
:10255E007F867F90000000000000000000007F805A
:0A256E008DCF00F0000E016E120088
:0E257800026A016A006A086A036A000E120015
:10258600D00E0C6EC90E0D6E0D2EFED70C2EFCD77E
:062596000000000012002D
:10259C00090E0B6E1E0E0C6EE40E0D6E0D2EFED77C
:0C25AC000C2EFCD70B2EFAD700001200FA
:1025B8000B840BAEE7EF12F0010E036E026A016A9C
:0A25C800006A0A360232FF0E12000C
:1025D200680E0C6EE40E0D6E0D2EFED70C2EFCD77F
:0425E20000001200E3
:1025E6000B820BAEFDEF12F003680268016800680B
:0825F6000A360232FF0E12004A
:0825FE000AAE029E000E12005D
:0A260600750E0D6E0D2EFED71200AA
:10261000EEC804F0EFC805F004C002F005C003F0F6
:10262000044A052AF0C800F0F1C801F00801F04B97
:10263000F12B00C0E9FF01C0EAFF02C0E1FF03C0C7
:10264000E2FFEECFE6FF02C0E9FF03C0EAFFEE5271
:0E26500001E0E2D7EEC800F0EFC801F0120082
:10265E00020147510801F15D04E1020146510801F2
:10266E00F05D01E34AD0020145510801F35D04E13A
:10267E00020144510801F25D01E33FD0F46BF56BAA
:10268E00F0C80BF9F1C80CF9F2C80DF9F3C80EF940
:10269E0065EC0DF0F451EE25E96EF551EF21EA6E81
:1026AE00EE522BE002015A5314E00801F451EE25CC
:1026BE00E96EF551EF21EA6EEECF0BF9000E09012E
:1026CE000C6F000E0C6F00EC0AF00801F44BF52BAA
:1026DE0013D00801F451EE25E96EF551EF21EA6EA3
:1026EE00EECF0BF9000E09010C6F000E0C6F13EC00
:0C26FE000CF00801F44BF52BCDD71200B6
:10270A00F2C80BF9F3C80CF9F4C80DF9F5C80EF9BB
:10271A0065EC0DF00801EF51F31902E1F251EE19DF
:10272A000FE1F0C80BF9F1C80CF9F4C80DF9F5C8B6
:10273A000EF9EEC80FF9EFC810F984EC07F0B9D119
:10274A000801F151F51902E1F451F0190FE1EEC84F
:10275A000BF9EFC80CF9F2C80DF9F3C80EF9F0C875
:10276A000FF9F1C810F9DBEC08F0A3D10901016BEC
:10277A00026B0801EE51F25D016EEF51F359026EE0
:10278A0001C0F6F802C0F7F8800E0218006E800E3B
:10279A00005C02E1000E015C0CE2F6510008F66FE3
:1027AA00F751000EF757010E0901015F000E025B97
:1027BA0003D00901014B022B036B046B0801F05192
:1027CA00F45D016EF151F559026E01C0F8F802C0CC
:1027DA00F9F8800E0218006E800E005C02E1000E0D
:1027EA00015C0CE2F8510008F86FF951000EF95734
:1027FA00010E0901035F000E045B03D00901034BBC
:10280A00042B056B066B800E0801F719006E800E0B
:10281A00F919005C02E1F851F65D6AE20901054B1B
:10282A00062BF6C807F9F7C808F9F8C8F6F8F9C880
:10283A00F7F807C9F8F808C9F9F8EEC807F9EFC8B0
:10284A0008F9F0C8EEF8F1C8EFF807C9F0F808C9B6
:10285A00F1F801C907F902C908F903C901F904C95C
:10286A0002F907C903F908C904F9010E006F0051FA
:10287A000201375D3CE300C909F9000E09010A6F3C
:10288A00010E0915016E0AC902F0000E0216000EA9
:10289A00021802E1000E011806E109510008096F49
:1028AA000A51000E0A5709C900F00AC901F001329B
:1028BA000032019E01BC018E00C009F901C00AF96B
:1028CA0000500801F0250901256F01500801F12186
:1028DA000901266FEEC827F9EFC828F948C229F975
:1028EA0049C22AF93EEC05F00901002BC0D743D0B2
:1028FA000901010E006F00510201375D3CE300C976
:10290A0009F9000E09010A6F010E0915016E0AC9BB
:10291A0002F0000E0216000E021802E1000E011863
:10292A0006E109510008096F0A51000E0A5709C940
:10293A0000F00AC901F001320032019E01BC018E89
:10294A0000C009F901C00AF9EEC825F9EFC826F94D
:10295A0000500801F0250901276F01500801F121F3
:10296A000901286F48C229F949C22AF93EEC05F043
:10297A000901002BC0D7F6C8FEF8F7C8FFF808010E
:10298A00FE37FE91FF37F8C800F0F9C801F00036AB
:10299A000090013600C0FCF801C0FDF8F651005C59
:1029AA00FA6FF7510158FB6F0801010EF65F000E2E
:1029BA00F75B800EF719006E800E005C02E1000ED4
:1029CA00F65DD8A076D0800EFB19006E800E005CF2
:1029DA0002E1000EFA5D0CE3090103510801F02738
:1029EA00090104510801F123FE51FA5FFF51FB5B13
:1029FA00090101510801EE27090102510801EF23DB
:102A0A00FC51FA27FD51FB23010E0901006F005109
:102A1A000201375D4DE300C909F9000E09010A6F89
:102A2A00010E0915016E0AC902F0000E0216000E07
:102A3A00021802E1000E011806E109510008096FA7
:102A4A000A51000E0A570A3309330A9F0ABD0A8F30
:102A5A000551061115E009510801F0250901256FF4
:102A6A000A510801F1210901266FEEC827F9EFC8BA
:102A7A0028F948C229F949C22AF93EEC05F015D0CD
:102A8A00EEC825F9EFC826F9090109510801F02510
:102A9A000901276F0A510801F1210901286F48C26B
:102AAA0029F949C22AF93EEC05F00901002BAFD7F2
:042ABA007BD71200B4
:102ABE000801CE6BCF6BD06BD16B809688967F96CC
:102ACE0087967E848694879087927F807F82808689
:102ADE00090E0B6E1E0E0C6EE40E0D6E0D2EFED735
:102AEE000C2EFCD70B2EFAD700007E940FC2E1FFFE
:102AFE0010C2E2FF040EE66E0DC200F00EC201F02F
:102B0E0037EC00F0FF0E856E23DD22DDFF0E001682
:102B1E00000E011600C005F001C006F0000E076E93
:102B2E00086E07C003F006C002F005C001F0006A8F
:102B3E0000500801CE130150CF130250D013035092
:102B4E00D11306DDFF0E0016000E011600C005F0B3
:102B5E0001C006F0000E076E086E06C003F005C039
:102B6E0002F0006A016A0050CE130150CF130250DA
:102B7E00D0130350D113ECDCFF0E0016000E01161D
:102B8E0000C005F001C006F0000E076E086E05C00D
:102B9E0003F0006A016A026ACE510012CF5101128F
:102BAE00D0510212D151031200C0CEF801C0CFF89D
:0E2BBE0002C0D0F803C0D1F87E84856A1200F0
:102BCC000D0E0801CE25E96E000ECF21EA6EEECF78
:102BDC0025F9EECF26F9EECF27F91AC428F91BC434
:102BEC0029F909012A6BD6EC04F00B0E0801CE254D
:102BFC00E96E000ECF21EA6EEECFEEF8EECFEFF8D5
:102C0C00030ECE25E96E000ECF21EA6EEECFF0F862
:102C1C00EECFF1F8050ECE25E96E000ECF21EA6E4F
:102C2C00EECFF2F8EECFF3F814DD0B0ECE25E96EF5
:102C3C00000ECF21EA6EEECFEEF8EECFEFF8420E9B
:0A2C4C00F06F000EF16FDEDC1200E5
:102C5600809688967F8687967E84869487908792CC
:102C66007F807F8280868CDC809695DC808693DCF4
:102C760087DC86DC7E940FC2E1FF10C2E2FF110EF4
:102C8600E66E0DC200F00EC201F037EC00F083DCF8
:102C960077DC76DC0FC2E1FF10C2E2FF360EE66E8D
:102CA6000DC200F00EC201F037EC00F00BC2E1FFDE
:102CB6000CC2E2FFE66A09C200F00AC201F037EC74
:102CC60000F00FC2E1FF10C2E2FF3A0EE66E0DC23F
:102CD60000F00EC201F037EC00F00BC2E1FF0CC2AF
:102CE600E2FF050EE66E09C200F00AC201F037ECFB
:102CF60000F00FC2E1FF10C2E2FFB20EE66E0DC297
:102D060000F00EC201F037EC00F00BC2E1FF0CC27E
:102D1600E2FF0C0EE66E09C200F00AC201F037ECC3
:102D260000F00BC2E1FF0CC2E2FF0C0EE66E09C218
:102D360000F00AC201F037EC00F00BC2E1FF0CC252
:102D4600E2FFE66A09C200F00AC201F037EC00F0C1
:102D56000BC2E1FF0CC2E2FF330EE66E09C200F0C1
:102D66000AC201F037EC00F00BC2E1FF0CC2E2FF31
:102D7600330EE66E09C200F00AC201F037EC00F02D
:102D86000FC2E1FF10C2E2FFB70EE66E0DC200F001
:102D96000EC201F037EC00F00BC2E1FF0CC2E2FFFD
:102DA600700EE66E09C200F00AC201F037EC00F0C0
:102DB6000FC2E1FF10C2E2FFBB0EE66E0DC200F0CD
:102DC6000EC201F037EC00F00BC2E1FF0CC2E2FFCD
:102DD6001B0EE66E09C200F00AC201F037EC00F0E5
:102DE6000FC2E1FF10C2E2FFC00EE66E0DC200F098
:102DF6000EC201F037EC00F00BC2E1FF0CC2E2FF9D
:102E06002C0EE66E09C200F00AC201F037EC00F0A3
:102E16000FC2E1FF10C2E2FFC20EE66E0DC200F065
:102E26000EC201F037EC00F00BC2E1FF0CC2E2FF6C
:102E3600010EE66E09C200F00AC201F037EC00F09E
:102E46000FC2E1FF10C2E2FFC30EE66E0DC200F034
:102E56000EC201F037EC00F00BC2E1FF0CC2E2FF3C
:102E66000B0EE66E09C200F00AC201F037EC00F064
:102E76000FC2E1FF10C2E2FFC40EE66E0DC200F003
:102E86000EC201F037EC00F00BC2E1FF0CC2E2FF0C
:102E9600270EE66E09C200F00AC201F037EC00F018
:102EA6000FC2E1FF10C2E2FFC60EE66E0DC200F0D1
:102EB6000EC201F037EC00F00BC2E1FF0CC2E2FFDC
:102EC6000F0EE66E09C200F00AC201F037EC00F000
:102ED6000FC2E1FF10C2E2FFD00EE66E0DC200F097
:102EE6000EC201F037EC00F00BC2E1FF0CC2E2FFAC
:102EF600A40EE66E09C200F00AC201F037EC00F03B
:102F06000BC2E1FF0CC2E2FFA10EE66E09C200F0A1
:102F16000AC201F037EC00F00FC2E1FF10C2E2FF77
:102F2600E00EE66E0DC200F00EC201F037EC00F0C6
:102F36000BC2E1FF0CC2E2FFD00EE66E09C200F042
:102F46000AC201F037EC00F00BC2E1FF0CC2E2FF4F
:102F5600060EE66E09C200F00AC201F037EC00F078
:102F66000BC2E1FF0CC2E2FF0B0EE66E09C200F0D7
:102F76000AC201F037EC00F00BC2E1FF0CC2E2FF1F
:102F8600090EE66E09C200F00AC201F037EC00F045
:102F96000BC2E1FF0CC2E2FF080EE66E09C200F0AA
:102FA6000AC201F037EC00F00BC2E1FF0CC2E2FFEF
:102FB600300EE66E09C200F00AC201F037EC00F0EE
:102FC6000BC2E1FF0CC2E2FF300EE66E09C200F052
:102FD6000AC201F037EC00F00BC2E1FF0CC2E2FFBF
:102FE6005B0EE66E09C200F00AC201F037EC00F093
:102FF6000BC2E1FF0CC2E2FF4B0EE66E09C200F007
:103006000AC201F037EC00F00BC2E1FF0CC2E2FF8E
:10301600180EE66E09C200F00AC201F037EC00F0A5
:103026000BC2E1FF0CC2E2FF140EE66E09C200F00D
:103036000AC201F037EC00F00BC2E1FF0CC2E2FF5E
:10304600140EE66E09C200F00AC201F037EC00F079
:103056000BC2E1FF0CC2E2FF2C0EE66E09C200F0C5
:103066000AC201F037EC00F00BC2E1FF0CC2E2FF2E
:10307600320EE66E09C200F00AC201F037EC00F02B
:103086000FC2E1FF10C2E2FFE10EE66E0DC200F0D4
:103096000EC201F037EC00F00BC2E1FF0CC2E2FFFA
:1030A600D00EE66E09C200F00AC201F037EC00F05D
:1030B6000BC2E1FF0CC2E2FF050EE66E09C200F08C
:1030C6000AC201F037EC00F00BC2E1FF0CC2E2FFCE
:1030D6000A0EE66E09C200F00AC201F037EC00F0F3
:1030E6000BC2E1FF0CC2E2FF0A0EE66E09C200F057
:1030F6000AC201F037EC00F00BC2E1FF0CC2E2FF9E
:10310600070EE66E09C200F00AC201F037EC00F0C5
:103116000BC2E1FF0CC2E2FF280EE66E09C200F008
:103126000AC201F037EC00F00BC2E1FF0CC2E2FF6D
:10313600320EE66E09C200F00AC201F037EC00F06A
:103146000BC2E1FF0CC2E2FF2C0EE66E09C200F0D4
:103156000AC201F037EC00F00BC2E1FF0CC2E2FF3D
:10316600490EE66E09C200F00AC201F037EC00F023
:103176000BC2E1FF0CC2E2FF180EE66E09C200F0B8
:103186000AC201F037EC00F00BC2E1FF0CC2E2FF0D
:10319600130EE66E09C200F00AC201F037EC00F029
:1031A6000BC2E1FF0CC2E2FF130EE66E09C200F08D
:1031B6000AC201F037EC00F00BC2E1FF0CC2E2FFDD
:1031C6002C0EE66E09C200F00AC201F037EC00F0E0
:1031D6000BC2E1FF0CC2E2FF330EE66E09C200F03D
:1031E6000AC201F037EC00F00FC2E1FF10C2E2FFA5
:1031F600210EE66E0DC200F00EC201F037EC00F0B3
:103206000FC2E1FF10C2E2FF2A0EE66E0DC200F009
:103216000EC201F037EC00F00BC2E1FF0CC2E2FF78
:10322600E66A09C200F00AC201F037EC00F00BC2F0
:10323600E1FF0CC2E2FFE66A09C200F00AC201F031
:1032460037EC00F047C200F0016A0BC2E1FF0CC286
:10325600E2FF00C0E6FF09C200F00AC201F037EC47
:1032660000F00BC2E1FF0CC2E2FF46C2E6FF09C254
:1032760000F00AC201F037EC00F00FC2E1FF10C205
:10328600E2FF2B0EE66E0DC200F00EC201F037EC27
:1032960000F00BC2E1FF0CC2E2FFE66A09C200F0D1
:1032A6000AC201F037EC00F00BC2E1FF0CC2E2FFEC
:1032B600E66A09C200F00AC201F037EC00F045C226
:1032C60000F0016A0BC2E1FF0CC2E2FF00C0E6FF9C
:1032D60009C200F00AC201F037EC00F00BC2E1FFB0
:1032E6000CC2E2FF44C2E6FF09C200F00AC201F0C6
:1032F60037EC00F00FC2E1FF10C2E2FF360EE66EB9
:103306000DC200F00EC201F037EC00F00101C7510A
:103316005A0A1DE143EC00F000520DE00BC2E1FF3A
:103326000CC2E2FFC00EE66E09C200F00AC201F04E
:1033360037EC00F00BD00BC2E1FF0CC2E2FFE66AED
:1033460009C200F00AC201F037EC00F01DD043ECD0
:1033560000F000520DE00BC2E1FF0CC2E2FFA00E2E
:10336600E66E09C200F00AC201F037EC00F00CD09C
:103376000BC2E1FF0CC2E2FF600EE66E09C200F06E
:103386000AC201F037EC00F00FC2E1FF10C2E2FF03
:10339600290EE66E0DC200F00EC201F037EC00F009
:1033A6000FC2E1FF10C2E2FF2C0EE66E0DC200F066
:0C33B6000EC201F037EC00F07E84120023
:1033C200CEC859F2CFC815F2D0C816F2D1C800F251
:1033D200D2C8FFF1D3C811F2D4C812F2D5C817F27D
:0633E200D6C818F212002B
:1033E8003F0E0801CE150F015F6F03EC13F06080EC
:1033F800000060A001D0FDD763CF00F064CF01F0DA
:023408001200B0
:10340A000CB047EF1AF00CA2EFEF1AF00E6A000E9A
:10341A0002645EEF1AF0F00E0214D8A429EF1AF033
:10342A00023A01380F0B02260138F00B016E003800
:10343A000F0B01260038F00B006E08380F0B002620
:10344A000838F00B086E0E84D89002BE42EF1AF0CC
:10345A0008360036013602360E2A02BE42EF1AF04C
:10346A0008360036013602360E2A02BE42EF1AF03C
:10347A0008360036013602360E2A0E500364E3EF90
:10348A001AF0035E0BBC08AEE9EF1AF0D880800E82
:10349A0008640030000E002201220222D8A0E9EFBF
:1034AA001AF0023201320032034AEFEF1AF0E9EF62
:1034BA001AF001C002F000C001F008C000F0086A6A
:1034CA00000E0E86026495EF1AF0F00E0214D8A4CC
:1034DA007DEF1AF0023A01380F0B02260138F00B81
:1034EA00016E00380F0B01260038F00B006E0E84B7
:1034FA00D89002BE42EF1AF00036013602360E2A82
:10350A0002BE42EF1AF00036013602360E2A02BE19
:10351A0042EF1AF00036013602360E2A42EF1AF04E
:10352A0001C002F000C001F0006A000E0E960E887B
:10353A000264C2EF1AF0F00E0214D8A4ADEF1AF02A
:10354A00023A01380F0B02260138F00B016E0E8485
:10355A00D89002BE42EF1AF0013602360E2A02BE97
:10356A0042EF1AF0013602360E2A02BE42EF1AF074
:10357A00013602360E2A42EF1AF001C002F0016A41
:10358A00000E0E860264F5EF1AF0F00E0214D8A4AB
:10359A00D1EF1AF0023A0E84D89002BE42EF1AF026
:1035AA0002360E2A02BE42EF1AF002360E2A02BE76
:1035BA0042EF1AF002360E2A42EF1AF0010E0C6E92
:1035CA00DCEC12F0F9EF1AF0020E0C6EFFEC12F0BE
:1035DA00F9EF1AF0040E0C6EF3EC12F0F9EF1AF090
:0A35EA00080E0C6EBCEC12F012008B
:1035F4000B800BAE06EF1BF0026A0AAEFF0E026EE2
:0C360400016E006E0A360232FF0E12004A
:06361000CDC100F0120024
:10361600086A096A100E0C6E013408360936045021
:10362600085E0550D8A0053C095ED8B007D0045006
:1036360008260550D8B0053C0926D8900036013634
:063646000C2EEAD7120071
:10364C00809688967F8687967E84869487908792CC
:10365C007F807F82CEEC12F08086CEEC12F0CEEC26
:10366C0012F07E940FC2E1FF10C2E2FF010EE66E73
:10367C000DC200F00EC201F037EC00F0E9EC12F0D4
:10368C000FC2E1FF10C2E2FF280EE66E0DC200F081
:10369C000EC201F037EC00F00FC2E1FF10C2E2FFE6
:1036AC00CF0EE66E0DC200F00EC201F037EC00F04A
:1036BC000BC2E1FF0CC2E2FFE66A09C200F00AC2CB
:1036CC0001F037EC00F00BC2E1FF0CC2E2FF830EFD
:1036DC00E66E09C200F00AC201F037EC00F00BC232
:1036EC00E1FF0CC2E2FF300EE66E09C200F00AC226
:1036FC0001F037EC00F00FC2E1FF10C2E2FFED0E5B
:10370C00E66E0DC200F00EC201F037EC00F00BC2F9
:10371C00E1FF0CC2E2FF640EE66E09C200F00AC2C1
:10372C0001F037EC00F00BC2E1FF0CC2E2FF030E1C
:10373C00E66E09C200F00AC201F037EC00F00BC2D1
:10374C00E1FF0CC2E2FF120EE66E09C200F00AC2E3
:10375C0001F037EC00F00BC2E1FF0CC2E2FF810E6E
:10376C00E66E09C200F00AC201F037EC00F00FC29D
:10377C00E1FF10C2E2FFE80EE66E0DC200F00EC2D1
:10378C0001F037EC00F00BC2E1FF0CC2E2FF850E3A
:10379C00E66E09C200F00AC201F037EC00F00BC271
:1037AC00E1FF0CC2E2FF010EE66E09C200F00AC294
:1037BC0001F037EC00F00BC2E1FF0CC2E2FF790E16
:1037CC00E66E09C200F00AC201F037EC00F00FC23D
:1037DC00E1FF10C2E2FFCB0EE66E0DC200F00EC28E
:1037EC0001F037EC00F00BC2E1FF0CC2E2FF390E26
:1037FC00E66E09C200F00AC201F037EC00F00BC211
:10380C00E1FF0CC2E2FF2C0EE66E09C200F00AC208
:10381C0001F037EC00F00BC2E1FF0CC2E2FFE66AEC
:10382C0009C200F00AC201F037EC00F00BC2E1FF54
:10383C000CC2E2FF340EE66E09C200F00AC201F0BF
:10384C0037EC00F00BC2E1FF0CC2E2FF020EE66E99
:10385C0009C200F00AC201F037EC00F00FC2E1FF20
:10386C0010C2E2FFF70EE66E0DC200F00EC201F0C0
:10387C0037EC00F00BC2E1FF0CC2E2FF200EE66E4B
:10388C0009C200F00AC201F037EC00F00FC2E1FFF0
:10389C0010C2E2FFEA0EE66E0DC200F00EC201F09D
:1038AC0037EC00F00BC2E1FF0CC2E2FFE66A09C282
:1038BC0000F00AC201F037EC00F00BC2E1FF0CC2C1
:1038CC00E2FFE66A09C200F00AC201F037EC00F030
:1038DC000FC2E1FF10C2E2FFC00EE66E0DC200F097
:1038EC000EC201F037EC00F00BC2E1FF0CC2E2FF9C
:1038FC00260EE66E09C200F00AC201F037EC00F0A9
:10390C000FC2E1FF10C2E2FFC10EE66E0DC200F065
:10391C000EC201F037EC00F00BC2E1FF0CC2E2FF6B
:10392C00110EE66E09C200F00AC201F037EC00F08D
:10393C000FC2E1FF10C2E2FFC50EE66E0DC200F031
:10394C000EC201F037EC00F00BC2E1FF0CC2E2FF3B
:10395C00350EE66E09C200F00AC201F037EC00F039
:10396C000BC2E1FF0CC2E2FF3E0EE66E09C200F094
:10397C000AC201F037EC00F00FC2E1FF10C2E2FF07
:10398C00C70EE66E0DC200F00EC201F037EC00F06F
:10399C000BC2E1FF0CC2E2FFBE0EE66E09C200F0E4
:1039AC000AC201F037EC00F00FC2E1FF10C2E2FFD7
:1039BC00360EE66E0DC200F00EC201F037EC00F0D0
:1039CC000101C7515A0A1EE143EC00F000520DE010
:1039DC000BC2E1FF0CC2E2FF880EE66E09C200F0DA
:1039EC000AC201F037EC00F00CD00BC2E1FF0CC2A4
:1039FC00E2FF480EE66E09C200F00AC201F037EC95
:103A0C0000F01DD043EC00F000520DE00BC2E1FFC2
:103A1C000CC2E2FFE80EE66E09C200F00AC201F029
:103A2C0037EC00F00CD00BC2E1FF0CC2E2FF280E09
:103A3C00E66E09C200F00AC201F037EC00F00FC2CA
:103A4C00E1FF10C2E2FF3A0EE66E0DC200F00EC2AC
:103A5C0001F037EC00F00BC2E1FF0CC2E2FF550E97
:103A6C00E66E09C200F00AC201F037EC00F00FC29A
:103A7C00E1FF10C2E2FFB10EE66E0DC200F00EC205
:103A8C0001F037EC00F00BC2E1FF0CC2E2FFE66A7A
:103A9C0009C200F00AC201F037EC00F00BC2E1FFE2
:103AAC000CC2E2FF1B0EE66E09C200F00AC201F066
:103ABC0037EC00F00FC2E1FF10C2E2FFF20EE66E2F
:103ACC000DC200F00EC201F037EC00F00BC2E1FFAA
:103ADC000CC2E2FF080EE66E09C200F00AC201F049
:103AEC0037EC00F00FC2E1FF10C2E2FF260EE66ECB
:103AFC000DC200F00EC201F037EC00F00BC2E1FF7A
:103B0C000CC2E2FF010EE66E09C200F00AC201F01F
:103B1C0037EC00F00FC2E1FF10C2E2FFE00EE66EE0
:103B2C000DC200F00EC201F037EC00F00BC2E1FF49
:103B3C000CC2E2FF1F0EE66E09C200F00AC201F0D1
:103B4C0037EC00F00BC2E1FF0CC2E2FF1A0EE66E7E
:103B5C0009C200F00AC201F037EC00F00BC2E1FF21
:103B6C000CC2E2FF180EE66E09C200F00AC201F0A8
:103B7C0037EC00F00BC2E1FF0CC2E2FF0A0EE66E5E
:103B8C0009C200F00AC201F037EC00F00BC2E1FFF1
:103B9C000CC2E2FF0F0EE66E09C200F00AC201F081
:103BAC0037EC00F00BC2E1FF0CC2E2FF060EE66E32
:103BBC0009C200F00AC201F037EC00F00BC2E1FFC1
:103BCC000CC2E2FF450EE66E09C200F00AC201F01B
:103BDC0037EC00F00BC2E1FF0CC2E2FF870EE66E81
:103BEC0009C200F00AC201F037EC00F00BC2E1FF91
:103BFC000CC2E2FF320EE66E09C200F00AC201F0FE
:103C0C0037EC00F00BC2E1FF0CC2E2FF0A0EE66ECD
:103C1C0009C200F00AC201F037EC00F00BC2E1FF60
:103C2C000CC2E2FF070EE66E09C200F00AC201F0F8
:103C3C0037EC00F00BC2E1FF0CC2E2FF020EE66EA5
:103C4C0009C200F00AC201F037EC00F00BC2E1FF30
:103C5C000CC2E2FF070EE66E09C200F00AC201F0C8
:103C6C0037EC00F00BC2E1FF0CC2E2FF050EE66E72
:103C7C0009C200F00AC201F037EC00F00BC2E1FF00
:103C8C000CC2E2FFE66A09C200F00AC201F037EC8E
:103C9C0000F00FC2E1FF10C2E2FFE10EE66E0DC2B2
:103CAC0000F00EC201F037EC00F00BC2E1FF0CC2C9
:103CBC00E2FFE66A09C200F00AC201F037EC00F03C
:103CCC000BC2E1FF0CC2E2FF250EE66E09C200F04A
:103CDC000AC201F037EC00F00BC2E1FF0CC2E2FFAC
:103CEC00270EE66E09C200F00AC201F037EC00F0B4
:103CFC000BC2E1FF0CC2E2FF050EE66E09C200F03A
:103D0C000AC201F037EC00F00BC2E1FF0CC2E2FF7B
:103D1C00100EE66E09C200F00AC201F037EC00F09A
:103D2C000BC2E1FF0CC2E2FF090EE66E09C200F005
:103D3C000AC201F037EC00F00BC2E1FF0CC2E2FF4B
:103D4C003A0EE66E09C200F00AC201F037EC00F040
:103D5C000BC2E1FF0CC2E2FF780EE66E09C200F066
:103D6C000AC201F037EC00F00BC2E1FF0CC2E2FF1B
:103D7C004D0EE66E09C200F00AC201F037EC00F0FD
:103D8C000BC2E1FF0CC2E2FF050EE66E09C200F0A9
:103D9C000AC201F037EC00F00BC2E1FF0CC2E2FFEB
:103DAC00180EE66E09C200F00AC201F037EC00F002
:103DBC000BC2E1FF0CC2E2FF0D0EE66E09C200F071
:103DCC000AC201F037EC00F00BC2E1FF0CC2E2FFBB
:103DDC00380EE66E09C200F00AC201F037EC00F0B2
:103DEC000BC2E1FF0CC2E2FF3A0EE66E09C200F014
:103DFC000AC201F037EC00F00BC2E1FF0CC2E2FF8B
:103E0C001F0EE66E09C200F00AC201F037EC00F09A
:103E1C000FC2E1FF10C2E2FF2A0EE66E0DC200F0E7
:103E2C000EC201F037EC00F00BC2E1FF0CC2E2FF56
:103E3C00E66A09C200F00AC201F037EC00F00BC2CE
:103E4C00E1FF0CC2E2FFE66A09C200F00AC201F00F
:103E5C0037EC00F0010E0201465D036E000E47596F
:103E6C00046E04C000F0016A0BC2E1FF0CC2E2FF59
:103E7C0000C0E6FF09C200F00AC201F037EC00F006
:103E8C0002014605006E0BC2E1FF0CC2E2FF00C04E
:103E9C00E6FF09C200F00AC201F037EC00F00FC2D5
:103EAC00E1FF10C2E2FF2B0EE66E0DC200F00EC257
:103EBC0001F037EC00F00BC2E1FF0CC2E2FFE66A46
:103ECC0009C200F00AC201F037EC00F00BC2E1FFAE
:103EDC000CC2E2FFE66A09C200F00AC201F037EC3C
:103EEC0000F0010E0201445D036E000E4559046E94
:103EFC0004C000F0016A0BC2E1FF0CC2E2FF00C07B
:103F0C00E6FF09C200F00AC201F037EC00F0020132
:103F1C004405006E0BC2E1FF0CC2E2FF00C0E6FFDD
:103F2C0009C200F00AC201F037EC00F00FC2E1FF49
:103F3C0010C2E2FFB70EE66E0DC200F00EC201F029
:103F4C0037EC00F00BC2E1FF0CC2E2FF070EE66E8D
:103F5C0009C200F00AC201F037EC00F00FC2E1FF19
:103F6C0010C2E2FFB60EE66E0DC200F00EC201F0FA
:103F7C0037EC00F00BC2E1FF0CC2E2FF0A0EE66E5A
:103F8C0009C200F00AC201F037EC00F00BC2E1FFED
:103F9C000CC2E2FF820EE66E09C200F00AC201F00A
:103FAC0037EC00F00BC2E1FF0CC2E2FF270EE66E0D
:103FBC0009C200F00AC201F037EC00F00BC2E1FFBD
:103FCC000CC2E2FFE66A09C200F00AC201F037EC4B
:103FDC0000F00FC2E1FF10C2E2FF110EE66E0DC23F
:103FEC0000F00EC201F037EC00F0CEEC12F00FC274
:103FFC00E1FF10C2E2FF290EE66E0DC200F00EC208
:10400C0001F037EC00F0CEEC12F00FC2E1FF10C261
:10401C00E2FF2C0EE66E0DC200F00EC201F037EC82
:06402C0000F07E8412008A
:1040320037C200F00032009E00500801CE5D016ED2
:10404200000ECF59026E01C0DDF802C0DEF8800E0C
:104052000218006E800E005C02E1000E015C03E2B9
:10406200DD6BDE6B14D0020147510801DE5D04E115
:10407200020146510801DD5D0AE3010E0201465DBF
:104082000801DD6F000E020147590801DE6F0201CF
:104092003705036E046A000E045A03C000F004C020
:1040A20001F001320032019E01BC018E0050080174
:1040B200D225026E0150D321036E02C0DFF803C085
:1040C200E0F8800E0318006E800E005C02E1000E24
:1040D200025C03E2DF6BE06B14D00201475108017E
:1040E200E05D04E1020146510801DF5D0AE3010ED1
:1040F2000201465D0801DF6F000E02014759080107
:10410200E06F0201375338E0DDC80BF9DEC80CF965
:10411200DFC80DF9E0C80EF9D0C80FF9D1C810F9FF
:10412200DBEC08F0DDC80BF9DEC80CF9DFC80DF9CD
:10413200E0C80EF9D4C80FF9D5C810F9DBEC08F0C5
:10414200D0C80BF9D1C80CF9D4C80DF9D5C80EF9ED
:10415200CEC80FF9CFC810F984EC07F0D0C80BF91C
:10416200D1C80CF9D4C80DF9D5C80EF9D2C80FF9C7
:10417200D3C810F984EC07F002015953D8B4F3D034
:1041820048C2DAF849C2DBF837C2DCF83751010F0E
:10419200036E046A000E042203C000F004C001F0A2
:1041A20001320032019E01BC018E00500801CE276F
:1041B2000150CF230050D0270150D123020E02011B
:1041C2003725036E046A000E042203C000F004C007
:1041D20001F001320032019E01BC018E0050080143
:1041E200D25F0150D35B0050D45F0150D55B020116
:1041F2000053D8B48CD00101FF51000A44E1D0C869
:10420200D8F8D1C8D9F80801D951D55D02E1D85101
:10421200D45D38E311C20BF912C20CF917C20DF9C1
:1042220018C20EF9D051D85D09010F6F0801D151A2
:10423200D9590901106F0801D051D45D0901116FDC
:104242000801D151D5590901126F3BEC08F000C0A9
:104252000BF901C00CF9010E09010D6FF9EC09F01F
:10426200CEC80BF9CFC80CF9D2C80DF9D3C80EF9D4
:10427200D8C80FF9D9C810F9DBEC08F00801D84BFF
:10428200D92BC1D743D0CEC8D6F8CFC8D7F80801AA
:10429200D751D35D02E1D651D25D38E311C20BF999
:1042A20012C20CF917C20DF918C20EF9CE51D65D21
:1042B20009010F6F0801CF51D7590901106F080189
:1042C200CE51D25D0901116F0801CF51D3590901B5
:1042D200126F3BEC08F000C00BF901C00CF9010EA3
:1042E20009010D6FF9EC09F0D0C80BF9D1C80CF92E
:1042F200D4C80DF9D5C80EF9D6C80FF9D7C810F928
:1043020084EC07F00801D64BD72BC1D726D015C2B3
:104312000BF916C20CF9010E09010D6FF9EC09F047
:10432200D0C8D8F8D1C8D9F80801D951D55D02E171
:10433200D851D45D12E3CEC80BF9CFC80CF9D2C85C
:104342000DF9D3C80EF9D8C80FF9D9C810F9DBECAA
:1043520008F00801D84BD92BE7D7DAC848F2DBC8F6
:0843620049F2DCC837F2120039
:10436A00020147510801D15D04E1020146510801E9
:10437A00D05D01E383D0020145510801D35D04E118
:10438A00020144510801D25D01E378D00401016BB6
:10439A00026B0301FE6BFF6BD0C813F2D1C814F293
:1043AA00D0C807F2D1C808F2D2C805F2D3C806F2BB
:1043BA00D2C803F2D3C804F2CEC800F0CFC801F0C5
:1043CA000801CE4BCF2B00C0E9FF01C0EAFFEECFB8
:1043DA0000F000C0D4F8005251E002015A530FE035
:1043EA00D4C8EEF8000E0801EF6F54EC12F0010E7B
:1043FA0000240801D56F000E0120D66F0ED00801E7
:10440A00D4C8EEF8000EEF6FFCEC11F0010E002498
:10441A000801D56F000E0120D66F02015D51020A14
:10442A0016E15E510301FE2702015F510301FF23DA
:10443A000801D6510401025D04E10801D5510401C5
:10444A00015D04E2D5C801F4D6C802F416D0080109
:10445A00D551040101270801D651040102230201A2
:10446A005F510301FF5D04E102015E510301FE5D3C
:0E447A0004E25EC2FEF35FC2FFF39ED71200A3
:104488000801D251CE5D016ED351CF59026E01C0E1
:10449800E6F802C0E7F8800E0218006E800E005C95
:1044A80002E1000E015C17E2E6510008036EE7C85E
:1044B80004F0000E0456D6C801F0D7C802F0013641
:1044C800019002360250045C02E10150035C02E2F2
:1044D800BDEF2AF00FD0D6C801F0D7C802F00136D8
:1044E800019002360250E75D02E10150E65D02E20A
:1044F800BDEF2AF0D451D05D016ED551D159026E6D
:1045080001C0E6F802C0E7F8800E0218006E800EBF
:10451800005C02E1000E015C17E2E6510008036E40
:10452800E7C804F0000E0456D6C801F0D7C802F058
:104538000136019002360250045C02E10150035C2E
:1045480002E2BDEF2AF00FD0D6C801F0D7C802F0BA
:104558000136019002360250E75D02E10150E65D46
:1045680002E2BDEF2AF015C2EBF816C2ECF800C261
:10457800EDF848C215F249C216F20201006B0801B3
:10458800D651D025006ED751D121016ED651D25DBA
:10459800046ED751D359056E0450005CDE6F055088
:1045A8000158DF6FD651CE25026ED751CF21036E49
:1045B8000250005CE06F03500158E16FD651D45DA2
:1045C800006ED751D559016E0250005CE26F03505E
:1045D8000158E36F0450005CE46F05500158E56F23
:1045E80002015953D8B48DEF28F048C2E8F849C2FF
:1045F800E9F837C2EAF80801DC6BDD6BD6C8DAF8EF
:10460800D7C8DBF8D6C800F0D7C801F0003600904C
:10461800013600C0D8F801C0D9F800500308D86F97
:1046280001C0D9F8000ED957010EDA25016E000E27
:10463800DB21026E800EDD19006E800E0218005C10
:1046480002E10150DC5DD8B0C4EF27F0ED53D8B4D7
:1046580077D30101FF51000AD8A4B9D111C20BF9CF
:1046680012C20CF917C20DF918C20EF90801D65179
:10467800D45D09010F6F0801D751D5590901106F91
:104688000801DA5109010F270801DB51090110233C
:104698000801D05109010F5F0801D1510901105BD0
:1046A8000801D051D45D0901116F0801D151D559C4
:1046B8000901126F3BEC08F000C00BF901C00CF9BE
:1046C800010E09010D6FF9EC09F00801D651CE254C
:1046D80009010B6F0801D751CF2109010C6F08019F
:1046E800DC5109010B5F0801DD5109010C5B080170
:1046F800D651D25D09010D6F0801D751D35909016F
:104708000E6F0801DC5109010D270801DD5109016F
:104718000E230801D651D45D09010F6F0801D75146
:10472800D5590901106F0801DA5109010F2708014D
:10473800DB5109011023DBEC08F011C20BF912C29E
:104748000CF917C20DF918C20EF90801D651D02577
:1047580009010F6F0801D751D1210901106F080114
:10476800DA5109010F5F0801DB510901105B0801EB
:10477800D05109010F5F0801D1510901105B0801EF
:10478800D051D45D0901116F0801D151D5590901E2
:10479800126F3BEC08F000C00BF901C00CF9010ED8
:1047A80009010D6FF9EC09F00801D651CE25090170
:1047B8000B6F0801D751CF2109010C6F0801DC519B
:1047C80009010B5F0801DD5109010C5B0801D65195
:1047D800D25D09010D6F0801D751D35909010E6F38
:1047E8000801DC5109010D270801DD5109010E23DB
:1047F8000801D651D02509010F6F0801D751D121E1
:104808000901106F0801DA5109010F5F0801DB5136
:104818000901105BDBEC08F011C20BF912C20CF9AC
:1048280017C20DF918C20EF90801D651D45D090155
:104838000F6F0801D751D5590901106F0801DC51D4
:1048480009010F270801DD51090110230801D05182
:1048580009010F5F0801D1510901105B0801D0510E
:10486800D45D0901116F0801D151D5590901126FA1
:104878003BEC08F000C00BF901C00CF9010E09016E
:104888000D6FF9EC09F00801D651D45D006ED751CF
:10489800D559016EDA51002409010B6F0801DB516B
:1048A800012009010C6F0801E45109010B5F08019F
:1048B800E55109010C5B0801DA51005C09010D6F33
:1048C8000801DB51015809010E6F0801E251090185
:1048D8000D5F0801E35109010E5B0801DC5100245A
:1048E80009010F6F0801DD5101200901106FDBEC90
:1048F80008F011C20BF912C20CF917C20DF918C24F
:104908000EF90801D651D02509010F6F0801D751BA
:10491800D1210901106F0801DC5109010F5F08015D
:10492800DD510901105B0801D05109010F5F080131
:10493800D1510901105B0801D051D45D0901116FF3
:104948000801D151D5590901126F3BEC08F000C09C
:104958000BF901C00CF9010E09010D6FF9EC09F012
:104968000801D651D025006ED751D121016EDA51F8
:10497800005C09010B6F0801DB51015809010C6F3C
:104988000801E05109010B5F0801E15109010C5BC5
:104998000801DA51002409010D6F0801DB510120DB
:1049A80009010E6F0801DE5109010D5F0801DF5191
:1049B80009010E5B0801DC51005C09010F6F080159
:1049C800DD5101580901106FDBEC08F0B8D111C2B4
:1049D8000BF912C20CF917C20DF918C20EF9080129
:1049E800D651D25D09010F6F0801D751D35909017A
:1049F800106F0801DC5109010F270801DD51090179
:104A080010230801CE5109010F5F0801CF51090198
:104A1800105B0801CE51D25D0901116F0801CF5119
:104A2800D3590901126F3BEC08F000C00BF901C023
:104A38000CF9010E09010D6FF9EC09F00801D651C6
:104A4800D02509010B6F0801D751D12109010C6F3D
:104A58000801DA5109010B5F0801DB5109010C5B00
:104A68000801D651D45D09010D6F0801D751D559F8
:104A780009010E6F0801DA5109010D270801DB5100
:104A880009010E230801D651D25D09010F6F0801F3
:104A9800D751D3590901106F0801DC5109010F27BB
:104AA8000801DD510901102384EC07F011C20BF94C
:104AB80012C20CF917C20DF918C20EF90801D65125
:104AC800CE2509010F6F0801D751CF210901106FB9
:104AD8000801DC5109010F5F0801DD510901105B74
:104AE8000801CE5109010F5F0801CF510901105B80
:104AF8000801CE51D25D0901116F0801CF51D35978
:104B08000901126F3BEC08F000C00BF901C00CF969
:104B1800010E09010D6FF9EC09F00801D651D025F5
:104B280009010B6F0801D751D12109010C6F080148
:104B3800DA5109010B5F0801DB5109010C5B08011F
:104B4800D651D45D09010D6F0801D751D559090116
:104B58000E6F0801DA5109010D270801DB5109011F
:104B68000E230801D651CE2509010F6F0801D75130
:104B7800CF210901106F0801DC5109010F5F0801FD
:104B8800DD510901105B84EC07F011C20BF912C268
:104B98000CF917C20DF918C20EF90801D651D25DE9
:104BA80009010F6F0801D751D3590901106F080186
:104BB800DA5109010F270801DB5109011023080107
:104BC800CE5109010F5F0801CF510901105B08019F
:104BD800CE51D25D0901116F0801CF51D359090196
:104BE800126F3BEC08F000C00BF901C00CF9010E84
:104BF80009010D6FF9EC09F00801D651D25D006E7C
:104C0800D751D359016EDC51005C09010B6F0801C3
:104C1800DD51015809010C6F0801DE5109010B270C
:104C28000801DF5109010C230801DC5100240901A6
:104C38000D6F0801DD51012009010E6F0801E451D3
:104C480009010D270801E55109010E230801DA5170
:104C5800002409010F6F0801DB5101200901106FC1
:104C680084EC07F011C20BF912C20CF917C20DF946
:104C780018C20EF90801D651CE2509010F6F080197
:104C8800D751CF210901106F0801DA5109010F5FCF
:104C98000801DB510901105B0801CE5109010F5FC2
:104CA8000801CF510901105B0801CE51D25D0901FD
:104CB800116F0801CF51D3590901126F3BEC08F06D
:104CC80000C00BF901C00CF9010E09010D6FF9ECD8
:104CD80009F00801D651CE25006ED751CF21016EBB
:104CE800DC51002409010B6F0801DD510120090185
:104CF8000C6F0801E25109010B270801E351090172
:104D08000C230801DC51005C09010D6F0801DD511D
:104D1800015809010E6F0801E05109010D2708012A
:104D2800E15109010E230801DA51005C09010F6FF6
:104D38000801DB5101580901106F84EC07F0E3D03A
:104D4800EBC848F2ECC849F2010E0201376F0801BE
:104D5800D651CE2509010B6F0801D751CF21090182
:104D68000C6F0801DC5109010B5F0801DD510901D5
:104D78000C5B0801D651D25D09010D6F0801D751AE
:104D8800D35909010E6F0801DC5109010D270801EB
:104D9800DD5109010E230801D651D45D09010F6FB9
:104DA8000801D751D5590901106F0801DA510901D5
:104DB8000F270801DB5109011023DBEC08F008017B
:104DC800D651CE2509010B6F0801D751CF21090112
:104DD8000C6F0801DC5109010B5F0801DD51090165
:104DE8000C5B0801D651D25D09010D6F0801D7513E
:104DF800D35909010E6F0801DC5109010D2708017B
:104E0800DD5109010E230801D651D02509010F6F84
:104E18000801D751D1210901106F0801DA510901A0
:104E28000F5F0801DB510901105BDBEC08F008019A
:104E3800D651D45D006ED751D559016EDA51002490
:104E480009010B6F0801DB51012009010C6F0801F2
:104E5800E45109010B5F0801E55109010C5B0801E8
:104E6800DA51005C09010D6F0801DB510158090195
:104E78000E6F0801E25109010D5F0801E3510901B4
:104E88000E5B0801DC51002409010F6F0801DD5198
:104E980001200901106FDBEC08F00801D651D0257C
:104EA800006ED751D121016EDA51005C09010B6FF8
:104EB8000801DB51015809010C6F0801E051090193
:104EC8000B5F0801E15109010C5B0801DA5100246C
:104ED80009010D6F0801DB51012009010E6F08015E
:104EE800DE5109010D5F0801DF5109010E5B080160
:104EF800DC51005C09010F6F0801DD5101580901FF
:104F0800106FDBEC08F0800E0801D919006E800ED6
:104F1800005C02E1000ED85D13E2DCC800F0DDC8D9
:104F280001F0003600900136003600900136060E7A
:104F38000026000E01220050D8270150D9231CD08A
:104F4800DA51DC5D036EDB51DD59046E03C000F0FD
:104F580004C001F00036009001360036009001369A
:104F68000A0E0026000E01220050D8270150D9232E
:104F7800010EDA5F000EDB5BDC4BDD2B18EF23F054
:104F8800ED53D8B49CD00101FF51000A4CE108014F
:104F9800D651D025DA6FD751D121DB6FD651D45DE8
:104FA800016ED751D559026EDB51025C02E1DA512C
:104FB800015C38E311C20BF912C20CF917C20DF9E2
:104FC80018C20EF9D051DA5D09010F6F0801D151ED
:104FD800DB590901106F0801D051D45D0901116F27
:104FE8000801D151D5590901126F3BEC08F000C0F6
:104FF8000BF901C00CF9010E09010D6FF9EC09F06C
:10500800CEC80BF9CFC80CF9D2C80DF9D3C80EF920
:10501800DAC80FF9DBC810F9DBEC08F00801DA4B45
:10502800DB2BBCD74BD00801D651CE25DC6FD7512E
:10503800CF21DD6FD651D25D016ED751D359026EA3
:10504800DD51025C02E1DC51015C38E311C20BF96D
:1050580012C20CF917C20DF918C20EF9CE51DC5D57
:1050680009010F6F0801CF51DD590901106F0801BF
:10507800CE51D25D0901116F0801CF51D3590901F1
:10508800126F3BEC08F000C00BF901C00CF9010EDF
:1050980009010D6FF9EC09F0D0C80BF9D1C80CF96A
:1050A800D4C80DF9D5C80EF9DCC80FF9DDC810F958
:1050B80084EC07F00801DC4BDD2BBCD724D0D6519B
:1050C800D025DA6FD751D121DB6FD651D45D016E6F
:1050D800D751D559026EDB51025C02E1DA51015C0D
:1050E80012E3CEC80BF9CFC80CF9D2C80DF9D3C852
:1050F8000EF9DAC80FF9DBC810F9DBEC08F0080183
:10510800DA4BDB2BE2D7E8C848F2E9C849F2EAC82B
:1051180037F20801DC6BDD6BD6C8DAF8D7C8DBF8E4
:10512800D6C800F0D7C801F000360090013600C09C
:10513800D8F801C0D9F800500308D86F01C0D9F8D1
:10514800000ED957010EDA25016E000EDB21026E22
:10515800800EDD19006E800E0218005C02E101501D
:10516800DC5DD8B063D1D651CE25EE6FD751CF21B3
:10517800EF6FDC51EE5FDD51EF5BD651D45DF06F20
:10518800D751D559F16FDA51F027DB51F1230201DC
:1051980037050801F26FF36B000EF35BF333F2335C
:1051A800F39FF3BDF38F010EF46F6EEC0DF0D65143
:1051B800D25DEE6FD751D359EF6FDC51EE27DD5139
:1051C800EF23D651D45DF06FD751D559F16FDA512D
:1051D800F027DB51F123020137050801F26FF36B69
:1051E800000EF35BF333F233F39FF3BDF38F010E3D
:1051F800F46F6EEC0DF0D651CE25EE6FD751CF215E
:10520800EF6FDC51EE5FDD51EF5BD651D025F06FCB
:10521800D751D121F16FDA51F05FDB51F15B020117
:1052280037050801F26FF36B000EF35BF333F233CB
:10523800F39FF3BDF38F010EF46F6EEC0DF0D651B2
:10524800D25DEE6FD751D359EF6FDC51EE27DD51A8
:10525800EF23D651D025F06FD751D121F16FDA5114
:10526800F05FDB51F15B020137050801F26FF36B68
:10527800000EF35BF333F233F39FF3BDF38F010EAC
:10528800F46F6EEC0DF0D651D45D006ED751D55940
:10529800016EDA510024EE6FDB510120EF6FE4510B
:1052A800EE5FE551EF5BDC510024F06FDD5101202A
:1052B800F16F020137050801F26FF36B000EF35B23
:1052C800F333F233F39FF3BDF38F010EF46F6EECFB
:1052D8000DF0D651D45D006ED751D559016EDA5113
:1052E800005CEE6FDB510158EF6FE251EE5FE35166
:1052F800EF5BDC510024F06FDD510120F16F0201FA
:1053080037050801F26FF36B000EF35BF333F233EA
:10531800F39FF3BDF38F010EF46F6EEC0DF0D651D1
:10532800D025006ED751D121016EDA51005CEE6FA5
:10533800DB510158EF6FE051EE5FE151EF5BDC515B
:10534800005CF06FDD510158F16F0201370508016B
:10535800F26FF36B000EF35BF333F233F39FF3BD9D
:10536800F38F010EF46F6EEC0DF0D651D025006E60
:10537800D751D121016EDA510024EE6FDB510120A3
:10538800EF6FDE51EE5FDF51EF5BDC51005CF06FD9
:10539800DD510158F16F020137050801F26FF36B17
:1053A800000EF35BF333F233F39FF3BDF38F010E7B
:1053B800F46F6EEC0DF0800ED919006E800E005C53
:1053C80002E1000ED85D13E2DCC800F0DDC801F090
:1053D800003600900136003600900136060E002691
:1053E800000E01220050D8270150D9231CD0DA51D1
:1053F800DC5D036EDB51DD59046E03C000F004C0B0
:1054080001F00036009001360036009001360A0E91
:105418000026000E01220050D8270150D923010E82
:10542800DA5F000EDB5BDC4BDD2B8CD6D651CE254C
:10543800EE6FD751CF21EF6FD0C8F0F8D1C8F1F88F
:10544800D651D25DF26FD751D359F36FD0C8F4F863
:10545800D1C8F5F885EC13F0020137A118D008017E
:10546800D651CE25EE6FD751CF21EF6FD4C8F0F8C3
:10547800D5C8F1F8D651D25DF26FD751D359F36F31
:10548800D4C8F4F8D5C8F5F885EC13F01DD0080198
:10549800D651CE25EE6FD751CF21EF6F010ED4250F
:1054A800006E000ED521016E00C0F0F801C0F1F8C1
:1054B800D651D25DF26FD751D359F36F00C0F4F8CB
:1054C80001C0F5F885EC13F0CEC8EEF8CFC8EFF8B8
:1054D8000801D651D025F06FD751D121F16FCEC830
:1054E800F2F8CFC8F3F8D651D45DF46FD751D55937
:1054F800F56F85EC13F0020137A118D0D2C8EEF889
:10550800D3C8EFF80801D651D025F06FD751D12173
:10551800F16FD2C8F2F8D3C8F3F8D651D45DF46F5E
:10552800D751D559F56F85EC13F01DD0010E080140
:10553800D225006E000ED321016E00C0EEF801C026
:10554800EFF8D651D025F06FD751D121F16F00C0B7
:10555800F2F801C0F3F8D651D45DF46FD751D5599C
:10556800F56F85EC13F0EBC815F2ECC816F2EDC830
:0455780000F212002B
:10557C000C6A0E6A0250D8A4D7EF2AF001C002F0D0
:10558C0000C001F0006A0E860250D8A4D7EF2AF0B2
:10559C0001C002F0016A0E960E880250D8B4E9EFF1
:1055AC002AF00E50035ED8A4D8A0EFEF2AF0D890C2
:1055BC0002BEF5EF2AF0003601360236032EDEEF7E
:1055CC002AF0EFEF2AF0010E0C6EBCEC12F0F9EFA2
:1055DC002AF0020E0C6EDCEC12F0F9EF2AF0040E3D
:0855EC000C6EFFEC12F012003E
:1055F4000801C751390806E3300EC75D03E3010E05
:08560400006E01D0006A1200E3
:10560C00086A096A000E076203648BEF2BF00250E4
:10561C0006180A6E075003267E0ED8A01CEF2BF03E
:10562C00035ED8B090EF2BF020EF2BF0035ED8A0E8
:10563C0095EF2BF0028E068E02C00EF001C00BF01F
:10564C0000C00DF000500402F4CF0CF00150050224
:10565C00F4CF00F0F3CF08F00402F3500C26F45012
:10566C000822000E00220D500502F3500C26F450B7
:10567C000822000E002202500402F3500826F450B7
:10568C00002202500502016A000E0122F35000268E
:10569C00F45001220D500602F3500826F45000225B
:1056AC00026A000E012202220B500602F350002661
:1056BC00F4500122000E02220E500602F350012675
:1056CC00F450022202BE73EF2BF00836003601367E
:1056DC0002360306D8B495EF2BF086EF2BF0D8806A
:1056EC00800E08640030000E002201220222D8A095
:1056FC0086EF2BF0023201320032034A90EF2BF08E
:10570C000AAE029E000E98EF2BF0010EBCEC12F0CC
:10571C0098EF2BF0020EF3EC12F098EF2BF0040E36
:06572C00DCEC12F012009B
:105732000D6A086A0050D8B4000C04180A6E0ABE3A
:105742000D1E0B6A04AE02D0041E042A00AE02D063
:10575200001E002A005004100A6E0ABE1FD0045018
:10576200085E003600340836045008260036060E5D
:105772000C6E00340836045000B0085E00A0082603
:1057820000360C2EF6D700A008260BB015D00DAEB1
:10579200000C001E002A081E082A000C04AE09D0C4
:1057A20000BE04D00050086E006AF1D7006A002AD9
:1057B200000C001E0B2AD3D7082A0450085CD8A478
:0E57C200E6D7086A002A00AEE2D7FF0C1200FC
:1057D00008EC1BF00050010A19E0520E02010D6F97
:1057E000000E0E6F470E0F6F090E106F600E096FDF
:1057F000000E0A6F470E0B6F090E0C6FC80E4A6F32
:10580000020E4B6F330E4C6F090E4D6FC7C846F238
:10581000C8C847F2C9C844F2CAC845F20801CA510B
:10582000C85D02E1C951C75D03E30101C76B03D045
:1058300001015A0EC76F09010B6B0C6B010E0D6F46
:10584000F9EC09F00801CE6BCF6BD06BD16BD26B4A
:10585000D36BD46BD56BD66BE1EC19F009010B6BF4
:105860000C6B0D6B0E6B65EC0DF002015A6B856ACB
:105870005FEC15F00350520A08E10250850A05E179
:105880000150850A02E10050000A0CE12BEC16F0F1
:10589000F20E02014E6F050E4F6F330E506F090E60
:1058A000516F0BD026EC1BF0340E02014E6F010E2F
:0C58B0004F6F330E506F090E516F120045
:1058BC00840E02011F6F030E206FC7C82BF2C8C8DD
:1058CC002CF2C9C829F2CAC82AF2CBC822F2CCC819
:0C58DC0021F21B6B1C6B196B1A6B120085
:1058E800FF0E0101E36F060EE46FFF0E0801CE6F95
:1058F800060ECF6FE6EC15F0560ECE6F080ECF6F82
:10590800E6EC15F0E40ECE6F070ECF6FE6EC15F05F
:0E5918000A0ECE6F080ECF6FE6EC15F01200EF
:0A592600C7C81FF2C8C820F2120023
:105930000E0E0801C725E96E000EC821EA6EEE5072
:10594000010AD8A41DD1100EC725E96E000EC8218A
:10595000EA6EEECFCEF81E0EC725E96E000EC82106
:10596000EA6EEECFCFF8EECFD0F8180EC725E96E6D
:10597000000EC821EA6EEECFD1F8190EC725E96EE8
:10598000000EC821EA6EEECFD2F81A0EC725E96ED6
:10599000000EC821EA6EEECFD3F8EECFD4F81C0E7D
:1059A000C725E96E000EC821EA6EEECFD5F8EECF1E
:1059B000D6F8E1EC19F00C0EC725E96E000EC821EF
:1059C000EA6EEECF0BF9EECF0CF90B0EC725E96EA0
:1059D000000EC821EA6EEECF0DF9F9EC09F0030EC6
:1059E000C725E96E000EC821EA6EEECF02F0EECFB9
:1059F00003F002C0CEF803C0CFF8050EC725E96E4C
:105A0000000EC821EA6EEECF00F0EECF01F000C02C
:105A1000D0F801C0D1F8070EC725D96E000EC821F5
:105A2000DA6EDE500224D26FDE500320D36F010EF7
:105A3000D25F000ED35B090EC725D96E000EC821B8
:105A4000DA6EDE500024D46FDE500120D56F010ED7
:105A5000D45F000ED55B19EC20F0130E0801C725AA
