:1000000032EF07F00000000000EF00F000000000F9
:0A0010000000000000000000F3D71C
:10001C000E01EFB302D00000FBD747C0EBFE12007D
:10002C000E01E1B302D00000FBD747C0DDFE120089
:0E003C009DB202D00000FCD747C099FF120011
:0E004A00550E0D01EF6FAA0EEF6FEF81120041
:100058000E01E8B302D00000FBD747C0E4FE12004F
:100068000E01F6B302D00000FBD747C0F2FE120023
:0E007800550E0D01EF6FAA0EEF6FEF91120003
:0C008600000E0E0137B3010E006E1200D8
:0800920043C047F0E0DF12005B
:0C009A00000E0E01EFB3010E006E12000C
:0800A60043C047F0C0DF120067
:0C00AE00000E0E0136BB010E006E1200A9
:0C00BA00000E0E0136BF010E006E120099
:0A00C600000E9DB2010E006E120044
:1000D000F1CE01F00E01F5A302D0F599F58901C02A
:0400E00000F012001A
:0800E40043C047F0A1DF120048
:1000EC00EACE01F00E01EEA302D0EE99EE8901C02A
:0400FC0000F01200FE
:0C010000000E0E01F6B3010E006E12009E
:10010C0098CF01F09CA202D09C989C8801C000F072
:02011C001200CF
:08011E0043C047F09ADF120014
:0C012600000E0E01E1B3010E006E12008D
:1001320043503B0804E34350350A01E003D0006A10
:10014200F0EF05F04450000AD8A4A4D1465201E0D1
:1001520092DFB1D045C052FE9AD145C053FE97D12D
:1001620045C054FE94D145C055FE91D145C056FEBE
:100172008ED145C057FE8BD145C058FE88D145C0AF
:1001820059FE85D145C05AFE82D145C05BFE7FD162
:1001920045C05CFE7CD145C05DFE79D145C05EFEA6
:1001A20076D145C05FFE73D145C060FE70D145C0B7
:1001B20061FE6DD145C062FE6AD145C063FE67D162
:1001C20045C064FE64D145C065FE61D145C066FE8E
:1001D2005ED145C067FE5BD145C068FE58D145C0BF
:1001E20069FE55D145C06AFE52D145C06BFE4FD162
:1001F20045C06CFE4CD145C06DFE49D145C06EFE76
:1002020046D145C06FFE43D145C070FE40D145C0C6
:1002120071FE3DD145C072FE3AD145C073FE37D161
:1002220045C074FE34D145C075FE31D145C076FE5D
:100232002ED145C077FE2BD145C078FE28D145C0CE
:1002420079FE25D145C07AFE22D145C07BFE1FD161
:1002520045C07CFE1CD145C07DFE19D145C07EFE45
:1002620016D145C07FFE13D145C080FE10D145C0D6
:1002720081FE0DD145C082FE0AD145C083FE07D161
:1002820045C084FE04D145C085FE01D145C086FE2D
:10029200FED045C088FEFBD045C089FEF8D045C0DF
:1002A2008AFEF5D045C08BFEF2D045C08CFEEFD061
:1002B20045C08DFEECD04350000AD8B44BD7435012
:1002C200010AD8B44AD74350020AD8B449D7435096
:1002D200030AD8B448D74350040AD8B447D7435086
:1002E200050AD8B446D74350060AD8B445D7435076
:1002F200070AD8B444D74350080AD8B443D7435066
:10030200090AD8B442D743500A0AD8B441D7435055
:100312000B0AD8B440D743500C0AD8B43FD7435045
:100322000D0AD8B43ED743500E0AD8B43DD7435035
:100332000F0AD8B43CD74350100AD8B43BD7435025
:10034200110AD8B43AD74350120AD8B439D7435015
:10035200130AD8B438D74350140AD8B437D7435005
:10036200150AD8B436D74350160AD8B435D74350F5
:10037200170AD8B434D74350180AD8B433D74350E5
:10038200190AD8B432D743501A0AD8B431D74350D5
:100392001B0AD8B430D743501C0AD8B42FD74350C5
:1003A2001D0AD8B42ED743501E0AD8B42DD74350B5
:1003B2001F0AD8B42CD74350200AD8B42BD74350A5
:1003C200210AD8B42AD74350220AD8B429D7435095
:1003D200230AD8B428D74350240AD8B427D7435085
:1003E200250AD8B426D74350260AD8B425D7435075
:1003F200270AD8B424D74350280AD8B423D7435065
:10040200290AD8B422D743502A0AD8B421D7435054
:100412002B0AD8B420D743502C0AD8B41FD7435044
:100422002D0AD8B41ED743502E0AD8B41DD7435034
:100432002F0AD8B41CD74350300AD8B41BD7435024
:10044200310AD8B41AD74350320AD8B419D7435014
:10045200330AD8B418D74350340AD8B417D7435004
:10046200360AD8B416D74350370AD8B415D74350F2
:10047200380AD8B414D74350390AD8B413D74350E2
:100482003A0AD8B412D743503B0AD8B411D74652CD
:1004920001E0DADD4450010AD8A450D1465201E00D
:1004A200EADD8DD043C0F0FD46D143C0F1FD43D11A
:1004B20043C0F2FD40D143C0F3FD3DD143C0F4FD42
:1004C2003AD143C0F5FD37D143C0F6FD34D143C024
:1004D200F7FD31D143C0F8FD2ED143C0F9FD2BD138
:1004E20043C0FAFD28D143C0FBFD25D143C0FCFD2A
:1004F20022D143C0FDFD1FD143C0FEFD1CD143C02C
:10050200FFFD19D143C000FE16D143C001FE13D135
:1005120043C002FE10D143C003FE0DD143C004FE0E
:100522000AD143C005FE07D143C006FE04D143C031
:1005320007FE01D143C008FEFED043C009FEFBD036
:1005420043C00AFEF8D043C00BFEF5D043C00CFEF8
:10055200F2D043C00DFEEFD043C00EFEECD043C03C
:100562000FFEE9D043C010FEE6D043C011FEE3D037
:1005720043C012FEE0D043C013FEDDD043C014FEE0
:10058200DAD043C015FED7D043C016FED4D043C044
:1005920017FED1D043C018FECED043C019FECBD037
:1005A20043C01AFEC8D043C01BFEC5D043C01CFEC8
:1005B200C2D043C01DFEBFD043C01EFEBCD04550BA
:1005C200000AD8B46FD74550010AD8B46ED7455047
:1005D200020AD8B46DD74550030AD8B46CD7455037
:1005E200040AD8B46BD74550050AD8B46AD7455027
:1005F200060AD8B469D74550070AD8B468D7455017
:10060200080AD8B467D74550090AD8B466D7455006
:100612000A0AD8B465D745500B0AD8B464D74550F6
:100622000C0AD8B463D745500D0AD8B462D74550E6
:100632000E0AD8B461D745500F0AD8B460D74550D6
:10064200100AD8B45FD74550110AD8B45ED74550C6
:10065200120AD8B45DD74550130AD8B45CD74550B6
:10066200140AD8B45BD74550150AD8B45AD74550A6
:10067200160AD8B459D74550170AD8B458D7455096
:10068200180AD8B457D74550190AD8B456D7455086
:100692001A0AD8B455D745501B0AD8B454D7455076
:1006A2001C0AD8B453D745501D0AD8B452D7455066
:1006B2001E0AD8B451D745501F0AD8B450D7455056
:1006C200200AD8B44FD74550210AD8B44ED7455046
:1006D200220AD8B44DD74550230AD8B44CD7455036
:1006E200240AD8B44BD74550250AD8B44AD7455026
:1006F200260AD8B449D74550270AD8B448D7455016
:10070200280AD8B447D74550290AD8B446D7455005
:100712002A0AD8B445D745502B0AD8B444D74550F5
:100722002C0AD8B443D745502D0AD8B442D74550E5
:100732002E0AD8B441D7465201E086DC62D144B0D9
:1007420002D0819001D0818048D244B002D08192FF
:1007520001D0818242D244B002D0819401D08184FE
:100762003CD244B002D0819601D0818636D244B0C8
:1007720002D0819801D0818830D244B002D0819ACF
:1007820001D0818A2AD244B002D0819C01D0818CCE
:1007920024D244B002D0819E01D0818E1ED244B0B8
:1007A20002D0829001D0828018D244B002D08292CC
:1007B20001D0828212D244B002D0829401D08284CB
:1007C2000CD244B002D0829601D0828606D244B0C6
:1007D20002D0829801D0828800D244B002D0829A9C
:1007E20001D0828AFAD144B002D0829C01D0828C9C
:1007F200F4D144B002D0829E01D0828EEED144B0B8
:1008020002D0839001D08380E8D144B002D0839299
:1008120001D08382E2D144B002D0839401D0838498
:10082200DCD144B002D0839601D08386D6D144B0C5
:1008320002D0839801D08388D0D144B002D0839A69
:1008420001D0838ACAD144B002D0839C01D0838C68
:10085200C4D144B002D0839E01D0838EBED144B0B5
:1008620002D0849001D08480B8D144B002D0849266
:1008720001D08482B2D144B002D0849401D0848465
:10088200ACD144B002D0849601D08486A6D144B0C3
:1008920002D0849801D08488A0D144B002D0849A36
:1008A20001D0848A9AD144B002D0849C01D0848C35
:1008B20094D144B002D0849E01D0848E8ED144B0B3
:1008C20002D0859001D0858088D144B002D0859233
:1008D20001D0858282D144B002D0859401D0858432
:1008E2007CD144B002D0859601D0858676D144B0C1
:1008F20002D0859801D0858870D144B002D0859A03
:1009020001D0858A6AD144B002D0859C01D0858C01
:1009120064D144B002D0859E01D0858E5ED144B0B0
:1009220002D0869001D0868058D144B002D08692FF
:1009320001D0868252D144B002D0869401D08684FE
:100942004CD144B002D0869601D0868646D144B0BE
:1009520002D0869801D0868840D144B002D0869ACF
:1009620001D0868A3AD144B002D0869C01D0868CCE
:1009720034D144B002D0869E01D0868E2ED144B0AE
:1009820002D0879001D0878028D144B002D08792CC
:1009920001D0878222D144B002D0879401D08784CB
:1009A2001CD144B002D0879601D0878616D144B0BC
:1009B20002D0879801D0878810D144B002D0879C9A
:1009C20001D0878C0AD144B002D0879E01D0878E95
:1009D20004D144B002D0889001D08880FED044B0C7
:1009E20002D0889201D08882F8D044B002D0889494
:1009F20001D08884F2D044B002D0889601D0888693
:100A0200ECD04350000AD8B49AD64350010AD8B465
:100A12009CD64350020AD8B49ED64350030AD8B497
:100A2200A0D64350040AD8B4A2D64350050AD8B47B
:100A3200A4D64350060AD8B4A6D64350070AD8B45F
:100A4200A8D64350080AD8B4AAD64350090AD8B443
:100A5200ACD643500A0AD8B4AED643500B0AD8B427
:100A6200B0D643500C0AD8B4B2D643500D0AD8B40B
:100A7200B4D643500E0AD8B4B6D643500F0AD8B4EF
:100A8200B8D64350100AD8B4BAD64350110AD8B4D3
:100A9200BCD64350120AD8B4BED64350130AD8B4B7
:100AA200C0D64350140AD8B4C2D64350150AD8B49B
:100AB200C4D64350160AD8B4C6D64350170AD8B47F
:100AC200C8D64350180AD8B4CAD64350190AD8B463
:100AD200CCD643501A0AD8B4CED643501B0AD8B447
:100AE200D0D643501C0AD8B4D2D643501D0AD8B42B
:100AF200D4D643501E0AD8B4D6D643501F0AD8B40F
:100B0200D8D64350200AD8B4DAD64350210AD8B4F2
:100B1200DCD64350220AD8B4DED64350230AD8B4D6
:100B2200E0D64350240AD8B4E2D64350250AD8B4BA
:100B3200E4D64350260AD8B4E6D64350270AD8B49E
:100B4200E8D64350280AD8B4EAD64350290AD8B482
:100B5200ECD643502A0AD8B4EED643502B0AD8B466
:100B6200F0D643502C0AD8B4F2D643502D0AD8B44A
:100B7200F4D643502E0AD8B4F6D643502F0AD8B42E
:100B8200F8D64350300AD8B4FAD64350310AD8B412
:100B9200FCD64350320AD8B4FED64350330AD8B4F6
:100BA20000D74350340AD8B402D74350360AD8B4D7
:100BB20004D74350370AD8B406D74350380AD8B4BA
:100BC20008D74350390AD8B40AD743503A0AD8B49E
:100BD2000CD743503B0AD8B40ED7FF0E006E12005A
:0A0BE20043C047F01EEC00F01200C3
:0A0BEC0043C047F01EEC00F01200B9
:0C0BF600000E0E0137BB010E006E120055
:100C0200DCCE01F00E01E0A302D0E099E08901C040
:040C120000F01200DC
:0A0C160043C047F034EC00F0120078
:0C0C2000000E0E0137B7010E006E12002E
:100C2C00E3CE01F00E01E7A302D0E799E78901C0FA
:040C3C0000F01200B2
:0A0C400043C047F00EEC00F0120074
:0A0C4A0043C047F034EC00F0120044
:0C0C5400000E0E01E8B3010E006E12004D
:0A0C600043C047F00EEC00F0120054
:060C6A0057EC00F012003F
:060C700068EC00F0120028
:060C760080EC00F012000A
:060C7C005DEC00F0120027
:040C8200B9DF1200C4
:100C8600F250026EF29E0500FF6A0150FE6E0050A1
:080C9600FD6E02BEF28E120099
:060C9E0063EC00F01200FF
:040CA400AEDF1200AD
:040CA800D5DF120082
:100CAC0040C043F041C044F042C045F0010E466ED6
:060CBC0099EC00F01200AB
:060CC20086EC00F01200B8
:040CC800C5DF120072
:040CCC00A9DF12008A
:040CD000A7DF120088
:040CD400ABDF120080
:060CD80093EC00F0120095
:040CDE008BDF120096
:060CE2004DEC00F01200D1
:040CE800A1DF120076
:060CEC0043EC00F01200D1
:060CF2004DEC00F01200C1
:060CF80076EC00F0120092
:040CFE0081DF120080
:060D020043EC00F01200BA
:060D080093EC00F0120064
:060D0E0080EC00F0120071
:060D14005DEC00F012008E
:060D1A0057EC00F012008E
:060D200086EC00F0120059
:060D260068EC00F0120071
:060D2C0063EC00F0120070
:060D320076EC00F0120057
:100D3800100E406E416A120E426EB4DF110E406E04
:0C0D4800010E416E250E426EADDF120060
:100D540030C01BF031C01CF032C01DF033C01EF097
:100D640034C028F035C029F036C02AF037C02BF043
:100D740038C024F039C025F03AC026F03BC027F033
:100D84003CC020F03DC021F03EC022F03FC023F023
:020D940012004B
:100D96002AC0E1FF2BC0E2FF30C0E6FF28C000F00A
:080DA60029C001F06DDF12000D
:100DAE000E01E88B900EE76F37A703D0E3CE00F06D
:040DBE00FBD712004D
:100DC200778E0900F5CFE6FF0006FBE10106F9E1A7
:020DD20012000D
:100DD400B1DFD40E306E0C0E316E000E326E000E8A
:100DE400336E1E0E346E010E356E430E366E000EDB
:100DF400376ED00E386E0C0E396E000E3A6E000E41
:100E04003B6EA80E3C6E0C0E3D6E000E3E6E000E48
:080E14003F6E9EDFCADF1200F1
:0C0E1C0024C000F025C001F030DF1200FF
:100E28002F6A2CC0E9FF2DC0EAFFEECF2EF02E501E
:100E3800000A0DE02EC030F0AADF2F2A2F502C24F4
:100E4800E96E000E2D20EA6EEECF2EF0F0D71200DC
:0C0E58001BC000F01CC001F012DF1200F3
:100E6400530E156E740E166E610E176E720E186E9A
:100E7400740E196E1A6A0E01926B9A6BA76BAF6BA4
:100E8400B46BBC6BE9878A0EE56F000EE66FE885EC
:100E94009FDF090E0B6E1E0E0C6EE40E0D6E0D2EF2
:100EA400FED70C2EFCD70B2EFAD70000150E2C6E95
:100EB400000E2D6EB7DF0D0E306E6BDF0A0E306E36
:100EC40068DFAADF005206E0C5DF00C01FF000C0E3
:080ED40030F05FDFF6D7FFD715
:020000040030CA
:0C000000642921B71F3FFF170300FF0217
:00000001FF
