:1000000079EF15F00000000000EF00F000000000A4
:0A0010000000000000000000F3D71C
:0A001C00050E0D6E0D2EFED712002A
:100026007DC1D5FE0E01D8B102D00000FBD7D5CEDA
:0400360000F01200C4
:10003A007DC191FF94B002D00000FCD791CF00F0AF
:02004A001200A2
:0E004C007F867CC18DFF7F9200007F821200B4
:10005A007E947F807F867CC18DFF7F927F827E84A3
:06006A00D8DFD7DF120011
:10007000D5DFD4DF7E947F807F967CC18DFF7F9219
:060080007F827E84120065
:0E0086007F967CC18DFF7F9200007F8212006A
:080094007CC17DF1D0DF1200F8
:08009C007CC17DF1CCDF1200F4
:0800A4007CC17DF1BEDF1200FA
:0800AC007CC17DF1BADF1200F6
:0600B400C8C000F01200BC
:1000BA007BC1D5FE0E01D8B102D00000FBD7D5CE48
:0400CA0000F0120030
:1000CE007BC191FF94B002D00000FCD791CF00F01D
:0200DE0012000E
:1000E000F250026EF29E0500FF6A0150FE6E005053
:0800F000FD6E02BEF28E12004B
:1000F80003C1E1FF04C1E2FF2A0EE66E01C100F070
:1001080002C101F0E9DFE6C0E1FFE7C0E2FF68C134
:10011800E6FFE4C000F0E5C001F0DEDFE6C0E1FF85
:10012800E7C0E2FF67C1E6FFE4C000F0E5C001F008
:10013800D3DF03C1E1FF04C1E2FF2B0EE66E01C16C
:1001480000F002C101F0C8DFE6C0E1FFE7C0E2FF4E
:100158006AC1E6FFE4C000F0E5C001F0BDDFE6C01B
:10016800E1FFE7C0E2FF69C1E6FFE4C000F0E5C0D7
:1001780001F0B2DF03C1E1FF04C1E2FF2C0EE66E1D
:0C01880001C100F002C101F0A7DF12006D
:0801940067C17BF19ADF120044
:10019C0003C1E1FF04C1E2FF020EE66E01C100F0F3
:1001AC0002C101F097DF68C100F0016AE6C0E1FF0F
:1001BC00E7C0E2FF00C0E6FFE4C000F0E5C001F0DC
:1001CC0089DF03C1E1FF04C1E2FF030EE66E01C14A
:1001DC0000F002C101F07EDFE6C0E1FFE7C0E2FF04
:1001EC0067C1E6FFE4C000F0E5C001F073DF03C1B6
:1001FC00E1FF04C1E2FF060EE66E01C100F002C190
:10020C0001F068DF6AC100F0016AE6C0E1FFE7C0F7
:10021C00E2FF00C0E6FFE4C000F0E5C001F05ADFE9
:10022C0003C1E1FF04C1E2FF070EE66E01C100F05D
:10023C0002C101F04FDFE6C0E1FFE7C0E2FF69C198
:10024C00E6FFE4C000F0E5C001F044DF03C1E1FFCC
:10025C0004C1E2FF220EE66E01C100F002C101F002
:04026C0039DF120064
:100270000001FF51010802E1FE51E00808E301011D
:100280000A51010802E10951E00801E30AD0010125
:10029000200E776F030E786FE00E796F010E7A6F84
:1002A00008D0E00E776F010E786F100E796F010E97
:1002B0007A6F0001C6515A0A3BE1FCDE00521CE095
:1002C000010E0101775D006E000E7859016E6D51CF
:1002D000005C6F6F6E510158706F6951005C716FF7
:1002E0006A510158726F67C173F168C174F16BC1D3
:1002F00075F16CC176F11BD0010169C16FF16AC162
:1003000070F16DC171F16EC172F1010E795D006E17
:10031000000E7A59016E6B51005C736F6C5101587D
:10032000746F6751005C756F68510158766F39D0F2
:10033000C1DE005226E00101010E775D006E000E65
:100340007859016E6B51005C6F6F6C510158706F82
:100350006751005C716F68510158726F010E795DD1
:10036000006E000E7A59016E6D51005C736F6E5114
:100370000158746F6951005C756F6A510158766F4E
:1003800010D067C16FF168C170F16BC171F16CC1C0
:1003900072F169C173F16AC174F16DC175F16EC119
:1003A00076F103C1E1FF04C1E2FF2A0EE66E01C14E
:1003B00000F002C101F094DE70C100F0016AE6C0F5
:1003C000E1FFE7C0E2FF00C0E6FFE4C000F0E5C0E7
:1003D00001F086DEE6C0E1FFE7C0E2FF6FC1E6FFA5
:1003E000E4C000F0E5C001F07BDE72C100F0016AFC
:1003F000E6C0E1FFE7C0E2FF00C0E6FFE4C000F0B6
:10040000E5C001F06DDEE6C0E1FFE7C0E2FF71C1CB
:10041000E6FFE4C000F0E5C001F062DE03C1E1FFE9
:1004200004C1E2FF2B0EE66E01C100F002C101F033
:1004300057DE74C100F0016AE6C0E1FFE7C0E2FFE9
:1004400000C0E6FFE4C000F0E5C001F049DEE6C010
:10045000E1FFE7C0E2FF73C1E6FFE4C000F0E5C0E2
:1004600001F03EDE76C100F0016AE6C0E1FFE7C0C0
:10047000E2FF00C0E6FFE4C000F0E5C001F030DEBE
:10048000E6C0E1FFE7C0E2FF75C1E6FFE4C000F0AF
:10049000E5C001F025DE03C1E1FF04C1E2FF2C0E3F
:0E04A000E66E01C100F002C101F01ADE12008A
:0E04AE00550E0E01006FAA0E006F00811200A5
:0E04BC00550E0E01006FAA0E006F0091120087
:0804CA0067C17BF1FFDD1200A8
:0804D20067C17BF1F1DD1200AE
:0804DA0067C17BF1EDDD1200AA
:1004E2007F8668C18DFF7F9200007F8267C18DFF8A
:0804F2007F9200007F821200DE
:1004FA000B0E026E67C100F068C101F0025005E000
:10050A0001320032019EFF0FFAD700C069F169C1BA
:10051A0000F000360090003600900036009000C0CF
:10052A0069F1070E006E69C101F0005004E0013262
:10053A00019EFF0FFBD70150010A03E1070E0101DB
:10054A00692769C17CF184DD050E026E67C100F07E
:10055A0068C101F0025005E001320032019EFF0F2E
:10056A00FAD700C069F169C100F000360090003680
:10057A00009000C069F1070E006E69C101F00050D9
:10058A0004E00132019EFF0FFBD70150010A03E18B
:10059A000101030E692769C17CF15ADD030E016E60
:1005AA0067C100F0015004E000360090FF0FFBD74E
:1005BA0000C069F1070E006E69C101F0005004E045
:1005CA000132019EFF0FFBD70150010A03E101012D
:0C05DA00070E692769C17CF13BDD1200AF
:1005E60003C1E1FF04C1E2FF2A0EE66E01C100F07D
:1005F60002C101F072DD68C100F0016AE6C0E1FFE8
:10060600E7C0E2FF00C0E6FFE4C000F0E5C001F08D
:1006160064DDE6C0E1FFE7C0E2FF67C1E6FFE4C0D4
:1006260000F0E5C001F059DD03C1E1FF04C1E2FFBE
:100636002B0EE66E01C100F002C101F04EDD6AC16B
:1006460000F0016AE6C0E1FFE7C0E2FF00C0E6FF96
:10065600E4C000F0E5C001F040DDE6C0E1FFE7C020
:10066600E2FF69C1E6FFE4C000F0E5C001F035DD58
:1006760003C1E1FF04C1E2FF2C0EE66E01C100F0EA
:0806860002C101F02ADD12009F
:10068E0003C1E1FF04C1E2FF2A0EE66E01C100F0D4
:10069E0002C101F01EDD68C100F0016AE6C0E1FF93
:1006AE00E7C0E2FF00C0E6FFE4C000F0E5C001F0E5
:1006BE0010DDE6C0E1FFE7C0E2FF67C1E6FFE4C080
:1006CE0000F0E5C001F005DD03C1E1FF04C1E2FF6A
:1006DE002B0EE66E01C100F002C101F0FADC6AC118
:1006EE0000F0016AE6C0E1FFE7C0E2FF00C0E6FFEE
:1006FE00E4C000F0E5C001F0ECDCE6C0E1FFE7C0CD
:10070E00E2FF69C1E6FFE4C000F0E5C001F0E1DC04
:10071E0003C1E1FF04C1E2FF2C0EE66E01C100F041
:08072E0002C101F0D6DC12004B
:1007360003C1E1FF04C1E2FF2A0EE66E01C100F02B
:1007460002C101F0CADC68C100F0016AE6C0E1FF3F
:10075600E7C0E2FF00C0E6FFE4C000F0E5C001F03C
:10076600BCDCE6C0E1FFE7C0E2FF67C1E6FFE4C02C
:1007760000F0E5C001F0B1DC03C1E1FF04C1E2FF16
:100786002B0EE66E01C100F002C101F0A6DC6AC1C3
:1007960000F0016AE6C0E1FFE7C0E2FF00C0E6FF45
:1007A600E4C000F0E5C001F098DCE6C0E1FFE7C078
:1007B600E2FF69C1E6FFE4C000F0E5C001F08DDCB0
:1007C60003C1E1FF04C1E2FF2C0EE66E01C100F099
:0807D60002C101F082DC1200F7
:0607DE0016C000F012003D
:1007E400010163513B0804E36351350A01E003D07E
:1007F400006A8CEF09F06451000AD8A4A6D16653AC
:1008040001E05ADEB1D065C152FE9BD165C153FEF1
:1008140098D165C154FE95D165C155FE92D165C18B
:1008240056FE8FD165C157FE8CD165C158FE89D162
:1008340065C159FE86D165C15AFE83D165C15BFE8F
:1008440080D165C15CFE7DD165C15DFE7AD165C193
:100854005EFE77D165C15FFE74D165C160FE71D162
:1008640065C161FE6ED165C162FE6BD165C163FE77
:1008740068D165C164FE65D165C165FE62D165C19B
:1008840066FE5FD165C167FE5CD165C168FE59D162
:1008940065C169FE56D165C16AFE53D165C16BFE5F
:1008A40050D165C16CFE4DD165C16DFE4AD165C1A3
:1008B4006EFE47D165C16FFE44D165C170FE41D162
:1008C40065C171FE3ED165C172FE3BD165C173FE47
:1008D40038D165C174FE35D165C175FE32D165C1AB
:1008E40076FE2FD165C177FE2CD165C178FE29D162
:1008F40065C179FE26D165C17AFE23D165C17BFE2F
:1009040020D165C17CFE1DD165C17DFE1AD165C1B2
:100914007EFE17D165C17FFE14D165C180FE11D161
:1009240065C181FE0ED165C182FE0BD165C183FE16
:1009340008D165C184FE05D165C185FE02D165C1BA
:1009440086FEFFD065C188FEFCD065C189FEF9D062
:1009540065C18AFEF6D065C18BFEF3D065C18CFEFD
:10096400F0D065C18DFEEDD001016351000AD8B409
:100974004AD76351010AD8B449D76351020AD8B49B
:1009840048D76351030AD8B447D76351040AD8B48B
:1009940046D76351050AD8B445D76351060AD8B47B
:1009A40044D76351070AD8B443D76351080AD8B46B
:1009B40042D76351090AD8B441D763510A0AD8B45B
:1009C40040D763510B0AD8B43FD763510C0AD8B44B
:1009D4003ED763510D0AD8B43DD763510E0AD8B43B
:1009E4003CD763510F0AD8B43BD76351100AD8B42B
:1009F4003AD76351110AD8B439D76351120AD8B41B
:100A040038D76351130AD8B437D76351140AD8B40A
:100A140036D76351150AD8B435D76351160AD8B4FA
:100A240034D76351170AD8B433D76351180AD8B4EA
:100A340032D76351190AD8B431D763511A0AD8B4DA
:100A440030D763511B0AD8B42FD763511C0AD8B4CA
:100A54002ED763511D0AD8B42DD763511E0AD8B4BA
:100A64002CD763511F0AD8B42BD76351200AD8B4AA
:100A74002AD76351210AD8B429D76351220AD8B49A
:100A840028D76351230AD8B427D76351240AD8B48A
:100A940026D76351250AD8B425D76351260AD8B47A
:100AA40024D76351270AD8B423D76351280AD8B46A
:100AB40022D76351290AD8B421D763512A0AD8B45A
:100AC40020D763512B0AD8B41FD763512C0AD8B44A
:100AD4001ED763512D0AD8B41DD763512E0AD8B43A
:100AE4001CD763512F0AD8B41BD76351300AD8B42A
:100AF4001AD76351310AD8B419D76351320AD8B41A
:100B040018D76351330AD8B417D76351340AD8B409
:100B140016D76351360AD8B415D76351370AD8B4F7
:100B240014D76351380AD8B413D76351390AD8B4E7
:100B340012D763513A0AD8B411D763513B0AD8B4D7
:100B440010D70101665301E0B0DC01016451010AD0
:100B5400D8A453D1665301E0AFDC8DD063C101FE4C
:100B640047D163C102FE44D163C103FE41D163C1D5
:100B740004FE3ED163C105FE3BD163C106FE38D1FC
:100B840063C107FE35D163C108FE32D163C109FEDA
:100B94002FD163C10AFE2CD163C10BFE29D163C1DD
:100BA4000CFE26D163C10DFE23D163C10EFE20D1FC
:100BB40063C10FFE1DD163C110FE1AD163C100FED3
:100BC40017D163C101FE14D163C102FE11D163C107
:100BD40003FE0ED163C104FE0BD163C105FE08D12F
:100BE40063C106FE05D163C107FE02D163C108FEDD
:100BF400FFD063C109FEFCD063C10AFEF9D063C112
:100C04000BFEF6D063C10CFEF3D063C10DFEF0D031
:100C140063C10EFEEDD063C10FFEEAD063C110FEC6
:100C2400E7D063C111FEE4D063C112FEE1D063C119
:100C340013FEDED063C114FEDBD063C115FED8D031
:100C440063C116FED5D063C117FED2D063C118FEAE
:100C5400CFD063C119FECCD063C11AFEC9D063C121
:100C64001BFEC6D063C11CFEC3D063C11DFEC0D031
:100C740063C11EFEBDD001016551000AD8B46ED710
:100C84006551010AD8B46DD76551020AD8B46CD73E
:100C94006551030AD8B46BD76551040AD8B46AD72E
:100CA4006551050AD8B469D76551060AD8B468D71E
:100CB4006551070AD8B467D76551080AD8B466D70E
:100CC4006551090AD8B465D765510A0AD8B464D7FE
:100CD40065510B0AD8B463D765510C0AD8B462D7EE
:100CE40065510D0AD8B461D765510E0AD8B460D7DE
:100CF40065510F0AD8B45FD76551100AD8B45ED7CE
:100D04006551110AD8B45DD76551120AD8B45CD7BD
:100D14006551130AD8B45BD76551140AD8B45AD7AD
:100D24006551150AD8B459D76551160AD8B458D79D
:100D34006551170AD8B457D76551180AD8B456D78D
:100D44006551190AD8B455D765511A0AD8B454D77D
:100D540065511B0AD8B453D765511C0AD8B452D76D
:100D640065511D0AD8B451D765511E0AD8B450D75D
:100D740065511F0AD8B44FD76551200AD8B44ED74D
:100D84006551210AD8B44DD76551220AD8B44CD73D
:100D94006551230AD8B44BD76551240AD8B44AD72D
:100DA4006551250AD8B449D76551260AD8B448D71D
:100DB4006551270AD8B447D76551280AD8B446D70D
:100DC4006551290AD8B445D765512A0AD8B444D7FD
:100DD40065512B0AD8B443D765512C0AD8B442D7ED
:100DE40065512D0AD8B441D765512E0AD8B440D7DD
:100DF4000101665302E057EC02F09DD1010164B198
:100E040002D0819001D0818083D2010164B102D0EB
:100E1400819201D081827CD2010164B102D081949B
:100E240001D0818475D2010164B102D0819601D0D0
:100E340081866ED2010164B102D0819801D081888B
:100E440067D2010164B102D0819A01D0818A60D253
:100E5400010164B102D0819C01D0818C59D201017D
:100E640064B102D0819E01D0818E52D2010164B15D
:100E740002D0829001D082804BD2010164B102D0B1
:100E8400829201D0828244D2010164B102D0829460
:100E940001D082843DD2010164B102D0829601D096
:100EA400828636D2010164B102D0829801D0828850
:100EB4002FD2010164B102D0829A01D0828A28D251
:100EC400010164B102D0829C01D0828C21D2010143
:100ED40064B102D0829E01D0828E1AD2010164B123
:100EE40002D0839001D0838013D2010164B102D077
:100EF400839201D083820CD2010164B102D0839425
:100F040001D0838405D2010164B102D0839601D05B
:100F14008386FED1010164B102D0839801D0838815
:100F2400F7D1010164B102D0839A01D0838AF0D150
:100F3400010164B102D0839C01D0838CE9D1010109
:100F440064B102D0839E01D0838EE2D1010164B1E9
:100F540002D0849001D08480DBD1010164B102D03D
:100F6400849201D08482D4D1010164B102D08494EA
:100F740001D08484CDD1010164B102D0849601D022
:100F84008486C6D1010164B102D0849801D08488DA
:100F9400BFD1010164B102D0849A01D0848AB8D14E
:100FA400010164B102D0849C01D0848CB1D10101CF
:100FB40064B102D0849E01D0848EAAD1010164B1AF
:100FC40002D0859001D08580A3D1010164B102D003
:100FD400859201D085829CD1010164B102D08594AF
:100FE40001D0858495D1010164B102D0859601D0E8
:100FF40085868ED1010164B102D0859801D085889F
:1010040087D1010164B102D0859A01D0858A80D14B
:10101400010164B102D0859C01D0858C79D1010194
:1010240064B102D0859E01D0858E72D1010164B174
:1010340002D0869001D086806BD1010164B102D0C8
:10104400869201D0868264D1010164B102D0869473
:1010540001D086845DD1010164B102D0869601D0AD
:10106400868656D1010164B102D0869801D0868863
:101074004FD1010164B102D0869A01D0868A48D149
:10108400010164B102D0869C01D0868C41D101015A
:1010940064B102D0869E01D0868E3AD1010164B13A
:1010A40002D0879001D0878033D1010164B102D08E
:1010B400879201D087822CD1010164B102D0879438
:1010C40001D0878425D1010164B102D0879601D073
:1010D40087861ED1010164B102D0879801D0878828
:1010E40017D1010164B102D0879C01D0878C10D143
:1010F400010164B102D0879E01D0878E09D101011C
:1011040064B102D0889001D0888002D1010164B119
:1011140002D0889201D08882FBD0010164B102D050
:10112400889401D08884F4D0010164B102D08896F7
:1011340001D08886EDD001016351000AD8B45ED68F
:101144006351010AD8B461D66351020AD8B464D693
:101154006351030AD8B467D66351040AD8B46AD673
:101164006351050AD8B46DD66351060AD8B470D653
:101174006351070AD8B473D66351080AD8B476D633
:101184006351090AD8B479D663510A0AD8B47CD613
:1011940063510B0AD8B47FD663510C0AD8B482D6F3
:1011A40063510D0AD8B485D663510E0AD8B488D6D3
:1011B40063510F0AD8B48BD66351100AD8B48ED6B3
:1011C4006351110AD8B491D66351120AD8B494D693
:1011D4006351130AD8B497D66351140AD8B49AD673
:1011E4006351150AD8B49DD66351160AD8B4A0D653
:1011F4006351170AD8B4A3D66351180AD8B4A6D633
:101204006351190AD8B4A9D663511A0AD8B4ACD612
:1012140063511B0AD8B4AFD663511C0AD8B4B2D6F2
:1012240063511D0AD8B4B5D663511E0AD8B4B8D6D2
:1012340063511F0AD8B4BBD66351200AD8B4BED6B2
:101244006351210AD8B4C1D66351220AD8B4C4D692
:101254006351230AD8B4C7D66351240AD8B4CAD672
:101264006351250AD8B4CDD66351260AD8B4D0D652
:101274006351270AD8B4D3D66351280AD8B4D6D632
:101284006351290AD8B4D9D663512A0AD8B4DCD612
:1012940063512B0AD8B4DFD663512C0AD8B4E2D6F2
:1012A40063512D0AD8B4E5D663512E0AD8B4E8D6D2
:1012B40063512F0AD8B4EBD66351300AD8B4EED6B2
:1012C4006351310AD8B4F1D66351320AD8B4F4D692
:1012D4006351330AD8B4F7D66351340AD8B4FAD672
:1012E4006351360AD8B4FDD66351370AD8B400D74F
:1012F4006351380AD8B403D76351390AD8B406D72E
:1013040063513A0AD8B409D763513B0AD8B40CD70D
:06131400FF0E006E120046
:10131A007E9ED6C0E1FFD7C0E2FF050EE66ED4C0BE
:10132A0000F0D5C001F070EC00F0D2C0E1FFD3C0EC
:10133A00E2FFE66AD0C000F0D1C001F070EC00F024
:08134A007E8E010E0016120058
:1013520055C163F156C164F157C165F1010E010136
:08136200666FF2EC03F01200CB
:10136A00090E0B6E1E0E0C6EE40E0D6E0D2EFED7C0
:0C137A000C2EFCD70B2EFAD7000012003E
:101386000B6A0A6A096A00500402F4CF09F0F3CF27
:1013960008F001500502F4CF0BF0F3CF0AF000502D
:1013A6000502F3500926F4500A22E86A0B2201507E
:1013B6000402F3500926F4500A22E86A0B2208C0F8
:1013C60000F009C001F00AC002F00BC003F01200E1
:1013D600E80E0101616F000E626F000E006E5A5139
:1013E600005C02E15951000844E2F4C0E1FFF5C097
:1013F600E2FF55C1E6FF56C1E6FF57C1E6FF58C1F9
:10140600E6FF59C1E6FF5AC1E6FF5D0EE66E010E24
:10141600E66EF2C000F0F3C001F070EC00F000C020
:101426005FF101C060F101015B6B5C6B5E515C5D5D
:1014360002E15D515B5D11E25FC1E9FF60C1EAFF58
:1014460061C1E1FF62C1E2FFEECFE6FF614B622BB5
:101456005F4B602B5B4B5C2BE9D75D51595F5E514F
:101466005A5B5D5155275E515623000E572358236C
:04147600B4D71200D5
:10147A00D00E0C6EC90E0D6E0D2EFED70C2EFCD79B
:06148A000000000012004A
:1014900055C1DEF056C1DFF057C1E0F0020E010188
:1014A0005525F66E000E5621F76E000E5721F86E88
:1014B0000900F5CF04F0030E5525F66E000E5621F7
:1014C000F76E000E5721F86E0900F5CF03F003C048
:1014D00001F0006A045000240001CC6F000E0120CE
:1014E000CD6F040E01015525F66E000E5621F76EE4
:1014F000000E5721F86E0900F5CF04F0050E5525B2
:10150000F66E000E5621F76E000E5721F86E090098
:10151000F5CF03F003C001F0006A0450002400017D
:10152000CE6F000E0120CF6F060E01015525F66E1D
:10153000000E5621F76E000E5721F86E0900F5CF08
:10154000D8F0000E0001D96F58C1DCF059C1DDF0B0
:0E1550005AC1E1F0010E156E0101126B12007E
:10155E007E9ED6C0E1FFD7C0E2FF060EE66ED4C077
:0E156E0000F0D5C001F070EC00F07E8E12008F
:10157C00800E01015619006E800E005C02E1000E17
:10158C00555D0BE30001FF510101565D04E10001C3
:10159C00FE510101555D01E201D052D0800E581967
:1015AC00006E800E005C02E1000E575D07E30A51ED
:1015BC00585D02E10951575D01E201D041D07E94A2
:1015CC00EFEC03F000521BE00DC1E1FF0EC1E2FF96
:1015DC0055C1E6FF56C1E6FF57C1E6FF58C1E6FF0D
:1015EC0055C1E6FF56C1E6FF57C1E6FF58C1E6FFFD
:1015FC000BC100F00CC101F070EC00F012D007C16F
:10160C00E1FF08C1E2FF55C1E6FF56C1E6FF57C135
:10161C00E6FF58C1E6FF05C100F006C101F070EC11
:10162C0000F0F8C0E1FFF9C0E2FF59C1E6FF5AC172
:10163C00E6FFF6C000F0F7C001F070EC00F07E841D
:02164C0012008A
:10164E00956A949C949E01013B5195123D519512C1
:10165E003C5194123D5305E03E51000AD8B4948C8F
:0C166E0003D03E53D8A4948C958A12003F
:10167A003BC1DAF03CC1DBF03DC1E2F03EC1E3F030
:02168A0012004C
:10168C00130E0101556F566B190E576F5CDE140E5D
:10169C000101556F010E566F2A0E576F54DE150E51
:0E16AC000101556F566B1A0E576F4DDE12007E
:1016BA00086A080E0C6E003408360450085ED8B06A
:0E16CA0002D00826D89000360C2EF5D712005C
:1016D800809688967F8687967E8486948790879260
:1016E8007F807F828086C5DE80963BDE808639DEFD
:1016F800C0DEBFDE7E9403C1E1FF04C1E2FF110E2C
:10170800E66E01C100F002C101F070EC00F029DEC4
:10171800B0DEAFDE03C1E1FF04C1E2FF360EE66EC4
:1017280001C100F002C101F070EC00F0E6C0E1FF79
:10173800E7C0E2FFE66AE4C000F0E5C001F070EC43
:1017480000F003C1E1FF04C1E2FF3A0EE66E01C1F9
:1017580000F002C101F070EC00F0E6C0E1FFE7C064
:10176800E2FF050EE66EE4C000F0E5C001F070ECA3
:1017780000F003C1E1FF04C1E2FFB20EE66E01C151
:1017880000F002C101F070EC00F0E6C0E1FFE7C034
:10179800E2FF0C0EE66EE4C000F0E5C001F070EC6C
:1017A80000F0E6C0E1FFE7C0E2FF0C0EE66EE4C021
:1017B80000F0E5C001F070EC00F0E6C0E1FFE7C022
:1017C800E2FFE66AE4C000F0E5C001F070EC00F06A
:1017D800E6C0E1FFE7C0E2FF330EE66EE4C000F0CA
:1017E800E5C001F070EC00F0E6C0E1FFE7C0E2FF01
:1017F800330EE66EE4C000F0E5C001F070EC00F0D6
:1018080003C1E1FF04C1E2FFB70EE66E01C100F0BB
:1018180002C101F070EC00F0E6C0E1FFE7C0E2FFB2
:10182800700EE66EE4C000F0E5C001F070EC00F068
:1018380003C1E1FF04C1E2FFBB0EE66E01C100F087
:1018480002C101F070EC00F0E6C0E1FFE7C0E2FF82
:101858001B0EE66EE4C000F0E5C001F070EC00F08D
:1018680003C1E1FF04C1E2FFC00EE66E01C100F052
:1018780002C101F070EC00F0E6C0E1FFE7C0E2FF52
:101888002C0EE66EE4C000F0E5C001F070EC00F04C
:1018980003C1E1FF04C1E2FFC20EE66E01C100F020
:1018A80002C101F070EC00F0E6C0E1FFE7C0E2FF22
:1018B800010EE66EE4C000F0E5C001F070EC00F047
:1018C80003C1E1FF04C1E2FFC30EE66E01C100F0EF
:1018D80002C101F070EC00F0E6C0E1FFE7C0E2FFF2
:1018E8000B0EE66EE4C000F0E5C001F070EC00F00D
:1018F80003C1E1FF04C1E2FFC40EE66E01C100F0BE
:1019080002C101F070EC00F0E6C0E1FFE7C0E2FFC1
:10191800270EE66EE4C000F0E5C001F070EC00F0C0
:1019280003C1E1FF04C1E2FFC60EE66E01C100F08B
:1019380002C101F070EC00F0E6C0E1FFE7C0E2FF91
:101948000F0EE66EE4C000F0E5C001F070EC00F0A8
:1019580003C1E1FF04C1E2FFD00EE66E01C100F051
:1019680002C101F070EC00F0E6C0E1FFE7C0E2FF61
:10197800A40EE66EE4C000F0E5C001F070EC00F0E3
:10198800E6C0E1FFE7C0E2FFA10EE66EE4C000F0AA
:10199800E5C001F070EC00F003C1E1FF04C1E2FF13
:1019A800E00EE66E01C100F002C101F070EC00F03B
:1019B800E6C0E1FFE7C0E2FFD00EE66EE4C000F04B
:1019C800E5C001F070EC00F0E6C0E1FFE7C0E2FF1F
:1019D800060EE66EE4C000F0E5C001F070EC00F021
:1019E800E6C0E1FFE7C0E2FF0B0EE66EE4C000F0E0
:1019F800E5C001F070EC00F0E6C0E1FFE7C0E2FFEF
:101A0800090EE66EE4C000F0E5C001F070EC00F0ED
:101A1800E6C0E1FFE7C0E2FF080EE66EE4C000F0B2
:101A2800E5C001F070EC00F0E6C0E1FFE7C0E2FFBE
:101A3800300EE66EE4C000F0E5C001F070EC00F096
:101A4800E6C0E1FFE7C0E2FF300EE66EE4C000F05A
:101A5800E5C001F070EC00F0E6C0E1FFE7C0E2FF8E
:101A68005B0EE66EE4C000F0E5C001F070EC00F03B
:101A7800E6C0E1FFE7C0E2FF4B0EE66EE4C000F00F
:101A8800E5C001F070EC00F0E6C0E1FFE7C0E2FF5E
:101A9800180EE66EE4C000F0E5C001F070EC00F04E
:101AA800E6C0E1FFE7C0E2FF140EE66EE4C000F016
:101AB800E5C001F070EC00F0E6C0E1FFE7C0E2FF2E
:101AC800140EE66EE4C000F0E5C001F070EC00F022
:101AD800E6C0E1FFE7C0E2FF2C0EE66EE4C000F0CE
:101AE800E5C001F070EC00F0E6C0E1FFE7C0E2FFFE
:101AF800320EE66EE4C000F0E5C001F070EC00F0D4
:101B080003C1E1FF04C1E2FFE10EE66E01C100F08E
:101B180002C101F070EC00F0E6C0E1FFE7C0E2FFAF
:101B2800D00EE66EE4C000F0E5C001F070EC00F005
:101B3800E6C0E1FFE7C0E2FF050EE66EE4C000F094
:101B4800E5C001F070EC00F0E6C0E1FFE7C0E2FF9D
:101B58000A0EE66EE4C000F0E5C001F070EC00F09B
:101B6800E6C0E1FFE7C0E2FF0A0EE66EE4C000F05F
:101B7800E5C001F070EC00F0E6C0E1FFE7C0E2FF6D
:101B8800070EE66EE4C000F0E5C001F070EC00F06E
:101B9800E6C0E1FFE7C0E2FF280EE66EE4C000F011
:101BA800E5C001F070EC00F0E6C0E1FFE7C0E2FF3D
:101BB800320EE66EE4C000F0E5C001F070EC00F013
:101BC800E6C0E1FFE7C0E2FF2C0EE66EE4C000F0DD
:101BD800E5C001F070EC00F0E6C0E1FFE7C0E2FF0D
:101BE800490EE66EE4C000F0E5C001F070EC00F0CC
:101BF800E6C0E1FFE7C0E2FF180EE66EE4C000F0C1
:101C0800E5C001F070EC00F0E6C0E1FFE7C0E2FFDC
:101C1800130EE66EE4C000F0E5C001F070EC00F0D1
:101C2800E6C0E1FFE7C0E2FF130EE66EE4C000F095
:101C3800E5C001F070EC00F0E6C0E1FFE7C0E2FFAC
:101C48002C0EE66EE4C000F0E5C001F070EC00F088
:101C5800E6C0E1FFE7C0E2FF330EE66EE4C000F045
:101C6800E5C001F070EC00F003C1E1FF04C1E2FF40
:101C7800210EE66E01C100F002C101F070EC00F027
:101C880003C1E1FF04C1E2FF2A0EE66E01C100F0C4
:101C980002C101F070EC00F0E6C0E1FFE7C0E2FF2E
:101CA800E66AE4C000F0E5C001F070EC00F0E6C0C0
:101CB800E1FFE7C0E2FFE66AE4C000F0E5C001F03A
:101CC80070EC00F0FFC000F0016AE6C0E1FFE7C079
:101CD800E2FF00C0E6FFE4C000F0E5C001F070ECF0
:101CE80000F0E6C0E1FFE7C0E2FFFEC0E6FFE4C0A7
:101CF80000F0E5C001F070EC00F003C1E1FF04C1A1
:101D0800E2FF2B0EE66E01C100F002C101F070EC9B
:101D180000F0E6C0E1FFE7C0E2FFE66AE4C000F0D9
:101D2800E5C001F070EC00F0E6C0E1FFE7C0E2FFBB
:101D3800E66AE4C000F0E5C001F070EC00F00AC10A
:101D480000F0016AE6C0E1FFE7C0E2FF00C0E6FF7D
:101D5800E4C000F0E5C001F070EC00F0E6C0E1FF7F
:101D6800E7C0E2FF09C1E6FFE4C000F0E5C001F00A
:101D780070EC00F003C1E1FF04C1E2FF360EE66E2D
:101D880001C100F002C101F070EC00F00001C65181
:101D98005A0A1DE15AEC00F000520DE0E6C0E1FFDE
:101DA800E7C0E2FFC00EE66EE4C000F0E5C001F057
:101DB80070EC00F00BD0E6C0E1FFE7C0E2FFE66A96
:101DC800E4C000F0E5C001F070EC00F01DD05AEC62
:101DD80000F000520DE0E6C0E1FFE7C0E2FFA00E10
:101DE800E66EE4C000F0E5C001F070EC00F00CD045
:101DF800E6C0E1FFE7C0E2FF600EE66EE4C000F077
:101E0800E5C001F070EC00F003C1E1FF04C1E2FF9E
:101E1800290EE66E01C100F002C101F070EC00F07D
:101E280003C1E1FF04C1E2FF2C0EE66E01C100F020
:0C1E380002C101F070EC00F07E8412008A
:061E4400CAC000F012000C
:101E4A000101456B466B476B486B1550000A0DE163
:101E5A00140E556F2E0E566F000E576F586B596B36
:101E6A005A6B48EC0AF0010E156E0001CD510101C2
:101E7A003C5D04E10001CC5101013B5D01E22ED140
:101E8A003C510001CF5D04E101013B510001CE5DEF
:101E9A0001E224D1CC5101013B5D016E0001CD511B
:101EAA0001013C59026E01C003F002C004F003367E
:101EBA0003900436033603900436080E0001DE252B
:101ECA00006E000EDF21016E000EE021026E000E90
:101EDA00056E00500326015004220250052203C059
:101EEA00F6FF04C0F7FF05C0F8FF0900F5CF45F17A
:101EFA00010E0324F66E000E0420F76E000E052074
:101F0A00F86E0900F5CF00F000C006F0000E076E6B
:101F1A00086E096E020E0324F66E000E0420F76E98
:101F2A00000E0520F86E0900F5CF03F003C001F09A
:101F3A00006A000E026E036E065000260750012248
:101F4A000850022209500322DE5100240101426F87
:101F5A000001DF5101200101436F0001E05102201D
:101F6A000101446F0001E151000A04E0E151020A53
:101F7A0001E05ED0E2C03FF1E3C040F101013E6BF7
:101F8A00000E006E0001D951005C03E1D851010135
:101F9A003E5D3AE20101DAC046F1DBC047F1416B2E
:101FAA003D6B45513D5D2CE24151000A10E142C1B1
:101FBA00F6FF43C1F7FF44C1F8FF0900F5CF48F126
:101FCA00010E4227000E43234423010E416F415163
:101FDA004815006E0EE046C155F147C156F13FC1A2
:101FEA0057F140C158F1DCC059F1DDC05AF1BEECDD
:101FFA000AF00101464B472B413741913D2BD1D77E
:10200A003F4B402B3E2BBCD70001E151000A0BE1AC
:10201A00010E010146250001DA6F000E0101472178
:10202A000001DB6F04D03FC1E2F040C1E3F056D0BB
:10203A00DAC03FF1DBC040F101013E6B000E006ED9
:10204A000001D951005C03E1D85101013E5D3CE237
:10205A000101E2C046F1E3C047F1416B3D6B4551D6
:10206A003D5D2EE24151000A10E142C1F6FF43C133
:10207A00F7FF44C1F8FF0900F5CF48F1010E4227E6
:10208A00000E43234423010E416F41514815006E4F
:10209A000EE03FC155F140C156F146C157F147C163
:1020AA0058F1DCC059F1DDC05AF1BEEC0AF0010E5C
:1020BA000101465F000E475B413741913D2BCFD767
:1020CA003F4B402B3E2BBAD70101010E465D000162
:0E20DA00E26F000E010147590001E36F120092
:1020E800AFEC0AF07E9ED6C0E1FFD7C0E2FF020E39
:1020F800E66ED4C000F0D5C001F070EC00F0D6C098
:10210800E1FFD7C0E2FF3EC1E6FFD4C000F0D5C072
:1021180001F070EC00F0D6C0E1FFD7C0E2FF3DC18E
:10212800E6FFD4C000F0D5C001F070EC00F0D6C0D6
:10213800E1FFD7C0E2FF3CC1E6FFD4C000F0D5C044
:1021480001F070EC00F0D6C0E1FFD7C0E2FF3BC160
:10215800E6FFD4C000F0D5C001F070EC00F07E8E30
:0C2168008DEC09F0005201E0FBD71200E2
:102174007E9ED6C0E1FFD7C0E2FF030EE66ED4C058
:1021840000F0D5C001F070EC00F0D6C0E1FFD7C07C
:10219400E2FF3DC1E6FFD4C000F0D5C001F070EC11
:1021A40000F0D6C0E1FFD7C0E2FF3CC1E6FFD4C0D7
:1021B40000F0D5C001F070EC00F0D6C0E1FFD7C04C
:1021C400E2FF3BC1E6FFD4C000F0D5C001F070ECE3
:1021D40000F0D2C0E1FFD3C0E2FFE66AD0C000F055
:0C21E400D1C001F070EC00F07E8E120003
:1021F0003BC113F13CC114F13DC115F13EC100F1E9
:102200003FC10FF140C110F141C111F142C119F1BB
:0622100043C11AF11200A7
:102216000101506B516B526B536B0001CD510101A3
:102226003C5D04E10001CC5101013B5D01E202D2BB
:102236003C510001CF5D04E101013B510001CE5D3F
:1022460001E2F8D1CC5101013B5D036E0001CD5195
:1022560001013C59046E03C000F004C001F00036D1
:1022660000900136003600900136080E0001FA256E
:102276000101556F000E0001FB210101566F000E92
:102286000001FC210101576F000E0001FD21010133
:10229600586F0050552701505623000E57235823D8
:1022A600040E596F000E5A6FEBEC09F0E80E4E6FF4
:1022B600000E4F6F4EC1E9FF4FC1EAFFEECF54F15A
:1022C60054C150F1010E4E25E96E000E4F21EA6E03
:1022D600EECF04F0000E056E066E076E020E4E255A
:1022E600E96E000E4F21EA6EEECF03F003C001F057
:1022F600006A000E026E036E04500026055001228D
:10230600065002220750032200500001FA2501015F
:10231600426F01500001FB210101436F0250000191
:10232600FC210101446F03500001FD210101456FAD
:1023360054C100F00032009E0032009E0032009E22
:10234600000E016ED8C004F0D9C005F0C3EC09F048
:1023560000C048F101C049F1070E5415006E08E0AF
:102366000001D851010148270001D9510101492333
:1023760048C14CF149C14DF1F4C0E1FFF5C0E2FF9F
:1023860042C1E6FF43C1E6FF44C1E6FF45C1E6FFA1
:1023960048C1E6FF49C1E6FF460EE66E010EE66E4F
:1023A600F2C000F0F3C001F070EC00F000C04EF196
:1023B60001C04FF101014651422747514323000E08
:1023C600442345234651485F4751495B4A6B4B6B53
:1023D6000001E151000A04E0E151020A01E099D04E
:1023E600E2C03FF1E3C040F101013E6B000E006E1A
:1023F6000001D951005C03E1D85101013E5DD8B01E
:1024060074D00101DAC051F1DBC052F1416B3D6B72
:1024160050513D5D66E24151000A4AE14A4B4B2B61
:102426004D51475D02E14C51465D38E24B51475DE7
:1024360002E14A51465D32E2010E4A6F000E4B6FD1
:10244600F4C0E1FFF5C0E2FF42C1E6FF43C1E6FF8B
:1024560044C1E6FF45C1E6FF48C1E6FF49C1E6FFC4
:10246600460EE66E010EE66EF2C000F0F3C001F015
:1024760070EC00F000C04EF101C04FF148C14CF1C4
:1024860049C14DF101014651422747514323000EF0
:10249600442345234651485F4751495B4EC1E9FFF6
:1024A6004FC1EAFFEECF53F14E4B4F2B010E416F5A
:1024B60041515315006E0EE051C155F152C156F10E
:1024C6003FC157F140C158F1DCC059F1DDC05AF1A6
:1024D600BEEC0AF00101514B522B413741913D2B85
:1024E60097D73F4B402B3E2B81D70001E151000A85
:1024F6000BE1010E010151250001DA6F000E010109
:1025060052210001DB6F04D03FC1E2F040C1E3F08D
:1025160091D0DAC03FF1DBC040F101013E6B000E05
:10252600006E0001D951005C03E1D85101013E5D06
:10253600D8B076D00101E2C051F1E3C052F1416B4F
:102546003D6B50513D5D68E24151000A4AE14A4BFC
:102556004B2B4D51475D02E14C51465D38E24B51E4
:10256600475D02E14A51465D32E2010E4A6F000EB6
:102576004B6FF4C0E1FFF5C0E2FF42C1E6FF43C185
:10258600E6FF44C1E6FF45C1E6FF48C1E6FF49C193
:10259600E6FF460EE66E010EE66EF2C000F0F3C0F0
:1025A60001F070EC00F000C04EF101C04FF148C1DF
:1025B6004CF149C14DF10101465142274751432390
:1025C600000E442345234651485F4751495B4EC19F
:1025D600E9FF4FC1EAFFEECF53F14E4B4F2B010EF1
:1025E600416F41515315006E0EE03FC155F140C198
:1025F60056F151C157F152C158F1DCC059F1DDC055
:102606005AF1BEEC0AF0010E0101515F000E525B59
:10261600413741913D2B95D73F4B402B3E2B7FD7E2
:102626000101010E515D0001E26F000E01015259D8
:062636000001E36F120039
:0E263C003BC116F13CC117F13DC118F112006F
:10264A0022EC0FF00050010A1AE0860E0101016F18
:10265A00000E026F7C0E036F010E046F4C0E000118
:10266A00E46F000EE56F7C0EE66F010EE76FE20E77
:10267A00F66F040EF76F670EF86F010EF96F2AC135
:10268A00FEF02BC1FFF02CC109F12DC10AF10101A5
:10269A002D512B5D02E12C512A5D03E30001C66B2B
:1026AA0003D000015A0EC66F01013B6B3C6B010E51
:1026BA003D6FBFDF3B6B3C6B3D6B3E6B3F6B406BD3
:1026CA00416B426B436B8FDD3B6B3C6B3D6B3E6BEF
:1026DA003DEC0BF0126B856A6CEC0BF08E0E01016F
:1026EA00056F060E066F670E076F010E086F120060
:0C26FA000001CA6BCB6BC76BC96B1200F0
:10270600778E0900F5CFE6FF0006FBE10106F9E149
:022716001200AF
:102718007E9ED6C0E1FFD7C0E2FF9F0EE66ED4C012
:1027280000F0D5C001F070EC00F0D2C0E1FFD3C0DA
:10273800E2FFE66AD0C000F0D1C001F070EC00F012
:042748007E8E12006F
:10274C00AFEC0AF07E9ED6C0E1FFD7C0E2FFC70E09
:10275C00E66ED4C000F0D5C001F070EC00F07E8EB7
:0C276C008DEC09F0005201E0FBD71200D8
:102778002AC132F12BC133F12CC134F12DC135F10D
:102788002EC136F12FC137F10101386B396B315148
:10279800395D02E13051385D1BE236C1E9FF37C1CE
:1027A800EAFFEECF3BF132C13CF133C13DF134C118
:1027B8003EF135C13FF194DC0101364B372B010E58
:1027C8003227000E332334233523384B392BDFD7F8
:1027D800386B396B3151395D02E13051385D20E297
:1027E8002EC1E9FF2FC1EAFFEECF3AF12AC13BF132
:1027F8002BC13CF12CC13DF12DC13EF1B7DC0101EB
:102808003A51001802E0006A0DD02E4B2F2B010E12
:102818002A27000E2B232C232D23384B392BDAD7CC
:06282800010E006E12001B
:10282E0001012D6B030E2D5D0AE22D512B25E16E5C
:10283E00000E2C21E26E200EE66E2D2BF3D72D51BD
:10284E002B25E16E000E2C21E26EE66A2D072D512E
:10285E002B252E6F000E2C212F6F0A0E046E2AC10F
:10286E0000F05DEC0BF008C000F0300E00262EC11B
:10287E00E1FF2FC1E2FF00C0E6FF0A0E046E2AC17F
:10288E0000F05DEC0BF000C02AF10050000A01E1EF
:08289E0002D02D07DCD7120067
:1028A6007E9ED6C0E1FFD7C0E2FF030EE66ED4C01F
:1028B60000F0D5C001F070EC00F0D6C0E1FFD7C043
:1028C600E2FF2CC1E6FFD4C000F0D5C001F070ECE9
:1028D60000F0D6C0E1FFD7C0E2FF2BC1E6FFD4C0AF
:1028E60000F0D5C001F070EC00F0D6C0E1FFD7C013
:1028F600E2FF2AC1E6FFD4C000F0D5C001F070ECBB
:1029060000F030C100F031C101F0010E0101305F6D
:10291600000E315B0050011015E0D2C0E1FFD3C0BC
:10292600E2FFE66AD0C000F0D1C001F070EC00F022
:102936002EC1E1FF2FC1E2FF00C0E6FF01012E4BD1
:082946002F2BDFD77E8E12005B
:10294E0046EC0BF0940E0001D06F010ED16F670EA6
:10295E00D26F010ED36F9C0ED46F000ED56F7C0E0E
:10296E00D66F010ED76F2AC13BF12BC13CF12CC1A2
:0C297E003DF12DC13EF127EC0BF01200E2
:10298A007E94EFEC03F0005225E0010E0001FE5D9B
:10299A00026E000EFF59036E010E0101095D006E01
:1029AA00000E0A59016E0DC1E1FF0EC1E2FFE66A8F
:1029BA00E66AE66AE66A02C0E6FF03C0E6FF00C00E
:1029CA00E6FF01C0E6FF0BC100F00CC101F070EC9C
:1029DA0000F00ED007C1E1FF08C1E2FFE66AE66A2D
:1029EA00E66AE66A05C100F006C101F070EC00F083
:1029FA0001012C6B2D6B0A512D5D02E109512C5DF1
:102A0A0021E22E6B2F6B0001FF5101012F5D04E1C2
:102A1A000001FE5101012E5D12E2F8C0E1FFF9C08A
:102A2A00E2FF2AC1E6FF2BC1E6FFF6C000F0F7C0BD
:102A3A0001F070EC00F001012E4B2F2BE4D72C4B48
:082A4A002D2BD9D77E84120068
:102A52000001FF5101012D5D04E10001FE51010160
:102A62002C5D01E341D00A512F5D02E109512E5D37
:102A720001E33AD0306B316B2CC13BF12DC13CF1FB
:102A82002EC13DF12FC13EF13DEC0BF030512A2514
:102A9200E96E31512B21EA6EEE5226E0125312E01A
:102AA20030512A25E96E31512B21EA6EEECF3BF1EE
:102AB200000E3C6F000E3C6F0BEC11F00101304B2D
:102AC200312B11D030512A25E96E31512B21EA6E7A
:102AD200EECF3BF1000E3C6F000E3C6F25EC0FF089
:0A2AE2000101304B312BD2D7120056
:062AEC007E8E869E1200A2
:102AF200A2EC1BF001DE400E01012A6F010E2B6FCA
:102B0200F00E2C6F000E2D6F9FDDFF0E2A6F0F0E41
:102B12002B6F3ADF290E0B6E960E0C6E7F0E0D6E2A
:102B22000D2EFED70C2EFCD70B2EFAD784907C806C
:102B3200869A7E8A5EEC02F0150E0101556F566B85
:102B42001A0E576FA9EC09F057EC02F0010E0101C1
:102B52002A6F2B6B2C6B010E2D6FF8DEC6DFAFECEC
:102B62000AF0290E0B6E960E0C6E7F0E0D6E0D2E58
:102B7200FED70C2EFCD70B2EFAD7AB0E01012A6F13
:102B8200000E2B6F460E2C6F000E2D6F0F0E2E6F48
:102B9200000E2F6F5DDF9A0E2A6F000E2B6F6E0EE6
:102BA2002C6F000E2D6F2D0E2E6F000E2F6F50DF2B
:102BB200CCDD940E01012A6F000E2B6F6E0E2C6F6E
:102BC200000E2D6F410E2E6F000E2F6F41DFA3DD21
:102BD20000C02AF11C0E01012B6F010E2C6F26DEA4
:102BE2002B0E2A6F000E2B6F6E0E2C6F000E2D6FA8
:102BF2005F0E2E6F000E2F6F2BDF1C0E2A6F010E41
:102C02002B6FB40E2C6F000E2D6F5F0E2E6F000E09
:102C12002F6F1EDF290E0B6E960E0C6E7F0E0D6E41
:102C22000D2EFED70C2EFCD70B2EFAD77B0E1B6F68
:102C3200210E2A6F000E2B6F6E0E2C6F000E2D6F61
:102C42007D0E2E6F000E2F6F03DF1BC12AF11C0EAB
:102C52002B6F010E2C6FEADD1C0E2A6F010E2B6FFB
:102C6200B40E2C6F000E2D6F7D0E2E6F000E2F6F87
:102C7200EFDE1BC13BF1560E3C6F340E3D6F120E60
:102C82003E6F000E3F6F74EC10F001011B6B170ECC
:102C92002A6F000E2B6F6E0E2C6F000E2D6F910E91
:102CA2002E6F000E2F6FD4DE560E3B6F340E3C6F2C
:102CB200120E3D6F000E3E6FBAEC10F000C01BF119
:102CC20000C02AF11C0E01012B6F010E2C6FAEDD2C
:102CD2001C0E2A6F010E2B6FB40E2C6F000E2D6F7F
:102CE200910E2E6F000E2F6FB3DE290E0B6E960E15
:102CF2000C6E7F0E0D6E0D2EFED70C2EFCD70B2EFA
:102D0200FAD7560E2A6F000E2B6F6E0E2C6F000E26
:102D12002D6FAF0E2E6F000E2F6F9ADE2A6B2B6B6C
:102D22002C6B2D6B460E2E6F000E2F6F100E306F18
:102D3200000E316F20DD290E0B6E960E0C6E7F0E8B
:102D42000D6E0D2EFED70C2EFCD70B2EFAD7350E9C
:102D52002A6F000E2B6F6E0E2C6F000E2D6FC30E9E
:102D62002E6F000E2F6F74DE2A6B2B6B2C6B2D6B6C
:102D7200670E2E6F000E2F6F100E306F000E316F28
:102D820091DD290E0B6E960E0C6E7F0E0D6E0D2EC2
:102D9200FED70C2EFCD70B2EFAD7010E296F286B0B
:102DA200100E285D17E2670EE96E000EEA6E2851DA
:102DB200E926D8B0EA2A460ED96E000EDA6E2851FC
:102DC200D926D8B0DA2AEE50DE1802E0296B02D0FA
:102DD200282BE6D729530EE0770E2A6F000E2B6FB1
:102DE2006E0E2C6F000E2D6FD70E2E6F000E2F6FF2
:102DF2002FDE0DD08D0E2A6F000E2B6F6E0E2C6FF4
:102E0200000E2D6FD70E2E6F000E2F6F21DEFFD713
:022E1200FFD7E8
:1037440010EE15F0B70E006E010E016E8C0EF66EC3
:0E375400360EF76E000EF86E83EC13F01200C6
:102E1400000020007F0010000188010003980100D9
:102E240005A8010008B8010007C801000DD8010079
:102E34000AF8010003180200052802000538020000
:102E440007480200095802000378020005880200BE
:102E54000398020006A8020007B8020007C802008F
:102E640007D8020007E8020007F802000708030079
:102E74000718030007280300073803000748030066
:102E8400035803000368030009780300099803004A
:102E940009B8030006D8030009E803000908040080
:102EA40007280400073804000848040006580400F2
:102EB40006680400077804000888040004980400E5
:102EC40005A8040007B8040006C804000AD80400D2
:102ED40007F804000808050007180500082805007D
:102EE400083805000748050006580500076805006E
:102EF400087805000C88050008A8050008B8050036
:102F040006C8050005D8050006E8050005F8050013
:102F140009080600082806000538060007480600C8
:102F240007580600066806000778060007880600AA
:102F34000598060007A8060007B8060002C80600A0
:102F440003D8060006E8060002F806000A0807008F
:102F54000728070007380700074807000758070035
:102F6400056807000678070005880700079807002A
:102F740007A807000AB8070006D8070007E80700F3
:102F840006F80700060808000418080006280800C8
:102F94000A3808000B580800000000000000000078
:102FA4000000000000000000000000000606060605
:102FB40006060006060000000000001B1B1B1B0089
:102FC4000000000000000000000000004848FEFE71
:102FD400247F7F1212000000000008083E4B0B0BF8
:102FE4003E6868693E080800000000000000000018
:102FF4001E0033023301B3005E0FA0199019881923
:10300400000F0000000000000000000000000000AD
:103014003C006600660066003C036603C601C60009
:10302400BC030000000000000000000606060600C5
:103034000000000000000000000000180C0C060650
:1030440006060606060C0C18000000060C0C1818E0
:1030540018181818180C0C06000000185A3C5A18B6
:10306400000000000000000000000000000000005C
:103074000000200020002000FC012000200020008F
:10308400000000000000000000000000000000003C
:10309400000000060603030000000000000000001A
:1030A4001F000000000000000000000000000000FD
:1030B4000000000606000000000000202010100898
:1030C4000804040202010100000000003E6363637F
:1030D400636363633E00000000000000181E1818BC
:1030E400181818187E000000000000003E6161609E
:1030F40030180C067F000000000000003E61606094
:103104003C6060613E000000000000003038343252
:10311400317F303030000000000000007E06063EA3
:10312400606060613E000000000000003C06033F58
:10313400636363633E000000000000007F60303082
:1031440018180C0C0C000000000000003E636363C0
:103154003E6363633E000000000000003E6363635F
:10316400637E60301E0000000000000000000606C0
:103174000000000606000000000000000000060633
:103184000000000606030300000000000000000029
:1031940000008001600018000600060018006000AE
:1031A400800100000000000000000000000000009A
:1031B40000000000FE0100000000FE01000000000D
:1031C40000000000000000000000000000000000FB
:1031D40000000600180060008001800160001800F3
:1031E4000600000000000000000000001E3130183E
:1031F4000C0C000C0C00000000000000000000009B
:103204007C00820079016D016D016D016D01D900B1
:103214000200FC00000000000000000000000000AC
:10322400380038006C006C00C600FE00C600830144
:103234008301000000000000000000003F6363639E
:103244003F6363633F000000000000003E4343030C
:10325400030343433E000000000000003F63C3C378
:10326400C3C3C3633F000000000000003F03030327
:103274001F0303033F000000000000003F0303039B
:103284001F03030303000000000000003E43430348
:10329400736363637E00000000000000C3C3C3C304
:1032A400FFC3C3C3C3000000000000000F060606EE
:1032B400060606060F000000000000001E1818187D
:1032C400181818180F0000000000000063331B0FCB
:1032D400070F1B3363000000000000000303030317
:1032E400030303033F00000000000000000000008F
:1032F400870387034D034D03390339031103110376
:1033040001030000000000000000000047474D4D8D
:103314005959717161000000000000007EC3C3C3ED
:10332400C3C3C3C37E000000000000003F636363A7
:10333400633F030303000000000000007EC3C3C317
:10334400C3C3C3C37E60C000000000003F63636367
:103354003F1B3363C3000000000000003E434303EF
:103364003E6061613E000000000000003F0C0C0C58
:103374000C0C0C0C0C000000000000006363636381
:10338400636363633E00000000000000C3C3C366C0
:10339400663C3C181800000000000000000000001B
:1033A400630C630C630CF30CF6069E079E070C0378
:1033B4000C0300000000000000000000C3C3663CD2
:1033C400183C66C3C300000000000000C3C3666667
:1033D4003C18181818000000000000003F30301896
:1033E4000C0603033F0000000000001E060606064C
:1033F4000606060606061E0000000001010202047D
:1034040004080810102020000000001E18181818C6
:103414001818181818181E000000000000000000FA
:103424003000480084000201000000000000000099
:103434000000000000000000000000000000000088
:10344400000000000000FF000000000C1800000055
:1034540000000000000000000000000000003C62CA
:10346400607E63637E0000000000000303033B678B
:10347400636363633F0000000000000000001E233C
:10348400030303231E0000000000006060607E63ED
:10349400636363736E0000000000000000003E637D
:1034A400637F03433E0000000000001C06060F0675
:1034B40006060606060000000000000000007E6309
:1034C400636363736E60613E0000000303033B6744
:1034D40063636363630000000000000303000303ED
:1034E40003030303030000000000000606000706B0
:1034F4000606060606060603000000030303331B44
:103504000F070F1B33000000000000030303030335
:103514000303030303000000000000000000000098
:1035240000000000DF0133033303330333033303A9
:1035340033030000000000000000000000003B67AF
:1035440063636363630000000000000000003E63E7
:10355400636363633E0000000000000000003B67FB
:10356400636363633F0303030000000000007E63A2
:10357400636363736E6060600000000000001B1FE3
:1035840003030303030000000000000000001E23E7
:10359400071E38311E0000000000000006061F064A
:1035A400060606061C00000000000000000063631D
:1035B400636363736E000000000000000000636337
:1035C4006336361C1C0000000000000000000000F0
:1035D4000000000033033303B601B601CE01CC0072
:1035E400CC000000000000000000000000003333A5
:1035F4001E0C1E3333000000000000000000636353
:103604006336361C1C180C0C0000000000003F3010
:10361400180C06033F000000000000380C0C0C0CD2
:10362400070C0C0C0C0C38000000000C0C0C0C0CDF
:103634000C0C0C0C0C0C0C00000000070C0C0C0CFB
:10364400380C0C0C0C0C07000000000000000000FB
:103654000000000000001E023F02F103E10100002F
:103664000000000000000000000000000000FE0751
:103674000204020402040204020402040204020416
:08368400FE0700000000000039
:01368C00003D
:01368D00003C
:0A368E0052656164696E673A20001E
:0A3698005772697474696E673A0096
:0A36A200466C6173682049443A0049
:1036AC0052656164696E672061727261792E2E2E8B
:0136BC00000D
:1036BD00000102030405060708090A0B0C0D0E0F85
:1036CD0057726974696E672061727261792E2E2E40
:0136DD0000EC
:1036DE0000000000000000000000000000000000DC
:1036EE0053756363657373202D2046756C6C206D66
:0636FE0061746368210005
:073704004661696C65640079
:06370B00446F6E65210011
:1037110045726173696E6720636869702E2E2E2071
:0137210000A7
:103722002A2A2A53657269616C20466C617368208B
:0B3732004578616D706C652A2A2A0042
:01373D00008B
:01373E00008A
:01373F000089
:013740000088
:02374100000086
:020000040030CA
:0C000000220923B70B3FFF170300FF028B
:00000001FF
