:1000000024EF43F00000000000EF00F000000000CB
:0A0010000000000000000000F3D71C
:0A001C00050E0D6E0D2EFED712002A
:100026007E947F807F8663CC8DFF7F927F827E84E5
:06003600F2DFF1DF120011
:10003C00EFDFEEDF7E947F807F9663CC8DFF7F9227
:06004C007F827E84120099
:0E0052007F9663CC8DFF7F9200007F821200AC
:0E0060007F8663CC8DFF7F9200007F821200AE
:10006E00016A0C016251000808E16151000805E1C6
:10007E006051000802E15F5100081EE22CC0F6FF3D
:10008E002DC0F7FF2EC0F8FF0900F5CF00F05DCCB4
:10009E00E1FF5ECCE2FF00C0E6FF010E2C26000E53
:1000AE002D222E225D4B5E2B012A010E5F5F000E6C
:0E00BE00605B615B625BD5D701C000F0120091
:1000CC00F250026EF29E0500FF6A0150FE6E005067
:0800DC00FD6E02BEF28E12005F
:0600E40019C000F012003B
:1000EA007F864ACC8DFF7F9200007F8249CC8DFFAC
:0800FA007F9200007F821200DA
:1001020008017A517C5D02E179517B5D32E3F90E9F
:100112000C015D6F070E5E6F800E5F6F000E606FE9
:10012200616F626FA3DF00C079F8000E08017A6F79
:10013200010E795D006E000E7A59016EF90E0024EF
:10014200E96E070E0120EA6EEE50FF0A10E1010E81
:10015200795D006E000E7A59016E00C079F801C017
:100162007AF8010E2C5E000E2D5A2E5AE1D77B6BC7
:100172007C6B0401E051000A6AE1100EE06FF90E97
:1001820008017B25E96E070E7C21EA6EEECFDEF4D4
:10019200000E0401DF6F010E08017B25006E000EC8
:1001A2007C21016E00C07BF801C07CF8DEC401F046
:1001B200006AF90E7B25D96E070E7C21DA6EDE50BD
:1001C2000026000E012200C0DEF401C0DFF4010EA1
:1001D2007B25006E000E7C21016E00C07BF801C001
:1001E2007CF87C517A5D02E17B51795D04E2080E74
:1001F2000401E06F2BD00401FF0EDE15016EDFC497
:1002020002F0000E0216000E021802E1FF0E0118A3
:100212000EE1080EE06F010E08017B5D006E000E1C
:100222007C59016E00C07BF801C07CF80FD0FF0E34
:100232000401DF5D02E1000EDE5D08E3DF51FF0A2B
:1002420002E1000EDE1902E1080EE06F92D704010E
:10025200DFAF04D0010E0C01496F02D00C01496BD3
:10026200DEC400F0DFC401F000360090013600C0A9
:10027200DEF401C0DFF40401E005006E00C0E0F42A
:0602820049CC00F012005F
:100288002150010802E12050E00807E31F5001084F
:1002980002E11E50E00801E30AD0200E0C01596F5C
:1002A800030E5A6FE00E5B6F010E5C6F09D00C01F4
:1002B800E00E596F010E5A6F100E5B6F010E5C6FE6
:1002C80018505A0A39E10ADF00521BE0010E595D45
:1002D800006E000E5A59016E4F51005C516F50511B
:1002E8000158526F4B51005C536F4C510158546F79
:1002F80049CC55FC4ACC56FC4DCC57FC4ECC58FC4E
:100308001AD04BCC51FC4CCC52FC4FCC53FC50CCAB
:1003180054FC010E5B5D006E000E5C59016E4D5180
:10032800005C556F4E510158566F4951005C576F2C
:100338004A510158586F38D0D1DE005225E0010EDD
:10034800595D006E000E5A59016E4D51005C516F97
:100358004E510158526F4951005C536F4A51015830
:10036800546F010E5B5D006E000E5C59016E4F51BB
:10037800005C556F50510158566F4B51005C576FD8
:100388004C510158586F10D049CC51FC4ACC52FC02
:100398004DCC53FC4ECC54FC4BCC55FC4CCC56FCB1
:1003A8004FCC57FC50CC58FC97C8E1FF98C8E2FFE7
:1003B8002A0EE66E95C800F096C801F083DE52CC8E
:1003C80000F0016A9EC8E1FF9FC8E2FF00C0E6FF97
:1003D8009CC800F09DC801F075DE9EC8E1FF9FC86B
:1003E800E2FF51CCE6FF9CC800F09DC801F06ADE30
:1003F80054CC00F0016A9EC8E1FF9FC8E2FF00C02C
:10040800E6FF9CC800F09DC801F05CDE9EC8E1FFD5
:100418009FC8E2FF53CCE6FF9CC800F09DC801F0DE
:1004280051DE97C8E1FF98C8E2FF2B0EE66E95C82B
:1004380000F096C801F046DE56CC00F0016A9EC86E
:10044800E1FF9FC8E2FF00C0E6FF9CC800F09DC81E
:1004580001F038DE9EC8E1FF9FC8E2FF55CCE6FFF9
:100468009CC800F09DC801F02DDE58CC00F0016A50
:100478009EC8E1FF9FC8E2FF00C0E6FF9CC800F0ED
:100488009DC801F01FDE9EC8E1FF9FC8E2FF57CC60
:10049800E6FF9CC800F09DC801F014DE97C8E1FF94
:1004A80098C8E2FF2C0EE66E95C800F096C801F0D9
:0404B80009DE120047
:1004BC000B0E026E49CC00F04ACC01F0025005E064
:1004CC0001320032019EFF0FFAD700C04BFC4BCC1F
:1004DC0000F000360090003600900036009000C00E
:1004EC004BFC070E006E4BCC01F0005004E00132C7
:1004FC00019EFF0FFBD70150010A03E1070E0C010F
:10050C004B274BCC63FC89DD050E026E49CC00F009
:10051C004ACC01F0025005E001320032019EFF0F7F
:10052C00FAD700C04BFC4BCC00F0003600900036E4
:10053C00009000C04BFC070E006E4BCC01F000503D
:10054C0004E00132019EFF0FFBD70150010A03E1C9
:10055C000C01030E4B274BCC63FC5FDD030E016ECD
:10056C0049CC00F0015004E000360090FF0FFBD79F
:10057C0000C04BFC070E006E4BCC01F0005004E0A9
:10058C000132019EFF0FFBD70150010A03E10C0160
:0C059C00070E4B274BCC63FC40DD120027
:1005A80097C8E1FF98C8E2FF2A0EE66E95C800F0EA
:1005B80096C801F087DD4ACC00F0016A9EC8E1FFC9
:1005C8009FC8E2FF00C0E6FF9CC800F09DC801F08C
:1005D80079DD9EC8E1FF9FC8E2FF49CCE6FF9CC8D1
:1005E80000F09DC801F06EDD97C8E1FF98C8E2FFF2
:1005F8002B0EE66E95C800F096C801F063DD4CCC72
:1006080000F0016A9EC8E1FF9FC8E2FF00C0E6FF54
:100618009CC800F09DC801F055DD9EC8E1FF9FC849
:10062800E2FF4BCCE6FF9CC800F09DC801F04ADD14
:1006380097C8E1FF98C8E2FF2C0EE66E95C800F057
:0806480096C801F03FDD12002D
:1006500097C8E1FF98C8E2FF2A0EE66E95C800F041
:1006600096C801F033DD4ACC00F0016A9EC8E1FF74
:100670009FC8E2FF00C0E6FF9CC800F09DC801F0E3
:1006800025DD9EC8E1FF9FC8E2FF49CCE6FF9CC87C
:1006900000F09DC801F01ADD97C8E1FF98C8E2FF9D
:1006A0002B0EE66E95C800F096C801F00FDD4CCC1D
:1006B00000F0016A9EC8E1FF9FC8E2FF00C0E6FFAC
:1006C0009CC800F09DC801F001DD9EC8E1FF9FC8F5
:1006D000E2FF4BCCE6FF9CC800F09DC801F0F6DCC1
:1006E00097C8E1FF98C8E2FF2C0EE66E95C800F0AF
:0806F00096C801F0EBDC1200DA
:1006F80097C8E1FF98C8E2FF2A0EE66E95C800F099
:1007080096C801F0DFDC9EC8E1FF9FC8E2FF4ACC33
:10071800E6FF9CC800F09DC801F0D4DC9EC8E1FF4C
:100728009FC8E2FF49CCE6FF9CC800F09DC801F0D5
:10073800C9DC97C8E1FF98C8E2FF2B0EE66E95C8A2
:1007480000F096C801F0BEDC9EC8E1FF9FC8E2FF3A
:100758004CCCE6FF9CC800F09DC801F0B3DC9EC8F5
:10076800E1FF9FC8E2FF4BCCE6FF9CC800F09DC8A4
:1007780001F0A8DC97C8E1FF98C8E2FF2C0EE66EEE
:0C07880095C800F096C801F09DDC12003E
:1007940097C8E1FF98C8E2FF020EE66E95C800F024
:1007A40096C801F091DC4ACC00F0016A9EC8E1FFD2
:1007B4009FC8E2FF00C0E6FF9CC800F09DC801F09E
:1007C40083DC97C8E1FF98C8E2FF030EE66E95C884
:1007D40000F096C801F078DC9EC8E1FF9FC8E2FFF4
:1007E40049CCE6FF9CC800F09DC801F06DDC97C8B9
:1007F400E1FF98C8E2FF060EE66E95C800F096C8C1
:1008040001F062DC4CCC00F0016A9EC8E1FF9FC895
:10081400E2FF00C0E6FF9CC800F09DC801F054DC74
:1008240097C8E1FF98C8E2FF070EE66E95C800F08E
:1008340096C801F049DC9EC8E1FF9FC8E2FF4BCC9B
:10084400E6FF9CC800F09DC801F03EDC97C8E1FFBC
:1008540098C8E2FF220EE66E95C800F096C801F033
:0408640033DC12006F
:1008680097C8E1FF98C8E2FF2A0EE66E95C800F027
:1008780096C801F027DC4ACC00F0016A9EC8E1FF67
:100888009FC8E2FF00C0E6FF9CC800F09DC801F0C9
:1008980019DC9EC8E1FF9FC8E2FF49CCE6FF9CC86F
:1008A80000F09DC801F00EDC97C8E1FF98C8E2FF90
:1008B8002B0EE66E95C800F096C801F003DC4CCC10
:1008C80000F0016A9EC8E1FF9FC8E2FF00C0E6FF92
:1008D8009CC800F09DC801F066EC00F09EC8E1FFDE
:1008E8009FC8E2FF4BCCE6FF9CC800F09DC801F012
:1008F80066EC00F097C8E1FF98C8E2FF2C0EE66EA0
:0E09080095C800F096C801F066EC00F01200F1
:10091600800E0C014219006E7F0E005C02E1800E13
:10092600415D03E2800E006E0ED0800E006E800EDA
:100936004219005C02E141517F0803E27F0E006E1E
:0809460002D041CC00F01200C8
:10094E00220E0C6E086A096A0A6A0B6A0C06D8B483
:10095E001FD0D8900B320A320932083203320232DB
:10096E0001320032D8A0F2D70C06D8B409D0045008
:10097E0008260550092206500A2207500B22EAD7F4
:10098E00045008260550092206500A2207500B2251
:02099E00120045
:1009A00045CC00F046CC01F047CC02F048CC03F037
:1009B000010E005E000E015A025A035A00C004F0F4
:1009C000010E006E000E016E000E026E000E036E30
:1009D000045007E000360090013602360336FF0F60
:1009E000F8D700500C014125056E01504221066EDA
:1009F00002504321076E03504421086E45CC04F099
:100A000005C000F006C001F007C002F008C003F006
:100A1000045009E00332023201320032039E03BC6B
:080A2000038EFF0FF6D7120050
:060A280015C000F01200F1
:100A2E000B6A0A6A096A00500402F4CF09F0F3CF88
:100A3E0008F001500502F4CF0BF0F3CF0AF000508E
:100A4E000502F3500926F4500A22E86A0B220150DF
:100A5E000402F3500926F4500A22E86A0B2208C059
:100A6E0000F009C001F00AC002F00BC003F0120042
:100A7E000C01416B426B81EC00F000C07DF800C0B0
:100A8E0041FC000E0C01426F0B010007005314E0F5
:100A9E0041CC43FC42CC44FC0C01433743914437D8
:100AAE0081EC00F000500C014325416F000E4421F3
:100ABE00426F0B010007EAD741CC00F042CC01F0A7
:020ACE00120014
:100AD0000A01EA6BEB6BEC6BED6BEE6BE96B100EE6
:100AE000E95D55E2EBCAF2FAECCAF3FAF237F29199
:100AF000F33781EC00F000500A01F225EB6F000E95
:100B0000F321EC6FE9510701F125E96E000EF221A6
:100B1000EA6EEECF01F001C0EFFA0150000A01E1E8
:100B200033D0E9CA00F0000E016E003600900136A5
:100B30000050F525D96E0150F621DA6EDE500A011B
:100B4000EB5D016EDE50EC59026E01C0F0FA02C09E
:100B5000F1FA000E025C02E1EF51015C10E2F0518B
:100B6000ED25006EF151EE21016E00500701F325D5
:100B7000E96E0150F421EA6EEECFEAFA08D00A01DC
:100B8000EF51ED27000EEE230A01E92BA8D7EACAA0
:040B900000F012005F
:100B94000A01EF51000808E1EE51000805E1ED51AA
:100BA400000802E1EC5100082EE2EB05016E800E14
:100BB4000118006E800E000A005C1AE30150E9255A
:100BC400E16E000E01BEFF0EEA21E26E2CC0F6FFBC
:100BD4002DC0F7FF2EC0F8FF0900F5CF00F000C0CC
:100BE400E6FF010E2C26000E2D222E220106DFD751
:100BF400EB51E927000EEA23010EEC5F000EED5BDA
:080C0400EE5BEF5BC5D71200A7
:100C0C00070E0401E015016E0150000A03E081ECAF
:0E0C1C0000F0F6D7100E0B01006F2BDF120058
:100C2A00800E0A01EA19006E800E005C02E1000ED5
:100C3A00E95D02E2006A0ED0800E006E800EEA19AB
:100C4A00005C02E1E951FF0803E2FF0E006E02D0E8
:060C5A00E9CA00F01200DF
:100C6000800E0A01EA19006E800E005C02E1000E9F
:100C7000E95D07E32150EA5D02E12050E95D01E210
:100C800001D051D0800EEC19006E800E005C02E1A4
:100C9000000EEB5D07E31F50EC5D02E11E50EB5DC3
:100CA00001E201D040D07E94BFDE00521BE01CC0A8
:100CB000E1FF1DC0E2FFE9CAE6FFEACAE6FFEBCAB0
:100CC000E6FFECCAE6FFE9CAE6FFEACAE6FFEBCABE
:100CD000E6FFECCAE6FF1AC000F01BC001F066ECAC
:100CE00000F012D024C0E1FF25C0E2FFE9CAE6FF10
:100CF000EACAE6FFEBCAE6FFECCAE6FF22C000F054
:100D000023C001F066EC00F02AC0E1FF2BC0E2FF37
:100D1000EDCAE6FFEECAE6FF28C000F029C001F0E8
:080D200066EC00F07E84120075
:100D28000A01EA6BEB6BE951000A29E0E9CA00FB0A
:100D3800A2DE00C0EAFA01C0EBFA08017D51000A00
:100D48001EE1E9CA02F0FF0E006EFF0E016E0250AE
:100D580005E0003600900136FF0FFAD70A01EA5184
:100D68000012EB510112001E011E00C0EAFA01C078
:100D7800EBFAFF0E046EFF0E056E55DE04D0EACACC
:080D880000F0EBCA01F01200BB
:100D9000E9CAFEFAEACAFFFA150E0B01136F0B0E31
:100DA000146F080E0A01FD6FFD510008D8B0FDEF69
:100DB0000DF0100EFE25E96E000EFF21EA6EEECF5B
:100DC00001F0EECF02F0000E021802E1000E011851
:100DD000D8A41CD1200EFE25E96E000EFF21EA6E7C
:100DE000EECF01F0EECF02F0000E021802E1000E8D
:100DF0000118D8A40BD1300EFE25E96E000EFF219C
:100E0000EA6EEECF01F0EECF02F0000E021802E122
:100E1000000E0118D8A4FAD0400EFE25E96E000E8F
:100E2000FF21EA6EEECF01F0EECF02F0000E0218C5
:100E300002E1000E0118D8A4E9D0500EFE25E96E9B
:100E4000000EFF21EA6EEECF01F0EECF02F0000EB1
:100E5000021802E1000E0118D8A4D8D0600EFE25B9
:100E6000E96E000EFF21EA6EEECF01F0EECF02F048
:100E7000000E021802E1000E0118D8A4C7D0700EAF
:100E8000FE25E96E000EFF21EA6EEECF01F0EECFF7
:100E900002F0000E021802E1000E0118D8A4B6D02C
:100EA000FECAE9FFFFCAEAFFEECF00F0EECF01F085
:100EB00000C004F001C005F0000E01BEFF0E066E7A
:100EC000076EEBCAE9FFECCAEAFFEECF00F0EECF07
:100ED00001F0000E026E036E3ADD00C004F001C0A6
:100EE00005F002C006F003C007F004360490053692
:100EF000063607360436049005360636073604C033
:100F000015FC05C016FC06C017FC07C018FC13CB67
:100F1000E1FF14CBE2FF04C0E6FF05C0E6FF06C018
:100F2000E6FF07C0E6FF200E0B011325E16E000E61
:100F30001421E26E15CCE6FF16CCE6FF17CCE6FFD7
:100F400018CCE6FF400E1325E16E000E1421E26E70
:100F500015CCE6FF16CCE6FF17CCE6FF18CCE6FF73
:100F6000600E1325E16E000E1421E26E15CCE6FF33
:100F700016CCE6FF17CCE6FF18CCE6FF800E132553
:100F8000E16E000E1421E26E15CCE6FF16CCE6FFF2
:100F900017CCE6FF18CCE6FFA00E1325E16E000E7D
:100FA0001421E26E15CCE6FF16CCE6FF17CCE6FF67
:100FB00018CCE6FFC00E1325E16E000E1421E26E80
:100FC00015CCE6FF16CCE6FF17CCE6FF18CCE6FF03
:100FD000E00E1325E16E000E1421E26E15CCE6FF43
:100FE00016CCE6FF17CCE6FF18CCE6FF020E0A018E
:100FF000FE27000EFF23020EEB27000EEC23040E4B
:101000000B011327000E1423F9EF0DF0200E0A0137
:10101000FE25E96E000EFF21EA6EEECF00F0EECF66
:1010200001F000C004F001C005F0000E01BEFF0E8B
:10103000066E076E200EEB25D96E000EEC21DA6EDF
:10104000DECF00F0DECF01F0000E026E036E7FDC1B
:1010500000C025FC01C026FC02C027FC03C028FC00
:10106000600EFE25E96E000EFF21EA6EEECF00F065
:10107000EECF01F000C004F001C005F0000E01BE8B
:10108000FF0E066E076E600EEB25D96E000EEC218A
:10109000DA6EDECF00F0DECF01F0000E026E036EDE
:1010A00056DC00C01DFC01C01EFC02C01FFC03C0BA
:1010B00020FC0C011D512525006E1E512621016EBC
:1010C0001F512721026E20512821036E510E046EFC
:1010D000110E056E000E066E000E076E38DC00C0A5
:1010E00019FC01C01AFC02C01BFC03C01CFC1DCC77
:1010F00000F01ECC01F01FCC02F020CC03F0DF0E7C
:10110000046EC40E056EFF0E066E076E20DC0050E6
:101110001925216F01501A21226F02501B21236FC4
:1011200003501C21246F21CCF5FA22CCF6FA23CCF3
:10113000F7FA24CCF8FA25CC00F026CC01F027CC25
:1011400002F028CC03F07E0E046E180E056E000E21
:10115000066E000E076EA7EC04F0005019251D6FF7
:1011600001501A211E6F02501B211F6F03501C21BA
:10117000206F1DCCF9FA1ECCFAFA1FCCFBFA20CC5A
:10118000FCFAFECAE9FFFFCAEAFFEECF00F0EECF9D
:1011900001F000C004F001C005F0000E01BEFF0E1A
:1011A000066E076EEBCAE9FFECCAEAFFEECF00F06D
:1011B000EECF01F0000E026E036EA7EC04F000C04B
:1011C00019FC01C01AFC02C01BFC03C01CFC400E31
:1011D0000A01FE25E96E000EFF21EA6EEECF00F057
:1011E000EECF01F000C004F001C005F0000E01BE1A
:1011F000FF0E066E076E400EEB25D96E000EEC2139
:10120000DA6EDECF00F0DECF01F0000E026E036E6C
:10121000A7EC04F000500C011925056E01501A21AD
:10122000066E02501B21076E03501C21086E0D0E26
:10123000046E05C009F006C00AF007C00BF008C034
:101240000CF0045007E0093609900A360B360C36CC
:10125000FF0FF8D709C0EDFA0AC0EEFA0BC0EFFA9B
:101260000CC0F0FA19CC05F01ACC06F01BCC07F034
:101270001CCC08F00050055E0150065A0250075A77
:101280000350085A0D0E046E05C000F006C001F0B0
:1012900007C002F008C003F0045007E000360090D9
:1012A000013602360336FF0FF8D70C0100C0F1FA01
:1012B00001C0F2FA02C0F3FA03C0F4FA1D51092486
:1012C0003D6F1E510A203E6F1F510B203F6F205172
:1012D0000C20406F3DCC01FB3ECC02FB3FCC03FB1E
:1012E00040CC04FB09C00DFB0AC00EFB0BC00FFB7A
:1012F0000CC010FB1D510B010D5F0C011E510B01A9
:101300000E5B0C011F510B010F5B0C0120510B01F7
:10131000105B0C01215100240B01056F0C012251BF
:1013200001200B01066F0C01235102200B01076FF6
:101330000C01245103200B01086F00C009FB01C000
:101340000AFB02C00BFB03C00CFB0C0121510B017B
:10135000095F0C0122510B010A5B0C0123510B01A7
:101360000B5B0C0124510B010C5B700E0A01FE2576
:10137000E96E000EFF21EA6EEECF00F0EECF01F035
:1013800000C004F001C005F0000E01BEFF0E066EA5
:10139000076E700EEB25D96E000EEC21DA6EDECFF3
:1013A00000F0DECF01F0000E026E036EA7EC04F039
:1013B00000C031FC01C032FC02C033FC03C034FC6D
:1013C00031CCEDFA32CCEEFA33CCEFFA34CCF0FA81
:1013D000500EFE25E96E000EFF21EA6EEECF00F002
:1013E000EECF01F000C004F001C005F0000E01BE18
:1013F000FF0E066E076E500EEB25D96E000EEC2127
:10140000DA6EDECF00F0DECF01F0000E026E036E6A
:10141000A7EC04F000C02DFC01C02EFC02C02FFC84
:1014200003C030FC2DCCF1FA2ECCF2FA2FCCF3FA1B
:1014300030CCF4FA300EFE25E96E000EFF21EA6E84
:10144000EECF00F0EECF01F000C004F001C005F0D7
:10145000000E01BEFF0E066E076E300EEB25D96E34
:10146000000EEC21DA6EDECF00F0DECF01F0000ED0
:10147000026E036EA7EC04F000C029FC01C02AFC38
:1014800002C02BFC03C02CFC29CCF5FA2ACCF6FABE
:101490002BCCF7FA2CCCF8FA100EFE25E96E000ED4
:1014A000FF21EA6EEECF00F0EECF01F000C004F0B5
:1014B00001C005F0000E01BEFF0E066E076E100E95
:1014C000EB25D96E000EEC21DA6EDECF00F0DECF18
:1014D00001F0000E026E036EA7EC04F000C025FCC4
:1014E00001C026FC02C027FC03C028FC25CCF9FA69
:1014F00026CCFAFA27CCFBFA28CCFCFA0C012551B1
:101500003125216F26513221226F27513321236F3C
:1015100028513421246F29512D251D6F2A512E2148
:101520001E6F2B512F211F6F2C513021206F2951FD
:101530003125196F2A5132211A6F2B5133211B6F1C
:101540002C5134211C6F25512D25396F26512E2108
:101550003A6F27512F213B6F285130213C6F395171
:101560001925006E3A511A21016E3B511B21026E62
:101570003C511C21036EA10E046E250E056E000E5B
:10158000066E000E076EA7EC04F000C035FC01C02B
:1015900036FC02C037FC03C038FC31CC00F032CC42
:1015A00001F033CC02F034CC03F08E0E046E090E41
:1015B000056E000E066E000E076EA7EC04F000C06C
:1015C00031FC01C032FC02C033FC03C034FC31CC1E
:1015D000EDFA32CCEEFA33CCEFFA34CCF0FA2DCC73
:1015E00000F02ECC01F02FCC02F030CC03F0B30E83
:1015F000046E410E056E000E066E000E076EA7EC1F
:1016000004F000C02DFC01C02EFC02C02FFC03C062
:1016100030FC2DCCF1FA2ECCF2FA2FCCF3FA30CCF0
:10162000F4FA29CC00F02ACC01F02BCC02F02CCC1F
:1016300003F0540E046E620E056E000E066E000E70
:10164000076EA7EC04F000C029FC01C02AFC02C010
:101650002BFC03C02CFC29CCF5FA2ACCF6FA2BCCB7
:10166000F7FA2CCCF8FA25CC00F026CC01F027CCE8
:1016700002F028CC03F00B0E046E300E056E000E47
:10168000066E000E076EA7EC04F000C025FC01C03A
:1016900026FC02C027FC03C028FC25CCF9FA26CC86
:1016A000FAFA27CCFBFA28CCFCFA21CC00F022CCA9
:1016B00001F023CC02F024CC03F0330E046EE30ED1
:1016C000056EFF0E066E076EA7EC04F000C021FC4D
:1016D00001C022FC02C023FC03C024FC1DCC00F08E
:1016E0001ECC01F01FCC02F020CC03F0FD0E046EE6
:1016F000AD0E056EFF0E066E076EA7EC04F000C07F
:101700001DFC01C01EFC02C01FFC03C020FC19CC44
:1017100000F01ACC01F01BCC02F01CCC03F03B0E05
:10172000046EC10E056EFF0E066E076EA7EC04F088
:1017300000C019FC01C01AFC02C01BFC03C01CFC49
:1017400039CC00F03ACC01F03BCC02F03CCC03F0B9
:10175000840E046EF30E056EFF0E066E076EA7EC88
:1017600004F035511925086E36511A21096E37518A
:101770001B210A6E38511C210B6E35510024046E5A
:1017800036510120056E37510220066E3851032074
:10179000076E08502125006E09502221016E0A5063
:1017A0002321026E0B502421036E005031250A01C3
:1017B000ED6F01500C0132210A01EE6F02500C0155
:1017C00033210A01EF6F03500C0134210A01F06F3D
:1017D00004500C011D25006E05501E21016E06509F
:1017E0001F21026E07502021036E00502D250A0193
:1017F000F16F01500C012E210A01F26F02500C0111
:101800002F210A01F36F03500C0130210A01F46FFC
:1018100008500C011D25006E09501E21016E0A5052
:101820001F21026E0B502021036E005029250A0152
:10183000F56F01500C012A210A01F66F02500C01CC
:101840002B210A01F76F03500C012C210A01F86FBC
:1018500004500C012125006E05502221016E065016
:101860002321026E07502421036E255100262651A4
:101870000122275102222851032200C0F9FA01C097
:10188000FAFA02C0FBFA03C0FCFA13CB19FC14CB22
:101890001AFC00503D25416F01503E21426F02501D
:1018A0003F21436F03504021446F0B0E456F000EE4
:1018B000466F000E476F486FD0EC04F019CCE1FF83
:1018C0001ACCE2FF00C0E6FF01C0E6FF02C0E6FF5F
:1018D00003C0E6FFE00E0B0113250C01196F000E8B
:1018E0000B0114210C011A6F01CB41FC02CB42FC0D
:1018F00003CB43FC04CB44FC0A01F9510C01415FCA
:101900000A01FA510C01425B0A01FB510C01435BD5
:101910000A01FC510C01445B0B0E456F000E466F33
:10192000000E476F486FD0EC04F019CCE1FF1ACCE1
:10193000E2FF00C0E6FF01C0E6FF02C0E6FF03C011
:10194000E6FF200E0B0113250C01196F000E0B0191
:1019500014210C011A6F0A01F5510B0105250C0128
:10196000416F0A01F6510B0106210C01426F0A0179
:10197000F7510B0107210C01436F0A01F8510B01CC
:1019800008210C01446F0B0E456F000E466F000ED0
:10199000476F486FD0EC04F019CCE1FF1ACCE2FF9E
:1019A00000C0E6FF01C0E6FF02C0E6FF03C0E6FF9D
:1019B000C00E0B0113250C01196F000E0B01142131
:1019C0000C011A6F05CB41FC06CB42FC07CB43FC54
:1019D00008CB44FC0A01F5510C01415F0A01F651A4
:1019E0000C01425B0A01F7510C01435B0A01F851FB
:1019F0000C01445B0B0E456F000E466F000E476FE7
:101A0000486FD0EC04F019CCE1FF1ACCE2FF00C023
:101A1000E6FF01C0E6FF02C0E6FF03C0E6FF400E9E
:101A20000B0113250C01196F000E0B0114210C0181
:101A30001A6F0A01F1510B0109250C01416F0A01CE
:101A4000F2510B010A210C01426F0A01F3510B0103
:101A50000B210C01436F0A01F4510B010C210C0105
:101A6000446F0B0E456F000E466F000E476F486FB8
:101A7000D0EC04F019CCE1FF1ACCE2FF00C0E6FF85
:101A800001C0E6FF02C0E6FF03C0E6FFA00E0B01A7
:101A900013250C01196F000E0B0114210C011A6F94
:101AA00009CB41FC0ACB42FC0BCB43FC0CCB44FCE6
:101AB0000A01F1510C01415F0A01F2510C01425B34
:101AC0000A01F3510C01435B0A01F4510C01445B20
:101AD0000B0E456F000E466F000E476F486FD0EC3F
:101AE00004F019CCE1FF1ACCE2FF00C0E6FF01C010
:101AF000E6FF02C0E6FF03C0E6FF600E0B01132500
:101B00000C01196F000E0B0114210C011A6F0A0150
:101B1000ED510B010D250C01416F0A01EE510B0136
:101B20000E210C01426F0A01EF510B010F210C0134
:101B3000436F0A01F0510B0110210C01446F0B0E91
:101B4000456F000E466F000E476F486FD0EC04F0F3
:101B500019CCE1FF1ACCE2FF00C0E6FF01C0E6FFAE
:101B600002C0E6FF03C0E6FF800E0B0113250C0147
:101B7000196F000E0B0114210C011A6F0DCB41FCE3
:101B80000ECB42FC0FCB43FC10CB44FC0A01ED51C1
:101B90000C01415F0A01EE510C01425B0A01EF5159
:101BA0000C01435B0A01F0510C01445B0B0E456FC5
:101BB000000E466F000E476F486FD0EC04F019CC52
:101BC000E1FF1ACCE2FF00C0E6FF01C0E6FF02C061
:101BD000E6FF03C0E6FF020E0A01FE27000EFF2308
:101BE000020EEB27000EEC23040E0B011327000E50
:101BF00014230A01FD07D4EF06F0150E0B01136F35
:101C00000B0E146FE9CA11FBEACA12FB0A01FD6B45
:101C1000080EFD5DD8B050EF13F0080E0B01132530
:101C2000E96E000E1421EA6EEECF21FCEECF22FC0D
:101C3000EECF23FCEECF24FC180E1325E96E000E28
:101C40001421EA6EEECF19FCEECF1AFCEECF1BFC8E
:101C5000EECF1CFC0C0119512125006E1A512221D6
:101C6000016E1B512321026E1C512421036E510E63
:101C7000046E110E056E000E066E000E076EA7ECC8
:101C800004F000C01DFC01C01EFC02C01FFC03C00C
:101C900020FC19CC00F01ACC01F01BCC02F01CCCBB
:101CA00003F0DF0E046EC40E056EFF0E066E076EA7
:101CB000A7EC04F000501D25196F01501E211A6F6A
:101CC00002501F211B6F035020211C6F19CCF5FA05
:101CD0001ACCF6FA1BCCF7FA1CCCF8FA21CC00F09F
:101CE00022CC01F023CC02F024CC03F07E0E046E53
:101CF000180E056E000E066E000E076EA7EC04F0BF
:101D000000501D250D6E01501E210E6E02501F2128
:101D10000F6E03502021106E0DC0F9FA0EC0FAFAB2
:101D20000FC0FBFA10C0FCFA100E0B011325D96E80
:101D3000000E1421DA6E13CBE9FF14CBEAFFDE505C
:101D4000EE24016EDE50EE20026EDE50EE20036EB9
:101D5000DE50EE20046E0D0E006E01C009F002C0D0
:101D60000AF003C00BF004C00CF0005007E0093685
:101D700009900A360B360C36FF0FF8D70B0109C055
:101D8000EDFA0AC0EEFA0BC0EFFA0CC0F0FA100E32
:101D90001325D96E000E1421DA6E13CBE9FF14CB94
:101DA000EAFFEECF05F0EECF06F0EECF07F0EECF74
:101DB00008F0DE50055EDE50065ADE50075ADE504F
:101DC000085A0D0E046E05C000F006C001F007C0F1
:101DD00002F008C003F0045007E00036009001361E
:101DE00002360336FF0FF8D700C0F1FA01C0F2FA4D
:101DF00002C0F3FA03C0F4FA0D5009240C013D6F40
:101E00000E500A203E6F0F500B203F6F10500C20D9
:101E1000406F3DCC01FB3ECC02FB3FCC03FB40CCF2
:101E200004FB09C00DFB0AC00EFB0BC00FFB0CC06E
:101E300010FB0D500B010D5F0E500E5B0F500F5B32
:101E40001050105B0C01195100240B01056F0C019F
:101E50001A5101200B01066F0C011B5102200B01CE
:101E6000076F0C011C5103200B01086F00C009FB18
:101E700001C00AFB02C00BFB03C00CFB0C01195193
:101E80000B01095F0C011A510B010A5B0C011B517C
:101E90000B010B5B0C011C510B010C5B1C0E132581
:101EA000E96E000E1421EA6EEECF31FCEECF32FC6B
:101EB000EECF33FCEECF34FC31CCEDFA32CCEEFA7F
:101EC00033CCEFFA34CCF0FA140E1325E96E000E81
:101ED0001421EA6EEECF2DFCEECF2EFCEECF2FFCC0
:101EE000EECF30FC2DCCF1FA2ECCF2FA2FCCF3FA57
:101EF00030CCF4FA0C0E1325E96E000E1421EA6EB4
:101F0000EECF29FCEECF2AFCEECF2BFCEECF2CFC43
:101F100029CCF5FA2ACCF6FA2BCCF7FA2CCCF8FA25
:101F2000040E1325E96E000E1421EA6EEECF25FC97
:101F3000EECF26FCEECF27FCEECF28FC25CCF9FA1D
:101F400026CCFAFA27CCFBFA28CCFCFA0C01255156
:101F50003125216F26513221226F27513321236FE2
:101F600028513421246F29512D251D6F2A512E21EE
:101F70001E6F2B512F211F6F2C513021206F2951A3
:101F80003125196F2A5132211A6F2B5133211B6FC2
:101F90002C5134211C6F25512D25396F26512E21AE
:101FA0003A6F27512F213B6F285130213C6F395117
:101FB0001925006E3A511A21016E3B511B21026E08
:101FC0003C511C21036EA10E046E250E056E000E01
:101FD000066E000E076EA7EC04F000C035FC01C0D1
:101FE00036FC02C037FC03C038FC31CC00F032CCE8
:101FF00001F033CC02F034CC03F08E0E046E090EE7
:10200000056E000E066E000E076EA7EC04F000C011
:1020100031FC01C032FC02C033FC03C034FC31CCC3
:10202000EDFA32CCEEFA33CCEFFA34CCF0FA2DCC18
:1020300000F02ECC01F02FCC02F030CC03F0B30E28
:10204000046E410E056E000E066E000E076EA7ECC4
:1020500004F000C02DFC01C02EFC02C02FFC03C008
:1020600030FC2DCCF1FA2ECCF2FA2FCCF3FA30CC96
:10207000F4FA29CC00F02ACC01F02BCC02F02CCCC5
:1020800003F0540E046E620E056E000E066E000E16
:10209000076EA7EC04F000C029FC01C02AFC02C0B6
:1020A0002BFC03C02CFC29CCF5FA2ACCF6FA2BCC5D
:1020B000F7FA2CCCF8FA25CC00F026CC01F027CC8E
:1020C00002F028CC03F00B0E046E300E056E000EED
:1020D000066E000E076EA7EC04F000C025FC01C0E0
:1020E00026FC02C027FC03C028FC25CCF9FA26CC2C
:1020F000FAFA27CCFBFA28CCFCFA21CC00F022CC4F
:1021000001F023CC02F024CC03F0330E046EE30E76
:10211000056EFF0E066E076EA7EC04F000C021FCF2
:1021200001C022FC02C023FC03C024FC1DCC00F033
:102130001ECC01F01FCC02F020CC03F0FD0E046E8B
:10214000AD0E056EFF0E066E076EA7EC04F000C024
:102150001DFC01C01EFC02C01FFC03C020FC19CCEA
:1021600000F01ACC01F01BCC02F01CCC03F03B0EAB
:10217000046EC10E056EFF0E066E076EA7EC04F02E
:1021800000C019FC01C01AFC02C01BFC03C01CFCEF
:1021900039CC00F03ACC01F03BCC02F03CCC03F05F
:1021A000840E046EF30E056EFF0E066E076EA7EC2E
:1021B00004F035511925086E36511A21096E375130
:1021C0001B210A6E38511C210B6E35510024046E00
:1021D00036510120056E37510220066E385103201A
:1021E000076E08502125006E09502221016E0A5009
:1021F0002321026E0B502421036E005031250A0169
:10220000ED6F01500C0132210A01EE6F02500C01FA
:1022100033210A01EF6F03500C0134210A01F06FE2
:1022200004500C011D25006E05501E21016E065044
:102230001F21026E07502021036E00502D250A0138
:10224000F16F01500C012E210A01F26F02500C01B6
:102250002F210A01F36F03500C0130210A01F46FA2
:1022600008500C011D25006E09501E21016E0A50F8
:102270001F21026E0B502021036E005029250A01F8
:10228000F56F01500C012A210A01F66F02500C0172
:102290002B210A01F76F03500C012C210A01F86F62
:1022A00004500C012125006E05502221016E0650BC
:1022B0002321026E07502421036E2551002626514A
:1022C0000122275102222851032200C0F9FA01C03D
:1022D000FAFA02C0FBFA03C0FCFA11CB19FC12CBCC
:1022E0001AFC00503D25416F01503E21426F0250C3
:1022F0003F21436F03504021446F120E456F000E83
:10230000466F000E476F486FD0EC04F000C041FCF0
:1023100001C042FC8BEC04F0000E00BEFF0E016E0B
:1023200019CCE1FF1ACCE2FF00C0E6FF01C0E6FFD6
:102330000E0E0B0111250C01196F000E0B0112215D
:102340000C011A6F01CB41FC02CB42FC03CB43FCD6
:1023500004CB44FC0A01F9510C01415F0A01FA5116
:102360000C01425B0A01FB510C01435B0A01FC5169
:102370000C01445B120E456F000E466F000E476F56
:10238000486FD0EC04F000C041FC01C042FC8BEC73
:1023900004F0000E00BEFF0E016E19CCE1FF1ACC56
:1023A000E2FF00C0E6FF01C0E6FF020E0B011125AF
:1023B0000C01196F000E0B0112210C011A6F0A019A
:1023C000F5510B0105250C01416F0A01F6510B0176
:1023D00006210C01426F0A01F7510B0107210C0184
:1023E000436F0A01F8510B0108210C01446F120ED2
:1023F000456F000E466F000E476F486FD0EC04F03B
:1024000000C041FC01C042FC8BEC04F0000E00BE99
:10241000FF0E016E19CCE1FF1ACCE2FF00C0E6FF0F
:1024200001C0E6FF0C0E0B0111250C01196F000E07
:102430000B0112210C011A6F05CB41FC06CB42FCAB
:1024400007CB43FC08CB44FC0A01F5510C01415F6A
:102450000A01F6510C01425B0A01F7510C01435B82
:102460000A01F8510C01445B120E456F000E466FD5
:10247000000E476F486FD0EC04F000C041FC01C073
:1024800042FC8BEC04F0000E00BEFF0E016E19CC76
:10249000E1FF1ACCE2FF00C0E6FF01C0E6FF040E38
:1024A0000B0111250C01196F000E0B0112210C01FB
:1024B0001A6F0A01F1510B0109250C01416F0A0144
:1024C000F2510B010A210C01426F0A01F3510B0179
:1024D0000B210C01436F0A01F4510B010C210C017B
:1024E000446F120E456F000E466F000E476F486F27
:1024F000D0EC04F000C041FC01C042FC8BEC04F0C5
:10250000000E00BEFF0E016E19CCE1FF1ACCE2FFF7
:1025100000C0E6FF01C0E6FF0A0E0B0111250C0109
:10252000196F000E0B0112210C011A6F09CB41FC2F
:102530000ACB42FC0BCB43FC0CCB44FC0A01F1510F
:102540000C01415F0A01F2510C01425B0A01F35197
:102550000C01435B0A01F4510C01445B120E456F00
:10256000000E466F000E476F486FD0EC04F000C0BD
:1025700041FC01C042FC8BEC04F0000E00BEFF0EDB
:10258000016E19CCE1FF1ACCE2FF00C0E6FF01C0EA
:10259000E6FF060E0B0111250C01196F000E0B0151
:1025A00012210C011A6F0A01ED510B010D250C01CE
:1025B000416F0A01EE510B010E210C01426F0A011D
:1025C000EF510B010F210C01436F0A01F0510B0178
:1025D00010210C01446F120E456F000E466F000E65
:1025E000476F486FD0EC04F000C041FC01C042FCD2
:1025F0008BEC04F0000E00BEFF0E016E19CCE1FF63
:102600001ACCE2FF00C0E6FF01C0E6FF080E0B0196
:1026100011250C01196F000E0B0112210C011A6F0C
:102620000DCB41FC0ECB42FC0FCB43FC10CB44FC4A
:102630000A01ED510C01415F0A01EE510C01425BB0
:102640000A01EF510C01435B0A01F0510C01445B9C
:10265000120E456F000E466F000E476F486FD0ECAC
:1026600004F000C041FC01C042FC8BEC04F0000E01
:1026700000BEFF0E016E19CCE1FF1ACCE2FF00C0D4
:10268000E6FF01C0E6FF100E0B011127000E12231A
:10269000200E1327000E14230A01FD2B08EF0EF065
:0226A000120026
:1026A200CDC8E7F8CEC8E8F8CFC8E9F8020E0801AD
:1026B200CD25006E000ECE21016E000ECF21026EDE
:1026C20000C0E7F801C0E8F802C0E9F800C0F6FF70
:1026D20001C0F7FF02C0F8FF0900F5CFD6F8000EDF
:1026E200D76F010E0024046E000E0120056E000E4D
:1026F2000220066E04C0E7F805C0E8F806C0E9F853
:1027020004C0F6FF05C0F7FF06C0F8FF0900F5CFC9
:1027120003F003C001F0006A0050D6270150D7230E
:10272200010E0424006E000E0520016E000E06202C
:10273200026E00C0E7F801C0E8F802C0E9F800C084
:10274200F6FF01C0F7FF02C0F8FF0900F5CFD4F889
:10275200000ED56F010E0024046E000E0120056EDE
:10276200000E0220066E04C0E7F805C0E8F806C0B5
:10277200E9F804C0F6FF05C0F7FF06C0F8FF09003C
:10278200F5CF03F003C001F0006A0050D4270150D6
:10279200D523010E0424006E000E0520016E000EEA
:1027A2000620026E00C0E7F801C0E8F802C0E9F8AE
:1027B20000C0F6FF01C0F7FF02C0F8FF0900F5CF25
:1027C200E2F8000EE36F010E0024046E000E0120F9
:1027D200056E000E0220066E04C0E7F805C0E8F898
:1027E20006C0E9F804C0F6FF05C0F7FF06C0F8FF0F
:1027F2000900F5CF03F003C001F0006A0050E227A0
:102802000150E323010E0424006E000E0520016E28
:10281200000E0620026E00C0E7F801C0E8F802C010
:10282200E9F800C0F6FF01C0F7FF02C0F8FF090097
:10283200F5CFE4F8000EE56F010E0024046E000EE1
:102842000120056E000E0220066E04C0E7F805C0E6
:10285200E8F806C0E9F804C0F6FF05C0F7FF06C0B5
:10286200F8FF0900F5CF03F003C001F0006A005041
:10287200E4270150E523010E0424E76F000E052032
:10288200E86F000E0620E96FC951205CD86FCA516B
:102892002158D96FCB511E5CDA6FCC511F58DB6FB8
:1028A2007E94DE6BDF6BD751DF5D02E1D651DE5DD8
:1028B200D8B0AFD0E7C8EAF8E8C8EBF8E9C8ECF856
:1028C200DF51DB5D02E1DE51DA5DD8A09FD01F50FF
:1028D200CC5D02E11E50CB5DD8B098D0E16BD051F7
:1028E200E15DD8B093D0EAC8E7F8EBC8E8F8ECC8E5
:1028F200E9F814EC05F0005229E0D4C800F0D5C87C
:1029020001F0D0C804F0000E056E17EC05F0C951B5
:102912000026CA5101221CC0E1FF1DC0E2FFC9C846
:10292200E6FFCAC8E6FFCBC8E6FFCCC8E6FF00C098
:10293200E6FF01C0E6FFCBC8E6FFCCC8E6FF1AC03F
:1029420000F01BC001F066EC00F012D024C0E1FFE1
:1029520025C0E2FFC9C8E6FFCAC8E6FFCBC8E6FF4A
:10296200CCC8E6FF22C000F023C001F066EC00F004
:102972000801E66BDC6BDD6BD551DD5D02E1D45104
:10298200DC5D40E2E651000A10E1E7C8F6FFE8C864
:10299200F7FFE9C8F8FF0900F5CFD3F8010EE727E2
:1029A200000EE823E923800EE66FD351E615006E90
:1029B20005E0E4C8D1F8E5C8D2F804D0E2C8D1F8FD
:1029C200E3C8D2F8DD51D95D02E1DC51D85D15E3EF
:1029D200E06BD051E05D11E22AC0E1FF2BC0E2FFC3
:1029E200D1C8E6FFD2C8E6FF28C000F029C001F036
:1029F20066EC00F00801E02BECD7E633E69FDC4BF7
:102A0200DD2BBAD7CB4BCC2BE12B69D7DE4BDF2B9F
:062A12004AD77E84120089
:102A1800CDC804F9CEC805F9CFC806F9020E0801D9
:102A2800CD25006E000ECE21016E000ECF21026E64
:102A380000C004F901C005F902C006F900C0F6FF9C
:102A480001C0F7FF02C0F8FF0900F5CFD3F8000E68
:102A5800D46F010E0024046E000E0120056E000ED6
:102A68000220066E04C004F905C005F906C006F97F
:102A780004C0F6FF05C0F7FF06C0F8FF0900F5CF50
:102A880003F003C001F0006A0050D3270150D4239B
:102A9800010E0424006E000E0520016E000E0620B3
:102AA800026E00C004F901C005F902C006F900C0B1
:102AB800F6FF01C0F7FF02C0F8FF0900F5CFD1F813
:102AC800000ED26F010E0024046E000E0120056E68
:102AD800000E0220066E04C004F905C005F906C000
:102AE80006F904C0F6FF05C0F7FF06C0F8FF0900A5
:102AF800F5CF03F003C001F0006A0050D127015060
:102B0800D223010E04240901046F000E0520056F6D
:102B1800000E0620066F0801C951205CDB6FCA5100
:102B28002158DC6FCB511E5CDD6FCC511F58DE6F16
:102B38000901026B036B000E035D02E1100E025DDA
:102B480050E202C900F003C901F0003600900136D6
:102B5800E20E0024E16E080E0120E26E04C9F6FFC1
:102B680005C9F7FF06C9F8FF0900F5CF00F000C056
:102B7800E6FF000EE66E010E0427000E052306236D
:102B880002C900F003C901F0003600900136E20ED8
:102B98000024046E080E0120056E04C9F6FF05C95D
:102BA800F7FF06C9F8FF0900F5CF03F003C001F0ED
:102BB800006A04C0E9FF05C0EAFFEE500026EE50A7
:102BC800012204C0E1FF05C0E2FF00C0E6FF01C02A
:102BD800E6FF010E0427000E05230623024B032BF4
:102BE800AAD77E940801D96BDA6BD451DA5D02E179
:102BF800D351D95DD8B0D0D004C907F905C908F9AF
:102C080006C909F9DA51DE5D02E1D951DD5DD8A0C6
:102C1800C0D01F50CC5D02E11E50CB5DD8B0B9D0FA
:102C2800E16BD051E15DD8B0B4D007C904F908C947
:102C380005F909C906F914EC05F0005229E0D1C8D4
:102C480000F0D2C801F0D0C804F0000E056E17ECF1
:102C580005F0C9510026CA5101221CC0E1FF1DC060
:102C6800E2FFC9C8E6FFCAC8E6FFCBC8E6FFCCC882
:102C7800E6FF00C0E6FF01C0E6FFCBC8E6FFCCC810
:102C8800E6FF1AC000F01BC001F066EC00F012D09D
:102C980024C0E1FF25C0E2FFC9C8E6FFCAC8E6FFB5
:102CA800CBC8E6FFCCC8E6FF22C000F023C001F085
:102CB80066EC00F00801D76BD86BD251D85D02E101
:102CC800D151D75D62E2D7A115D00F0EDF15036E83
:102CD80003C000F0000E016E003600900136E20ECF
:102CE8000024E96E080E0120EA6EEECFD5F8EECF8B
:102CF800D6F82CD004C9F6FF05C9F7FF06C9F8FFB6
:102D08000900F5CF01F001C0DFF8010E0901042721
:102D1800000E0523062301C003F00332039E03328D
:102D2800039E0332039E0332039E03C000F0000E8D
:102D3800016E003600900136E20E0024E96E080E9E
:102D48000120EA6EEECFD5F8EECFD6F80801D851BB
:102D5800DC5D02E1D751DB5D15E3E06BD051E05D4E
:102D680011E22AC0E1FF2BC0E2FFD5C8E6FFD6C8B2
:102D7800E6FF28C000F029C001F066EC00F0080169
:102D8800E02BECD7D74BD82B98D7CB4BCC2BE12BC0
:0C2D980048D7D94BDA2B29D77E841200D3
:102DA400CDC8E3FACEC8E4FACFC8E5FA020E0801AA
:102DB400CD25006E000ECE21016E000ECF21026ED5
:102DC40000C0E3FA01C0E4FA02C0E5FA00C0F6FF6D
:102DD40001C0F7FF02C0F8FF0900F5CFD5F8000ED7
:102DE400D66F010E0024046E000E0120056E000E45
:102DF4000220066E04C0E3FA05C0E4FA06C0E5FA50
:102E040004C0F6FF05C0F7FF06C0F8FF0900F5CFC0
:102E140003F003C001F0006A0050D5270150D62307
:102E2400010E0424006E000E0520016E000E062023
:102E3400026E00C0E3FA01C0E4FA02C0E5FA00C081
:102E4400F6FF01C0F7FF02C0F8FF0900F5CFD3F881
:102E5400000ED46F010E0024046E000E0120056ED6
:102E6400000E0220066E04C0E3FA05C0E4FA06C0B0
:102E7400E5FA04C0F6FF05C0F7FF06C0F8FF090035
:102E8400F5CF03F003C001F0006A0050D3270150CE
:102E9400D423010E04240A01E36F000E0520E46F1D
:102EA400000E0620E56F0801C951205CDB6FCA5192
:102EB4002158DC6FCB511E5CDD6FCC511F58DE6F87
:102EC4000A01E16BE26B010EE25D02E1000EE15DDD
:102ED40050E2E1CA00F0E2CA01F000360090013687
:102EE400E10E0024E16E080E0120E26EE3CAF6FF53
:102EF400E4CAF7FFE5CAF8FF0900F5CF00F000C007
:102F0400E6FF000EE66E010EE327000EE423E52340
:102F1400E1CA00F0E2CA01F0003600900136E10E89
:102F24000024046E080E0120056EE3CAF6FFE4CA0D
:102F3400F7FFE5CAF8FF0900F5CF03F003C001F07D
:102F4400006A04C0E9FF05C0EAFFEE500026EE5017
:102F5400012204C0E1FF05C0E2FF00C0E6FF01C09A
:102F6400E6FF010EE327000EE423E523E14BE22B09
:102F7400AAD77E940801D96BDA6BD651DA5D02E1E7
:102F8400D551D95DD8B0ADD0E3CAE6FAE4CAE7FAC0
:102F9400E5CAE8FADA51DE5D02E1D951DD5DD8A077
:102FA4009DD01F50CC5D02E11E50CB5DD8B096D0B1
:102FB400E06BD051E05DD8B091D0E6CAE3FAE7CA3D
:102FC400E4FAE8CAE5FA14EC05F0005229E0D3C8A3
:102FD40000F0D4C801F0D0C804F0000E056E17EC60
:102FE40005F0C9510026CA5101221CC0E1FF1DC0D1
:102FF400E2FFC9C8E6FFCAC8E6FFCBC8E6FFCCC8F3
:10300400E6FF00C0E6FF01C0E6FFCBC8E6FFCCC880
:10301400E6FF1AC000F01BC001F066EC00F012D00D
:1030240024C0E1FF25C0E2FFC9C8E6FFCAC8E6FF25
:10303400CBC8E6FFCCC8E6FF22C000F023C001F0F5
:1030440066EC00F00801D76BD86BD451D85D02E16F
:10305400D351D75D3FE2E3CAF6FFE4CAF7FFE5CAFE
:10306400F8FF0900F5CF03F003C000F0000E016E75
:10307400003600900136E10E0024E96E080E0120AE
:10308400EA6EEECFD1F8EECFD2F8010E0A01E327B3
:10309400000EE423E5230801D851DC5D02E1D75199
:1030A400DB5D15E3DF6BD051DF5D11E22AC0E1FF88
:1030B4002BC0E2FFD1C8E6FFD2C8E6FF28C000F06B
:1030C40029C001F066EC00F00801DF2BECD7D74BE8
:1030D400D82BBBD7CB4BCC2BE02B6BD7D94BDA2BD4
:0630E4004CD77E841200AF
:1030EA007F867F90000000000000000000007F80C3
:0A30FA008DCF00F0000E016E1200F1
:10310400090E0B6E1E0E0C6EE40E0D6E0D2EFED708
:0C3114000C2EFCD70B2EFAD70000120086
:10312000680E0C6EE40E0D6E0D2EFED70C2EFCD725
:043130000000120089
:10313400D00E0C6EC90E0D6E0D2EFED70C2EFCD7C4
:0631440000000000120073
:10314A000801C96B0401E1510801C95DD8B02BD24D
:10315A00000E006E0101F551005C02E1F451000815
:10316A0041E2F4C100F0F5C101F0E1C404F0000E3F
:10317A00056E17EC05F00701E351011802E1005052
:10318A00E21930E106EC06F000C0CDF801C0CEF835
:10319A00FF0E015C02E1D00E005C08E30801CE518B
:1031AA00FF0802E1CD51D70801E303D00C0E040158
:1031BA00DD6F0801CA6B030ECA5D11E2CAC800F0CE
:1031CA00000E016E003600900136EB0E0024E16E0F
:1031DA00070E0120E26EE66AE66ACA2BECD70701FF
:1031EA00E26BE36B0801CA6B400ECA5D24E2070E6C
:1031FA00026EC9C800F0000E016E025005E00036EA
:10320A0000900136FF0FFAD7E20E0024036E040E77
:10321A000120046ECAC800F0000E016E003600904C
:10322A00013600500324E16E01500420E26EE66A82
:10323A00E66ACA2BD9D7E40E046E070E056EC95189
:10324A000426D8B0052A04C0E9FF05C0EAFFEECF7C
:10325A0000F0700EE96E000EEA6E0050E926D8B052
:10326A00EA2AEECF03F0070E026E03C000F0000E4A
:10327A00016E025005E0003600900136FF0FFAD7C2
:10328A00740E0026000E012200C0F7F701C0F8F7FD
:10329A00CB6B04C0E9FF05C0EAFFEECF00F0DA0EFF
:1032AA00E96E040EEA6E0050E926D8B0EA2AEECF9B
:1032BA0004F0040E006E04C002F0000E036E00500B
:1032CA0005E0023602900336FF0FFAD7170E0224E2
:1032DA00006E040E0320016E00C0F1F701C0F2F780
:1032EA00370E0224006E040E0320016E00C0F3F7AD
:1032FA0001C0F4F7050E026E04C000F0000E016E64
:10330A00025005E0003600900136FF0FFAD7970EFB
:10331A000026040E012200C0F5F701C0F6F768EC9A
:10332A0005F000C0CCF8070E036EC9C801F0000E04
:10333A00026E035005E0013601900236FF0FFAD7FC
:10334A00E20E0126040E022201C0CFF802C0D0F814
:10335A000F0E00140A01E96F94EC06F0E40EE96E10
:10336A00070EEA6E0801C951E926D8B0EA2AEECF5B
:10337A0005F005C002F0000E036E02360290033615
:10338A00EB0E0224D96E070E0320DA6EDE500026F9
:10339A00DE500122CFC8E1FFD0C8E2FF00C0E6FF3D
:1033AA0001C0E6FFE40EE96E070EEA6EC951E9268E
:1033BA00D8B0EA2AEECF03F003C000F0000E016E87
:1033CA00003600900136EB0E0024E16E070E012054
:1033DA00E26E070E026EC9C800F0000E016E0250BE
:1033EA0005E0003600900136FF0FFAD70801E20E19
:1033FA000024E96E040E0120EA6EEECFE6FFEECF5E
:10340A00E6FF010ECB6FE40ED96E070EDA6EC951D4
:10341A00D926D8B0DA2ADECF00F0D70EE96E040E2C
:10342A00EA6E0050E926D8B0EA2AEECF03F0040E7D
:10343A00026E03C000F0000E016E025005E0003675
:10344A0000900136FF0FFAD7F70E0026010E01226F
:10345A0000C0F1F701C0F2F703C001F0006A170ECD
:10346A000026020E012200C0F3F701C0F4F7050E90
:10347A00026E03C000F0000E016E025005E0003635
:10348A0000900136FF0FFAD7570E0026040E0122CC
:10349A0000C0F5F701C0F6F70801400ECB5D5BE20C
:1034AA0068EC05F000C0CCF800C001F00132019EC2
:1034BA000132019E0132019E0132019E0150080132
:1034CA00CB270050000A01E146D0CB513F0803E266
:1034DA000D0E0401DD6F070E026EC9C800F0000E62
:1034EA00016E025005E0003600900136FF0FFAD750
:1034FA00E20E0024046E040E0120056ECD0E0801B2
:10350A00CB25F66E730EF76E000EF722010EF86EDB
:10351A00000EF8220900F5CF03F003C000F0000EF8
:10352A00016E00360090013600500424CF6F01501E
:10353A000520D06F0F0ECC150A01E96F94EC06F046
:10354A00CFC8E1FFD0C8E2FF00C0E6FF01C0E6FF36
:10355A000801CB2BA1D7010E0701E225006E000E50
:10356A00E321016E00C0E2F701C0E3F7070E026E25
:10357A00C9C800F0000E016E025005E00036009046
:10358A000136FF0FFAD7E20E00240A01E96F040E92
:10359A000120EA6FF7C7EBFAF8C7ECFAC8EC06F0B5
:0A35AA000801C92BCFD5006A1200FA
:1035B400086AF6C101F00132019E0150085CD8B0DE
:1035C400E8D0050E026E08C000F0000E016E025035
:1035D40005E0003600900136FF0FFAD7570E00249D
:1035E400E16E040E0120E26EE66AE66A050E026EE2
:1035F40008C000F0000E016E025005E00036009095
:103604000136FF0FFAD7970E0024E16E040E012055
:10361400E26EE66AE66A010E076E100E075CD8B029
:10362400B6D0050E026E08C000F0000E016E025006
:1036340005E0003600900136FF0FFAD7570E00243C
:10364400056E040E0120066E07C000F0000E016E28
:1036540000360090013600500524E16E015006202A
:10366400E26E0704036E046A000E045A03C000F0FD
:1036740004C001F000360090013600500524E96EC4
:1036840001500620EA6E040E026E08C000F0000E1F
:10369400016E025005E0003600900136FF0FFAD7A4
:1036A400F70E0026010E012203500024D96E0450A7
:1036B4000120DA6EDE50EE24036E000EEE20046E5E
:1036C40003C000F004C001F000360090013600C0D1
:1036D400E6FF01C0E6FF050E026E08C000F0000E12
:1036E400016E025005E0003600900136FF0FFAD754
:1036F400970E0024056E040E0120066E07C000F02C
:10370400000E016E00360090013600500524E16E73
:1037140001500620E26E0704036E046A000E045A88
:1037240003C000F004C001F00036009001360050E0
:103734000524E96E01500620EA6E040E026E08C0EC
:1037440000F0000E016E025005E0003600900136D4
:10375400FF0FFAD7170E0026040E0122035000248F
:10376400D96E04500120DA6EDE50EE24036E000E92
:10377400EE20046E03C000F004C001F00036009097
:10378400013600C0E6FF01C0E6FF072A46D7082A33
:0637940010D7006A1200CC
:10379A000801D06BCF6B0801D051000AD8A436EFCC
:1037AA0021F0CF51010AD8A493D000016651010A31
:1037BA0006E1010E0401E16F0701EA6B87D00001FF
:1037CA006651030AD8A482D06A51010A1AE16D51DE
:1037DA00010A17E16B51010A14E16E51010A11E164
:1037EA006C51010A0EE16F51010A0BE1030E04014B
:1037FA00E16F0701E46B010EE56F020EE66FEA6BFB
:10380A0065D000016A51010A1CE16D51020A19E1F1
:10381A006B51010A16E16E51010A13E16C51010A5A
:10382A0010E16F51010A0DE1040E0401E16F070175
:10383A00E46BE56B010EE66F020EE76F010EEA6FAD
:10384A0045D000016A51020A1CE16D51010A19E1D1
:10385A006B51010A16E16E51010A13E16C51010A1A
:10386A0010E16F51010A0DE1040E0401E16F070135
:10387A00E46BE56B010EE66F020EE76F020EEA6F6C
:10388A0025D000016A51020A1EE16D51020A1BE1AC
:10389A006B51010A18E16E51010A15E16C51010AD6
:1038AA0012E16F51010A0FE1060E0401E16F0701EF
:1038BA00E46BE56BE66BE76B010EE86F020EE96FEE
:1038CA00030EEA6F03D0010E0401DD6F36EF21F01B
:1038DA00D10E0A01E96F080EEA6F010EEB6F010EB5
:1038EA00EC6F000EED6FEE6FEF6FCAEC05F008019A
:1038FA00D151FF0A01E04FD7D30E0A01E96F080E32
:10390A00EA6F010EEB6F010EEC6F000EED6FEE6FBA
:10391A00EF6FCAEC05F0E2EF20F034EF21F034EF5C
:10392A0021F0010E0801D06F34EF21F034EF21F0BD
:10393A0034EF21F034EF21F034EF21F034EF21F0AD
:10394A0034EF21F034EF21F034EF21F0D40E0A01E4
:10395A00E96F080EEA6F020EEB6F010EEC6F000EB4
:10396A00ED6FEE6FEF6FCAEC05F0000E006E080106
:10397A00D551005C02E1D451080805E3020E0401A6
:10398A00DD6F34EF21F0610E0A01E96F000EEA6F74
:10399A00010EEB6F010EEC6F000EED6FEE6FEF6F25
:1039AA00CAEC05F0640EE96F000EEA6F020EEB6FC7
:1039BA00010EEC6F000EED6FEE6FEF6FCAEC05F0C3
:1039CA00620EE96F000EEA6F020EEB6F010EEC6FEA
:1039DA00000EED6FEE6FEF6FCAEC05F0660EE96F41
:1039EA00000EEA6F010EEB6F010EEC6F000EED6F29
:1039FA00EE6FEF6FCAEC05F0030E00016603F3CF1A
:103A0A0000F0F4CF01F0080E0024026E000E01202F
:103A1A00036E03500801D55D02E10250D45D05E250
:103A2A00030E0401DD6F34EF21F00801D26B0001AF
:103A3A0066510801D25D5DE2670E0A01E96F000E68
:103A4A00EA6F0801D2510A01E927D8B0EA2B010E20
:103A5A00EB6F010EEC6F000EED6FEE6FEF6FCAECBD
:103A6A0005F0D10EE96F080EEA6F010EEB6F010E39
:103A7A00EC6F000EED6FEE6FEF6FCAEC05F06A0E99
:103A8A00E16E000EE26E0801D251E126D8B0E22AB8
:103A9A00D1C800F00032009E0032009E0032009E23
:103AAA000032009E00C0E6FF6D0EE16E000EE26E6F
:103ABA00D251E126D8B0E22A0F0ED115006E00C00D
:103ACA00E6FF700E0A01E96F000EEA6F0801D25193
:103ADA000A01E927D8B0EA2B010EEB6F010EEC6F51
:103AEA00000EED6FEE6FEF6FCAEC05F00801D22BF6
:103AFA009ED7B5D3D40E0A01E96F080EEA6F020EFB
:103B0A00EB6F010EEC6F000EED6FEE6FEF6FCAEC0C
:103B1A0005F0000E0801D55D02E1100ED45D04E245
:103B2A00040E0401DD6F9BD3C90E0A01E96F080E6A
:103B3A00EA6F010EEB6F050EEC6F000EED6FEE6F84
:103B4A00EF6FCAEC05F00801C9514A0A0EE1CA51E1
:103B5A00460A0BE1CB51490A08E1CC51460A05E174
:103B6A00CD51000A02E1010E5E6E5F0E0A01E96F95
:103B7A00000EEA6F010EEB6F010EEC6F000EED6F97
:103B8A00EE6FEF6FCAEC05F0600EE96F000EEA6F98
:103B9A00010EEB6F010EEC6F000EED6FEE6FEF6F23
:103BAA00CAEC05F05F50010A04E0050E0401DD6F5E
:103BBA0056D355D3D40E0A01E96F080EEA6F020EE6
:103BCA00EB6F010EEC6F000EED6FEE6FEF6FCAEC4C
:103BDA0005F0000E0801D51902E1040ED4190FE10F
:103BEA00F40E0A01E96F010EEA6F020EEB6F010E85
:103BFA00EC6F000EED6FEE6FEF6FCAEC05F02FD38E
:103C0A000A01D40EE96F080EEA6F020EEB6F010E7D
:103C1A00EC6F000EED6FEE6FEF6FCAEC05F0000E61
:103C2A000801D55D02E1430ED45D04E2060E0401EB
:103C3A00DD6F15D3D10E0A01E96F080EEA6F010E86
:103C4A00EB6F010EEC6F000EED6FEE6FEF6FCAECCB
:103C5A0005F00F0E0801D115D86FD1C800F0003257
:103C6A00009E0032009E0032009E0032009E00013B
:103C7A007351001200C073F00801D96B400ED95D70
:103C8A00D8B0A6D0DA6BDB6B00017351000A43E1AE
:103C9A00DA0E0A01E96F080EEA6F010EEB6F010EE8
:103CAA00EC6F000EED6FEE6FEF6FCAEC05F0070ECA
:103CBA00026ED8C800F0000E016E025005E0003610
:103CCA0000900136FF0FFAD7740E0024046E000E1E
:103CDA000120056ECD0E0801D925F66E730EF76E1A
:103CEA00000EF722010EF86E000EF8220900F5CF39
:103CFA0003F003C000F0000E016E0036009001369A
:103D0A0000500424E16E01500520E26EDAC8E6FF95
:103D1A00000EE66E5BD0DA0E0A01E96F080EEA6F52
:103D2A00010EEB6F010EEC6F000EED6FEE6FEF6F91
:103D3A00CAEC05F0DB0EE96F080EEA6F010EEB6FB5
:103D4A00010EEC6F000EED6FEE6FEF6FCAEC05F02F
:103D5A00070E026ED8C800F0000E016E025005E090
:103D6A00003600900136FF0FFAD7740E0024046E55
:103D7A00000E0120056ECD0E0801D925F66E730ED0
:103D8A00F76E000EF722010EF86E000EF8220900F7
:103D9A00F5CF03F003C000F0000E016E003600906C
:103DAA00013600500424E16E01500520E26EDAC8A3
:103DBA0003F0000E046E03C001F0006ADB51002616
:103DCA00000E012200C0E6FF01C0E6FFD92B56D73C
:103DDA0000017351000A04E1410E0801CE6F03D0BD
:103DEA000801810ECE6FCE51D45D016E000ED559F9
:103DFA00026E01C0D4F802C0D5F8000E025C02E1DE
:103E0A00430E015CD8B016D72AD2D40E0A01E96F44
:103E1A00080EEA6F020EEB6F010EEC6F000EED6FEB
:103E2A00EE6FEF6FCAEC05F0000E0801D55D02E1F6
:103E3A00130ED45D04E2070E0401DD6F10D2D10E19
:103E4A000A01E96F080EEA6F010EEB6F010EEC6FC3
:103E5A00000EED6FEE6FEF6FCAEC05F00F0E080162
:103E6A00D115DC6FD1C800F00032009E0032009EEE
:103E7A000032009E0032009E010E0014016E01C045
:103E8A00DFF80150000A1BE1040E026EDCC800F0E4
:103E9A00000E016E025005E0003600900136FF0F59
:103EAA00FAD70801170E0024E06F040E0120E16F13
:103EBA00370E0024E26F040E0120E36F1DD0040EBA
:103ECA00026EDCC800F0000E016E025005E00036FA
:103EDA0000900136FF0FFAD70801F70E0024E06FB1
:103EEA00010E0120E16FDCC801F0006A170E002400
:103EFA00E26F020E0120E36FE0C8E9FAE1C8EAFACC
:103F0A00010E0A01EB6F100EEC6F000EED6FEE6FF3
:103F1A00EF6FCAEC05F00801D96BDD6BDE6B100E92
:103F2A00D95D0CE2D951E025D96E000EE121DA6E95
:103F3A00DE50DD27000EDE23D92BF1D7110ED45D1A
:103F4A00016E000ED559026E01C0D4F802C0D5F830
:103F5A00DE51025C02E1DD51015C17E3DF51010A27
:103F6A0007E1DE51010802E1DD51000801E20DD04E
:103F7A00DF51000A09E1000E006EDE51005C02E129
:103F8A00DD51100801E201D004D0080E0401DD6FF2
:103F9A0028D0E2C8E9FAE3C8EAFA010E0A01EB6F8F
:103FAA00DDC8ECFADEC8EDFA000EEE6FEF6FCAEC70
:103FBA0005F00801DD51D45D016EDE51D559026E5E
:103FCA0001C0D4F802C0D5F80101F651010F006E04
:103FDA0000C0F6F1000E025C02E1130E015CD8B0DB
:103FEA002ED73DD1D40E0A01E96F080EEA6F020EF0
:103FFA00EB6F010EEC6F000EED6FEE6FEF6FCAEC18
:10400A0005F0000E0801D55D02E1030ED45D04E25D
:10401A00090E0401DD6F23D1D10E0A01E96F080EE2
:10402A00EA6F010EEB6F010EEC6F000EED6FEE6F93
:10403A00EF6FCAEC05F0D1C800F0000E016E003631
:10404A0001360090030E0026000E012200500801DE
:10405A00D45DD66F0150D559D76F0001665108015A
:10406A00D11914E1D1C800F0000E016E00360136F4
:10407A000090030E0024026E000E0120036E03500E
:10408A00D55D02E10250D45D01E304D00A0E0401B9
:10409A00DD6FE5D0FF0E0801E46FD96B00016651B0
:1040AA000801D95D5AE2D10E0A01E96F080EEA6FDA
:1040BA00010EEB6F010EEC6F000EED6FEE6FEF6FFE
:1040CA00CAEC05F00801E56B030EE55D10E2670E28
:1040DA00E96E000EEA6EE551E926D8B0EA2AEE50FA
:1040EA00D11903E1E5C8E4F802D0E52BEDD7030EB8
:1040FA00E45D31E2D10E0A01E96F080EEA6F010EA2
:10410A00EB6F010EEC6F000EED6FEE6FEF6FCAEC06
:10411A0005F0D70EE16E040EE26E0801E451E126C5
:10412A00D8B0E22A0F0ED115006E00C0E6FFDA0EF3
:10413A00E16E040EE26EE451E126D8B0E22AD1C85B
:10414A0000F00032009E0032009E0032009E0032D3
:10415A00009E00C0E6FFD92BA1D7D6512C26D751F5
:10416A002D22000E2E22010ECF6F79D0D40E0A0115
:10417A00E96F080EEA6F020EEB6F010EEC6F000E8C
:10418A00ED6FEE6FEF6FCAEC05F0000E0801D55D1A
:10419A0002E1020ED45D04E20B0E0401DD6F5FD072
:1041AA000801D4512C26D5512D22000E2E22020EA2
:1041BA002C5E000E2D5A2E5A52D00801D351D80A1D
:1041CA00D8B492EF1CF0D351010AD8B494EF1CF082
:1041DA00D351D90AD8B496EF1CF0D351D00AD8B427
:1041EA009BEF1CF0D351D10AD8B49DEF1CF0D351E8
:1041FA00D20AD8B49FEF1CF0D351D30AD8B4A1EF96
:10420A001CF0D351D40AD8B4A3EF1CF0D351D50A69
:10421A00D8B4A5EF1CF0D351D60AD8B4A7EF1CF036
:10422A00D351D70AD8B4A9EF1CF0D351C00AD8B4D5
:10423A00ABEF1CF0D351E00AD8B45CD4D351DD0AF9
:10424A00D8B4B8D4D351DB0AD8B4DAD4D351C40A17
:10425A00D8B4DBD5D351DA0AD8B4C4D687D7D0EFCD
:04426A001BF0120033
:10426E00CDC8E1F8CEC8E2F8CFC8E3F8020E0801D7
:10427E00CD25006E000ECE21016E000ECF21026EF6
:10428E0000C0E1F801C0E2F802C0E3F800C0F6FF9A
:10429E0001C0F7FF02C0F8FF0900F5CFD3F8000EFA
:1042AE00D46F010E0024046E000E0120056E000E68
:1042BE000220066E04C0E1F805C0E2F806C0E3F87D
:1042CE0004C0F6FF05C0F7FF06C0F8FF0900F5CFE2
:1042DE0003F003C001F0006A0050D3270150D4232D
:1042EE00010E0424006E000E0520016E000E062045
:1042FE00026E00C0E1F801C0E2F802C0E3F800C0AF
:10430E00F6FF01C0F7FF02C0F8FF0900F5CFD1F8A4
:10431E00000ED26F010E0024046E000E0120056EF9
:10432E00000E0220066E04C0E1F805C0E2F806C0D9
:10433E00E3F804C0F6FF05C0F7FF06C0F8FF09005A
:10434E00F5CF03F003C001F0006A0050D1270150F1
:10435E00D223010E0424E16F000E0520E26F000E41
:10436E000620E36FC951205CDD6FCA512158DE6F04
:10437E00CB511E5CDF6FCC511F58E06F7E94D76B14
:10438E00D86BD451D85D02E1D351D75DD8B0B1D03E
:10439E00E1C8E4F8E2C8E5F8E3C8E6F8D851E05D14
:1043AE0002E1D751DF5DD8A0A1D01F50CC5D02E154
:1043BE001E50CB5DD8B09AD0DC6BD051DC5DD8B03E
:1043CE0095D0E4C8E1F8E5C8E2F8E6C8E3F814ECE5
:1043DE0005F0005229E0D1C800F0D2C801F0D0C8D3
:1043EE0004F0000E056E17EC05F0C9510026CA51F7
:1043FE0001221CC0E1FF1DC0E2FFC9C8E6FFCAC80A
:10440E00E6FFCBC8E6FFCCC8E6FF00C0E6FF01C062
:10441E00E6FFCBC8E6FFCCC8E6FF1AC000F01BC013
:10442E0001F066EC00F012D024C0E1FF25C0E2FFDF
:10443E00C9C8E6FFCAC8E6FFCBC8E6FFCCC8E6FF90
:10444E0022C000F023C001F066EC00F00801D56B2D
:10445E00D66BD251D65D02E1D151D55D43E2E1C8B2
:10446E00F6FFE2C8F7FFE3C8F8FF0900F5CFD9F869
:10447E00000EDA6F010EE127000EE223E323E1C8FE
:10448E00F6FFE2C8F7FFE3C8F8FF0900F5CF03F027
:10449E0003C001F0006A0050D9270150DA23010E43
:1044AE00E127000EE223E323D651DE5D02E1D55172
:1044BE00DD5D15E3DB6BD051DB5D11E22AC0E1FF60
:1044CE002BC0E2FFD9C8E6FFDAC8E6FF28C000F02D
:1044DE0029C001F066EC00F00801DB2BECD7D54BC0
:1044EE00D62BB7D7CB4BCC2BDC2B67D7D74BD82BB8
:0644FE0048D77E84120085
:104504000701EA51000AD8A4B2EF28F0E20E08012C
:10451400CF6F040ED06F620ED16F050ED26FE20E14
:10452400D36F050ED46FCE6B080ECE5DD8B092EF6C
:1045340028F0CE518025006E000E8121016E00C04E
:10454400F4F801C0F5F80050CB25026E0150CC21DF
:10455400036E1F50035C02E11E50025CD8B083EF6F
:1045640028F014EC05F0005231E07E51C925066EA6
:104574007F51CA21076EF451CB25046EF551CC212D
:10458400056E080E0624026E000E0720036E04C09A
:1045940000F005C001F01CC0E1FF1DC0E2FF06C031
:1045A400E6FF07C0E6FF04C0E6FF05C0E6FF02C061
:1045B400E6FF03C0E6FF00C0E6FF01C0E6FF1AC045
:1045C40000F01BC001F066EC00F01FD008017E5122
:1045D400C925026E7F51CA21036EF451CB25006EAA
:1045E400F551CC21016E24C0E1FF25C0E2FF02C0D9
:1045F400E6FF03C0E6FF00C0E6FF01C0E6FF22C0FD
:1046040000F023C001F066EC00F0000165510801E0
:10461400F55D04E1000164510801F45DD8B076EF62
:1046240028F0CD6B040ECD5DD8B075EF28F0CDC861
:1046340000F0000E016E00360136009000507E2519
:10464400026E01507F21036E02C0F2F803C0F3F83A
:1046540000016351035C02E16251025CD8B08DD267
:10466400CFC8E9FFD0C8EAFF800EEE240801D56F59
:10467400000EEE20D66F070E006E000ED6BFFF0EA2
:10468400D76FD86F005005E0D537D591D637FF0FD7
:10469400FAD7000ED6BFFF0ED76FD86FD1C8E9FF87
:1046A400D2C8EAFFEECFD9F8EECFDAF8000EDCBFBD
:1046B400FF0EDB6FDC6F000EDABFFF0EDB6FDC6F0B
:1046C400D3C8E9FFD4C8EAFFEECFDDF8EECFDEF8B9
:1046D400000EE0BFFF0EDF6FE06F000EDEBFFF0EC7
:1046E400DF6FE06F070E006EDDC805F0DEC806F070
:1046F400DFC807F0E0C808F0005007E00536059071
:10470400063607360836FF0FF8D7060E046EDDC8E6
:1047140000F0DEC801F0DFC802F0E0C803F0045086
:1047240007E000360090013602360336FF0FF8D753
:10473400005005240C6E015006200D6E0250072017
:104744000E6E035008200F6E030E046EDDC800F0D9
:10475400DEC801F0DFC802F0E0C803F0045007E04F
:1047640000360090013602360336FF0FF8D70801F1
:104774000CC008F00DC009F00EC00AF00FC00BF019
:104784000050085E0150095A02500A5A03500B5A4D
:10479400DDC804F0DEC805F0DFC806F0E0C807F0A5
:1047A400043604900536063607360436049005367A
:1047B4000636073608C000F009C001F00AC002F04E
:1047C4000BC003F00450005E0550015A0650025A13
:1047D4000750035A0050D525056E0150D621066EA8
:1047E4000250D721076E0350D821086E070E046EBD
:1047F40005C000F006C001F007C002F008C003F0D5
:10480400045009E00332023201320032039E03BC39
:10481400038EFF0FF6D700C0E9FA01C0EAFA15ECDF
:1048240006F000C0F6F8050E006ED9C805F0DAC827
:1048340006F0DBC807F0DCC808F0005007E00536D6
:104844000590063607360836FF0FF8D7030E046EB8
:10485400D9C800F0DAC801F0DBC802F0DCC803F004
:10486400045007E000360090013602360336FF0F8D
:10487400F8D70050052601500622025007220350A3
:104884000822D9C800F0DAC801F0DBC802F0DCC89D
:1048940003F00036009001360236033600360090ED
:1048A4000136023603360550002606500122075011
:1048B400022208500322D5C810F0D6C811F0D7C878
:1048C40012F0D8C813F00050105E0150115A025073
:1048D400125A0350135A060E006EDDC80CF0DEC8DF
:1048E4000DF0DFC80EF0E0C80FF0005007E00C3602
:1048F4000C900D360E360F36FF0FF8D7050E046EEA
:10490400DDC800F0DEC801F0DFC802F0E0C803F043
:10491400045007E000360090013602360336FF0FDC
:10492400F8D700500C24086E01500D20096E025077
:104934000E200A6E03500F200B6EDDC804F0DEC893
:1049440005F0DFC806F0E0C807F004360490053629
:10495400063607360436049005360636073608C090
:1049640000F009C001F00AC002F00BC003F00450CB
:10497400005E0550015A0650025A0750035A0801B6
:10498400DD51005EDE51015ADF51025AE051035AF3
:1049940010C005F011C006F012C007F013C008F0F3
:1049A4000050055E0150065A0250075A0350085A37
:1049B400070E046E05C000F006C001F007C002F047
:1049C40008C003F0045009E003320232013200321D
:1049D400039E03BC038EFF0FF6D700C0E9FA01C0A3
:1049E400EAFA15EC06F000C0F7F8DBC80CF0DAC8F8
:1049F4000BF0D9C80AF0096A050E046ED9C800F094
:104A0400DAC801F0DBC802F0DCC803F0045007E0A8
:104A140000360090013602360336FF0FF8D709C07E
:104A240005F00AC006F00BC007F00CC008F00050F7
:104A3400055E0150065A0250075A0350085AD9C855
:104A440000F0DAC801F0DBC802F0DCC803F000367D
:104A54000090013602360336055000260650012226
:104A640007500222085003220801D9510026DA51C6
:104A74000122DB510222DC5103220050D525056EB0
:104A84000150D621066E0250D721076E0350D8215B
:104A9400086E070E046E05C000F006C001F007C0E2
:104AA40002F008C003F0045009E00332023201327C
:104AB4000032039E03BC038EFF0FF6D700C0E9FA51
:104AC40001C0EAFA15EC06F000C0F8F80801F2514A
:104AD400C925016EF351CA21026E2150025C02E124
:104AE4002050015C4AE2F6C801F00132019E013215
:104AF400019E0132019E0B0E006E01C004F0000EF7
:104B0400056E005005E0043604900536FF0FFAD711
:104B1400F7C803F00332039E0332039E050E026EB0
:104B240003C000F0000E016E025005E00036009054
:104B34000136FF0FFAD700500410026E0550011021
:104B4400036EF8C800F00032009E0032009E00326E
:104B5400009E000E016E02500012035001122AC082
:104B6400E1FF2BC0E2FF00C0E6FF01C0E6FF28C062
:104B740000F029C001F066EC00F0020E0801CF2716
:104B8400000ED023020ED127000ED223020ED3270B
:104B9400000ED423F24BF32B000163510801F35DA3
:104BA40004E1000162510801F25DD8B08CD2CFC893
:104BB400E9FFD0C8EAFF800EEE24D56F000EEE2088
:104BC400D66F070E006E000ED6BFFF0ED76FD86FDC
:104BD400005005E0D537D591D637FF0FFAD7000E30
:104BE400D6BFFF0ED76FD86FD1C8E9FFD2C8EAFF8E
:104BF400EECFD9F8EECFDAF8000EDCBFFF0EDB6F94
:104C0400DC6F000EDABFFF0EDB6FDC6FD3C8E9FF89
:104C1400D4C8EAFFEECFDDF8EECFDEF8000EE0BF39
:104C2400FF0EDF6FE06F000EDEBFFF0EDF6FE06F81
:104C3400070E006EDDC805F0DEC806F0DFC807F019
:104C4400E0C808F0005007E0053605900636073640
:104C54000836FF0FF8D7060E046EDDC800F0DEC874
:104C640001F0DFC802F0E0C803F0045007E00036AA
:104C74000090013602360336FF0FF8D700500524A2
:104C84000C6E015006200D6E025007200E6E03506C
:104C940008200F6E030E046EDDC800F0DEC801F0BC
:104CA400DFC802F0E0C803F0045007E000360090CB
:104CB400013602360336FF0FF8D708010CC008F09E
:104CC4000DC009F00EC00AF00FC00BF00050085ED2
:104CD4000150095A02500A5A03500B5ADDC804F015
:104CE400DEC805F0DFC806F0E0C807F0043604901B
:104CF400053606360736043604900536063607367A
:104D040008C000F009C001F00AC002F00BC003F0B3
:104D14000450005E0550015A0650025A0750035AC7
:104D24000050D525056E0150D621066E0250D721BC
:104D3400076E0350D821086E070E046E05C000F0FC
:104D440006C001F007C002F008C003F0045009E0F7
:104D54000332023201320032039E03BC038EFF0F82
:104D6400F6D700C0E9FA01C0EAFA15EC06F000C073
:104D7400F6F8050E006ED9C805F0DAC806F0DBC8EF
:104D840007F0DCC808F0005007E005360590063649
:104D940007360836FF0FF8D7030E046ED9C800F0A3
:104DA400DAC801F0DBC802F0DCC803F0045007E005
:104DB40000360090013602360336FF0FF8D7005054
:104DC4000526015006220250072203500822D9C8A2
:104DD40000F0DAC801F0DBC802F0DCC803F00036EA
:104DE4000090013602360336003600900136023652
:104DF40003360550002606500122075002220850AF
:104E04000322D5C810F0D6C811F0D7C812F0D8C8FC
:104E140013F00050105E0150115A0250125A035000
:104E2400135A060E006EDDC80CF0DEC80DF0DFC8A4
:104E34000EF0E0C80FF0005007E00C360C900D3671
:104E44000E360F36FF0FF8D7050E046EDDC800F0DE
:104E5400DEC801F0DFC802F0E0C803F0045007E048
:104E640000360090013602360336FF0FF8D70050A3
:104E74000C24086E01500D20096E02500E200A6E9B
:104E840003500F200B6EDDC804F0DEC805F0DFC848
:104E940006F0E0C807F004360490053606360736F7
:104EA4000436049005360636073608C000F009C0FB
:104EB40001F00AC002F00BC003F00450005E05507C
:104EC400015A0650025A0750035A0801DD51005E88
:104ED400DE51015ADF51025AE051035A10C005F065
:104EE40011C006F012C007F013C008F00050055EB0
:104EF4000150065A0250075A0350085A070E046E0E
:104F040005C000F006C001F007C002F008C003F0BD
:104F1400045009E00332023201320032039E03BC22
:104F2400038EFF0FF6D700C0E9FA01C0EAFA15ECC8
:104F340006F000C0F7F8DBC80CF0DAC80BF0D9C8EB
:104F44000AF0096A050E046ED9C800F0DAC801F047
:104F5400DBC802F0DCC803F0045007E00036009020
:104F6400013602360336FF0FF8D709C005F00AC030
:104F740006F00BC007F00CC008F00050055E0150AD
:104F8400065A0250075A0350085AD9C800F0DAC822
:104F940001F0DBC802F0DCC803F0003600900136F3
:104FA400023603360550002606500122075002221D
:104FB400085003220801D9510026DA510122DB519D
:104FC4000222DC5103220050D525056E0150D62162
:104FD400066E0250D721076E0350D821086E070EC3
:104FE400046E05C000F006C001F007C002F008C05E
:104FF40003F0045009E00332023201320032039E0E
:1050040003BC038EFF0FF6D700C0E9FA01C0EAFA29
:1050140015EC06F000C0F8F80801F251C925016E3C
:10502400F351CA21026E2150025C02E12050015C5E
:105034004AE2F6C801F00132019E0132019E0132BA
:10504400019E0B0E006E01C004F0000E056E0050B0
:1050540005E0043604900536FF0FFAD7F7C803F0CD
:105064000332039E0332039E050E026E03C000F05A
:10507400000E016E025005E0003600900136FF0F6D
:10508400FAD700500410026E05500110036EF8C8E0
:1050940000F00032009E0032009E0032009E000E9E
:1050A400016E02500012035001122AC0E1FF2BC00E
:1050B400E2FF00C0E6FF01C0E6FF28C000F029C0FF
:1050C40001F066EC00F0020E0801CF27000ED02399
:1050D400020ED127000ED223020ED327000ED423B2
:1050E400CD2B14EF23F00CD0040ECF27000ED023C9
:1050F400040ED127000ED223040ED327000ED4238E
:105104000CD0040ECF27000ED023040ED127000E9E
:10511400D223040ED327000ED423CE2B96EF22F0F5
:10512400080E7E25016E000E7F21026E01C07EF8FE
:1051340002C07FF800016351025C02E16251015C2C
:105144000DE308017E6B7F6B080E8025006E000E58
:105154008121016E00C080F801C081F83FEF36F074
:105164000701EA51010AD8A44DD3E20E0801D16F18
:10517400050ED26F620ED36F060ED46FE26B080E6B
:10518400E36FE16B020EE15DD8B01CD3070E026E33
:10519400E1C800F0000E016E025005E000360090F8
:1051A4000136FF0FFAD7E20E0024CF6F040E012060
:1051B400D06F050E006EE1C803F0000E046E0050BF
:1051C40005E0033603900436FF0FFAD703C000F05E
:1051D40004C001F0003600900136E20E0024D16FC5
:1051E400050E0120D26F620E0024D36F060E01203B
:1051F400D46FCE6B080ECE5DD8B0E2D2CD6B080E64
:10520400CD5DD8B0DBD2CD517E25016E000E7F215D
:10521400026E01C0F2F802C0F3F8EA0ED96E080E6D
:10522400DA6EE151D926D8B0DA2ADE508025F46F3F
:10523400000E8121F56FCE51F427000EF5230001F5
:105244006351025C02E16251015CD8B0B0D2655195
:105254000801F55D04E1000164510801F45DD8B072
:10526400A6D2CFC8E9FFD0C8EAFF800EEE24D56FDE
:10527400000EEE20D66F070E006E000ED6BFFF0E96
:10528400D76FD86F005005E0D537D591D637FF0FCB
:10529400FAD7000ED6BFFF0ED76FD86FCEC803F073
:1052A4000332039E030E026E03C000F0000E016E73
:1052B400025005E0003600900136FF0FFAD7CD51B9
:1052C4000024036E000E0120046E03C000F004C02D
:1052D40001F00036009001360050D125E96E0150EE
:1052E400D221EA6EEECFD9F8EECFDAF8000EDCBFA9
:1052F400FF0EDB6FDC6F000EDABFFF0EDB6FDC6FBF
:105304000050D325E96E0150D421EA6EEECFDDF8CA
:10531400EECFDEF8000EE0BFFF0EDF6FE06F000E91
:10532400DEBFFF0EDF6FE06F070E006EDDC805F015
:10533400DEC806F0DFC807F0E0C808F0005007E058
:1053440005360590063607360836FF0FF8D7060EE1
:10535400046EDDC800F0DEC801F0DFC802F0E0C86A
:1053640003F0045007E0003600900136023603369D
:10537400FF0FF8D7005005240C6E015006200D6E67
:10538400025007200E6E035008200F6E030E046EA9
:10539400DDC800F0DEC801F0DFC802F0E0C803F0A9
:1053A400045007E000360090013602360336FF0F42
:1053B400F8D708010CC008F00DC009F00EC00AF0BF
:1053C4000FC00BF00050085E0150095A02500A5AEF
:1053D40003500B5ADDC804F0DEC805F0DFC806F040
:1053E400E0C807F00436049005360636073604365E
:1053F400049005360636073608C000F009C001F0EF
:105404000AC002F00BC003F00450005E0550015ABC
:105414000650025A0750035A0050D525056E015014
:10542400D621066E0250D721076E0350D821086E8C
:10543400070E046E05C000F006C001F007C002F0BC
:1054440008C003F0045009E0033202320132003292
:10545400039E03BC038EFF0FF6D700C0E9FA01C018
:10546400EAFA15EC06F000C001F00132019E0132A7
:10547400019E0132019E0B0E006E01C0FBF8000E6E
:105484000801FC6F005005E0FB37FB91FC37FF0F70
:10549400FAD7050E006ED9C805F0DAC806F0DBC8E5
:1054A40007F0DCC808F0005007E005360590063622
:1054B40007360836FF0FF8D7030E046ED9C800F07C
:1054C400DAC801F0DBC802F0DCC803F0045007E0DE
:1054D40000360090013602360336FF0FF8D700502D
:1054E4000526015006220250072203500822D9C87B
:1054F40000F0DAC801F0DBC802F0DCC803F00036C3
:10550400009001360236033600360090013602362A
:105514000336055000260650012207500222085087
:105524000322D5C810F0D6C811F0D7C812F0D8C8D5
:1055340013F00050105E0150115A0250125A0350D9
:10554400135A060E006EDDC80CF0DEC80DF0DFC87D
:105554000EF0E0C80FF0005007E00C360C900D364A
:105564000E360F36FF0FF8D7050E046EDDC800F0B7
:10557400DEC801F0DFC802F0E0C803F0045007E021
:1055840000360090013602360336FF0FF8D70801C3
:1055940000500C24086E01500D20096E02500E209C
:1055A4000A6E03500F200B6EDDC804F0DEC805F050
:1055B400DFC806F0E0C807F0043604900536063666
:1055C40007360436049005360636073608C000F060
:1055D40009C001F00AC002F00BC003F00450005EE1
:1055E4000550015A0650025A0750035ADD51005E15
:1055F400DE51015ADF51025AE051035A10C005F03E
:1056040011C006F012C007F013C008F00050055E88
:105614000150065A0250075A0350085A070E046EE6
:1056240005C000F006C001F007C002F008C003F096
:10563400045009E00332023201320032039E03BCFB
:10564400038EFF0FF6D700C0E9FA01C0EAFA15ECA1
:1056540006F000C003F00332039E0332039E050EDE
:10566400026E03C000F0000E016E025005E0003629
:1056740000900136FF0FFAD700500801FB130150C8
:10568400FC13DBC80CF0DAC80BF0D9C80AF0096ABD
:10569400050E046ED9C800F0DAC801F0DBC802F0C8
:1056A400DCC803F0045007E00036009001360236EF
:1056B4000336FF0FF8D7080109C005F00AC006F049
:1056C4000BC007F00CC008F00050055E0150065AEC
:1056D4000250075A0350085AD9C800F0DAC801F03A
:1056E400DBC802F0DCC803F0003600900136023655
:1056F40003360550002606500122075002220850A6
:105704000322D9510026DA510122DB510222DC5155
:1057140003220050D525056E0150D621066E025095
:10572400D721076E0350D821086E070E046E05C0FA
:1057340000F006C001F007C002F008C003F00450F6
:1057440009E00332023201320032039E03BC038EAD
:10575400FF0FF6D700C0E9FA01C0EAFA15EC06F02B
:1057640000C001F00132019E0132019E0132019E0E
:1057740001500801FB110A01ED6FFCC8EEFA000E9E
:10578400EE130801F251C9250A01E96F0801F3512A
:10579400CA210A01EA6F0801F451CB250A01EB6F13
:1057A4000801F551CC210A01EC6F30EC06F0020E31
:1057B4000801CF27000ED023CD2B21D5CE2B1AD50F
:1057C400E12BE0D4080E7E25016E000E7F21026ECF
:1057D40001C07EF802C07FF800016351025C02E15F
:1057E4006251015C0DE308017E6B7F6B100E802516
:1057F400006E000E8121016E00C080F801C081F8A6
:105804003FEF36F00701EA51020AD8A44CD3E20E66
:105814000801D16F050ED26F620ED36F060ED46FDE
:10582400E46B080EE56FE16B020EE15DD8B01BD3AB
:10583400070E026EE1C800F0000E016E025005E092
:10584400003600900136FF0FFAD7E20E0024CF6F26
:10585400040E0120D06FE1C803F0000E046E03367D
:105864000436039003360436039003C000F004C0EA
:1058740001F0003600900136E20E0024D16F050ECF
:105884000120D26F620E0024D36F060E0120D46F64
:10589400CE6B080ECE5DD8B0E4D2CD6B080ECD5DD4
:1058A400D8B0DDD2E60ED96E080EDA6EE151D926F3
:1058B400D8B0DA2ADE507E25006E000E7F21016EFC
:1058C400CD510024026E000E0120036E02C0F2F8D6
:1058D40003C0F3F8CE518025F46F000E8121F56FDB
:1058E40000016351035C02E16251025CD8B0B0D2A2
:1058F40065510801F55D04E1000164510801F45D9E
:10590400D8B0A6D2CFC8E9FFD0C8EAFF800EEE24F3
:10591400D56F000EEE20D66F070E006E000ED6BFB8
:10592400FF0ED76FD86F005005E0D537D591D63725
:10593400FF0FFAD7000ED6BFFF0ED76FD86F030E36
:10594400006ECEC805F0000E066E005005E0053668
:1059540005900636FF0FFAD7CDC800F00032009E3E
:1059640000500524036E000E0620046E03C000F0F0
:1059740004C001F00036009001360050D125E96ED4
:105984000150D221EA6EEECFD9F8EECFDAF8000E4C
:10599400DCBFFF0EDB6FDC6F000EDABFFF0EDB6FC8
:1059A400DC6F0050D325E96E0150D421EA6EEECFAE
:1059B400DDF8EECFDEF8000EE0BFFF0EDF6FE06F24
:1059C400000EDEBFFF0EDF6FE06F070E006EDDC856
:1059D40005F0DEC806F0DFC807F0E0C808F00050A4
:1059E40007E005360590063607360836FF0FF8D768
:1059F400060E046EDDC800F0DEC801F0DFC802F058
:105A0400E0C803F0045007E0003600900136023687
:105A14000336FF0FF8D7005005240C6E0150062002
:105A24000D6E025007200E6E035008200F6E030EF9
:105A3400046EDDC800F0DEC801F0DFC802F0E0C883
:105A440003F0045007E000360090013602360336B6
:105A5400FF0FF8D708010CC008F00DC009F00EC004
:105A64000AF00FC00BF00050085E0150095A0250B2
:105A74000A5A03500B5ADDC804F0DEC805F0DFC82B
