:100000007FEF1FF00000000000EF00F00000000094
:0A0010000000000000000000F3D71C
:10001C001BC6D5FE0E01D8B102D00000FBD7D5CE41
:04002C0000F01200CE
:100030001BC691FF94B002D00000FCD791CF00F016
:020040001200AC
:080042001AC61BF6EADF1200EA
:08004A001AC61BF6E6DF1200E6
:080052001AC61BF6ECDF1200D8
:08005A001AC61BF6E8DF1200D4
:10006200F250026EF29E0500FF6A0150FE6E0050D1
:08007200FD6E02BEF28E1200C9
:10007A00400E06011125006EB3C0E1FFB4C0E2FFD5
:10008A0000C0E6FFB1C000F0B2C001F0E5DFB3C0C6
:10009A00E1FFB4C0E2FF15C6E6FFB1C000F0B2C08E
:1000AA0001F0DADFB3C0E1FFB4C0E2FF14C6E6FF35
:1000BA00B1C000F0B2C001F0CFDFB3C0E1FFB4C0FD
:1000CA00E2FF13C6E6FFB1C000F0B2C001F0C4DF20
:1000DA00B3C0E1FFB4C0E2FF12C6E6FFB1C000F050
:1000EA00B2C001F0B9DFB3C0E1FFB4C0E2FF16C687
:1000FA00E6FFB1C000F0B2C001F0AEDF0601186B36
:10010A00196BB3C0E1FFB4C0E2FFFF0EE66EB1C0E7
:10011A0000F0B2C001F0A0DF00C017F60601184BCC
:10012A00192B800E0014016E0150000A07E0000E20
:10013A00195D02E1640E185D01E2E3D717C600F00B
:02014A001200A1
:10014C000E01EFB302D00000FBD711C6EBFE12007C
:10015C000E01E8B302D00000FBD711C6E4FE12007A
:10016C000E01F6B302D00000FBD711C6F2FE12004E
:0E017C009DB202D00000FCD711C699FF120000
:04018A007C90120053
:10018E0011C6D5FE0E01D8B102D00000FBD7D5CED8
:04019E0000F012005B
:1001A20011C691FF94B002D00000FCD791CF00F0AD
:0201B200120039
:1001B4000E01E1B302D00000FBD711C6DDFE120030
:1001C400B3C0E1FFB4C0E2FFFF0EE66EB1C000F0C1
:1001D400B2C001F044DF0050FE0A01E0F1D7120082
:1001E4007C80B3C0E1FFB4C0E2FFFF0EE66EB1C095
:0A01F40000F0B2C001F033DF12008A
:1001FE0003C602F004C603F006C600F007C601F0FF
:10020E00010E0601065F000E075B0050011009E0AB
:10021E0002C0E1FF03C0E2FF05C6E6FF024A032A61
:0C022E00EBD703C600F004C601F012007C
:08023A0000C611F696DF120068
:0802420000C611F6B6DF120040
:08024A0000C611F696DF120058
:0802520000C611F67ADF12006C
:10025A0006010051200A09E000510D0804E3090EC5
:10026A00005D01E302D0006A02D0010E006E1200A6
:08027A0000C611F67EDF120040
:0802820000C611F696DF120020
:08028A0000C611F65EDF120050
:0802920000C611F67BDF12002B
:08029A0000C611F677DF120027
:0802A20000C611F662DF120034
:0802AA0000C611F656DF120038
:0802B20000C611F675DF120011
:0802BA0000C611F671DF12000D
:1002C200086A096A100E0C6E0134083609360450A9
:1002D200085E0550D8A0053C095ED8B007D004508E
:1002E20008260550D8B0053C0926D89000360136BC
:0602F2000C2EEAD71200F9
:1002F80048DF000E000A02E1040E151809E103C6E2
:1003080007F604C608F605C609F606C60AF614D0A6
:10031800090E006E03C607F604C608F605C609F6F8
:1003280006C60AF6005008E00601073707910837A5
:1003380009370A37FF0FF7D70601120E116F07C6E4
:1003480012F608C613F609C614F60AC615F6FF0E05
:10035800166F8FDE005204E041DF010E006E01D0FF
:04036800006A120015
:10036C000B6A0A6A096A00500402F4CF09F0F3CF51
:10037C0008F001500502F4CF0BF0F3CF0AF0005057
:10038C000502F3500926F4500A22E86A0B220150A8
:10039C000402F3500926F4500A22E86A0B2208C022
:1003AC0000F009C001F00AC002F00BC003F012000B
:1003BC00030E06010325E96E000E0421EA6EEECF52
:1003CC0009F0000E0A6E0B6E0C6E000E0A6E0B6EB0
:1003DC000C6E0BC003F00AC002F009C001F0006AF9
:1003EC0000C009F001C00AF002C00BF003C00CF011
:1003FC00020E0325D96E000E0421DA6EDE500024A5
:10040C00056E000E0120066E000E0220076E000E17
:10041C000320086E05C009F006C00AF007C00BF0F7
:10042C0008C00CF007C003F006C002F005C001F0D4
:10043C00006A00C009F001C00AF002C00BF003C052
:10044C000CF0010E0325D96E000E0421DA6EDE507D
:10045C000024056E000E0120066E000E0220076EB1
:10046C00000E0320086E05C009F006C00AF007C094
:10047C000BF008C00CF007C003F006C002F005C07A
:10048C0001F0006A00C009F001C00AF002C00BF0D4
:10049C0003C00CF003C6D9FF04C6DAFFDE500026F9
:1004AC00000E01220222032200C009F001C00AF052
:1004BC0002C00BF003C00CF000C009F001C00AF040
:0A04CC0002C00BF003C00CF0120098
:1004D600010E06010325E96E000E0421EA6EEECF39
:1004E60003F0000E046E000E046E03C001F0006AF5
:1004F60000C003F001C004F003C6D9FF04C6DAFF4A
:10050600DE500026000E012200C003F001C004F0F8
:0A05160000C003F001C004F0120061
:1005200051DE0601056B066B020E065D02E1000E50
:10053000055D1BE205510325076F06510421086F75
:10054000B3C0E1FFB4C0E2FFFF0EE66EB1C000F041
:10055000B2C001F086DD07C6E1FF08C6E2FF00C0B9
:10056000E6FF0601054B062BDFD7B3C0E1FFB4C0A1
:10057000E2FFFF0EE66EB1C000F0B2C001F071DD27
:10058000B3C0E1FFB4C0E2FFFF0EE66EB1C000F001
:08059000B2C001F066DD1200AB
:0E059800550E0E01006FAA0E006F00811200BA
:0E05A600550E0E01006FAA0E006F009112009C
:1005B400EADD000E000A02E1040E151809E103C683
:1005C4000BF604C60CF605C60DF606C60EF614D0D8
:1005D400090E006E03C60BF604C60CF605C60DF62E
:1005E40006C60EF6005008E006010B370B910C37D7
:1005F4000D370E37FF0FF7D70601180E116F0BC614
:1006040012F60CC613F60DC614F60EC615F6FF0E3A
:10061400166F31DD005204E0E3DD010E006E8BD075
:10062400B3C0E1FFB4C0E2FFFF0EE66EB1C000F05C
:10063400B2C001F014DDB3C0E1FFB4C0E2FFFF0EAD
:10064400E66EB1C000F0B2C001F009DDB3C0E1FF55
:10065400B4C0E2FFFE0EE66EB1C000F0B2C001F01D
:10066400FEDC0601096B0A6B0A51010802E109511B
:10067400FF0815E309510725E96E0A510821EA6EBE
:10068400B3C0E1FFB4C0E2FFEECFE6FFB1C000F0BB
:10069400B2C001F0E4DC0601094B0A2BE5D7B3C074
:1006A400E1FFB4C0E2FFFF0EE66EB1C000F0B2C0DD
:1006B40001F0D5DCB3C0E1FFB4C0E2FFFF0EE66E8B
:1006C400B1C000F0B2C001F0CADCB3C0E1FFB4C0F5
:1006D400E2FFFF0EE66EB1C000F0B2C001F0BFDC75
:1006E40000C009F6000E06010A6F1F0E0915016EFF
:1006F4000AC602F0000E021601C009F602C00AF68C
:10070400000E021802E1050E011804E069DD020E74
:10071400006E11D0B3C0E1FFB4C0E2FFFF0EE66E7D
:10072400B1C000F0B2C001F09ADC0050FF0A01E051
:08073400F1D756DD006A120046
:10073C00B3C0E1FFB4C0E2FF4C0EE66EB1C000F0F6
:10074C00B2C001F088DCB3C0E1FFB4C0E2FFE66ADE
:10075C00B1C000F0B2C001F07EDCB3C0E1FFB4C0A8
:10076C00E2FFE66AB1C000F0B2C001F074DCB3C0C5
:10077C00E1FFB4C0E2FFE66AB1C000F0B2C001F024
:10078C006ADCB3C0E1FFB4C0E2FFE66AB1C000F0BE
:10079C00B2C001F060DCB3C0E1FFB4C0E2FFFF0EF9
:1007AC00E66EB1C000F0B2C001F055DC0601036B7F
:1007BC00046BB3C0E1FFB4C0E2FFFF0EE66EB1C044
:1007CC0000F0B2C001F047DC00C000F60601034B9C
:1007DC00042B800E0014016E0150000A07E0000E7D
:1007EC00045D02E1640E035D01E2E3D700AF04D0C7
:1007FC00F3DC00C600F012D0B3C0E1FFB4C0E2FFDE
:10080C00FF0EE66EB1C000F0B2C001F024DC00C0F7
:0E081C0000F60050000AF0E0DFDC006A120077
:10082A00AFDC000E000A02E1040E151809E103C646
:10083A000BF604C60CF605C60DF606C60EF614D05F
:10084A00090E006E03C60BF604C60CF605C60DF6B5
:10085A0006C60EF6005008E006010B370B910C375E
:10086A000D370E37FF0FF7D70601110E116F0BC6A2
:10087A0012F60CC613F60DC614F60EC615F6FF0EC2
:10088A00166F3DEC00F0005204E0A7DC010E006E8A
:10089A004FD0B3C0E1FFB4C0E2FFFF0EE66EB1C0B5
:1008AA0000F0B2C001F031EC00F00050FE0A01E0A5
:1008BA00F0D70601096B0A6B020E0A5D02E1000E0F
:1008CA00095D1CE2095107250F6F0A510821106FB3
:1008DA00B3C0E1FFB4C0E2FFFF0EE66EB1C000F0A4
:1008EA00B2C001F031EC00F00FC6E1FF10C6E2FF22
:1008FA0000C0E6FF0601094B0A2BDED7B3C0E1FFB1
:10090A00B4C0E2FFFF0EE66EB1C000F0B2C001F063
:10091A0031EC00F0B3C0E1FFB4C0E2FFFF0EE66EB7
:10092A00B1C000F0B2C001F031EC00F056DC006A50
:02093A001200A9
:10093C0005C604F006C605F003C602F004C603F0B3
:10094C0007C600F008C601F0010E0601075F000E95
:10095C00085B005001100FE004C0E9FF05C0EAFF7E
:10096C0002C0E1FF03C0E2FFEECFE6FF024A032A1A
:10097C00044A052AE5D703C600F004C601F01200AC
:10098C0003C6E9FF04C6EAFFEE5211E003C6E9FF15
:10099C0004C6EAFF05C6D9FF06C6DAFFEE50DE181C
:1009AC0006E10601034B042B054B062BE9D703C6C6
:1009BC00E9FF04C6EAFF05C6D9FF06C6DAFFDE501A
:0C09CC00EE5C006E016A000E015A120081
:0A09D80000C611F6AEEC00F01200AC
:1009E2000501F1517A0804E3610EF15DD8B0F19B83
:0609F200F1C500F0120047
:1009F800F1C502F0F2C503F002C000F003C001F037
:100A0800024A032A00C0E9FF01C0EAFFEE5201E0F2
:100A1800F3D70501F151025C006EF2510358016EE3
:0A0A2800010E005E000E015A1200DC
:100A320037C500F038C501F02BC304F02CC305F014
:100A420094DC00C0F1F501C0F2F5020E0501F36F6E
:100A5200000EF46F2BC304F02CC305F0020E006EDF
:100A6200000E016E2DDC00C0F5F501C0F6F5000E9A
:100A7200F76FF86F3951F525FB6F3A51F621FC6F8C
:100A82003B51F721FD6F3C51F821FE6FFBC5F5F597
:100A9200FCC5F6F5FDC5F7F5FEC5F8F52BC304F068
:100AA2002CC305F0020E006E000E016E09DC08C0B8
:100AB20000F009C001F000C002F001C003F00236EC
:100AC200029003362D0E0224F96F030E0320FA6FF3
:100AD200FBC503F6FCC504F6FDC505F6FEC506F624
:100AE2000ADC010E05012D6F2D0E0601036F030EA8
:100AF200046F15DD0501F251F45D02E1F151F35D80
:100B02002CE2F9C5E9FFFAC5EAFFEECF01F0EECF1C
:100B120002F0000E021802E1000E011801E11DD0E0
:100B2200020EF925016E000EFA21026E01C0F9F5DE
:100B320002C0FAF5F34BF42B0250771902E1765119
:100B420001180AE12D0EF96F030EFA6F2D0E060140
:100B5200036F030E046FE3DCCDD7EFDD005208E034
:100B6200100E0001B06FFF0E006EFF0E016E10D06E
:100B72000501F451F21902E1F151F31905E1FF0EF9
:100B8200006EFF0E016E04D0F3C500F0F4C501F053
:020B920012004F
:100B94002BC304F02CC305F0F1C500F0F2C501F03D
:100BA40061EC01F000C0F9F501C0FAF5000E050191
:100BB400FB6FFC6F3951F925006E3A51FA21016E31
:100BC4003B51FB21026E3C51FC21036E00C0F9F540
:100BD40001C0FAF502C0FBF503C0FCF5010E2D6F50
:100BE40000C003F601C004F602C005F603C006F611
:100BF4002D0E0601076F030E086F15DE005208E084
:100C0400100E0001B06FFF0E006EFF0E016E89D052
:100C14002BC304F02CC305F0F1C500F0F2C501F0BC
:100C240061EC01F008C000F009C001F000C0F7F564
:100C340001C0F8F500C002F001C003F002360290D2
:100C4400033602C0F7F503C0F8F52D0E0224E16E59
:100C5400030E0320E26EF3C5E6FF010E0501F7253E
:100C6400006E000EF821016E2D0E0024E16E030EBD
:100C74000120E26EF4C5E6FFF9C503F6FAC504F6F1
:100C8400FBC505F6FCC506F62D0E0601076F030E1F
:100C9400086F8EDC005208E0050E0001B06FFF0EF5
:100CA400006EFF0E016E3DD0010E0501F56F000EC2
:100CB400F66F000EF65D02E13451F55D30E2375116
:100CC400F925006E3851FA21016E000EFB21026EE7
:100CD400000EFC21036E00C0F9F501C0FAF502C054
:100CE400FBF503C0FCF500C003F601C004F602C026
:100CF40005F603C006F62D0E0601076F030E086FF6
:100D040057DC005208E0050E0001B06FFF0E006EC4
:100D1400FF0E016E06D00501F54BF62BCAD7006A0B
:040D2400016A12004E
:100D28000501F1513B0804E3F151350A01E003D014
:100D3800006A30EF0CF0F251000AD8A4A7D1F4539E
:100D480001E02DDCB1D0F3C552FE9BD1F3C553FEB3
:100D580098D1F3C554FE95D1F3C555FE92D1F3C58C
:100D680056FE8FD1F3C557FE8CD1F3C558FE89D1F5
:100D7800F3C559FE86D1F3C55AFE83D1F3C55BFE90
:100D880080D1F3C55CFE7DD1F3C55DFE7AD1F3C594
:100D98005EFE77D1F3C55FFE74D1F3C560FE71D1F5
:100DA800F3C561FE6ED1F3C562FE6BD1F3C563FE78
:100DB80068D1F3C564FE65D1F3C565FE62D1F3C59C
:100DC80066FE5FD1F3C567FE5CD1F3C568FE59D1F5
:100DD800F3C569FE56D1F3C56AFE53D1F3C56BFE60
:100DE80050D1F3C56CFE4DD1F3C56DFE4AD1F3C5A4
:100DF8006EFE47D1F3C56FFE44D1F3C570FE41D1F5
:100E0800F3C571FE3ED1F3C572FE3BD1F3C573FE47
:100E180038D1F3C574FE35D1F3C575FE32D1F3C5AB
:100E280076FE2FD1F3C577FE2CD1F3C578FE29D1F4
:100E3800F3C579FE26D1F3C57AFE23D1F3C57BFE2F
:100E480020D1F3C57CFE1DD1F3C57DFE1AD1F3C5B3
:100E58007EFE17D1F3C57FFE14D1F3C580FE11D1F4
:100E6800F3C581FE0ED1F3C582FE0BD1F3C583FE17
:100E780008D1F3C584FE05D1F3C585FE02D1F3C5BB
:100E880086FEFFD0F3C588FEFCD0F3C589FEF9D0F5
:100E9800F3C58AFEF6D0F3C58BFEF3D0F3C58CFEFE
:100EA800F0D0F3C58DFEEDD00501F151000AD8B49C
:100EB8004AD7F151010AD8B449D7F151020AD8B436
:100EC80048D7F151030AD8B447D7F151040AD8B426
:100ED80046D7F151050AD8B445D7F151060AD8B416
:100EE80044D7F151070AD8B443D7F151080AD8B406
:100EF80042D7F151090AD8B441D7F1510A0AD8B4F6
:100F080040D7F1510B0AD8B43FD7F1510C0AD8B4E5
:100F18003ED7F1510D0AD8B43DD7F1510E0AD8B4D5
:100F28003CD7F1510F0AD8B43BD7F151100AD8B4C5
:100F38003AD7F151110AD8B439D7F151120AD8B4B5
:100F480038D7F151130AD8B437D7F151140AD8B4A5
:100F580036D7F151150AD8B435D7F151160AD8B495
:100F680034D7F151170AD8B433D7F151180AD8B485
:100F780032D7F151190AD8B431D7F1511A0AD8B475
:100F880030D7F1511B0AD8B42FD7F1511C0AD8B465
:100F98002ED7F1511D0AD8B42DD7F1511E0AD8B455
:100FA8002CD7F1511F0AD8B42BD7F151200AD8B445
:100FB8002AD7F151210AD8B429D7F151220AD8B435
:100FC80028D7F151230AD8B427D7F151240AD8B425
:100FD80026D7F151250AD8B425D7F151260AD8B415
:100FE80024D7F151270AD8B423D7F151280AD8B405
:100FF80022D7F151290AD8B421D7F1512A0AD8B4F5
:1010080020D7F1512B0AD8B41FD7F1512C0AD8B4E4
:101018001ED7F1512D0AD8B41DD7F1512E0AD8B4D4
:101028001CD7F1512F0AD8B41BD7F151300AD8B4C4
:101038001AD7F151310AD8B419D7F151320AD8B4B4
:1010480018D7F151330AD8B417D7F151340AD8B4A4
:1010580016D7F151360AD8B415D7F151370AD8B492
:1010680014D7F151380AD8B413D7F151390AD8B482
:1010780012D7F1513A0AD8B411D7F1513B0AD8B472
:1010880010D70501F45302E0CCEC02F00501F2514F
:10109800010AD8A454D1F45302E0D3EC02F08DD065
:1010A800F1C501FE47D1F1C502FE44D1F1C503FEE9
:1010B80041D1F1C504FE3ED1F1C505FE3BD1F1C5D4
:1010C80006FE38D1F1C507FE35D1F1C508FE32D18B
:1010D800F1C509FE2FD1F1C50AFE2CD1F1C50BFED1
:1010E80029D1F1C50CFE26D1F1C50DFE23D1F1C5DC
:1010F8000EFE20D1F1C50FFE1DD1F1C510FE1AD18B
:10110800F1C500FE17D1F1C501FE14D1F1C502FEEB
:1011180011D1F1C503FE0ED1F1C504FE0BD1F1C505
:1011280005FE08D1F1C506FE05D1F1C507FE02D1BD
:10113800F1C508FEFFD0F1C509FEFCD0F1C50AFED5
:10114800F9D0F1C50BFEF6D0F1C50CFEF3D0F1C510
:101158000DFEF0D0F1C50EFEEDD0F1C50FFEEAD0C0
:10116800F1C510FEE7D0F1C511FEE4D0F1C512FEBD
:10117800E1D0F1C513FEDED0F1C514FEDBD0F1C518
:1011880015FED8D0F1C516FED5D0F1C517FED2D0C0
:10119800F1C518FECFD0F1C519FECCD0F1C51AFEA5
:1011A800C9D0F1C51BFEC6D0F1C51CFEC3D0F1C520
:1011B8001DFEC0D0F1C51EFEBDD00501F351000AC9
:1011C800D8B46ED7F351010AD8B46DD7F351020AD7
:1011D800D8B46CD7F351030AD8B46BD7F351040AC7
:1011E800D8B46AD7F351050AD8B469D7F351060AB7
:1011F800D8B468D7F351070AD8B467D7F351080AA7
:10120800D8B466D7F351090AD8B465D7F3510A0A96
:10121800D8B464D7F3510B0AD8B463D7F3510C0A86
:10122800D8B462D7F3510D0AD8B461D7F3510E0A76
:10123800D8B460D7F3510F0AD8B45FD7F351100A66
:10124800D8B45ED7F351110AD8B45DD7F351120A56
:10125800D8B45CD7F351130AD8B45BD7F351140A46
:10126800D8B45AD7F351150AD8B459D7F351160A36
:10127800D8B458D7F351170AD8B457D7F351180A26
:10128800D8B456D7F351190AD8B455D7F3511A0A16
:10129800D8B454D7F3511B0AD8B453D7F3511C0A06
:1012A800D8B452D7F3511D0AD8B451D7F3511E0AF6
:1012B800D8B450D7F3511F0AD8B44FD7F351200AE6
:1012C800D8B44ED7F351210AD8B44DD7F351220AD6
:1012D800D8B44CD7F351230AD8B44BD7F351240AC6
:1012E800D8B44AD7F351250AD8B449D7F351260AB6
:1012F800D8B448D7F351270AD8B447D7F351280AA6
:10130800D8B446D7F351290AD8B445D7F3512A0A95
:10131800D8B444D7F3512B0AD8B443D7F3512C0A85
:10132800D8B442D7F3512D0AD8B441D7F3512E0A75
:10133800D8B440D70501F45302E0CCEC02F09DD1BB
:101348000501F2B102D0819001D0818083D20501DC
:10135800F2B102D0819201D081827CD20501F2B132
:1013680002D0819401D0818475D20501F2B102D0F6
:10137800819601D081866ED20501F2B102D08198A2
:1013880001D0818867D20501F2B102D0819A01D0DB
:10139800818A60D20501F2B102D0819C01D0818C92
:1013A80059D20501F2B102D0819E01D0818E52D26C
:1013B8000501F2B102D0829001D082804BD20501A2
:1013C800F2B102D0829201D0828244D20501F2B1F8
:1013D80002D0829401D082843DD20501F2B102D0BC
:1013E800829601D0828636D20501F2B102D0829867
:1013F80001D082882FD20501F2B102D0829A01D0A1
:10140800828A28D20501F2B102D0829C01D0828C56
:1014180021D20501F2B102D0829E01D0828E1AD269
:101428000501F2B102D0839001D0838013D2050167
:10143800F2B102D0839201D083820CD20501F2B1BD
:1014480002D0839401D0838405D20501F2B102D081
:10145800839601D08386FED10501F2B102D083982C
:1014680001D08388F7D10501F2B102D0839A01D067
:10147800838AF0D10501F2B102D0839C01D0838C1C
:10148800E9D10501F2B102D0839E01D0838EE2D169
:101498000501F2B102D0849001D08480DBD105012E
:1014A800F2B102D0849201D08482D4D10501F2B184
:1014B80002D0849401D08484CDD10501F2B102D048
:1014C800849601D08486C6D10501F2B102D08498F1
:1014D80001D08488BFD10501F2B102D0849A01D02D
:1014E800848AB8D10501F2B102D0849C01D0848CE1
:1014F800B1D10501F2B102D0849E01D0848EAAD167
:101508000501F2B102D0859001D08580A3D10501F3
:10151800F2B102D0859201D085829CD10501F2B149
:1015280002D0859401D0858495D10501F2B102D00D
:10153800859601D085868ED10501F2B102D08598B5
:1015480001D0858887D10501F2B102D0859A01D0F2
:10155800858A80D10501F2B102D0859C01D0858CA5
:1015680079D10501F2B102D0859E01D0858E72D164
:101578000501F2B102D0869001D086806BD10501B9
:10158800F2B102D0869201D0868264D10501F2B10F
:1015980002D0869401D086845DD10501F2B102D0D3
:1015A800869601D0868656D10501F2B102D086987A
:1015B80001D086884FD10501F2B102D0869A01D0B8
:1015C800868A48D10501F2B102D0869C01D0868C6A
:1015D80041D10501F2B102D0869E01D0868E3AD162
:1015E8000501F2B102D0879001D0878033D105017F
:1015F800F2B102D0879201D087822CD10501F2B1D5
:1016080002D0879401D0878425D10501F2B102D098
:10161800879601D087861ED10501F2B102D087983E
:1016280001D0878817D10501F2B102D0879C01D07B
:10163800878C10D10501F2B102D0879E01D0878E28
:1016480009D10501F2B102D0889001D0888002D179
:101658000501F2B102D0889201D08882FBD0050141
:10166800F2B102D0889401D08884F4D00501F2B197
:1016780002D0889601D08886EDD00501F151000A84
:10168800D8B45ED6F151010AD8B461D6F151020A34
:10169800D8B464D6F151030AD8B467D6F151040A14
:1016A800D8B46AD6F151050AD8B46DD6F151060AF4
:1016B800D8B470D6F151070AD8B473D6F151080AD4
:1016C800D8B476D6F151090AD8B479D6F1510A0AB4
:1016D800D8B47CD6F1510B0AD8B47FD6F1510C0A94
:1016E800D8B482D6F1510D0AD8B485D6F1510E0A74
:1016F800D8B488D6F1510F0AD8B48BD6F151100A54
:10170800D8B48ED6F151110AD8B491D6F151120A33
:10171800D8B494D6F151130AD8B497D6F151140A13
:10172800D8B49AD6F151150AD8B49DD6F151160AF3
:10173800D8B4A0D6F151170AD8B4A3D6F151180AD3
:10174800D8B4A6D6F151190AD8B4A9D6F1511A0AB3
:10175800D8B4ACD6F1511B0AD8B4AFD6F1511C0A93
:10176800D8B4B2D6F1511D0AD8B4B5D6F1511E0A73
:10177800D8B4B8D6F1511F0AD8B4BBD6F151200A53
:10178800D8B4BED6F151210AD8B4C1D6F151220A33
:10179800D8B4C4D6F151230AD8B4C7D6F151240A13
:1017A800D8B4CAD6F151250AD8B4CDD6F151260AF3
:1017B800D8B4D0D6F151270AD8B4D3D6F151280AD3
:1017C800D8B4D6D6F151290AD8B4D9D6F1512A0AB3
:1017D800D8B4DCD6F1512B0AD8B4DFD6F1512C0A93
:1017E800D8B4E2D6F1512D0AD8B4E5D6F1512E0A73
:1017F800D8B4E8D6F1512F0AD8B4EBD6F151300A53
:10180800D8B4EED6F151310AD8B4F1D6F151320A32
:10181800D8B4F4D6F151330AD8B4F7D6F151340A12
:10182800D8B4FAD6F151360AD8B4FDD6F151370AF0
:10183800D8B400D7F151380AD8B403D7F151390ACE
:10184800D8B406D7F1513A0AD8B409D7F1513B0AAE
:0A185800D8B40CD7FF0E006E12008A
:10186200220E0C6E086A096A0A6A0B6A0C06D8B460
:101872001FD0D8900B320A320932083203320232B8
:1018820001320032D8A0F2D70C06D8B409D00450E5
:1018920008260550092206500A2207500B22EAD7D1
:1018A200045008260550092206500A2207500B222E
:0218B200120022
:1018B400F30E0501FE6F050EFF6FF1C501F6F2C5CB
:1018C40002F6F30E0601036F050E046F200E056F7A
:1018D4000B0E066F000E076FFFEC00F0F1C5E9FF79
:1018E400F2C5EAFFEE520EE0F1C5E9FFF2C5EAFFE8
:1018F400EECF00F62DEC01F0005204E00501F14BAF
:10190400F22BECD7F1C503F6F2C504F6AB0E0601D3
:10191400056F000E066FC6EC04F0000E011802E11C
:10192400000E001806E12E0E0501F36F2E0EF46F63
:1019340061D0F1C503F6F2C504F6A90E0601056FE0
:10194400000E066FC6EC04F0000E011802E1000E52
:10195400001804E12E0E0501F36F4CD0F1C5E9FF28
:10196400F2C5EAFFEE5221E0F1C5E9FFF2C5EAFF54
:10197400EECF00F62DEC01F0005217E1F1C5E9FFBE
:10198400F2C5EAFFEE502E0A10E0F1C5E9FFF2C5F8
:10199400EAFFFEC5E1FFFFC5E2FFEECFE6FF05016A
:1019A400FE4BFF2BF14BF22BD9D7F1C5E9FFF2C562
:1019B400EAFFEE502E0A03E10501F14BF22B05017B
:1019C400FB0EFE6F050EFF6FF1C5E9FFF2C5EAFFDE
:1019D400EE5020080FE2F1C5E9FFF2C5EAFFFEC5AB
:1019E400E1FFFFC5E2FFEECFE6FFFE4BFF2BF14B1D
:1019F400F22BEAD701C603F602C604F6F30E06017B
:101A0400056F050E066F0B0E076F000E086F9EEC38
:041A140004F01200C8
:101A1800F5C501F0F6C502F0010E0501F55F000EEF
:101A2800F65B000E021802E1000E01181FE0F1C576
:101A3800E9FFF2C5EAFFF3C5D9FFF4C5DAFFEE50B6
:101A4800DE180FE0F1C5E9FFF2C5EAFFF3C5D9FFDB
:101A5800F4C5DAFFDE50EE5C006E016A000E015A32
:101A680007D0F14BF22BF34BF42BD2D7006A016A63
:021A780012005A
:101A7A00F1C5F5F5F2C5F6F5F3C5F7F5F4C5F8F5D0
:101A8A000501F96BFA6B000EFA5D02E1080EF95DC9
:101A9A0019E2F5C5E9FFF6C5EAFFEE50200A01E1B1
:101AAA0011D0F5C5E9FFF6C5EAFFF7C5E1FFF8C5AC
:101ABA00E2FFEECFE6FFF74BF82BF54BF62BF94B8F
:101ACA00FA2BE1D7080EF125016E000EF221026E03
:101ADA0001C0F5F502C0F6F501C0E9FF02C0EAFF50
:101AEA00EE50200A29E0F7C5E1FFF8C5E2FF2E0E05
:101AFA00E66EF74BF82BF96BFA6B000EFA5D02E112
:101B0A00030EF95D19E2F5C5E9FFF6C5EAFFEE50E5
:101B1A00200A01E111D0F5C5E9FFF6C5EAFFF7C5CC
:101B2A00E1FFF8C5E2FFEECFE6FFF74BF82BF54BE6
:101B3A00F62BF94BFA2BE1D7F7C5E1FFF8C5E2FF1F
:101B4A00E66A0D0EF325E16E000EF421E26E0B0E2D
:101B5A00F125E96E000EF221EA6EEECFE6FF1A0ECB
:101B6A00F325FB6F000EF421FC6F1C0EF125060114
:101B7A00036F000E0501F2210601046FDEEC01F08D
:101B8A00FBC5E1FFFCC5E2FF00C0E6FF01C0E6FFBE
:101B9A0002C0E6FF03C0E6FF1E0E0501F325FB6F38
:101BAA00000EF421FC6F1A0EF1250601036F000ED8
:101BBA000501F2210601046F6BEC02F0FBC5E1FF9F
:101BCA00FCC5E2FF00C0E6FF01C0E6FF0E0E0501FC
:101BDA00F125006E000EF221016E00C0E9FF01C07E
:101BEA00EAFFEECF04F0010E0024E96E000E012098
:101BFA00EA6EEECF03F003C001F0006A045000243D
:101C0A00036E000E0120046E03C0F9F504C0FAF554
:101C1A000E0EF325006E000EF421016E030E002451
:101C2A00E16E000E0120E26E0B0E026E03C000F0A0
:101C3A0004C001F0025005E001320032019EFF0F9C
:101C4A00FAD700C0E6FF0E0EF325006E000EF4214F
:101C5A00016E040E0024E16E000E0120E26E050EF4
:101C6A00026EF9C500F0FAC501F0025005E0013232
:101C7A000032019EFF0FFAD73F0E0014006E00C01B
:101C8A00E6FF0E0EF325006E000EF421016E050E1E
:101C9A000024E16E000E0120E26E1F0EF915026E9D
:101CAA0002C000F00036009000C0E6FF100EF125D9
:101CBA00006E000EF221016E00C0E9FF01C0EAFFCA
:101CCA00EECF04F0010E0024E96E000E0120EA6E48
:101CDA00EECF03F003C001F0006A04500024026E44
:101CEA00000E0120036E02C0F9F503C0FAF50E0ECC
:101CFA00F325006E000EF421016E020E0024E16E3F
:101D0A00000E0120E26E1F0E0214006E00C0E6FFF4
:101D1A000E0EF325006E000EF421016E010E002452
:101D2A00E16E000E0120E26E050E026EF9C500F0AA
:101D3A00FAC501F0025005E001320032019EFF0FA0
:101D4A00FAD70F0E0014006E00C0E6FF0E0EF32540
:101D5A00E16E000EF421E26E090E026EF9C500F082
:101D6A00FAC501F0025005E001320032019EFF0F70
:101D7A00FAD700C0E6FF160EF125006E000EF2211A
:101D8A00016E00C0E9FF01C0EAFFEECF04F0010EC8
:101D9A000024E96E000E0120EA6EEECF03F003C0C4
:101DAA0001F0006A04500024036E000E0120046E44
:101DBA0003C0F9F504C0FAF5140EF325006E000EFF
:101DCA00F421016E030E0024E16E000E0120E26E82
:101DDA000B0E026E03C000F004C001F0025005E0D1
:101DEA0001320032019EFF0FFAD700C0E6FF140E3F
:101DFA00F325006E000EF421016E040E0024E16E3C
:101E0A00000E0120E26E050E026EF9C500F0FAC559
:101E1A0001F0025005E001320032019EFF0FFAD7AD
:101E2A003F0E0014006E00C0E6FF140EF325006E8C
:101E3A00000EF421016E050E0024E16E000E012051
:101E4A00E26E1F0EF915026E02C000F00036009015
:101E5A0000C0E6FF180EF125006E000EF221016E99
:101E6A0000C0E9FF01C0EAFFEECF04F0010E002432
:101E7A00E96E000E0120EA6EEECF03F003C001F016
:101E8A00006A04500024026E000E0120036E02C094
:101E9A00F9F503C0FAF5140EF325006E000EF421CD
:101EAA00016E020E0024E16E000E0120E26E1F0E8A
:101EBA000214006E00C0E6FF140EF325006E000E39
:101ECA00F421016E010E0024E16E000E0120E26E83
:101EDA00050E026EF9C500F0FAC501F0025005E0E0
:101EEA0001320032019EFF0FFAD70F0E0014006E66
:101EFA0000C0E6FF140EF325E16E000EF421E26E37
:101F0A00090E026EF9C500F0FAC501F0025005E0AB
:101F1A0001320032019EFF0FFAD700C0E6FF12001D
:101F2A000501E26BE36B270EE35D02E1100EE25D51
:101F3A00D8B0AED0000E000A02E1000EE11919E194
:101F4A00C5EC00F0010E0601116F126B136B146BD6
:101F5A00156BFF0E166F3DEC00F000C0E4F5F2ECD5
:101F6A0000F00501E451000A03E1156A006A92D003
:101F7A008CD0C5EC00F0370E0601116F126B136B93
:101F8A00146B156BFF0E166F3DEC00F000C0E4F504
:101F9A00F2EC00F00501E451010AD8A475D0C5ECB1
:101FAA0000F0290E0601116F000E126F000E136F5A
:101FBA00000E146F400E156FFF0E166F3DEC00F009
:101FCA0000C0E4F5F2EC00F00501E451000A5BE11F
:101FDA00000E000A02E1020EE11951E1C5EC00F01F
:101FEA003A0E0601116F126B136B146B156BFF0E11
:101FFA00166F3DEC00F000C0E4F5B3C0E1FFB4C0D9
:10200A00E2FFFF0EE66EB1C000F0B2C001F031ECA3
:10201A0000F000C0E5F5B3C0E1FFB4C0E2FFFF0E77
:10202A00E66EB1C000F0B2C001F031EC00F0B3C00E
:10203A00E1FFB4C0E2FFFF0EE66EB1C000F0B2C02D
:10204A0001F031EC00F0B3C0E1FFB4C0E2FFFF0ED3
:10205A00E66EB1C000F0B2C001F031EC00F0F2EC73
:10206A0000F00501E451000A09E1E5AD03D0040ED0
:10207A00156E02D0030E156E006A0CD004D0010E44
:10208A00156E006A07D001D003D0E24BE32B4BD781
:06209A00010E006E1200B1
:1020A0000501EB6BEC6BED6BEE6BE151E21103E1C3
:1020B000FF0E006EE0D0E1C5F1F5E2C5F2F55AEC95
:1020C0000CF003012A51050140190EE103012951C9
:1020D00005013F1909E10301285105013E1904E1F9
:1020E0000301275105013D1905E135C5E7F536C561
:1020F000E8F50ED030C500F031C501F00DC304F095
:102100000EC305F0B6EC01F000C0E7F501C0E8F53C
:1021100027C3EBF528C3ECF529C3EDF52AC3EEF58B
:102120002D0EE96F030EEA6F27C303F628C304F6EA
:1021300029C305F62AC306F67CEC01F0010E050161
:102140002D6F2D0E0601036F030E046F90EC02F04D
:102150000501E56BE66BE851E65D02E1E751E55DFF
:10216000D8B07DD0E9C5F1F5EAC5F2F5E1C5F3F5E2
:10217000E2C5F4F50B0EF56F000EF66F4DDC000EA8
:10218000011802E1000E001844E19EEC03F0005239
:1021900006E0100E0001B06FFF0E006E6CD005015E
:1021A000E351E41134E0E9C5F1F5EAC5F2F5E3C520
:1021B000F3F5E4C5F4F561DC200EE325E16E000ED5
:1021C000E421E26EEBC5E6FFECC5E6FFEDC5E6FFF8
:1021D000EEC5E6FF240EE325E16E000EE421E26E7B
:1021E0002D0EE95D036E030EEA59046E050E026EB4
:1021F00003C000F004C001F0025005E001320032DB
:10220000019EFF0FFAD700C0E6FF01C0E6FF006A9B
:1022100032D00501200EE925016E000EEA21026E82
:1022200001C0E9F502C0EAF50250771902E17651E2
:10223000011811E1010EEB27000EEC23ED23EE2334
:102240002D0EE96F030EEA6F2D0E0601036F030ECC
:10225000046F90EC02F00501E54BE62B7CD79EEC79
:1022600003F0005206E0100E0001B06FFF0E006E8A
:0822700002D0FF0E006E120007
:10227800010E05012D6F060E006E000E016E00C3E3
:1022880004F0000E056EB6EC01F00F0E0026030EEA
:102298000122020E0024E96E000E0120EA6EEECF44
:1022A80003F6EECF04F6EECF05F6EECF06F62D0ECA
:1022B8000601076F030E086F15EC04F0005206E0E4
:1022C800100E0001B06FFF0E006EB8D0380E060178
:1022D800036F030E046F6BEC02F000C02EF501C013
:1022E8002FF53AC330F5000E0501316F3B0E06019C
:1022F800036F030E046F6BEC02F000C032F501C0EF
:1023080033F53DC334F53E0E036F030E046F6BECDB
:1023180002F000C035F501C036F5430E036F030E19
:10232800046F6BEC02F000C037F501C038F5060EFB
:10233800006E000E016E00C304F0000E056EB6ECD0
:1023480001F00F0E0026030E0122020E0024E96E92
:10235800000E0120EA6E05013251EE24E16F33517F
:10236800EE20E26F000EEE20E36F000EEE20E46F29
:10237800E1C539F5E2C53AF5E3C53BF5E4C53CF5F9
:1023880034C500F0000E016E37C504F038C505F0FD
:10239800B6EC01F00050E1270150E223000EE323E0
:1023A800E423E1C53DF5E2C53EF5E3C53FF5E4C5E7
:1023B80040F5050E026E35C500F036C501F0025035
:1023C80005E0003600900136FF0FFAD705012EC54B
:1023D80004F02FC505F061EC01F0000E026E036EEB
:1023E800E1510026E2510122E3510222E451032285
:1023F80000C041F501C042F502C043F503C044F5F1
:102408002EC52BF32FC52CF303012C332B332C9F14
:10241800050E006E2EC50DF32FC50EF3005005E016
:102428000E330D330E9FFF0FFAD73DC527F33EC578
:0E24380028F33FC529F340C52AF3006A1200BD
:10244600E1C5F1F5E2C5F2F5E3C5F3F5010E0501C7
:08245600F46F94EC06F0120093
:10245E0007C3E1FF08C3E2FFE1C5E6FF05C300F0D5
:0A246E0006C301F031EC00F012008B
:102478002BC304F02CC305F0E1C500F0E2C501F060
:1024880061EC01F000C0E3F501C0E4F5000E0501C0
:10249800E56FE66F3951E325006E3A51E421016E8C
:1024A8003B51E521026E3C51E621036E00C0E3F585
:1024B80001C0E4F502C0E5F503C0E6F5010E2D6F95
:1024C80000C003F601C004F602C005F603C006F614
:1024D8002D0E0601076F030E086F15EC04F000526D
:1024E80008E0100E0001B06FFF0E006EFF0E016EC7
:1024F80022D02BC304F02CC305F0E1C500F0E2C5DF
:1025080001F061EC01F008C000F009C001F000C062
:1025180002F001C003F00236029003362D0E0224A9
:102528000601036F030E0320046F6BEC02F000C07A
:08253800E1F501C0E2F512001B
:10254000E1C5F1F5E2C5F2F5FCEC04F000C0E3F5FD
:102550000050000A03E1FF0E006E5BD0E3510C084F
:1025600003E2FE0E006E55D0E1C5D9FFE2C5DAFFE9
:102570002E0EDE1803E1FD0E006E4BD0E56BE1C5BB
:10258000E6F5E2C5E7F5E3C5E4F5E451000820E22D
:10259000E451E125D96E000EE221DA6E2E0EDE182E
:1025A00015E1010EE56FE451080803E2FC0E006E30
:1025B00030D0E451010F006E016A000E012200507C
:1025C000E125E66F0150E221E76F02D0E407DDD795
:1025D000010EE51906E0E351080803E2FB0E006E68
:1025E00018D0010EE51914E1E6C5F1F5E7C5F2F5DD
:1025F000FCEC04F000C0E3F50050000A03E1F50E26
:10260000006E07D0E351030803E2F40E006E01D020
:04261000006A12004A
:102614001A0E0501E1250601036F000E0501E221F2
:102624000601046F6BEC02F0E5C5E1FFE6C5E2FFCD
:1026340000C0E6FF01C0E6FFE5C5E9FFE6C5EAFF25
:10264400EECF00F0EECF01F0005001102DE119ECB7
:1026540005F0E5C5E1FFE6C5E2FF00C0E6FF01C005
:10266400E6FFE5C5E9FFE6C5EAFFEECF01F0EECFF0
:1026740002F00250FF0A02E1FF0E011806E1040E07
:102684000001B06FFF0E006E86D1E5C5E9FFE6C517
:10269400EAFFEECFF1F5EECFF2F5FF0E0501F36F91
:1026A400FF0EF46FCAEC05F0E5C5E9FFE6C5EAFFE5
:1026B400EECF00F0EECF01F0000E026E036E020EBC
:1026C400005E000E015A025A035A30C504F031C5A7
:1026D40005F0000E066E076E31EC0CF0E3C5E1FF69
:1026E400E4C5E2FF005005014125E66E0150422198
:1026F400E66E02504321E66E03504421E66E030168
:102704002A51050140190EE10301295105013F1920
:1027140009E10301285105013E1904E10301275190
:1027240005013D1905E135C5E9F536C5EAF50ED0D3
:1027340030C500F031C501F00DC304F00EC305F03F
:10274400B6EC01F000C0E9F501C0EAF527C3EDF5E8
:1027540028C3EEF529C3EFF52AC3F0F52D0EEB6F70
:10276400030EEC6F27C303F628C304F629C305F64A
:102774002AC306F67CEC01F0010E05012D6F2D0E27
:102784000601036F030E046F90EC02F00501E76B82
:10279400E86BEA51E85D02E1E951E75DD8B0ECD0BD
:1027A400EBC5E9FFECC5EAFFEECF01F00150E50A05
:1027B4000AE0EBC5E9FFECC5EAFFEECF01F0200E1D
:1027C400015C01E3B3D09EEC03F0005206E0100E6E
:1027D4000001B06FFF0E006EDED0EBC503F6ECC552
:1027E40004F6E1C505F6E2C506F6200E0601076FFC
:1027F400000E086F9EEC04F01A0E0501EB25E16E45
:10280400000EEC21E26EE5C5E9FFE6C5EAFFFF0E26
:10281400EE14006E00C0E6FF1A0EEB25006E000EEB
:10282400EC21016E010E0024E16E000E0120E26E27
:10283400E5C5E9FFE6C5EAFFEECF03F0EECF04F00D
:1028440004C000F0016A00C0E6FF0E0EEB25E16E45
:10285400000EEC21E26E09C3E6FF0E0EEB25006EBE
:10286400000EEC21016E010E0024E16E000E012029
:10287400E26E0AC3E6FF100EEB25E16E000EEC21BA
:10288400E26E0BC3E6FF100EEB25006E000EEC218A
:10289400016E010E0024E16E000E0120E26E0CC3F5
:1028A400E6FF160EEB25E16E000EEC21E26E09C385
:1028B400E6FF160EEB25006E000EEC21016E010EF4
:1028C4000024E16E000E0120E26E0AC3E6FF180E3A
:1028D400EB25E16E000EEC21E26E0BC3E6FF180E51
:1028E400EB25006E000EEC21016E010E0024E16E5A
:1028F400000E0120E26E0CC3E6FFEDC503F6EEC543
:1029040004F6EFC505F6F0C506F62D0E0601076FB1
:10291400030E086FDAEC02F0005206E0050E000127
:10292400B06FFF0E006E37D0006A35D0200E05015F
:10293400EB25016E000EEC21026E01C0EBF502C026
:10294400ECF50250771902E17651011811E1010EFC
:10295400ED27000EEE23EF23F0232D0EEB6F030E75
:10296400EC6F2D0E0601036F030E046F90EC02F062
:102974000501E74BE82B0DD79EEC03F0005206E06F
:10298400100E0001B06FFF0E006E05D00001060EA0
:08299400B06FFF0E006E12008F
:10299C000B6A0A6A096A086A0E6A0334083604501C
:1029AC00085E0550D8A0053C095E0650D8A0063C30
:1029BC000A5E0750D8A0073C0B5EE86AD8A0010E4F
:1029CC000E5E0336070E0C6E0334083609360A36D3
:1029DC000B360E36045003A012D0085E0550D8A05A
:1029EC00053C095E0650D8A0063C0A5E0750D8A0EC
:1029FC00073C0B5EE86AD8A0010E0E5E11D00826CB
:102A0C000550D8B0053C09260650D8B0063C0A261D
:102A1C000750D8B0073C0B26E86AD8B0010E0E263A
:102A2C0003360C2ED1D70234083609360A360B364B
:102A3C000E36045003A012D0085E0550D8A0053CF9
:102A4C00095E0650D8A0063C0A5E0750D8A0073C89
:102A5C000B5EE86AD8A0010E0E5E11D00826055058
:102A6C00D8B0053C09260650D8B0063C0A260750BB
:102A7C00D8B0073C0B26E86AD8B0010E0E260236F9
:102A8C00070E0C6E0234083609360A360B360E3633
:102A9C00045002A012D0085E0550D8A0053C095E77
:102AAC000650D8A0063C0A5E0750D8A0073C0B5E27
:102ABC00E86AD8A0010E0E5E11D008260550D8B0D9
:102ACC00053C09260650D8B0063C0A260750D8B05B
:102ADC00073C0B26E86AD8B0010E0E2602360C2EE7
:102AEC00D1D70134083609360A360B360E36045067
:102AFC0002A012D0085E0550D8A0053C095E065015
:102B0C00D8A0063C0A5E0750D8A0073C0B5EE86ACA
:102B1C00D8A0010E0E5E11D008260550D8B0053C89
:102B2C0009260650D8B0063C0A260750D8B0073CF8
:102B3C000B26E86AD8B0010E0E260136070E0C6E75
:102B4C000134083609360A360B360E36045001A00D
:102B5C0012D0085E0550D8A0053C095E0650D8A0DE
:102B6C00063C0A5E0750D8A0073C0B5EE86AD8A06A
:102B7C00010E0E5E11D008260550D8B0053C092672
:102B8C000650D8B0063C0A260750D8B0073C0B2696
:102B9C00E86AD8B0010E0E2601360C2ED1D70034BF
:102BAC00083609360A360B360E36045001A012D000
:102BBC00085E0550D8A0053C095E0650D8A0063C1E
:102BCC000A5E0750D8A0073C0B5EE86AD8A0010E3D
:102BDC000E5E11D008260550D8B0053C09260650CB
:102BEC00D8B0063C0A260750D8B0073C0B26E86A3A
:102BFC00D8B0010E0E260036070E0C6E00340836C7
:102C0C0009360A360B360E36045000A012D0085E78
:102C1C000550D8A0053C095E0650D8A0063C0A5EBB
:102C2C000750D8A0073C0B5EE86AD8A0010E0E5ED8
:102C3C0011D008260550D8B0053C09260650D8B04E
:102C4C00063C0A260750D8B0073C0B26E86AD8B0D9
:102C5C00010E0E2600360C2ED1D700B00ED004502B
:102C6C0008260550D8B0053C09260650D8B0063CBD
:0C2C7C000A260750D8B0073C0B261200B7
:102C88007E8C7E9A020E0601006F59EC01F0E1C5B8
:102C980000F659EC01F0E3C500F659EC01F0E2C585
:102CA80000F659EC01F07E8A8EB601D0FDD71200ED
:102CB8000501E56B0D0EE55D18E2E551E125E66FCE
:102CC800000EE221E76FE551E325E96E000EE421ED
:102CD800EA6EEECFF1F5F1EC04F0E6C5E1FFE7C5E9
:0C2CE800E2FF00C0E6FFE52BE5D712007C
:102CF400100E0501E16FE26B120EE36F23EC12F08C
:102D0400110E0501E16F010EE26F250EE36F23EC56
:042D140012F01200A7
:102D18000E01E88B900EE76F37A703D0E3CE00F0E3
:042D2800FBD71200C3
:102D2C000501816B7EC5E9FF7FC5EAFFEECF80F51B
:102D3C008051000A0FE080C5E1F52FEC12F005017F
:102D4C00812B81517E25E96E000E7F21EA6EEECF3C
:062D5C0080F5EED7120025
:102D62007EC5FCF27FC5FDF280C5FEF281C5FFF291
:102D720082C505F383C506F384C507F385C508F349
:102D820086C501F387C502F388C503F389C504F339
:102D92008AC572F58BC573F58CC574F58DC575F54D
:022DA20012001D
:102DA400010E05012D6F2D0E0601036F030E046F36
:102DB400056B000E066F020E076FFFEC00F00501B5
:102DC4007E6B020E7E5D1BE21C0E006E000E016E19
:102DD4007EC504F0000E056EB6EC01F0BE0E0024B4
:102DE4000601036F020E0120046F056B1C0E066FB3
:102DF400000E076FFFEC00F005017E2BE2D7520EA8
:102E04000601036F050E046F056B1C0E066F000EA2
:102E1400076FFFEC00F005017E6B040E7E5D1BE284
:102E2400060E006E000E016E7EC504F0000E056EE7
:102E3400B6EC01F00F0E00240601036F030E01200F
:102E4400046F056B060E066F000E076FFFEC00F0B3
:102E540005017E2BE2D72E0E0601036F050E046FCB
:102E6400056B170E066F000E076FFFEC00F02D0EBA
:102E74000501766F050E776F0301006B276B286BD6
:102E8400296B2A6B0001B06B0201FA6BFB6B050125
:102E94006E6B6F6B706B716BFF0E0001B56F450E3F
:102EA4000601036F050E046F056B0D0E066F000E11
:102EB400076FFFEC00F00301096B0A6B0B6B0C6BE3
:022EC4001200FA
:102EC600050E156E8490F2EC00F005017E6B7F6BAB
:102ED600000E7F5D02E10A0E7E5D10E2B3C0E1FFE7
:102EE600B4C0E2FFFF0EE66EB1C000F0B2C001F062
:102EF60031EC00F005017E4B7F2BEAD7C5EC00F0E4
:102F06000601116B126B136B146B156B950E166F16
:102F16003DEC00F000C080F5F2EC00F005018051B8
:102F2600010A03E0010E006E81D0C5EC00F0080E28
:102F36000601116FAA0E126F010E136F000E146FA9
:102F4600156F870E166F3DEC00F000C080F5B3C01C
:102F5600E1FFB4C0E2FFFF0EE66EB1C000F0B2C002
:102F660001F031EC00F0B3C0E1FFB4C0E2FFFF0EA8
:102F7600E66EB1C000F0B2C001F031EC00F0B3C0B3
:102F8600E1FFB4C0E2FFFF0EE66EB1C000F0B2C0D2
:102F960001F031EC00F0B3C0E1FFB4C0E2FFFF0E78
:102FA600E66EB1C000F0B2C001F031EC00F0F2EC18
:102FB60000F005018051010A0AE0010EE16F95EC6F
:102FC6000FF0005203E0E16B95EC0FF004D0020E17
:102FD600E16F95EC0FF0000E000A02E1050E1518E0
:102FE60003E1020E006E22D0000E000A02E1040E7A
:102FF60015181BE0C5EC00F0100E0601116F000E4F
:10300600126F020E136F000E146F156FFF0E166F00
:103016003DEC00F000C080F5F2EC00F005018051B7
:0E302600000A03E0030E006E01D0006A1200E3
:103034000501886B010E2D6F0601036B046B056B94
:10304400066B2D0E076F030E086F15EC04F000528B
:1030540006E0100E0001B06FFF0E006EAFD12D0E12
:103064000501806F030E816FFE0E8025E96E010E4F
:103074008121EA6EEE50550A03E0010E006E9ED1E6
:10308400FF0E8025E96E010E8121EA6EEE50AA0A38
:1030940003E0010E006E92D1886B80C5E9FF81C503
:1030A400EAFFEE50E90A02E1010E886F80C5E9FFEC
:1030B40081C5EAFFEE50EB0A0BE1020E8025E96EB2
:1030C400000E8121EA6EEE50900A02E1010E886F33
:1030D4008853D8B4BAD0846B856B866B876B0F0E1C
:1030E4007E6F030E7F6F7EC5E1FF7FC5E2FF800E1A
:1030F400E66E020E7E25E16E000E7F21E26EE66A28
:10310400E66AE66AE66A3CEC11F0800E0018016E8D
:10311400800E000A015C03E2010E006E4FD105012E
:1031240037513811D8B485D0030141514011006E94
:103134001FE041C384F5000E0501856F866F876F1C
:1031440086C587F585C586F584C585F5846B030139
:10315400405105018427000E852386238723010E11
:103164007E25E16E000E7F21E26E040EE66E11D024
:1031740005014DC384F54EC385F54FC386F550C391
:1031840087F5010E7E25E16E000E7F21E26E060EAC
:10319400E66E84C500F085C501F086C502F087C5DA
:1031A40003F04151005E4251015A4351025A4451C5
:1031B400035A30C504F031C505F0000E066E076EE3
:1031C400CEEC14F000C084F501C085F502C086F58C
:1031D40003C087F5000E035C08E1000E025C05E104
:1031E4000F0E015C02E1F50E005C0BE2010E7E2580
:1031F400E16E000E7F21E26E010EE66E010E006E9E
:10320400DDD08751000808E18651000805E18551A9
:10321400FF0802E18451F5080BE2010E7E25E16E00
:10322400000E7F21E26E0B0EE66E010E006EC6D01C
:103234000BD0010E7E25E16E000E7F21E26E0B0E97
:10324400E66E010E006EBAD0B8D0EB0E806F040E9D
:10325400816F826B836B000E835D02E1040E825DDD
:1032640058E2060E006E000E016E82C504F083C59E
:1032740005F0B6EC01F00F0E0026030E012200C08B
:103284007EF501C07FF580C5E9FF81C5EAFF00C076
:10329400E1FF01C0E2FFEECFE6FF040E8025006EE1
:1032A400000E8121016E00C080F501C081F5010E80
:1032B4007E25E16E000E7F21E26E00C0E9FF01C0B1
:1032C400EAFFEECFE6FF040E8025006E000E81219A
:1032D400016E00C080F501C081F5020E7E25896F64
:1032E400000E7F218A6F00C003F601C004F6DEECF5
:1032F40001F089C5E1FF8AC5E2FF00C0E6FF01C015
:10330400E6FF02C0E6FF03C0E6FF0501824B832B04
:10331400A2D7060E006E000E016E00C304F0000E6C
:10332400056EB6EC01F00F0E0026030E0122010E0D
:103334000024E96E000E0120EA6EEE50040A31E02A
:10334400060E006E000E016E00C304F0000E056E42
:10335400B6EC01F00F0E0026030E0122010E00242C
:10336400E96E000E0120EA6EEE50060A1AE0060E1F
:10337400006E000E016E00C304F0000E056EB6EC84
:1033840001F00F0E0026030E0122010E0024E96E47
:10339400000E0120EA6EEE500E0A03E0010E006EEC
:1033A4000DD03CEC11F0800E0018016E800E000A66
:0E33B400015C03E2010E006E01D0006A1200FF
:1033C20005016C516D110AE1070E0001B06FFF0E8D
:1033D200006EFF0E016E026E036EF0D0010E05014B
:1033E2002D6F81516B5D08E180516A5D05E17F516E
:1033F200695D02E17E51685D09E268C55AF569C5F9
:103402005BF56AC55CF56BC55DF508D07EC55AF5FE
:103412007FC55BF580C55CF581C55DF52EC504F001
:103422002FC505F0000E066E076E5AC500F05BC58B
:1034320001F05CC502F05DC503F0CEEC14F030C5BE
:1034420004F031C505F0000E066E076ECEEC14F0E6
:1034520000C082F501C083F558C55EF559C55FF518
:10346200000E006E8351005C02E18251000826E2E8
:103472005EC5E1F55FC5E2F53CEC12F000C05EF519
:1034820001C05FF50150FF0A02E1FF0E001810E1D2
:1034920068C55AF569C55BF56AC55CF56BC55DF52E
:1034A2000A0E0001B06F006A016A026A036A86D0DE
:1034B200010E0501825F000E835BD2D72EC504F098
:1034C2002FC505F0000E066E076E5AC500F05BC5EB
:1034D20001F05CC502F05DC503F0CEEC14F030C51E
:1034E20004F031C505F0000E066E076ECEEC14F046
:1034F20008C000F009C001F00AC002F00BC003F0DE
:1035020000C084F501C085F502C086F503C087F5C9
:1035120084C564F585C565F55EC500F05FC501F03B
:10352200000E026E036E020E005E000E015A025A77
:10353200035A30C504F031C505F0000E066E076E61
:1035420031EC0CF04151002642510122435102223A
:10355200445103228451002685510122000E022289
:10356200032200C060F501C061F502C062F503C02C
:1035720063F52EC504F02FC505F0000E066E076E2A
:103582005AC500F05BC501F05CC502F05DC503F0F1
:10359200CEEC14F008C000F009C001F00AC002F03D
:1035A2000BC003F000C066F501C067F55AC500F014
:0E35B2005BC501F05CC502F05DC503F01200C0
:1035C0007EC5E1F57FC5E2F5A0EC12F0005206E001
:1035D000120E0001B06FFF0E006E0AD2450E0501FB
:1035E000E16F050EE26F7EC5E3F57FC5E4F55CECA7
:1035F00016F06C516D1123E01C0E006E000E016E72
:10360000B5C004F0000E0001B5BFFF0E056EB6ECAC
:1036100001F0BE0E0024E16E020E0120E26E1C0ECF
:10362000006E520EE96E050EEA6EEECFE6FF000662
:10363000FCE105016C6B6D6BFF0E0001B56FCC0EEC
:103640000601036F050E046F450E056F050E066F2C
:103650000D0E076F000E086F9EEC04F0450E05017D
:10366000E16F050EE26FA60EE36F050EE46F50ECFE
:1036700010F0800E0018016E800E000A015C69E2F5
:10368000050181AF60D0D96BDA6BDB6BDC6BDD6B76
:10369000DE6B580E8115006E06E0080E0001B06F5B
:1036A000FF0E006EA5D1820E0601036F050E046F9A
:1036B000056B200E066F000E076FFFEC00F07F0E0B
:1036C00005018115006E00C08DF5820E0601036FA5
:1036D000050E046F450E056F050E066F0B0E076F86
:1036E000000E086F9EEC04F0820E0501E16F050EDE
:1036F000E26FDB0EE36F050EE46FD90EE56F050E8A
:10370000E66F0AEC13F0800E0018016E800E000ABE
:10371000015C03E2FF0E006E6BD1CC0E0501E16F80
:10372000050EE26FA60EE36F050EE46F50EC10F08D
:10373000800E0018016E800E000A015C03E2FF0E8D
:10374000006E56D106D00D0E0001B06FFF0E006E58
:103750004FD1580E0501B315006E06E0080E0001AA
:10376000B06FFF0E006E44D10501A26BA36B000E7B
:10377000A35D02E1020EA25D4BE21C0E006E000E84
:10378000016EA2C504F0A3C505F0B6EC01F0BE0EB3
:103790000026020E012200C0A4F501C0A5F51A0EF4
:1037A0000024E96E000E0120EA6EEE50EE102DE0CE
:1037B000060EA425D96E000EA521DA6EDECF01F02B
:1037C000DECF02F0C551021802E10150C4191DE11B
:1037D0001A0EA425E16E000EA521E26E80C5E6FF5B
:1037E000000EE66E1C0E006E520EE16E050EE26ECD
:1037F000A4C5E9FFA5C5EAFFEECFE6FF0006FCE1A0
:10380000A2C5B5F0A2C500F0F3D0A24BA32BAFD751
:10381000A26BA36B000EA35D02E1020EA25DD8B005
:10382000E2D01C0E006E000E016EA2C504F0A3C50E
:1038300005F0B6EC01F0BE0E0026020E01221A0EB3
:103840000024E96E000E0120EA6EEECF00F0EECF0C
:1038500001F000500110D8A4C3D01C0E006E000E61
:10386000016EA2C504F0A3C505F0B6EC01F0BE0ED2
:103870000026020E012200C0A4F501C0A5F500C07B
:1038800003F601C004F60601056B1C0E066F000E60
:10389000076FFFEC00F0060E0501A425026E000E76
:1038A000A521036E0C0EA425006E000EA521016E4D
:1038B00000C0E1FF01C0E2FFC4C5E6FFC5C5E6FFE9
:1038C00000C0E9FF01C0EAFF02C0E1FF03C0E2FF60
:1038D000EECFE6FFEECFE6FF1A0EA425E16E000E56
:1038E000A521E26E80C5E6FF000EE66EA4C5E1FFED
:1038F000A5C5E2FFC6C5E6FFC7C5E6FFC8C5E6FF2A
:10390000C9C5E6FF040EA425E16E000EA521E26EF6
:10391000050E026ECAC500F0CBC501F0025005E0ED
:10392000003600900136FF0FFAD700C0E6FF01C055
:10393000E6FF160EA425E16E000EA521E26EC0C5BD
:10394000E6FFC1C5E6FFC2C5E6FFC3C5E6FF0E0E32
:10395000A425DF6F000EA521E06F0C0EA425E96EF3
:10396000000EA521EA6EEECF00F0EECF01F0000EC2
:10397000026E036E020E005E000E015A025A035AD6
:1039800030C504F031C505F0000E066E076E31EC4F
:103990000CF0415100264251012243510222445170
:1039A0000322DFC5E1FFE0C5E2FF00C0E6FF01C082
:1039B000E6FF02C0E6FF03C0E6FF1C0E006E520EDB
:1039C000E16E050EE26EA4C5E9FFA5C5EAFFEECFE4
:1039D000E6FF0006FCE1A2C5B5F0A2C500F008D0E4
:1039E000A24BA32B17D7090E0001B06FFE0E006E7D
:0239F0001200C3
:1039F200130E0501E16FE26B190EE36F23EC12F077
:103A0200140E0501E16F010EE26F2A0EE36F23EC43
:103A120012F0150E0501E16FE26B1A0EE36F23EC53
:043A220012F012008C
:103A2600956A949C949E05017E519512805195123B
:103A36007F519412805305E08151000AD8B4948CCA
:0C3A460003D08153D8A4948C958A120000
:103A52007EC5E3F50501E26B7F51E227000EE32309
:0A3A62000B0EE16F44EC16F01200A9
:103A6C0005016CB104D0070E0001B06FE0D0050168
:103A7C006B515D5D08E16A515C5D05E169515B5D0F
:103A8C0002E168515A5D04E30B0E0001B06FCFD018
:103A9C0005016751020A02E1000E6619D8A483D011
:103AAC00666B676B010E6425006E000E6521016E5E
:103ABC0000C064F501C065F56551311902E1305162
:103ACC00641946E1646B656B5EC5E1F55FC5E2F5B3
:103ADC003CEC12F000C05EF501C05FF50150FF0A2E
:103AEC0002E1FF0E00180CE168C55AF569C55BF5DB
:103AFC006AC55CF56BC55DF50A0E0001B06F97D019
:103B0C005EC500F05FC501F0000E026E036E020E82
:103B1C00005E000E015A025A035A30C504F031C53A
:103B2C0005F0000E066E076E31EC0CF005014151EC
:103B3C00002642510122435102224451032200C06B
:103B4C0060F501C061F502C062F503C063F514D0E5
:103B5C00010E6025006E000E6121016E000E6221C7
:103B6C00026E000E6321036E00C060F501C061F5AA
:103B7C0002C062F503C063F52D6B60C503F661C529
:103B8C0004F662C505F663C506F62D0E0601076F31
:103B9C00030E086F15EC04F0005204E0100E000147
:103BAC00B06F45D019D005012D5316E02D6B60C5B3
:103BBC0003F661C504F662C505F663C506F62D0E5F
:103BCC000601076F030E086F15EC04F0005204E0B9
:103BDC00100E0001B06F2BD02D0E05016625E96E7D
:103BEC00030E6721EA6E78C5E1FF79C5E2FFEECFDF
:103BFC00E6FF010E6625006E000E6721016E00C007
:103C0C0066F501C067F5010E5A25006E000E5B21AA
:103C1C00016E000E5C21026E000E5D21036E00C071
:103C2C005AF501C05BF502C05CF503C05DF51200EE
:103C3C00778E0900F5CFE6FF0006FBE10106F9E1FE
:023C4C00120064
:103C4E007E8A7E9C8EB601D0FDD705017A6B200E42
:103C5E007A5D0DE27A517825E96E000E7921EA6ED1
:103C6E00EECF00F659EC01F005017A2BF0D77E8CE1
:023C7E00120032
:103C80007AEC16F0FF0E05017E6FFF0E7F6F000EBF
:103C9000806F000E816FD80E826F090E836F000E49
:103CA000846F060E856FFF0E866FFF0E876F000E06
:103CB000886F000E896FFF0E8A6FFF0E8B6F000EEC
:103CC0008C6F000E8D6FB1EC16F08CEC16F01200BC
:103CD0000E01926B9A6BA76BAF6BB46BBC6B869E3D
:103CE0007E8E869A7E8A86987E888686869C7E9C34
:043CF0007E8C1200B4
:103CF4007E8A7E9C8EB601D0FDD778C500F659EC3D
:063D040001F07E8C1200AC
:103D0A000501786B63EC17F0782B005204E0320E51
:103D1A00785D01E2F7D7320E785D03E3FF0E006E9D
:0C3D2A0004D0D2EC16F01AEC18F01200D5
:103D36007E8C7E8A7E98D00E0C6EC90E0D6E0D2E70
:103D4600FED70C2EFCD7000000007E888EB601D070
:103D5600FDD70501E16B000EE26F080EE36F44EC40
:103D660016F0020E0501E16F000EE26F7A0EE36FA8
:103D760044EC16F0030E0501E16F000EE26F200E13
:103D8600E36F44EC16F00001AE6BAF6B05017E6B82
:063D96007F6B5CDE1200F1
:103D9C002ADE520E0001B16F000EB26F1A0EB36F15
:103DAC00060EB46FB20E0201F66F020EF76F000E24
:103DBC00F86F060EF96F78C57EF579C57FF57AC573
:0A3DCC0080F57BC581F529DE1200A9
:103DD60078C57EF579C57FF596EC16F00D0EE16F88
:103DE6002FEC12F00A0E0501E16F2FEC12F0120013
:103DF60005016CB10CD078C5E1FF79C5E2FFE66A32
:103E0600E66AE66AE66A070E0001B06F13D005019E
:103E16007E6B7F6B806B816BE1EC19F078C5E1FFFF
:103E260079C5E2FF68C5E6FF69C5E6FF6AC5E6FF34
:063E36006BC5E6FF12005F
:103E3C00B5C07BF5B0C07DF578C57EF579C57FF54D
:103E4C00070E0501806F7AC581F5E0EC1AF000C011
:103E5C007CF5800E0018016E800E000A015C38E2C1
:103E6C0005017C51FE0A32E17DC5B0F01C0E006EDE
:103E7C00000E016E7BC504F0000E7BBFFF0E056EBD
:103E8C00B6EC01F0BE0E0026020E01221A0E002422
:103E9C00E16E000E0120E26EE66AE66A78C57EF5F8
:103EAC0079C57FF5070E806F7AC581F5E0EC1AF0C5
:103EBC0000C07CF5800E0018016E800E000A015CBB
:103ECC0002E2006A07D0020E006E04D0006A02D033
:063EDC00010E006E120051
:103EE200090E0B6E1E0E0C6EE40E0D6E0D2EFED71D
:0C3EF2000C2EFCD70B2EFAD7000012009B
:103EFE00D4EC20F0E6DEE987820EE56F060EE66F63
:103F0E00E885B7DEE7DF3D0E0501786F000E796FAD
:103F1E005BDFD3EC02F0150E0501E16FE26B1A0EBA
:103F2E00E36F23EC12F0CCEC02F0010E0501786F7A
:103F3E00796B7A6B010E7B6F2ADF160E786F000E8F
:103F4E00796F42DFF1DE940E0501786F000E796F06
:103F5E003BDFD4DE0050000AD8A4CBD0860E05017C
:103F6E00786F000E796F7A6B62DF0052D8B4BAD0D8
:103F7E00780E0501786F000E796F26DFBA0E0501F7
:103F8E00786F020E796F30DF0201BD51000808E133
:103F9E00BC51000805E1BB51020802E1BA5100080C
:103FAE005DE2B66BB76BB86BB96B000EB95D08E12D
:103FBE00000EB85D05E1020EB75D02E1000EB65DC2
:103FCE0012E2B60EB6250501786F000E0201B7217A
:103FDE000501796F44DD010E0201B627000EB723ED
:103FEE00B823B923E2D7B66BB76BB86BB96B000EBB
:103FFE00B95D08E1000EB85D05E1000EB75D02E1A6
:10400E00100EB65D23E2050E046EB6C200F0B7C206
:10401E0001F0B8C202F0B9C203F0045007E0003656
:10402E000090013602360336FF0FF8D7B60E002485
:10403E000501786F000E0120796F02DE010E02017C
:10404E00B627000EB723B823B923D1D7000EBA5F17
:10405E00020EBB5B000EBC5BBD5B96D7B66BB76B3F
:10406E00B86BB96BBD51B95D08E1BC51B85D05E1E6
:10407E00BB51B75D02E1BA51B65D12E2B60EB6257E
:10408E000501786F000E0201B7210501796FE7DC9B
:10409E00010E0201B627000EB723B823B923E2D7CB
:1040AE00B66BB76BB86BB96BBD51B95D08E1BC515E
:1040BE00B85D05E1BB51B75D02E1BA51B65D11E2E3
:1040CE00B60EB625E96E000EB721EA6EEECF78F584
:1040DE000ADE010E0201B627000EB723B823B9235C
:1040EE00E3D706D0660E0501786F000E796F6CDE91
:1040FE0006D04E0E0501786F000E796F65DEFFD784
:1041A80010EE15F0990E006E010E016E0E0EF66EF1
:0E41B800410EF76E000EF86E1EEC1EF01200A7
:01410E0000B0
:10410F00496E697469616C697A696E6720565331BB
:10411F0030353345206465636F64657220696E7452
:07412F006572666163650023
:10413600496E697469616C697A696E672053504982
:014146000078
:104147004D4D4320464154206E6F7420696E69744B
:0841570069616C697A6564007E
:10415F0046696C65206E6F742061737369676E6555
:02416F006400EA
:0E41710046696C652041737369676E65640072
:0E417F00736F756E642E6D70330000000000CB
:10418D00496E697469616C697A696E67204D4D433A
:05419D005F46415400E3
:0241A2002E00ED
:0341A4002E2E00BC
:020000040030CA
:0C000000220923B70B3FFF170300FF028B
:00000001FF
