:10000000E8EF1DF00000000000EF00F0000000002D
:0A0010000000000000000000F3D71C
:0A001C00050E0D6E0D2EFED712002A
:100026007E947F807F866EC18DFF7F927F827E84E5
:06003600F2DFF1DF120011
:10003C00EFDFEEDF7E947F807F966EC18DFF7F9227
:06004C007F827E84120099
:0E0052007F966EC18DFF7F9200007F821200AC
:0E0060007F866EC18DFF7F9200007F821200AE
:10006E00F250026EF29E0500FF6A0150FE6E0050C5
:08007E00FD6E02BEF28E1200BD
:06008600A3C000F012000F
:10008C000B0E026E5AC100F05BC101F0025005E08C
:10009C0001320032019EFF0FFAD700C05CF15CC147
:1000AC0000F000360090003600900036009000C042
:1000BC005CF1070E006E5CC101F0005004E00132EF
:1000CC00019EFF0FFBD70150010A03E1070E01014E
:1000DC005C275CC16EF1A1DF050E026E5AC100F007
:1000EC005BC101F0025005E001320032019EFF0FAE
:1000FC00FAD700C05CF15CC100F00036009000360D
:10010C00009000C05CF1070E006E5CC101F0005065
:10011C0004E00132019EFF0FFBD70150010A03E1FD
:10012C000101030E5C275CC16EF177DF030E016EDB
:10013C005AC100F0015004E000360090FF0FFBD7CD
:10014C0000C05CF1070E006E5CC101F0005004E0D1
:10015C000132019EFF0FFBD70150010A03E101019F
:0C016C00070E5C275CC16EF158DF12002A
:10017800F3C0E1FFF4C0E2FF020EE66EF1C000F04A
:10018800F2C001F070DF5BC100F0016A09C1E1FF54
:100198000AC1E2FF00C0E6FF07C100F008C101F094
:1001A80062DFF3C0E1FFF4C0E2FF030EE66EF1C0C8
:1001B80000F0F2C001F057DF09C1E1FF0AC1E2FF18
:1001C8005AC1E6FF07C100F008C101F04CDFF3C0D7
:1001D800E1FFF4C0E2FF060EE66EF1C000F0F2C0E7
:1001E80001F041DF5DC100F0016A09C1E1FF0AC108
:1001F800E2FF00C0E6FF07C100F008C101F033DFED
:10020800F3C0E1FFF4C0E2FF070EE66EF1C000F0B4
:10021800F2C001F028DF09C1E1FF0AC1E2FF5CC1B9
:10022800E6FF07C100F008C101F01DDFF3C0E1FFE0
:10023800F4C0E2FF220EE66EF1C000F0F2C001F059
:0402480012DF1200AF
:10024C000001A551010802E1A451E00807E3BA51ED
:10025C00010802E1B951E00801E30AD0200E0101C6
:10026C006A6F030E6B6FE00E6C6F010E6D6F09D031
:10027C000101E00E6A6F010E6B6F100E6C6F010EB8
:10028C006D6F0001A2515A0A3BE1F7DE00521CE0EF
:10029C00010E01016A5D006E000E6B59016E60511A
:1002AC00005C626F61510158636F5C51005C646F5C
:1002BC005D510158656F5AC166F15BC167F15EC152
:1002CC0068F15FC169F11BD001015CC162F15DC1D4
:1002DC0063F160C164F161C165F1010E6C5D006E8A
:1002EC00000E6D59016E5E51005C666F5F510158D6
:1002FC00676F5A51005C686F5B510158696F39D058
:10030C00BCDE005226E00101010E6A5D006E000E9B
:10031C006B59016E5E51005C626F5F510158636FE7
:10032C005A51005C646F5B510158656F010E6C5D36
:10033C00006E000E6D59016E6051005C666F61516C
:10034C000158676F5C51005C686F5D510158696FB3
:10035C0010D05AC162F15BC163F15EC164F15FC13F
:10036C0065F15CC166F15DC167F160C168F161C1A5
:10037C0069F1F3C0E1FFF4C0E2FF2A0EE66EF1C0B2
:10038C0000F0F2C001F06DDE63C100F0016A09C13A
:10039C00E1FF0AC1E2FF00C0E6FF07C100F008C19F
:1003AC0001F05FDE09C1E1FF0AC1E2FF62C1E6FFB5
:1003BC0007C100F008C101F054DE65C100F0016A0C
:1003CC0009C1E1FF0AC1E2FF00C0E6FF07C100F06E
:1003DC0008C101F046DE09C1E1FF0AC1E2FF64C1B8
:1003EC00E6FF07C100F008C101F03BDEF3C0E1FFFE
:1003FC00F4C0E2FF2B0EE66EF1C000F0F2C001F08B
:10040C0030DE67C100F0016A09C1E1FF0AC1E2FFF9
:10041C0000C0E6FF07C100F008C101F022DE09C1EF
:10042C00E1FF0AC1E2FF66C1E6FF07C100F008C1A7
:10043C0001F017DE69C100F0016A09C1E1FF0AC1D0
:10044C00E2FF00C0E6FF07C100F008C101F009DEC1
:10045C0009C1E1FF0AC1E2FF68C1E6FF07C100F074
:10046C0008C101F0FEDDF3C0E1FFF4C0E2FF2C0E89
:0E047C00E66EF1C000F0F2C001F0F3DD1200F8
:10048A00F3C0E1FFF4C0E2FF2A0EE66EF1C000F00D
:10049A00F2C001F0E7DD5BC100F0016A09C1E1FFCA
:1004AA000AC1E2FF00C0E6FF07C100F008C101F07F
:1004BA00D9DD09C1E1FF0AC1E2FF5AC1E6FF07C15E
:1004CA0000F008C101F0CEDDF3C0E1FFF4C0E2FFA5
:1004DA002B0EE66EF1C000F0F2C001F0C3DD5DC183
:1004EA0000F0016A09C1E1FF0AC1E2FF00C0E6FFAC
:1004FA0007C100F008C101F0B5DD09C1E1FF0AC179
:10050A00E2FF5CC1E6FF07C100F008C101F0AADD05
:10051A00F3C0E1FFF4C0E2FF2C0EE66EF1C000F07A
:08052A00F2C001F09FDD120098
:10053200F3C0E1FFF4C0E2FF2A0EE66EF1C000F064
:10054200F2C001F093DD09C1E1FF0AC1E2FF5BC124
:10055200E6FF07C100F008C101F088DD09C1E1FF33
:100562000AC1E2FF5AC1E6FF07C100F008C101F06B
:100572007DDDF3C0E1FFF4C0E2FF2B0EE66EF1C0B9
:1005820000F0F2C001F072DD09C1E1FF0AC1E2FF31
:100592005DC1E6FF07C100F008C101F067DD09C1D6
:1005A200E1FF0AC1E2FF5CC1E6FF07C100F008C13A
:1005B20001F05CDDF3C0E1FFF4C0E2FF2C0EE66E59
:0C05C200F1C000F0F2C001F051DD1200A9
:1005CE00F3C0E1FFF4C0E2FF2A0EE66EF1C000F0C8
:1005DE00F2C001F045DD5BC100F0016A09C1E1FF27
:1005EE000AC1E2FF00C0E6FF07C100F008C101F03A
:1005FE0037DD09C1E1FF0AC1E2FF5AC1E6FF07C1BB
:10060E0000F008C101F02CDDF3C0E1FFF4C0E2FF01
:10061E002B0EE66EF1C000F0F2C001F021DD5DC1DF
:10062E0000F0016A09C1E1FF0AC1E2FF00C0E6FF66
:10063E0007C100F008C101F013DD09C1E1FF0AC1D5
:10064E00E2FF5CC1E6FF07C100F008C101F008DD62
:10065E00F3C0E1FFF4C0E2FF2C0EE66EF1C000F035
:08066E00F2C001F0FDDC1200F6
:100676007F865BC18DFF7F9200007F825AC18DFF0E
:080686007F9200007F82120048
:10068E00F3C0E1FFF4C0E2FF2A0EE66EF1C000F007
:10069E00F2C001F0E5DC5BC100F0016A09C1E1FFC7
:1006AE000AC1E2FF00C0E6FF07C100F008C101F079
:1006BE00D7DC09C1E1FF0AC1E2FF5AC1E6FF07C15B
:1006CE0000F008C101F0CCDCF3C0E1FFF4C0E2FFA2
:1006DE002B0EE66EF1C000F0F2C001F0C1DC5DC180
:1006EE0000F0016A09C1E1FF0AC1E2FF00C0E6FFA6
:1006FE0007C100F008C101F0B3DC09C1E1FF0AC176
:10070E00E2FF5CC1E6FF07C100F008C101F0A8DC02
:10071E00F3C0E1FFF4C0E2FF2C0EE66EF1C000F074
:08072E00F2C001F09DDC120095
:100736000E01D8B509D01F0EDA15016E0150000A58
:0C07460003E1010E006E01D0006A1200F9
:0607520022C000F01200BD
:0E075800550E0E01006FAA0E006F00911200E8
:0E076600550E0E01006FAA0E006F00811200EA
:100774000B1E0A1E091E081E082AD8B4092AD8B45A
:080784000A2AD8B40B2A120066
:10078C000450085E0550D8A0053C095E0650D8A060
:10079C00063C0A5E0750D8A0073C0B5E0336070EDA
:1007AC000C6E0334083609360A360B36045003A097
:1007BC000ED0085E0550D8A0053C095E0650D8A0A6
:1007CC00063C0A5E0750D8A0073C0B5E0DD00826ED
:1007DC000550D8B0053C09260650D8B0063C0A2670
:1007EC000750D8B0073C0B2603360C2EDAD7023450
:1007FC00083609360A360B36045003A00ED0085EB4
:10080C000550D8A0053C095E0650D8A0063C0A5EEF
:10081C000750D8A0073C0B5E0DD008260550D8B069
:10082C00053C09260650D8B0063C0A260750D8B01D
:10083C00073C0B260236070E0C6E023408360936BE
:10084C000A360B36045002A00ED0085E0550D8A014
:10085C00053C095E0650D8A0063C0A5E0750D8A09D
:10086C00073C0B5E0DD008260550D8B0053C092678
:10087C000650D8B0063C0A260750D8B0073C0B26C9
:10088C0002360C2EDAD70134083609360A360B3606
:10089C00045002A00ED0085E0550D8A0053C095E9D
:1008AC000650D8A0063C0A5E0750D8A0073C0B5E49
:1008BC000DD008260550D8B0053C09260650D8B0F6
:1008CC00063C0A260750D8B0073C0B260136070E0B
:1008DC000C6E0134083609360A360B36045001A06A
:1008EC000ED0085E0550D8A0053C095E0650D8A075
:1008FC00063C0A5E0750D8A0073C0B5E0DD00826BC
:10090C000550D8B0053C09260650D8B0063C0A263E
:10091C000750D8B0073C0B2601360C2EDAD7003422
:10092C00083609360A360B36045001A00ED0085E84
:10093C000550D8A0053C095E0650D8A0063C0A5EBE
:10094C000750D8A0073C0B5E0DD008260550D8B038
:10095C00053C09260650D8B0063C0A260750D8B0EC
:10096C00073C0B260036070E0C6E00340836093691
:10097C000A360B36045000A00ED0085E0550D8A0E5
:10098C00053C095E0650D8A0063C0A5E0750D8A06C
:10099C00073C0B5E0DD008260550D8B0053C092647
:1009AC000650D8B0063C0A260750D8B0073C0B2698
:1009BC0000360C2EDAD700B00ED0045008260550A5
:1009CC00D8B0053C09260650D8B0063C0A2607507C
:0809DC00D8B0073C0B26120005
:1009E40094C04EF195C04FF196C050F197C051F1AB
:1009F40001014C6B4D6B4D51120802E14C518E08B4
:100A040008E397DE005201E004D001014C4B4D2B6A
:100A1400F2D70101120E4D5D02E18F0E4C5D03E32E
:100A24007B0E006E29D00E01DA810E01DAA123D0EB
:100A3400000194519511961197111CE001014E513A
:100A44004F11501151110FE1DAC0E1FFDBC0E2FF99
:100A5400050EE66ED8C000F0D9C001F037EC00F006
:100A6400010E006E09D0010E01014E5F000E4F5BB6
:0A0A7400505B515BDAD7006A1200F4
:100A7E0001014C513B0804E34C51350A01E003D00F
:100A8E00006AD9EF0AF04D51000AD8A4A6D14F53EF
:100A9E0001E05BDEB1D04EC152FE9BD14EC153FE82
:100AAE0098D14EC154FE95D14EC155FE92D14EC134
:100ABE0056FE8FD14EC157FE8CD14EC158FE89D1F4
:100ACE004EC159FE86D14EC15AFE83D14EC15BFE38
:100ADE0080D14EC15CFE7DD14EC15DFE7AD14EC13C
:100AEE005EFE77D14EC15FFE74D14EC160FE71D1F4
:100AFE004EC161FE6ED14EC162FE6BD14EC163FE20
:100B0E0068D14EC164FE65D14EC165FE62D14EC143
:100B1E0066FE5FD14EC167FE5CD14EC168FE59D1F3
:100B2E004EC169FE56D14EC16AFE53D14EC16BFE07
:100B3E0050D14EC16CFE4DD14EC16DFE4AD14EC14B
:100B4E006EFE47D14EC16FFE44D14EC170FE41D1F3
:100B5E004EC171FE3ED14EC172FE3BD14EC173FEEF
:100B6E0038D14EC174FE35D14EC175FE32D14EC153
:100B7E0076FE2FD14EC177FE2CD14EC178FE29D1F3
:100B8E004EC179FE26D14EC17AFE23D14EC17BFED7
:100B9E0020D14EC17CFE1DD14EC17DFE1AD14EC15B
:100BAE007EFE17D14EC17FFE14D14EC180FE11D1F3
:100BBE004EC181FE0ED14EC182FE0BD14EC183FEBF
:100BCE0008D14EC184FE05D14EC185FE02D14EC163
:100BDE0086FEFFD04EC188FEFCD04EC189FEF9D0F4
:100BEE004EC18AFEF6D04EC18BFEF3D04EC18CFEA6
:100BFE00F0D04EC18DFEEDD001014C51000AD8B49B
:100C0E004AD74C51010AD8B449D74C51020AD8B42C
:100C1E0048D74C51030AD8B447D74C51040AD8B41C
:100C2E0046D74C51050AD8B445D74C51060AD8B40C
:100C3E0044D74C51070AD8B443D74C51080AD8B4FC
:100C4E0042D74C51090AD8B441D74C510A0AD8B4EC
:100C5E0040D74C510B0AD8B43FD74C510C0AD8B4DC
:100C6E003ED74C510D0AD8B43DD74C510E0AD8B4CC
:100C7E003CD74C510F0AD8B43BD74C51100AD8B4BC
:100C8E003AD74C51110AD8B439D74C51120AD8B4AC
:100C9E0038D74C51130AD8B437D74C51140AD8B49C
:100CAE0036D74C51150AD8B435D74C51160AD8B48C
:100CBE0034D74C51170AD8B433D74C51180AD8B47C
:100CCE0032D74C51190AD8B431D74C511A0AD8B46C
:100CDE0030D74C511B0AD8B42FD74C511C0AD8B45C
:100CEE002ED74C511D0AD8B42DD74C511E0AD8B44C
:100CFE002CD74C511F0AD8B42BD74C51200AD8B43C
:100D0E002AD74C51210AD8B429D74C51220AD8B42B
:100D1E0028D74C51230AD8B427D74C51240AD8B41B
:100D2E0026D74C51250AD8B425D74C51260AD8B40B
:100D3E0024D74C51270AD8B423D74C51280AD8B4FB
:100D4E0022D74C51290AD8B421D74C512A0AD8B4EB
:100D5E0020D74C512B0AD8B41FD74C512C0AD8B4DB
:100D6E001ED74C512D0AD8B41DD74C512E0AD8B4CB
:100D7E001CD74C512F0AD8B41BD74C51300AD8B4BB
:100D8E001AD74C51310AD8B419D74C51320AD8B4AB
:100D9E0018D74C51330AD8B417D74C51340AD8B49B
:100DAE0016D74C51360AD8B415D74C51370AD8B489
:100DBE0014D74C51380AD8B413D74C51390AD8B479
:100DCE0012D74C513A0AD8B411D74C513B0AD8B469
:100DDE0010D701014F5301E0BFDC01014D51010A53
:100DEE00D8A453D14F5301E0B0DC8DD04CC101FEDD
:100DFE0047D14CC102FE44D14CC103FE41D14CC17E
:100E0E0004FE3ED14CC105FE3BD14CC106FE38D18D
:100E1E004CC107FE35D14CC108FE32D14CC109FE82
:100E2E002FD14CC10AFE2CD14CC10BFE29D14CC185
:100E3E000CFE26D14CC10DFE23D14CC10EFE20D18D
:100E4E004CC10FFE1DD14CC110FE1AD14CC100FE7B
:100E5E0017D14CC101FE14D14CC102FE11D14CC1AF
:100E6E0003FE0ED14CC104FE0BD14CC105FE08D1C0
:100E7E004CC106FE05D14CC107FE02D14CC108FE85
:100E8E00FFD04CC109FEFCD04CC10AFEF9D04CC1BA
:100E9E000BFEF6D04CC10CFEF3D04CC10DFEF0D0C3
:100EAE004CC10EFEEDD04CC10FFEEAD04CC110FE6F
:100EBE00E7D04CC111FEE4D04CC112FEE1D04CC1C2
:100ECE0013FEDED04CC114FEDBD04CC115FED8D0C3
:100EDE004CC116FED5D04CC117FED2D04CC118FE57
:100EEE00CFD04CC119FECCD04CC11AFEC9D04CC1CA
:100EFE001BFEC6D04CC11CFEC3D04CC11DFEC0D0C3
:100F0E004CC11EFEBDD001014E51000AD8B46ED7A1
:100F1E004E51010AD8B46DD74E51020AD8B46CD7CF
:100F2E004E51030AD8B46BD74E51040AD8B46AD7BF
:100F3E004E51050AD8B469D74E51060AD8B468D7AF
:100F4E004E51070AD8B467D74E51080AD8B466D79F
:100F5E004E51090AD8B465D74E510A0AD8B464D78F
:100F6E004E510B0AD8B463D74E510C0AD8B462D77F
:100F7E004E510D0AD8B461D74E510E0AD8B460D76F
:100F8E004E510F0AD8B45FD74E51100AD8B45ED75F
:100F9E004E51110AD8B45DD74E51120AD8B45CD74F
:100FAE004E51130AD8B45BD74E51140AD8B45AD73F
:100FBE004E51150AD8B459D74E51160AD8B458D72F
:100FCE004E51170AD8B457D74E51180AD8B456D71F
:100FDE004E51190AD8B455D74E511A0AD8B454D70F
:100FEE004E511B0AD8B453D74E511C0AD8B452D7FF
:100FFE004E511D0AD8B451D74E511E0AD8B450D7EF
:10100E004E511F0AD8B44FD74E51200AD8B44ED7DE
:10101E004E51210AD8B44DD74E51220AD8B44CD7CE
:10102E004E51230AD8B44BD74E51240AD8B44AD7BE
:10103E004E51250AD8B449D74E51260AD8B448D7AE
:10104E004E51270AD8B447D74E51280AD8B446D79E
:10105E004E51290AD8B445D74E512A0AD8B444D78E
:10106E004E512B0AD8B443D74E512C0AD8B442D77E
:10107E004E512D0AD8B441D74E512E0AD8B440D76E
:10108E0001014F5302E0B3EC03F09DD101014DB1CC
:10109E0002D0819001D0818083D201014DB102D066
:1010AE00819201D081827CD201014DB102D0819416
:1010BE0001D0818475D201014DB102D0819601D04B
:1010CE0081866ED201014DB102D0819801D0818806
:1010DE0067D201014DB102D0819A01D0818A60D2CE
:1010EE0001014DB102D0819C01D0818C59D20101F8
:1010FE004DB102D0819E01D0818E52D201014DB1EF
:10110E0002D0829001D082804BD201014DB102D02B
:10111E00829201D0828244D201014DB102D08294DA
:10112E0001D082843DD201014DB102D0829601D010
:10113E00828636D201014DB102D0829801D08288CA
:10114E002FD201014DB102D0829A01D0828A28D2CB
:10115E0001014DB102D0829C01D0828C21D20101BD
:10116E004DB102D0829E01D0828E1AD201014DB1B4
:10117E0002D0839001D0838013D201014DB102D0F1
:10118E00839201D083820CD201014DB102D083949F
:10119E0001D0838405D201014DB102D0839601D0D6
:1011AE008386FED101014DB102D0839801D0838890
:1011BE00F7D101014DB102D0839A01D0838AF0D1CB
:1011CE0001014DB102D0839C01D0838CE9D1010184
:1011DE004DB102D0839E01D0838EE2D101014DB17B
:1011EE0002D0849001D08480DBD101014DB102D0B8
:1011FE00849201D08482D4D101014DB102D0849465
:10120E0001D08484CDD101014DB102D0849601D09C
:10121E008486C6D101014DB102D0849801D0848854
:10122E00BFD101014DB102D0849A01D0848AB8D1C8
:10123E0001014DB102D0849C01D0848CB1D1010149
:10124E004DB102D0849E01D0848EAAD101014DB140
:10125E0002D0859001D08580A3D101014DB102D07D
:10126E00859201D085829CD101014DB102D0859429
:10127E0001D0858495D101014DB102D0859601D062
:10128E0085868ED101014DB102D0859801D0858819
:10129E0087D101014DB102D0859A01D0858A80D1C6
:1012AE0001014DB102D0859C01D0858C79D101010F
:1012BE004DB102D0859E01D0858E72D101014DB106
:1012CE0002D0869001D086806BD101014DB102D043
:1012DE00869201D0868264D101014DB102D08694EE
:1012EE0001D086845DD101014DB102D0869601D028
:1012FE00868656D101014DB102D0869801D08688DE
:10130E004FD101014DB102D0869A01D0868A48D1C3
:10131E0001014DB102D0869C01D0868C41D10101D4
:10132E004DB102D0869E01D0868E3AD101014DB1CB
:10133E0002D0879001D0878033D101014DB102D008
:10134E00879201D087822CD101014DB102D08794B2
:10135E0001D0878425D101014DB102D0879601D0ED
:10136E0087861ED101014DB102D0879801D08788A2
:10137E0017D101014DB102D0879C01D0878C10D1BD
:10138E0001014DB102D0879E01D0878E09D1010196
:10139E004DB102D0889001D0888002D101014DB1AB
:1013AE0002D0889201D08882FBD001014DB102D0CB
:1013BE00889401D08884F4D001014DB102D0889672
:1013CE0001D08886EDD001014C51000AD8B45ED60A
:1013DE004C51010AD8B461D64C51020AD8B464D625
:1013EE004C51030AD8B467D64C51040AD8B46AD605
:1013FE004C51050AD8B46DD64C51060AD8B470D6E5
:10140E004C51070AD8B473D64C51080AD8B476D6C4
:10141E004C51090AD8B479D64C510A0AD8B47CD6A4
:10142E004C510B0AD8B47FD64C510C0AD8B482D684
:10143E004C510D0AD8B485D64C510E0AD8B488D664
:10144E004C510F0AD8B48BD64C51100AD8B48ED644
:10145E004C51110AD8B491D64C51120AD8B494D624
:10146E004C51130AD8B497D64C51140AD8B49AD604
:10147E004C51150AD8B49DD64C51160AD8B4A0D6E4
:10148E004C51170AD8B4A3D64C51180AD8B4A6D6C4
:10149E004C51190AD8B4A9D64C511A0AD8B4ACD6A4
:1014AE004C511B0AD8B4AFD64C511C0AD8B4B2D684
:1014BE004C511D0AD8B4B5D64C511E0AD8B4B8D664
:1014CE004C511F0AD8B4BBD64C51200AD8B4BED644
:1014DE004C51210AD8B4C1D64C51220AD8B4C4D624
:1014EE004C51230AD8B4C7D64C51240AD8B4CAD604
:1014FE004C51250AD8B4CDD64C51260AD8B4D0D6E4
:10150E004C51270AD8B4D3D64C51280AD8B4D6D6C3
:10151E004C51290AD8B4D9D64C512A0AD8B4DCD6A3
:10152E004C512B0AD8B4DFD64C512C0AD8B4E2D683
:10153E004C512D0AD8B4E5D64C512E0AD8B4E8D663
:10154E004C512F0AD8B4EBD64C51300AD8B4EED643
:10155E004C51310AD8B4F1D64C51320AD8B4F4D623
:10156E004C51330AD8B4F7D64C51340AD8B4FAD603
:10157E004C51360AD8B4FDD64C51370AD8B400D7E0
:10158E004C51380AD8B403D74C51390AD8B406D7BF
:10159E004C513A0AD8B409D74C513B0AD8B40CD79F
:0615AE00FF0E006E1200AA
:1015B400086A096A100E0C6E0134083609360450A4
:1015C400085E0550D8A0053C095ED8B007D0045089
:1015D40008260550D8B0053C0926D89000360136B7
:0615E4000C2EEAD71200F4
:1015EA0094C04EF195C04FF196C050F197C051F199
:1015FA000E013695DA870E0136B521D000019451D5
:10160A009511961197111AE001014E514F1150117F
:10161A0051110DE1DAC0E1FFDBC0E2FF030EE66E15
:10162A00D8C000F0D9C001F037EC00F008D0010EA4
:10163A0001014E5F000E4F5B505B515BDCD701012D
:10164A00D5CE4DF14C51000A03E10E01DA8B02D0DE
:10165A000E01DA9B3695DA8994C04EF195C04FF1A6
:10166A0096C050F197C051F10E0136B521D0000154
:10167A0094519511961197111AE001014E514F118B
:10168A00501151110DE1DAC0E1FFDBC0E2FF030E98
:10169A00E66ED8C000F0D9C001F037EC00F008D0EF
:1016AA00010E01014E5F000E4F5B505B515BDCD7B0
:0616BA004DC100F012001A
:0616C0000E01DA851200A4
:1016C6000E0136954CC1D5FE94C04DF195C04EF134
:1016D60096C04FF197C050F10E01D8A523D0000156
:1016E60094519511961197111CE001014D514E111F
:1016F6004F1150110FE1DAC0E1FFDBC0E2FF040E2B
:10170600E66ED8C000F0D9C001F037EC00F0010E4B
:10171600006E3ED0010E01014D5F000E4E5B4F5B29
:10172600505BDAD794C04DF195C04EF196C04FF19B
:1017360097C050F10E0136B523D000019451951192
:10174600961197111CE001014D514E114F11501188
:101756000FE1DAC0E1FFDBC0E2FF040EE66ED8C09F
:1017660000F0D9C001F037EC00F0010E006E10D089
:10177600010E01014D5F000E4E5B4F5B505BDAD7E9
:101786000E01DABD02D0006A03D0DA85020E006EC1
:0217960012003F
:10179800800E01014D19006E800E005C02E1000E02
:1017A8004C5D0BE30001A55101014D5D04E1000111
:1017B800A45101014C5D01E201D056D0800E4F19B1
:1017C800006E800E005C02E1000E4E5D0BE300012E
:1017D800BA5101014F5D04E10001B95101014E5DAB
:1017E80001E201D041D07E94A9EC03F000521BE045
:1017F80013C1E1FF14C1E2FF4CC1E6FF4DC1E6FF92
:101808004EC1E6FF4FC1E6FF4CC1E6FF4DC1E6FF02
:101818004EC1E6FF4FC1E6FF11C100F012C101F051
:1018280037EC00F012D0EBC0E1FFECC0E2FF4CC196
:10183800E6FF4DC1E6FF4EC1E6FF4FC1E6FFE9C036
:1018480000F0EAC001F037EC00F0EFC0E1FFF0C0B3
:10185800E2FF50C1E6FF51C1E6FFEDC000F0EEC067
:0A18680001F037EC00F07E8412005E
:101872004CC1DCF04DC1DDF04EC1DEF0020E0101C3
:101882004C25F66E000E4D21F76E000E4E21F86EBD
:101892000900F5CF04F0030E4C25F66E000E4D2123
:1018A200F76E000E4E21F86E0900F5CF03F003C06B
:1018B20001F0006A045000240001FE6F000E0120B6
:1018C200FF6F040E01014C25F66E000E4D21F76EDE
:1018D200000E4E21F86E0900F5CF04F0050E4C25DE
:1018E200F66E000E4D21F76E000E4E21F86E0900C5
:1018F200F5CF03F003C001F0006A04500024016F29
:10190200000E0120026F060E4C25F66E000E4D21D0
:10191200F76E000E4E21F86E0900F5CFF9F0000EB9
:101922000001FA6F4FC1FCF050C1FDF051C1FBF054
:08193200010EA06FBD6B120055
:10193A00220E0C6E086A096A0A6A0B6A0C06D8B487
:10194A001FD0D8900B320A320932083203320232DF
:10195A0001320032D8A0F2D70C06D8B409D004500C
:10196A0008260550092206500A2207500B22EAD7F8
:10197A00045008260550092206500A2207500B2255
:02198A00120049
:10198C000450000A12E10550000A0FE10650000A4B
:10199C000CE10750000A09E1FF0E006EFF0E016E0C
:1019AC00FF0E026E7F0E036E99D00C6A07BE0C2AD6
:1019BC000D6A0B6A0A6A096A086A03500210011060
:1019CC000010D8B485D0035007180E6E0EBE0D1E35
:1019DC0007AE0BD0041E051E061E071E042AD8B423
:1019EC00052AD8B4062AD8B4072A03AE0BD0001E99
:1019FC00011E021E031E002AD8B4012AD8B4022AE2
:101A0C00D8B4032A035007100E6E0EBE1DD0C6ECC0
:101A1C0003F00CBE36D00DAE5BD0001E011E021EB4
:101A2C00031E002AD8B4012AD8B4022AD8B4032A37
:101A3C00081E091E0A1E0B1E082AD8B4092AD8B47F
:101A4C000A2AD8B40B2A44D007AE15D003BE0DD049
:101A5C0003500B6E02500A6E0150096E0050086E56
:101A6C00036A026A016A006AD6D7036A026A016ACB
:101A7C00006A002A000C031E021E011E001E0C8EA2
:101A8C00C6D7082AD8B4092AD8B40A2AD8B40B2A3B
:101A9C000450085CD8A4BFD70550095CD8A4BBD7A8
:101AAC0006500A5CD8A4B7D707500B5CD8A4B3D7A0
:101ABC000B6A0A6A096A086A002AD8B4012AD8B4DF
:101ACC00022AD8B4032A03AEA6D70E6A0E88FF0CDE
:0E1ADC000E6A0CA002D0BAEC03F0000F12004C
:101AEA004CC101F00132019E0132019E0132019E78
:101AFA0001C04CF10B0E006E01C004F0000E056E21
:101B0A00005005E0043604900536FF0FFAD74DC1A0
:101B1A0003F00332039E0332039E03C04DF1050E08
:101B2A00026E03C000F0000E016E025005E000369E
:101B3A0000900136FF0FFAD700500410026E0550CC
:101B4A000110036E4EC100F00032009E0032009E6A
:101B5A000032009E00C04EF1000E016E02500012CB
:061B6A00035001121200FD
:101B7000DF0E0101586F000E596F000E006E5151BB
:101B8000005C02E15051000844E2F7C0E1FFF8C0F8
:101B9000E2FF4CC1E6FF4DC1E6FF4EC1E6FF4FC17B
:101BA000E6FF50C1E6FF51C1E6FF540EE66E010E9E
:101BB000E66EF5C000F0F6C001F037EC00F000C0B2
:101BC00056F101C057F10101526B536B5551535DF2
:101BD00002E15451525D11E256C1E9FF57C1EAFFDB
:101BE00058C1E1FF59C1E2FFEECFE6FF584B592B38
:101BF000564B572B524B532BE9D75451505F5551ED
:101C0000515B54514C2755514D23000E4E234F2309
:041C1000B4D7120033
:101C14000B0E006E4CC102F04DC103F0005005E004
:101C240003320232039EFF0FFAD7030E016E02C085
:101C340000F0015004E000360090FF0FFBD74EC1C6
:101C4400E1FF4FC1E2FF00C0E6FF050E006E4CC18C
:101C540002F04DC103F0005005E003320232039E4E
:101C6400FF0FFAD702C000F0003600900036009053
:101C740050C1E1FF51C1E2FF00C0E6FF030E016E57
:101C84004CC100F0015004E000360090FF0FFBD778
:0E1C940052C1E1FF53C1E2FF00C0E6FF1200A3
:101CA2000B6A0A6A096A00500402F4CF09F0F3CF02
:101CB20008F001500502F4CF0BF0F3CF0AF0005008
:101CC2000502F3500926F4500A22E86A0B22015059
:101CD2000402F3500926F4500A22E86A0B2208C0D3
:101CE20000F009C001F00AC002F00BC003F01200BC
:101CF20032C14CF133C14DF134C14EF1010E01013B
:081D02004F6F3FEC05F01200E9
:0E1D0A0032C1A6F033C1A7F034C1A8F0120018
:101D18000101336BF2EC04F03A0E01014C6FCFDC99
:101D280032C14CF1CCDCF2EC04F03B0E01014C6FFB
:101D3800C6DC01014C6B55DC00C033F1BDDC33C19E
:041D480000F0120095
:101D4C0001013C6B3D6B3E6B3F6B0001A051000AE7
:101D5C000DE15A0E01014C6F3D0E4D6F000E4E6F92
:101D6C004F6B506B516B7FDD010EA06FFF5101016A
:101D7C00335D04E10001FE510101325D01E22BD122
:101D8C003351025D02E13251015D01E224D10001C7
:101D9C00FE510101325D016E0001FF510101335909
:101DAC00026E01C003F002C004F003360390043647
:101DBC00033603900436080E0001DC25006E000E7D
:101DCC00DD21016E000EDE21026E000E056E00504C
:101DDC000326015004220250052203C0F6FF04C062
:101DEC00F7FF05C0F8FF0900F5CF3CF1010E032405
:101DFC00F66E000E0420F76E000E0520F86E09003A
:101E0C00F5CF00F000C006F0000E076E086E096EEC
:101E1C00020E0324F66E000E0420F76E000E052051
:101E2C00F86E0900F5CF03F003C001F0006A000E54
:101E3C00026E036E06500026075001220850022243
:101E4C0009500322DC5100240101396F0001DD51DE
:101E5C00012001013A6F0001DE51022001013B6FAC
:101E6C000001FB51000A04E0FB51020A01E05DD0C5
:101E7C00BBC036F1BCC037F10101356B000E006EF2
:101E8C000001FA51005C03E1F9510101355D39E2C1
:101E9C000101BEC03DF1BFC03EF1386B346B3C510B
:101EAC00345D2BE23851000A10E139C1F6FF3AC11A
:101EBC00F7FF3BC1F8FF0900F5CF3FF1010E3927C1
:101ECC00000E3A233B23010E386F38513F15006E3C
:101EDC000DE03DC14CF13EC14DF136C14EF137C163
:101EEC004FF1FCC050F1FDC051F150DC01013D4BF4
:101EFC003E2B38373891342BD2D7364B372B352BEA
:101F0C00BDD70001FB51000A0BE1010E01013D257B
:101F1C000001BE6F000E01013E210001BF6F04D015
:101F2C0036C1BBF037C1BCF056D0BEC036F1BFC015
:101F3C0037F10101356B000E006E0001FA51005CA7
:101F4C0003E1F9510101355D3CE20101BBC03DF1FA
:101F5C00BCC03EF1386B346B3C51345D2EE23851D1
:101F6C00000A10E139C1F6FF3AC1F7FF3BC1F8FF97
:101F7C000900F5CF3FF1010E3927000E3A233B2320
:101F8C00010E386F38513F15006E0EE036C14CF122
:101F9C0037C14DF13DC14EF13EC14FF1FCC050F186
:101FAC00FDC051F1CCEC0BF0010E01013D5F000EB8
:101FBC003E5B38373891342BCFD7364B372B352BFC
:101FCC00BAD70101010E3D5D0001BB6F000E01018E
:081FDC003E590001BC6F120028
:101FE40032C1BEF033C1BFF034C1BBF035C1BCF067
:021FF4001200D9
:101FF6000101476B486B496B4A6B0001FF510101B8
:10200600335D04E10001FE510101325D01E2EED1D2
:102016003351025D02E13251015D01E2E7D1000177
:10202600FE510101325D036E0001FF51010133597A
:10203600046E03C000F004C001F0003600900136C3
:10204600003600900136080E03254C6F000E042161
:102056004D6F000E05214E6F000E06214F6F00508A
:102066004C2701504D23000E4E234F23040E506F74
:10207600000E516F7ADDDF0E456F000E466F45C1CB
:10208600E9FF46C1EAFFEECF4BF14BC147F1010E26
:102096004525E96E000E4621EA6EEECF04F0000EED
:1020A600056E066E076E020E4525E96E000E462188
:1020B600EA6EEECF03F003C001F0006A000E026E76
:1020C600036E0450002605500122065002220750D6
:1020D600032200500325396F015004213A6F025044
:1020E60005213B6F035006213C6F4BC100F00032C7
:1020F600009E0032009E0032009E000E016EF9C066
:1021060004F0FAC005F0CADD00C03FF101C040F19D
:10211600070E4B15006E08E00001F95101013F273B
:102126000001FA51010140233FC143F140C144F18E
:10213600F7C0E1FFF8C0E2FF39C1E6FF3AC1E6FFAA
:102146003BC1E6FF3CC1E6FF3FC1E6FF40C1E6FFFB
:102156003D0EE66E010EE66EF5C000F0F6C001F02B
:1021660037EC00F000C045F101C046F101013D51D8
:1021760039273E513A23000E3B233C233D513F5F16
:102186003E51405B416B426B0001FB51000A04E08B
:10219600FB51020A01E099D0BBC036F1BCC037F151
:1021A6000101356B000E006E0001FA51005C03E17F
:1021B600F9510101355DD8B074D00101BEC048F1B6
:1021C600BFC049F1386B346B4751345D66E2385114
:1021D600000A4AE1414B422B44513E5D02E1435124
:1021E6003D5D38E242513E5D02E141513D5D32E2E4
:1021F600010E416F000E426FF7C0E1FFF8C0E2FF2B
:1022060039C1E6FF3AC1E6FF3BC1E6FF3CC1E6FF46
:102216003FC1E6FF40C1E6FF3D0EE66E010EE66EEB
:10222600F5C000F0F6C001F037EC00F000C045F153
:1022360001C046F13FC143F140C144F101013D51A6
:1022460039273E513A23000E3B233C233D513F5F45
:102256003E51405B45C1E9FF46C1EAFFEECF4AF178
:10226600454B462B010E386F38514A15006E0EE06D
:1022760048C14CF149C14DF136C14EF137C14FF15C
:10228600FCC050F1FDC051F1CCEC0BF00101484B04
:10229600492B38373891342B97D7364B372B352B7C
:1022A60081D70001FB51000A0BE1010E010148250F
:1022B6000001BE6F000E010149210001BF6F04D06D
:1022C60036C1BBF037C1BCF091D0BEC036F1BFC03D
:1022D60037F10101356B000E006E0001FA51005C0A
:1022E60003E1F9510101355DD8B076D00101BBC0DB
:1022F60048F1BCC049F1386B346B4751345D68E234
:102306003851000A4AE1414B422B44513E5D02E1FD
:1023160043513D5D38E242513E5D02E141513D5D32
:1023260032E2010E416F000E426FF7C0E1FFF8C0C6
:10233600E2FF39C1E6FF3AC1E6FF3BC1E6FF3CC119
:10234600E6FF3FC1E6FF40C1E6FF3D0EE66E010E29
:10235600E66EF5C000F0F6C001F037EC00F000C004
:1023660045F101C046F13FC143F140C144F10101CD
:102376003D5139273E513A23000E3B233C233D5124
:102386003F5F3E51405B45C1E9FF46C1EAFFEECFE4
:102396004AF1454B462B010E386F38514A15006EEF
:1023A6000EE036C14CF137C14DF148C14EF149C17D
:1023B6004FF1FCC050F1FDC051F1CCEC0BF0010E19
:1023C6000101485F000E495B38373891342B95D7A9
:1023D600364B372B352B7FD70101010E485D0001A7
:0E23E600BB6F000E010149590001BC6F1200CF
:1023F400800E01013519006E800E3319005C02E174
:102404003251345D0CE232C138F133C139F134C197
:1024140032F135C133F138C134F139C135F1800EAF
:102424003319006E800E005C02E1000E325D03E29F
:10243400326B336B0BD00001BA510101335D04E1FF
:102444000001B9510101325D01E389D0800E3519D3
:10245400006E800E005C02E1000E345D01E27FD06C
:102464000001BA510101355D04E10001B9510101D6
:10247400345D0AE3010E0001B95D0101346F000E01
:102484000001BA590101356F010E3A6F3A5100014A
:10249400A85D65E33AC13BF1000E01013C6F010EFA
:1024A4003B15016E3CC102F0000E0216000E02182C
:1024B40002E1000E011806E13B5100083B6F3C515C
:1024C400000E3C573BC100F03CC101F00132003228
:1024D400019E01BC018E00C03BF101C03CF10050E3
:1024E4003625026E01503721036E800E0318006EEC
:1024F400800E005C02E1000E025C0EE33B513625C7
:10250400016E3C513721026E0001A551025C02E1CB
:10251400A451015C01E201D01FD032C138F133C1B2
:1025240039F101013951355D02E13851345D14E36B
:102534003B5136254C6F3C5137214D6F38C14EF11C
:1025440039C14FF1A6C050F1A7C051F1CCEC0BF04A
:102554000101384B392BE5D701013A2B97D71200EB
:10256400000E0101371902E1000E361905E132C1EE
:1025740000F033C101F09CD03751391902E13851D0
:10258400361905E134C100F035C101F091D032C1F2
:102594004CF133C14DF13A0E4E6F010E4F6F3C0EAC
:1025A400506F010E516F3E0E526F010E536F0AECC5
:1025B4000EF034C14CF135C14DF13B0E01014E6FAB
:1025C400010E4F6F3D0E506F010E516F3F0E526F53
:1025D400010E536F0AEC0EF036C104F037C105F05A
:1025E400000E066E076E3BC100F0000E016E010185
:1025F4003A51005E000E015A000E01BEFF0E026E3B
:10260400036E9DEC0CF038C104F039C105F0000EE6
:10261400066E076EC6EC0CF0005001013A254C6FB3
:1026240036C104F037C105F0000E066E076E3DC1D9
:1026340000F0000E016E3C51005E000E015A000EC7
:1026440001BEFF0E026E036E9DEC0CF038C104F067
:1026540039C105F0000E066E076EC6EC0CF0005092
:1026640001013C254D6F36C104F037C105F0000E61
:10267400066E076E3FC100F0000E016E3E51005E13
:10268400000E015A000E01BEFF0E026E036E9DEC99
:102694000CF038C104F039C105F0000E066E076E67
:1026A400C6EC0CF0005001013E254E6F75EC0DF0A8
:0226B400120012
:1026B6000101366B050E365D0AE236513425E16EB0
:1026C600000E3521E26E200EE66E362BF3D736511C
:1026D6003425E16E000E3521E26EE66A3607365184
:1026E6003425376F000E3521386F0A0E046E000E42
:1026F600056E32C100F033C101F0DAEC0AF008C011
:1027060000F009C001F0300E002637C1E1FF38C1E4
:10271600E2FF00C0E6FF0A0E046E000E056E32C12F
:1027260000F033C101F0DAEC0AF000C032F101C06A
:1027360033F1000E011802E1000E001801E102D08B
:062746003607CDD712009A
:10274C00800E01013519006E800E3319005C02E118
:10275C003251345D0CE232C138F133C139F134C13C
:10276C0032F135C133F138C134F139C135F1800E54
:10277C003319006E800E005C02E1000E325D03E244
:10278C00326B336B0BD00001A5510101335D04E1B9
:10279C000001A4510101325D01E3EED0800E351928
:1027AC00006E800E005C02E1000E345D01E2E4D0AC
:1027BC000001A5510101355D04E10001A4510101A5
:1027CC00345D0AE3010E0001A45D0101346F000EBB
:1027DC000001A5590101356F010E3A6F3A51000104
:1027EC00A85DD8A0C9D03AC13BF1000E01013C6FE5
:1027FC00010E3B15016E3CC102F0000E0216000EDC
:10280C00021802E1000E011806E13B5100083B6F73
:10281C003C51000E3C573BC100F03CC101F0013271
:10282C000032019E01BC018E00C03BF101C03CF1A5
:10283C0000503625026E01503721036E800E0318AE
:10284C00006E800E005C02E1000E025C0EE33B5158
:10285C003625016E3C513721026E0001BA51025CE3
:10286C0002E1B951015C01E201D083D02150000A90
:10287C0063E17E94A9EC03F0005226E001013B5188
:10288C003625026E3C513721036E02C000F003C0A6
:10289C0001F013C1E1FF14C1E2FF32C1E6FF33C105
:1028AC00E6FF02C0E6FF03C0E6FF34C1E6FF35C118
:1028BC00E6FF00C0E6FF01C0E6FF11C100F012C147
:1028CC0001F037EC00F019D001013B513625006EB8
:1028DC003C513721016EEBC0E1FFECC0E2FF32C18D
:1028EC00E6FF33C1E6FF00C0E6FF01C0E6FFE9C02A
:1028FC0000F0EAC001F037EC00F032C138F133C11E
:10290C0039F101013951355D02E13851345D12E381
:10291C00EFC0E1FFF0C0E2FFA6C0E6FFA7C0E6FFF4
:10292C00EDC000F0EEC001F037EC00F00101384BC7
:10293C00392BE7D77E841DD032C138F133C139F140
:10294C0001013951355D02E13851345D12E338C172
:10295C004CF139C14DF136C14EF137C14FF1A6C022
:10296C0050F1A7C051F1CCEC0BF00101384B392BD5
:0A297C00E7D701013A2B32D7120011
:10298600090E0B6E1E0E0C6EE40E0D6E0D2EFED78E
:0C2996000C2EFCD70B2EFAD7000012000C
:1029A200D00E0C6EC90E0D6E0D2EFED70C2EFCD75E
:0629B2000000000012000D
:0C29B8000E01D89DD89F380ED96F120078
:0629C4001FC000F012002C
:1029CA001E0E0101326F336B1B0E346F79EC0EF061
:1029DA001D0E0101326F336B1C0E346F79EC0EF051
:1029EA001E0E0101326F010E336F2C0E346F79EC1B
:1029FA000EF01D0E0101326F010E336F2D0E346F72
:062A0A0079EC0EF0120051
:102A1000809688967F8687967E8486948790879214
:102A20007F807F828086BDDF8096ADDF8086ABDFD2
:102A3000B8DFB7DF7E94F3C0E1FFF4C0E2FF110E10
:102A4000E66EF1C000F0F2C001F037EC00F09BDF61
:102A5000A8DFA7DFF3C0E1FFF4C0E2FF360EE66EA9
:102A6000F1C000F0F2C001F037EC00F009C1E1FF65
:102A70000AC1E2FFE66A07C100F008C101F037ECC5
:102A800000F0F3C0E1FFF4C0E2FF3A0EE66EF1C0E1
:102A900000F0F2C001F037EC00F009C1E1FF0AC11B
:102AA000E2FF050EE66E07C100F008C101F037EC49
:102AB00000F0F3C0E1FFF4C0E2FFB20EE66EF1C039
:102AC00000F0F2C001F037EC00F009C1E1FF0AC1EB
:102AD000E2FF0C0EE66E07C100F008C101F037EC12
:102AE00000F009C1E1FF0AC1E2FF0C0EE66E07C16A
:102AF00000F008C101F037EC00F009C1E1FF0AC1A4
:102B0000E2FFE66A07C100F008C101F037EC00F00F
:102B100009C1E1FF0AC1E2FF330EE66E07C100F012
:102B200008C101F037EC00F009C1E1FF0AC1E2FF82
:102B3000330EE66E07C100F008C101F037EC00F07B
:102B4000F3C0E1FFF4C0E2FFB70EE66EF1C000F0A3
:102B5000F2C001F037EC00F009C1E1FF0AC1E2FF69
:102B6000700EE66E07C100F008C101F037EC00F00E
:102B7000F3C0E1FFF4C0E2FFBB0EE66EF1C000F06F
:102B8000F2C001F037EC00F009C1E1FF0AC1E2FF39
:102B90001B0EE66E07C100F008C101F037EC00F033
:102BA000F3C0E1FFF4C0E2FFC00EE66EF1C000F03A
:102BB000F2C001F037EC00F009C1E1FF0AC1E2FF09
:102BC0002C0EE66E07C100F008C101F037EC00F0F2
:102BD000F3C0E1FFF4C0E2FFC20EE66EF1C000F008
:102BE000F2C001F037EC00F009C1E1FF0AC1E2FFD9
:102BF000010EE66E07C100F008C101F037EC00F0ED
:102C0000F3C0E1FFF4C0E2FFC30EE66EF1C000F0D6
:102C1000F2C001F037EC00F009C1E1FF0AC1E2FFA8
:102C20000B0EE66E07C100F008C101F037EC00F0B2
:102C3000F3C0E1FFF4C0E2FFC40EE66EF1C000F0A5
:102C4000F2C001F037EC00F009C1E1FF0AC1E2FF78
:102C5000270EE66E07C100F008C101F037EC00F066
:102C6000F3C0E1FFF4C0E2FFC60EE66EF1C000F073
:102C7000F2C001F037EC00F009C1E1FF0AC1E2FF48
:102C80000F0EE66E07C100F008C101F037EC00F04E
:102C9000F3C0E1FFF4C0E2FFD00EE66EF1C000F039
:102CA000F2C001F037EC00F009C1E1FF0AC1E2FF18
:102CB000A40EE66E07C100F008C101F037EC00F089
:102CC00009C1E1FF0AC1E2FFA10EE66E07C100F0F3
:102CD00008C101F037EC00F0F3C0E1FFF4C0E2FFFF
:102CE000E00EE66EF1C000F0F2C001F037EC00F04B
:102CF00009C1E1FF0AC1E2FFD00EE66E07C100F094
:102D000008C101F037EC00F009C1E1FF0AC1E2FFA0
:102D1000060EE66E07C100F008C101F037EC00F0C6
:102D200009C1E1FF0AC1E2FF0B0EE66E07C100F028
:102D300008C101F037EC00F009C1E1FF0AC1E2FF70
:102D4000090EE66E07C100F008C101F037EC00F093
:102D500009C1E1FF0AC1E2FF080EE66E07C100F0FB
:102D600008C101F037EC00F009C1E1FF0AC1E2FF40
:102D7000300EE66E07C100F008C101F037EC00F03C
:102D800009C1E1FF0AC1E2FF300EE66E07C100F0A3
:102D900008C101F037EC00F009C1E1FF0AC1E2FF10
:102DA0005B0EE66E07C100F008C101F037EC00F0E1
:102DB00009C1E1FF0AC1E2FF4B0EE66E07C100F058
:102DC00008C101F037EC00F009C1E1FF0AC1E2FFE0
:102DD000180EE66E07C100F008C101F037EC00F0F4
:102DE00009C1E1FF0AC1E2FF140EE66E07C100F05F
:102DF00008C101F037EC00F009C1E1FF0AC1E2FFB0
:102E0000140EE66E07C100F008C101F037EC00F0C7
:102E100009C1E1FF0AC1E2FF2C0EE66E07C100F016
:102E200008C101F037EC00F009C1E1FF0AC1E2FF7F
:102E3000320EE66E07C100F008C101F037EC00F079
:102E4000F3C0E1FFF4C0E2FFE10EE66EF1C000F076
:102E5000F2C001F037EC00F009C1E1FF0AC1E2FF66
:102E6000D00EE66E07C100F008C101F037EC00F0AB
:102E700009C1E1FF0AC1E2FF050EE66E07C100F0DD
:102E800008C101F037EC00F009C1E1FF0AC1E2FF1F
:102E90000A0EE66E07C100F008C101F037EC00F041
:102EA00009C1E1FF0AC1E2FF0A0EE66E07C100F0A8
:102EB00008C101F037EC00F009C1E1FF0AC1E2FFEF
:102EC000070EE66E07C100F008C101F037EC00F014
:102ED00009C1E1FF0AC1E2FF280EE66E07C100F05A
:102EE00008C101F037EC00F009C1E1FF0AC1E2FFBF
:102EF000320EE66E07C100F008C101F037EC00F0B9
:102F000009C1E1FF0AC1E2FF2C0EE66E07C100F025
:102F100008C101F037EC00F009C1E1FF0AC1E2FF8E
:102F2000490EE66E07C100F008C101F037EC00F071
:102F300009C1E1FF0AC1E2FF180EE66E07C100F009
:102F400008C101F037EC00F009C1E1FF0AC1E2FF5E
:102F5000130EE66E07C100F008C101F037EC00F077
:102F600009C1E1FF0AC1E2FF130EE66E07C100F0DE
:102F700008C101F037EC00F009C1E1FF0AC1E2FF2E
:102F80002C0EE66E07C100F008C101F037EC00F02E
:102F900009C1E1FF0AC1E2FF330EE66E07C100F08E
:102FA00008C101F037EC00F0F3C0E1FFF4C0E2FF2C
:102FB000210EE66EF1C000F0F2C001F037EC00F037
:102FC000F3C0E1FFF4C0E2FF2A0EE66EF1C000F0AC
:102FD000F2C001F037EC00F009C1E1FF0AC1E2FFE5
:102FE000E66A07C100F008C101F037EC00F009C142
:102FF000E1FF0AC1E2FFE66A07C100F008C101F083
:1030000037EC00F0A5C000F0016A09C1E1FF0AC178
:10301000E2FF00C0E6FF07C100F008C101F037EC95
:1030200000F009C1E1FF0AC1E2FFA4C0E6FF07C149
:1030300000F008C101F037EC00F0F3C0E1FFF4C08C
:10304000E2FF2B0EE66EF1C000F0F2C001F037ECAB
:1030500000F009C1E1FF0AC1E2FFE66A07C100F022
:1030600008C101F037EC00F009C1E1FF0AC1E2FF3D
:10307000E66A07C100F008C101F037EC00F0BAC001
:1030800000F0016A09C1E1FF0AC1E2FF00C0E6FFEA
:1030900007C100F008C101F037EC00F009C1E1FF01
:1030A0000AC1E2FFB9C0E6FF07C100F008C101F0A4
:1030B00037EC00F0F3C0E1FFF4C0E2FF360EE66E3D
:1030C000F1C000F0F2C001F037EC00F00001A251B5
:1030D0005A0A1DE143EC00F000520DE009C1E1FF86
:1030E0000AC1E2FFC00EE66E07C100F008C101F0A0
:1030F00037EC00F00BD009C1E1FF0AC1E2FFE66A3C
:1031000007C100F008C101F037EC00F01DD043EC1E
:1031100000F000520DE009C1E1FF0AC1E2FFA00E7C
:10312000E66E07C100F008C101F037EC00F00CD0EA
:1031300009C1E1FF0AC1E2FF600EE66E07C100F0BF
:1031400008C101F037EC00F0F3C0E1FFF4C0E2FF8A
:10315000290EE66EF1C000F0F2C001F037EC00F08D
:10316000F3C0E1FFF4C0E2FF2C0EE66EF1C000F008
:0C317000F2C001F037EC00F07E84120089
:10317C001FC10EF120C10FF121C110F122C10DF1BF
:10318C0023C100F124C10BF125C10CF126C115F1AD
:06319C0027C116F112002C
:1031A200350E0101326F8CEC0EF000C01FF1000EE3
:1031B2000101206F340E326F8CEC0EF01FC103F050
:1031C200026A02C01FF103C020F1000E016E02501C
:1031D20000120350011200C01FF101C020F11200C1
:1031E2000001A5510101225D04E10001A451010188
:1031F200215D01E348D00001BA510101245D04E1DF
:103202000001B9510101235D01E33DD0256B266B1D
:1032120021C132F122C133F123C134F124C135F18C
:10322200F2EC0FF025511F25E96E26512021EA6E9E
:10323200EE5229E00001BD5313E0010125511F2583
:10324200E96E26512021EA6EEECF32F1000E336F85
:10325200000E336FFBEC0FF00101254B262B12D031
:10326200010125511F25E96E26512021EA6EEECF7C
:1032720032F1000E336F000E336FA6EC0EF0010137
:08328200254B262BCFD71200CB
:10328A00370E0101326F8CEC0EF000C01FF1000EF8
:10329A000101206F360E326F8CEC0EF01FC103F065
:1032AA00026A02C01FF103C020F1000E016E025033
:1032BA0000120350011200C01FF101C020F11200D8
:1032CA00A8C000F00032009E005001011F5D016E8F
:1032DA00000E2059026E01C02EF102C02FF1800E9D
:1032EA000218006E800E005C02E1000E015C03E22F
:1032FA002E6B2F6B14D00001A55101012F5D04E143
:10330A000001A45101012E5D0AE3010E0001A45D32
:10331A0001012E6F000E0001A55901012F6F000156
:10332A00A805036E046A000E045A03C000F004C024
:10333A0001F001320032019E01BC018E00500101F0
:10334A002325026E01502421036E02C030F103C00E
:10335A0031F1800E0318006E800E005C02E1000E4F
:10336A00025C03E2306B316B14D00001A5510101FC
:10337A00315D04E10001A4510101305D0AE3010E4F
:10338A000001A45D0101306F000E0001A559010181
:10339A00316F0001A85338E02EC132F12FC133F149
:1033AA0030C134F131C135F121C136F122C137F1D1
:1033BA00A6EC13F02EC132F12FC133F130C134F132
:1033CA0031C135F125C136F126C137F1A6EC13F02A
:1033DA0021C132F122C133F125C134F126C135F1BF
:1033EA001FC136F120C137F1FAEC11F021C132F1D7
:1033FA0022C133F125C134F126C135F123C136F199
:10340A0024C137F1FAEC11F001010E53D8B4E0D01F
:10341A00A6C02BF1A7C02CF1A8C02DF10001A8511C
:10342A00010F036E046A000E042203C000F004C0F8
:10343A0001F001320032019E01BC018E00500101EF
:10344A001F27015020230050212701502223020E5A
:10345A000001A825036E046A000E042203C000F0CE
:10346A0004C001F001320032019E01BC018E0050FD
:10347A000101235F0150245B0050255F0150265B48
:10348A000D53D8B47BD00051000A3CE121C129F187
:10349A0022C12AF12A51265D02E12951255D31E333
:1034AA000BC132F10CC133F115C134F116C135F13A
:1034BA002151295D366F22512A59376F2151255DD5
:1034CA00386F22512659396FB2EC12F000C032F12E
:1034DA0001C033F1010E0101346F85EC0EF01FC1FA
:1034EA0032F120C133F123C134F124C135F129C1AC
:1034FA0036F12AC137F1A6EC13F00101294B2A2B28
:10350A00C9D73BD01FC127F120C128F12851245D1A
:10351A0002E12751235D31E30BC132F10CC133F1D2
:10352A0015C134F116C135F11F51275D366F20518F
:10353A002859376F1F51235D386F20512459396F2D
:10354A00B2EC12F000C032F101C033F1010E0101F8
:10355A00346F85EC0EF021C132F122C133F125C15D
:10356A0034F126C135F127C136F128C137F1FAEC19
:10357A0011F00101274B282BC9D724D00FC132F1F2
:10358A0010C133F1010E346F85EC0EF021C129F11F
:10359A0022C12AF12A51265D02E12951255D12E351
:1035AA001FC132F120C133F123C134F124C135F1F5
:1035BA0029C136F12AC137F1A6EC13F00101294BD2
:1035CA002A2BE8D72BC1A6F02CC1A7F02DC1A8F051
:0235DA001200DD
:1035DC000101256B266B1FC127F120C128F1800E3C
:1035EC002019006E800E005C02E1000E1F5D0BE2E4
:1035FC00010E256F000E266F1F510008276F20C18A
:10360C0028F1000E285727C132F128C133F121C10E
:10361C0034F122C135F15BEC13F0060E236F000E72
:10362C00246F000E006E2451005C02E1235100084F
:10363C0019E223512125E16E24512221E26E010E63
:10364C00235D006E000E2459016E00502125E96E99
:10365C0001502221EA6EEECFE6FF010E235F000E31
:10366C00245BDFD721C1E1FF22C1E2FF200EE66E11
:10367C00255126111AE0236B246B23512125E96E69
:10368C0024512221EA6EEE50200A03E1234B242B15
:10369C00F4D7010E235F000E245B23512125E16E2C
:0C36AC0024512221E26E2D0EE66E120069
:1036B800F2EC04F03A0E01014C6F63EC0BF01FC101
:1036C8004CF163EC0BF020C14CF163EC0BF060ECB7
:0436D8000BF01200E1
:1036DC00330E0101326F8CEC0EF000C01FF1000EA6
:1036EC000101206F320E326F8CEC0EF01FC103F013
:1036FC00026A02C01FF103C020F1000E016E0250DD
:10370C0000120350011200C01FF101C020F1120081
:10371C00A00E01011F6F000E206F820E216F000E94
:10372C00226FC80E236F000E246F910E256F000EB2
:10373C00266FC5DD980E1F6F000E206F8C0E216F4B
:10374C00000E226F820E236F000E246F44DD1BC00F
:10375C001FF11CC020F1A90E216F000E226F38DF63
:10376C00A90E1F6F000E206FA00E216F000E226F8E
:10377C00820E236F000E246F2EDD090E0B6E1E0EB3
:10378C000C6EE40E0D6E0D2EFED70C2EFCD70B2EF0
:06379C00FAD70000120044
:1037A200778E0900F5CFE6FF0006FBE10106F9E19D
:0237B200120003
:1037B400E2EC14F00050010A1BE0520E0001F16F1C
:1037C400000EF26F6E0EF36F010EF46F600E0101C6
:1037D400076F000E086F6E0E096F010E0A6F760EEA
:1037E4000001ED6F060EEE6F5A0EEF6F010EF06FD3
:1037F40017C1A4F018C1A5F019C1B9F01AC1BAF0E3
:1038040001011A51185D02E11951175D03E300012A
:10381400A26B03D000015A0EA26F0101326B336B0D
:10382400010E346F85EC0EF01F6B206B216B226B45
:10383400236B246B256B266B276B9EDC326B336BFF
:10384400346B356BF2EC0FF00001BD6B856A08EC4C
:1038540015F08A0E0001E96F040EEA6F5A0EEB6F41
:06386400010EEC6F1200E2
:0C386A001F6A206A216A0001A16B120095
:10387600A00E01011F6F000E206FA00E216F000E1B
:10388600226FC80E236F000E246FAF0E256F000E39
:10389600266F18DD9C0E1F6F000E206F8C0E216F99
:1038A600000E226FA00E236F000E246F97DC1DC042
:1038B6001FF11EC020F1A90E216F000E226F8BDEB4
:1038C600A90E1F6F000E206FA00E216F000E226F33
:1038D600A00E236F000E246F81DC090E0B6E1E0EE8
:1038E6000C6EE40E0D6E0D2EFED70C2EFCD70B2E95
:0638F600FAD700001200E9
:1038FC007E94A9EC03F0005224E0010E0001A45DBB
:10390C00026E000EA559036E010EB95D006E000E1D
:10391C00BA59016E13C1E1FF14C1E2FFE66AE66A0F
:10392C00E66AE66A02C0E6FF03C0E6FF00C0E6FFF7
:10393C0001C0E6FF11C100F012C101F037EC00F03C
:10394C000ED0EBC0E1FFECC0E2FFE66AE66AE66A85
:10395C00E66AE9C000F0EAC001F037EC00F00101C2
:10396C00196B1A6B0001BA5101011A5D04E10001D7
:10397C00B9510101195D21E21B6B1C6B0001A551B2
:10398C0001011C5D04E10001A45101011B5D12E267
:10399C00EFC0E1FFF0C0E2FF17C1E6FF18C1E6FF80
:1039AC00EDC000F0EEC001F037EC00F001011B4B54
:0E39BC001C2BE4D7194B1A2BD5D77E84120092
:1039CA002D0E01011F6F206B72DE0101326B8CEC30
:1039DA000EF00050E50A03E0020E006E19D0310E17
:1039EA0001011F6F080E206F62DE2C0E01011F6F8E
:1039FA000A0E206F5CDE380E01011F6F800E206FE9
:103A0A0056DE2D0E01011F6F080E206F50DE006A70
:023A1A00120098
:103A1C0001011D6B1E6B1B6B1C6B196B1A6B176BEF
:103A2C00186B800E1819006E800E005C02E1100EEF
:103A3C00175D16E24DDE00500101192701501A23C3
:103A4C00D1EC18F0005001011B2701501C2317DC8E
:103A5C00005001011D2701501E23174B182BE1D7D5
:103A6C00040E006E19C119F01AC11AF0005007E0CB
:103A7C001A3219321A9E1ABC1A8EFF0FF8D7040E7E
:103A8C00006E1BC11BF01CC11CF0005007E01C3267
:103A9C001B321C9E1CBC1C8EFF0FF8D7040E006E34
:103AAC001DC11DF01EC11EF0005007E01E321D325C
:0C3ABC001E9E1EBC1E8EFF0FF8D71200CD
:103AC800A00E01011F6F000E206F640E216F000E03
:103AD800226FC80E236F000E246F730E256F000E21
:103AE800266F65EC19F0150E1F6F000E206F8C0EF7
:103AF800216F000E226F640E236F000E246FF1EC0D
:103B080018F019C01FF11AC020F1A90E216F000E7C
:103B1800226F60DDA90E1F6F000E206FA00E216FAF
:103B2800000E226F640E236F000E246FF1EC18F064
:103B3800090E0B6E1E0E0C6EE40E0D6E0D2EFED7CA
:0C3B48000C2EFCD70B2EFAD70000120048
:103B5400360E0001C46F070EC56F000EC66F000E4F
:103B6400C76FE40EC06F090EC16F000EC26F000E66
:103B7400C36FFF0ED46FFF0ED56F000ED66F000E0D
:103B8400D76FEA0ED06F150ED16F4C0ED26F010EA7
:103B9400D36FC60ECC6F160ECD6F4C0ECE6F010ECA
:103BA400CF6FC00EC86F160EC96F000ECA6F000E1D
:103BB400CB6FE5EC14F017C11FF118C120F119C146
:0C3BC40021F11AC122F1DCEC14F0120017
:103BD00031EC23F00D0E0B6E2D0E0C6ED70E0D6E0C
:103BE0000D2EFED70C2EFCD70B2EFAD700000000AE
:103BF0000E01926B9A6BA76BAF6BBC6BB46B35DE2F
:103C0000400E0101176F010E186FF00E196F000EB4
:103C10001A6FD0DDA00E0E01D66F9CDFFF0E0101E2
:103C2000176F0F0E186F6ADEFF0E326F0F0E336FB5
:103C3000010E346F85EC0EF0010E1F6FFF0E206F2A
:103C40000F0E216F226B236B246B256B266B276B6A
:103C5000BEEC18F0230E1F6F000E206F5A0E216F5E
:103C6000000E226F640E236F000E246FF1EC18F02B
:103C7000A30E0B6E570E0C6E020E0D6E0D2EFED7A0
:103C80000C2EFCD70B2EFAD70000FF0E176F0F0E6D
:103C9000186F34DE9ADE0050000A22E17A0E01012C
:103CA0001F6F000E206F500E216F000E226F640EEA
:103CB000236F000E246FF1EC18F0A30E0B6E570E5D
:103CC0000C6E020E0D6E0D2EFED70C2EFCD70B2E99
:103CD000FAD70000FF0E176F0F0E186F0FDE0FD010
:103CE0000101500E1F6F000E206F460E216F000E57
:103CF000226F640E236F000E246FF1EC18F00D0E8E
:103D00000B6E2D0E0C6ED70E0D6E0D2EFED70C2EDB
:103D1000FCD70B2EFAD7000000003A0E1F6F000EE2
:103D2000206F500E216F000E226F460E236F000E83
:103D3000246FF1EC18F072DEC7DEF0DC9CDD410E82
:103D40000B6EF00E0C6E330E0D6E0D2EFED70C2E7C
:0A3D5000FCD70B2EFAD7E1D7FFD7FE
:1046620010EE15F08F0E006E010E016ED20EF66E78
:0E467200450EF76E000EF86ED1EC1BF0120034
:103D5A00000020007F001000018801000398010084
:103D6A0005A8010008B8010007C801000DD8010024
:103D7A000AF80100031802000528020005380200AB
:103D8A000748020009580200037802000588020069
:103D9A000398020006A8020007B8020007C802003A
:103DAA0007D8020007E8020007F802000708030024
:103DBA000718030007280300073803000748030011
:103DCA0003580300036803000978030009980300F5
:103DDA0009B8030006D8030009E80300090804002B
:103DEA00072804000738040008480400065804009D
:103DFA000668040007780400088804000498040090
:103E0A0005A8040007B8040006C804000AD804007C
:103E1A0007F8040008080500071805000828050027
:103E2A000838050007480500065805000768050018
:103E3A00087805000C88050008A8050008B80500E0
:103E4A0006C8050005D8050006E8050005F80500BE
:103E5A000908060008280600053806000748060073
:103E6A000758060006680600077806000788060055
:103E7A000598060007A8060007B8060002C806004B
:103E8A0003D8060006E8060002F806000A0807003A
:103E9A0007280700073807000748070007580700E0
:103EAA0005680700067807000588070007980700D5
:103EBA0007A807000AB8070006D8070007E807009E
:103ECA0006F8070006080800041808000628080073
:103EDA000A3808000B580800000000000000000023
:103EEA0000000000000000000000000006060606B0
:103EFA0006060006060000000000001B1B1B1B0034
:103F0A000000000000000000000000004848FEFE1B
:103F1A00247F7F1212000000000008083E4B0B0BA2
:103F2A003E6868693E0808000000000000000000C2
:103F3A001E0033023301B3005E0FA01990198819CD
:103F4A00000F000000000000000000000000000058
:103F5A003C006600660066003C036603C601C600B4
:103F6A00BC03000000000000000000060606060070
:103F7A000000000000000000000000180C0C0606FB
:103F8A0006060606060C0C18000000060C0C18188B
:103F9A0018181818180C0C06000000185A3C5A1861
:103FAA000000000000000000000000000000000007
:103FBA000000200020002000FC012000200020003A
:103FCA0000000000000000000000000000000000E7
:103FDA0000000006060303000000000000000000C5
:103FEA001F000000000000000000000000000000A8
:103FFA000000000606000000000000202010100843
:10400A000804040202010100000000003E63636329
:10401A00636363633E00000000000000181E181866
:10402A00181818187E000000000000003E61616048
:10403A0030180C067F000000000000003E6160603E
:10404A003C6060613E0000000000000030383432FD
:10405A00317F303030000000000000007E06063E4E
:10406A00606060613E000000000000003C06033F03
:10407A00636363633E000000000000007F6030302D
:10408A0018180C0C0C000000000000003E6363636B
:10409A003E6363633E000000000000003E6363630A
:1040AA00637E60301E00000000000000000006066B
:1040BA0000000006060000000000000000000606DE
:1040CA0000000006060303000000000000000000D4
:1040DA000000800160001800060006001800600059
:1040EA008001000000000000000000000000000045
:1040FA0000000000FE0100000000FE0100000000B8
:10410A0000000000000000000000000000000000A5
:10411A00000006001800600080018001600018009D
:10412A000600000000000000000000001E313018E8
:10413A000C0C000C0C000000000000000000000045
:10414A007C00820079016D016D016D016D01D9005C
:10415A000200FC0000000000000000000000000057
:10416A00380038006C006C00C600FE00C6008301EF
:10417A008301000000000000000000003F63636349
:10418A003F6363633F000000000000003E434303B7
:10419A00030343433E000000000000003F63C3C323
:1041AA00C3C3C3633F000000000000003F030303D2
:1041BA001F0303033F000000000000003F03030346
:1041CA001F03030303000000000000003E434303F3
:1041DA00736363637E00000000000000C3C3C3C3AF
:1041EA00FFC3C3C3C3000000000000000F06060699
:1041FA00060606060F000000000000001E18181828
:10420A00181818180F0000000000000063331B0F75
:10421A00070F1B33630000000000000003030303C1
:10422A00030303033F000000000000000000000039
:10423A00870387034D034D03390339031103110320
:10424A0001030000000000000000000047474D4D38
:10425A005959717161000000000000007EC3C3C398
:10426A00C3C3C3C37E000000000000003F63636352
:10427A00633F030303000000000000007EC3C3C3C2
:10428A00C3C3C3C37E60C000000000003F63636312
:10429A003F1B3363C3000000000000003E4343039A
:1042AA003E6061613E000000000000003F0C0C0C03
:1042BA000C0C0C0C0C00000000000000636363632C
:1042CA00636363633E00000000000000C3C3C3666B
:1042DA00663C3C18180000000000000000000000C6
:1042EA00630C630C630CF30CF6069E079E070C0323
:1042FA000C0300000000000000000000C3C3663C7D
:10430A00183C66C3C300000000000000C3C3666611
:10431A003C18181818000000000000003F30301840
:10432A000C0603033F0000000000001E06060606F6
:10433A000606060606061E00000000010102020427
:10434A0004080810102020000000001E1818181871
:10435A001818181818181E000000000000000000A5
:10436A003000480084000201000000000000000044
:10437A000000000000000000000000000000000033
:10438A00000000000000FF000000000C1800000000
:10439A0000000000000000000000000000003C6275
:1043AA00607E63637E0000000000000303033B6736
:1043BA00636363633F0000000000000000001E23E7
:1043CA00030303231E0000000000006060607E6398
:1043DA00636363736E0000000000000000003E6328
:1043EA00637F03433E0000000000001C06060F0620
:1043FA0006060606060000000000000000007E63B4
:10440A00636363736E60613E0000000303033B67EE
:10441A006363636363000000000000030300030397
:10442A00030303030300000000000006060007065A
:10443A000606060606060603000000030303331BEE
:10444A000F070F1B330000000000000303030303E0
:10445A000303030303000000000000000000000043
:10446A0000000000DF013303330333033303330354
:10447A0033030000000000000000000000003B675A
:10448A0063636363630000000000000000003E6392
:10449A00636363633E0000000000000000003B67A6
:1044AA00636363633F0303030000000000007E634D
:1044BA00636363736E6060600000000000001B1F8E
:1044CA0003030303030000000000000000001E2392
:1044DA00071E38311E0000000000000006061F06F5
:1044EA00060606061C0000000000000000006363C8
:1044FA00636363736E0000000000000000006363E2
:10450A006336361C1C00000000000000000000009A
:10451A000000000033033303B601B601CE01CC001C
:10452A00CC0000000000000000000000000033334F
:10453A001E0C1E33330000000000000000006363FD
:10454A006336361C1C180C0C0000000000003F30BB
:10455A00180C06033F000000000000380C0C0C0C7D
:10456A00070C0C0C0C0C38000000000C0C0C0C0C8A
:10457A000C0C0C0C0C0C0C00000000070C0C0C0CA6
:10458A00380C0C0C0C0C07000000000000000000A6
:10459A000000000000001E023F02F103E1010000DA
:1045AA000000000000000000000000000000FE07FC
:1045BA0002040204020402040204020402040204C1
:0845CA00FE07000000000000E4
:0445D200583A200033
:0645D600000000000000DF
:0245DC000000DD
:0145DE0000DC
:0145DF0000DB
:1045E0005374617274696E6720416363656C2074F3
:0745F0006573742E2E2E00EE
:1045F70052656164696E6720617869732076616CC2
:06460700756573203A0006
:10460D004572726F7220647572696E6720416363C3
:10461D00656C206D6F64756C6520696E6974696178
:0A462D006C697A6174696F6E2E00EB
:10463700416363656C206D6F64756C6520696E6995
:0A4647007469616C697A65642E00E5
:044651000000000065
:04465500593A2000AE
:044659005A3A2000A9
:01465D00005C
:01465E00005B
:01465F00005A
:014660000059
:020000040030CA
:0C000000220923B70B3FFF170300FF028B
:00000001FF
